:020000040800F2
:10000000000400200D6E0008C96D0008CB6D0008CB
:10001000CD6D0008CF6D0008D16D00080000000014
:10002000000000000000000000000000D36D000888
:10003000D56D000800000000D76D0008D96D0008DC
:100040005D6E000800000000616E0008656E00082B
:10005000696E00086D6E00080000000000000000DE
:10006000716E0008756E0008796E000800000000CF
:10007000000000007D6E000800000000000000008D
:10008000816E0008856E0008896E00088D6E00087C
:10009000916E0008956E0008996E00089D6E00082C
:1000A000A16E0008A56E0008A96E0008AD6E0008DC
:1000B000B16E0008B56E0008B96E0008BD6E00088C
:1000C000C16E0008C56E0008C96E0008CD6E00083C
:1000D000D16E0008D56E0008D96E0008DD6E0008EC
:1000E000E16E0008E56E0008E96E0008ED6E00089C
:1000F000F16E0008F56E0008F96E0008FD6E00084C
:10010000016F0008056F0008096F00080D6F0008F7
:10011000116F0008156F0008196F00081D6F0008A7
:10012000216F0008256F0008296F00082D6F000857
:10013000316F0008356F0008396F00083D6F000807
:10014000416F0008456F0008496F00084D6F0008B7
:10015000516F0008556F0008596F00085D6F000867
:10016000616F0008656F0008696F00086D6F000817
:10017000716F0008756F0008796F00087D6F0008C7
:10018000816F0008856F0008896F00088D6F000877
:10019000916F0008956F0008996F00089D6F000827
:1001A000A16F0008A56F0008A96F0008AD6F0008D7
:1001B000B16F0008B56F0008B96F0008BD6F000887
:1001C000C16F0008C56F0008C96F0008CD6F000837
:1001D000D16F0008D56F0008D96F0008DD6F0008E7
:1001E000E16F0008E56F0008E96F0008ED6F000897
:1001F000F16F0008F56F000800000000000000002B
:10020000F96F0008FD6F0008017000080570000814
:10021000097000080D7000081170000815700008C2
:10022000197000081D700008217000082570000872
:10023000297000082D700008317000083570000822
:10024000397000083D7000084170000845700008D2
:10025000497000084D700008517000085570000882
:10026000597000085D700008617000086570000832
:10027000697000086D7000087170000875700008E2
:10028000797000087D700008817000088570000892
:10029000897000088D700008917000089570000842
:1002A000997000089D700008A1700008A5700008F2
:1002B0002DE9F14FB0B0924604910DF142013A9A06
:1002C0002B9199464A7000200AE01AF8011B049805
:1002D000309A90470028049000F06A860D98401CE0
:1002E0000D909AF8000050B12528EED1002100228F
:1002F0000791089209910A920B910C9204E00D98D3
:1003000000F058BE41F001011AF8010F2028F9D081
:1003100023280CD02B2804D02D2805D0302809D034
:100320000BE041F00201EFE741F00401ECE741F09E
:100330000801E9E741F01001E6E72A280FD1D9F8D2
:10034000002052F8040BC9F8002000280F9003D5B4
:1003500040420F9041F004010AF1010A14E00F92AB
:10036000DFF8583C0AE00F98984205DA00EB800469
:1003700002EB4402303A0F920AF1010A9AF8002087
:10038000A2F130000A28EED39AF800002E2803D0FC
:100390004FF0FF320E9229E01AF8010F2A2809D1F6
:1003A000D9F8000050F8042BC9F800000E920AF1A9
:1003B000010A1BE02D280CBF0AF1010A00200022CF
:1003C0000E92DFF8F84B0BE040B90E9AA24205DA24
:1003D00002EB820503EB4503303B0E930AF1010A61
:1003E0009AF80030A3F130020A2AEDD3ADF840109C
:1003F0000FF6CC309AF8001000F006FF08B11AF89A
:10040000010B8DF842009DF84200682805D19AF84A
:10041000000068280CD1622106E06C2804BF9AF81D
:1004200000006C2804D171218DF842100AF1010AF4
:1004300012A806901AF801BBBBF125012CD01C397B
:1004400000F0D681091F022940F2D281133900F051
:10045000E184093900F0CC81891E00F07685491EBF
:1004600000F02385491E022940F2C281091F00F0D5
:100470001C85491F00F03181491E00F0CB84491EC4
:1004800000F0D880C91E0DD0891E00F0C384C91E9B
:1004900000F0C08400F064BD25238DF848300121B0
:1004A00000F069BDD9F8000050F8044BC9F800000D
:1004B000002C059440F0AB802B994878002800F080
:1004C000A1804FF0FF340FF6003000F0B5FE201A87
:1004D00040F06E8500F050BD01236A4602A9304607
:1004E00000F042FE002840F063856D1EF4D1309686
:1004F000079D12AF75B1309E17F8012B02A9304647
:1005000000F022FE002801D46D1EF5D1002830969F
:1005100040F04E850A9D3020002D8DF800000CDD46
:10052000309E01236A4602A9304600F01DFE0028D5
:1005300040F03E856D1EF4D13096059F089D75B143
:10054000309E17F8012B02A9304600F0FDFD00286F
:1005500001D46D1EF5D10028309640F029850B9D01
:100560003020002D8DF800000CDD309E01236A46FE
:1005700002A9304600F0F8FD002840F019856D1EF4
:10058000F4D1309605980899099D471875B1309EA9
:1005900017F8012B02A9304600F0D6FD002801D43F
:1005A0006D1EF5D10028309640F002850C9D30205C
:1005B000002D8DF800000CDD309E01236A4602A953
:1005C000304600F0D1FD002840F0F2846D1EF4D1D9
:1005D00030969DF8400041077FF583AE2020002C27
:1005E0008DF800007FF77DAE309D01236A4602A999
:1005F000284600F0B9FD002840F0DA84641EF4D1EA
:1006000030956EE60FF6C030059000F0B5BC0E9D3B
:10061000002D04D5204600F02FFE044607E02A46B0
:10062000204600F033FE002814BF041B2C4608941B
:1006300000F0A2BCD9F8001051F8040BC9F8001062
:1006400020F00004002121F0FF3512ABCDE9024576
:100650000593DDE9022306993C2413B90AB90E98E3
:10066000A0B102F00F05641E30353A2D08DA1209E8
:100670000D5542EA03721B0908BF002A02D105E0AA
:100680002735F4E705980D19A842EAD30819059013
:10069000C4F13C020E98089282420ADABDF840107A
:1006A000821A4FF6EF7001400A92ADF8401000F048
:1006B00063BC002840F160849DF8400000F0140005
:1006C000102840F059840F9B07990A985B1A1B1A4F
:1006D0009A1A002A40F350849AE32B99487820B163
:1006E0004FF0FF340FF6B020EFE69DF8420062288D
:1006F00060D0682817D06A283FD06C2806D07128AF
:1007000047D074282CD07A281DD062E0D9F8001088
:1007100051F8040BC9F80010002866D14FF0FF34DF
:100720000FF68C20D1E6D9F8001051F8040BC9F867
:10073000001020B94FF0FF340FF67420C5E60D9974
:10074000018000F019BCD9F8001051F8040BC9F869
:100750000010002849D14FF0FF340FF65420B4E6C2
:10076000D9F8001051F8040BC9F8001000283CD14A
:100770004FF0FF340FF63820A7E6D9F8001051F8F3
:10078000040BC9F8001080B94FF0FF340FF6202099
:100790009BE6D9F8001051F8040BC9F8001020B9F5
:1007A0004FF0FF340FF608208FE60D9AD317C0E9FB
:1007B0000023E1E3D9F8001051F8040BC9F8001048
:1007C00020B94FF0FF340FF6E8107EE60D99017066
:1007D000D2E3D9F8001051F8040BC9F8001020B981
:1007E0004FF0FF340FF6C8106FE60D990160C3E3B8
:1007F000D9F80020D21D22F00702C9F80020D2E962
:1008000000010832C9F80020CDE90201C80F02D06A
:1008100007982D210AE0BDF84000810702D507980E
:100820002B2103E0C00705D50798202112AA1154F7
:10083000401C079012A80799DDE9024543184BF0C8
:1008400020006128059321AE0BD00E98002802D518
:1008500006200E9005E001BF4BF020006728012123
:100860000E91DDE9020148004015401C0A460DD1F9
:1008700009030BD0ABF1610703201A2F089002D2B5
:100880000FF648110DE00FF648110AE070B9120397
:100890000CD1ABF1610703201A2F08901CD30FF67F
:1008A00038110322184600F01DFD65E3DDE9020161
:1008B0006A4600F023FDCDE902014BF020006128DB
:1008C00011D1059830210170821C0592BBF1610F96
:1008D0000CBF7821582102E00FF6F801E1E74170E2
:1008E0000798801C0790DDE9020120F0000231F03A
:1008F000004308BF002A02D10025002445E14BF047
:100900002008B8F1610F40F095800E98002847BF8D
:1009100021210191401C0190019F7F1C2046294606
:1009200000220023DDE9024500F020FD38BF85F0FC
:10093000004500998DF88420091F002F00910DF1CA
:10094000850034DD0646204629460022002300F0BB
:1009500027FD2BD21C2200F03DFD04460D4600F081
:10096000BBFDFF1F002F804609DD00F0BCFD0246E5
:100970000B462046294600F0BDFD04460D46F01DFD
:100980000721B8F1000F0CDD491E5EBF08F00F0211
:1009900000F8012D4FEA2818F3D502E0002200F8F4
:1009A000012D491EFAD5C61D002FCCDC30460DF1B5
:1009B0008501401A01990DF1850605468842C8BF98
:1009C0000D46002D2FD4854206DA0DF18500415DDC
:1009D0000829A8BF0F2000DA0020294621AA0A44CE
:1009E00000E06D1E12F80139491E8342F9D00F282C
:1009F00004D10DF18500425C521C4254002904D5FB
:100A00000098001D21AE6D1C0090681E0BD431189B
:100A10000A783032D3B23A2BA4BF5A443A3A401E35
:100A200001F80129F4D50E98002840F1AD80691E27
:100A30000E91A9E00099DFF8002747F29750414353
:100A400091FBF2F2009225F00045C2F10702002A64
:100A500004DD2046294600F04BFB0BE0524200200B
:100A6000DFF8D81600F044FB02460B462046294624
:100A700000F049FD04460D46B8F1660F06BF009F21
:100A80000A3706270E983F18142FC8BF14273020A6
:100A90008DF884000DF1850000E03046002F35DD33
:100AA00006462046294600F037FD01460A4606F173
:100AB000080304200A26B2FBF6F606EB860EA2EB2C
:100AC0004E02303203F8012C0A22B6FBF2F202EB9E
:100AD000820EA6EB4E063036401E03F8026DE9D1B9
:100AE000083F002F03F10806D7DD084600F01BFD84
:100AF00002460B462046294600F0FCFC0022DFF8A7
:100B0000403600F017FD04460D46CAE70DF1850199
:100B1000401A0DF1850604E00099491E401E00911F
:100B2000761C31783029F7D0B8F1660F02D10099E0
:100B3000491C04E0B8F1650F0CBF012100210E9D96
:100B40004D19A842B8BF451E002D1DD4854204DAB8
:100B5000705D3428C8BF392000DC30202946721E61
:100B6000531800E06D1E13F80149491E8442F9D064
:100B7000392802D1705C401C7054002904D50098BB
:100B8000401C16466D1C0090009C00F0DDFC406A85
:100B90000778DDF8388028B2002802DC01250FF242
:100BA0003C664BF02000662808BF641C16D06728FE
:100BB00046D120B210F1040F48DB404546DA9DF8DB
:100BC0004000641C010703D428B24045D8BF8046CA
:100BD00020B2B8EB000848BF4FF000080FFA84FBC2
:100BE000BBF1000F00F3B5800898411C089130223A
:100BF00005990A54B8F1000F03DC9DF84000010785
:100C000004D50898411C089105990F5418EB0B0F57
:100C1000B8BFC8F1000424B26042A0442AB20B90CD
:100C20009045B8BF4546059B08982DB209952A46C0
:100C30003146184400F056FBA8EB05000C90D2E0BA
:100C4000BBF1610F17D14FF0700B19E028B240458E
:100C500004DA9DF840100A0758BF8046B8F1010831
:100C600048BF4FF00008BBF1670F14BF4FF0450BB2
:100C70004FF0650B04E0BBF1410F08BF4FF0500B84
:100C80000898411C0891B8F1000F059916F8012B3E
:100C90000A5403DC9DF8400001071AD50898411C4E
:100CA0000891B8F1000F05990F5412DD6D1E28B29E
:100CB0008045B8BF45460598089B2AB2314618447E
:100CC00000F010FB08992DB269180891A8EB0500F7
:100CD0000B9005980899084421B2002980F800B0CB
:100CE00003D42B224270821C04E02D2242700C4659
:100CF000821C644200212CAB20460AE004460A20F4
:100D000094FBF0F000EB8005A4EB450403F8014BE5
:100D1000491C00B20028F1DC012906DC4BF0200060
:100D2000652804BF302002F8010B00292CAB08D144
:100D3000302002F8010B06E0491E585C303002F802
:100D4000010B0029F8DC059908980844121A099249
:100D500049E028B221B288421CDA0598089B2AB2E1
:100D60003146184400F0BEFA08992DB2691808916E
:100D7000ABEB0500B8F1000F0B9003DC9DF84000D1
:100D8000020704D5059847540999491C0991CDF8E3
:100D9000308028E00598089B22B23146184400F0C4
:100DA000A1FA08982D1B5844B8F1000F089003DCF5
:100DB0009DF840100A0703D5411C089105990F546E
:100DC00028B28045B8BF45460598089B2AB206EB75
:100DD0000B01184400F086FA08982DB228180890E4
:100DE000A8EB05000B909DF8400000F014001028BF
:100DF00040F0C280079A08990B988A1809998218BE
:100E00000C988A1882180F98824280F2B580821A54
:100E10000A92B1E09DF84200622808D068280ED0FE
:100E20006A2814D06C281FD0712810D01CE0D9F883
:100E3000001051F8040BC9F80010C0B21AE0D9F83C
:100E4000001051F8040BC9F8001080B212E0D9F874
:100E50000020D21D22F00702C9F80020D2E90001CB
:100E60000832C9F8002006E0D9F8001051F8040B48
:100E7000C9F800100021CDE902019DF840000107EA
:100E80005AD5DDE90223002B08BF002A54D04BF0CD
:100E90002000782850D1079812A930220A54401C0B
:100EA000431C079301F800B046E09DF84200622819
:100EB00008D068280ED06A2814D06C281FD071285A
:100EC00010D01CE0D9F8001051F8040BC9F800103C
:100ED00040B21AE0D9F8001051F8040BC9F800101C
:100EE00000B212E0D9F80020D21D22F00702C9F8A2
:100EF0000020D2E900010832C9F8002006E0D9F844
:100F0000001051F8040BC9F80010C117CDE9020117
:100F1000002902D507982D210AE0BDF8400081077D
:100F200002D507982B2103E0C00705D5079820219B
:100F300012AA1154401C079012A807990144059168
:100F400002A8594600F04EF816E001200790D9F8A3
:100F5000000050F8041BC9F800008DF848100BE0A1
:100F600025210122BBF1000F8DF84810079203D014
:100F70008DF849B0022107910F9A07980A990C9CA5
:100F8000121A0898521A0B99121A0998521A121A20
:100F90009DF84000141B41073FF5AAAA2020002C11
:100FA0008DF800007FF7A4AA309E2546FFF794BA7B
:100FB0004FF0FF3031B0BDE8F08F0000CBCCCC0C4F
:100FC000686A6C747A4C00007072696E74665F7344
:100FD0003A2062616420257320617267756D656EC9
:100FE000740000002DE9FC4304466F29256908BF01
:100FF000082605D041F02000782814BF0A261026C4
:10100000D4E900233C2790469946642918BF6929F2
:1010100005D1002B03D5D8F1000869EB4909B9F1D6
:10102000000F08BFB8F1000F0CD1206B50B9082E8B
:101030003AD194F83800010736D530203B2785F89F
:101040003B0031E08DF80010404649463246F31728
:1010500000F07EFA3032D0B27F1E3A2801970EDAC5
:10106000EA55404649463246F31700F071FA804689
:101070005FEA010908BFB8F1000F05D108E09DF84B
:1010800000001218513AEBE7E068E9198842DBD317
:10109000082E09D194F83800010705D5E85D3028FD
:1010A00002D07F1E3020E855C7F13C02A261E91949
:1010B000E160206B824208DA821A22624FF6EF70FA
:1010C000218F01402187BDE8F38300280ED594F8D5
:1010D000380000F01400102808D1636B6169206AA1
:1010E0005B1A1B1A9A1A002AC8BF2262BDE8F38352
:1010F0002DE9D04306460F4614464FF00008DFF8AE
:10110000449012E0E00707D542464B463046394648
:1011100000F010FA06460F464046494642464B4606
:1011200000F008FA641080468946002CEAD1304667
:101130003946BDE8D0830000A08601000000F03FE2
:1011400084D797410000244010B503460C46114651
:10115000A0689847A06020B1E06A401CE0620020CF
:1011600010BD4FF0FF3010BDF8B505460E461746CE
:101170001C4600205CB117F8011BB068A847B0609E
:1011800030B1F06A401CF0620020641EF3D1F2BD61
:101190004FF0FF30F2BD00007072696E74665F73CD
:1011A0003A20256E20646973616C6C6F776564000A
:1011B0007072696E74663A2062616420256E2061E7
:1011C0007267756D656E7400000000006E616E00E0
:1011D0004E414E00696E6600494E460030000EE0FA
:1011E00002684368024408305FEAC37C44BF4B4452
:1011F0005B1E52F804CB43F804CB091FF9D150F819
:10120000041B0029ECD17047C9B202788A421AB196
:101210001CBF10F8012FF9E718BF00207047826843
:10122000521C8260426832B10268531C0360117024
:101230004168491E4160704780B500B906A0054964
:101240000B681BB122220021984701E000F003FA4D
:10125000222002BD84040024636F6E73747261697E
:101260006E742068616E646C65723A2062616420FD
:101270006D6573736167650000F1010310F8011B70
:1012800011B110F8011BFBE7C01A7047C9B2830700
:1012900006D0521E22D310F8013B9942F7D11FE02D
:1012A000083A13D302F1040241EA012141EA014163
:1012B00050F8043B121F21BF4B40A3F1013C2CEA24
:1012C000030C1CF0803FF3D0C9B2001F083210F8A5
:1012D000013B521E28BF91EA030FF8D818BF012026
:1012E000401E70474AB1000011F8013B521E00F841
:1012F000013B1CBF11F8013BF8E7704710B51446DD
:1013000000F002F8226010BDC1F30A5343B14A0055
:1013100012F5001F28D2A3F2FE32A1EB0251704752
:1013200050EA410C20D001F0004C31EA0C01B1FA36
:1013300081F204BFB0FA80F3D2180B3AB2F1200365
:101340002CBF00FA03F1914041EA0C013EBFC2F10B
:10135000200C20FA0CF319439040524240F2FD3326
:10136000D21A01EB035170470022704741EA030C87
:1013700050EA4C0C52EA0C0C4FF4001C09D307D075
:101380001CEB410F9CBF1CEB430F8B4208BF8242FA
:1013900070471CEB430FFBD8994208BF904270473F
:1013A00041EA030C50EA4C0C52EA0C0C4FF4001CBE
:1013B00009D307D01CEB410F9CBF1CEB430F994294
:1013C00008BF904270471CEB410FFBD88B4208BF0F
:1013D0008242704741EC100B104600B500F004F853
:1013E00051EC100B00BD0000020030EE101B40F26B
:1013F000FF7C37D41CEA115313D063456BD09B1884
:10140000634504D201EB025120EE101B704701F03E
:10141000004141EA0C51002041EC100BAFF3008079
:10142000704710EE100B50EA410054D0B2F57F7FA8
:1014300008D202EB5C010905002041EC110B20EE03
:10144000010B70474FF0FE41002341EC113B20EEB1
:10145000010BB2F57E7230EE101B4FEA410342EBF6
:101460005353CDE752421CEA115316D0634532D094
:101470009A4204D2A1EB025120EE101B70475B1E72
:10148000D21AA1EB035120EE101B372A0CD30020F7
:1014900001F0004141EC100BC0E710EE100B50EAD8
:1014A000410018D0372AF2D2C2EB5C0211050020AD
:1014B00041EC110BF1EE100A20F01F0121F4F8515C
:1014C000E1EE101A20EE010BF1EE101AE1EE100A17
:1014D00011F0080FA2D1704741EC100BBDEEC00B0C
:1014E00010EE100A704700EE100AB8EEC00B51EC77
:1014F000100B704741EC100B43EC112B30EE410BFD
:1015000051EC100B704741EC100B43EC112B80EEAB
:10151000010B51EC100B704741EC100BBCEEC00BF3
:1015200010EE100A704700EE100AB8EE400B51ECB6
:10153000100B704741EC100B43EC112B20EE010B0C
:1015400051EC100B70472E00004870470800002433
:10155000D3BBD9B1B2F5803F5BD2022A1ED98C46EB
:10156000B1FBF2F102FB11C31B0443EA1043B3FBCE
:10157000F2FC02FB1C3380B240EA0343B3FBF2F0FF
:1015800002FB103240EA0C4000237047022A05D9C2
:101590008446B0FBF2F002FB10C270474AB105D19D
:1015A00000F0010249085FEA300070470022002382
:1015B000704700F053B80B00020000210020704774
:1015C000F7D3002200237047904271EB030CF2D353
:1015D00070B5B1FA81F4B3FA83F52C1BA340C4F1C2
:1015E000200532FA05F63343A2405FF00046E6409C
:1015F00002E05B085FEA3202841A71EB030524BF44
:10160000204629467641F4D302000B003000002129
:1016100070BD70B5B1FA81F4B2FA82F5C4F120045C
:101620006419B4F12006DAD3B2405FF00044F4400C
:10163000002502E052085FEA3303C61A71EB020E7E
:1016400024BF3046714664416D41F3D302000B0064
:101650002000290070BD012000F002B87047000092
:1016600080B5AFF30080024A11001820ABBEFBE743
:10167000260002002DE9F04104460026B04620680D
:10168000400315D5DFF80878386810F440701EBFA5
:10169000E16F01F4407188422DD0DFF8F80701684E
:1016A00041F4807101600068C00518D40126B0467D
:1016B0002078C00752D5606803284DD8DFE800F0D5
:1016C0000502490500F0D4FB0160300045D100F06F
:1016D000D9FB9208606840EA82020A603EE03868FE
:1016E000396841F480313960396821F480313960DA
:1016F00020F440703860E06FB0F5807F0ED100F0CC
:101700002BFF05463868800708D400F025FF401BF2
:1017100041F289318842F5D30326C8E7E06F10F41F
:101720007C3FDFF87407016821F47C5105D0E26F3B
:10173000DFF8683703EA1213194301603868E16F74
:1017400001F4407108433860386840F40040386064
:10175000AEE700F064FBB7E70126B04620788007CB
:1017600018D5A06838B1102802D020280DD00FE07D
:1017700000F05FFB016030000BD100F083FB22F032
:101780003002A06802430A6004E000F04DFBF1E77C
:101790000126B0462078400718D5E06838B14028C7
:1017A00002D080280DD00FE000F043FB0160300034
:1017B0000BD100F067FB22F0C002E06802430A6030
:1017C00004E000F031FBF1E70126B0462078000785
:1017D00006D500F057FB22F04052206902430A6010
:1017E0002068800216D5606D10B104280DD00FE07E
:1017F00000F01FFB016030000BD100F043FB22F032
:101800000402606D02430A6004E000F00DFBF1E7A2
:101810000126B0462078C0061AD5606930B1B0F113
:10182000807F10D0B0F1007F03D00FE000F025FBE7
:10183000016030000BD100F025FB22F0407260699E
:1018400002430A6004E000F003FBF1E70126B04622
:101850002078800622D5A06988B1B0F5801F0BD012
:10186000B0F5001F15D0B0F5401F1CBFB0F5800FBC
:10187000B0F5A00F03D00FE000F0FFFA01603000D8
:101880000BD100F0FFFA22F4E002A06902430A60E3
:1018900004E000F0D8FAF1E70126B04620784006CF
:1018A00006D500F0B8FA22F04052E06902430A601F
:1018B0002078000606D500F0E5FA22F44032206ACE
:1018C00002430A602068C00516D5606A40B1B0F5D1
:1018D000802F0FD1DFF8C805016841F08041016019
:1018E000300008D100F0CEFA22F48022606A024370
:1018F0000A6001E00126B046206880051AD5A06A7A
:1019000048B1B0F5800F03D0B0F5000F0DD00FE057
:1019100000F0AEFA016030000BD100F07CFA22F446
:101920004002A06A02430A6004E000F0A6FAF1E770
:101930000126B0462068000519D5E06A58B1B0F517
:10194000805F06D0B0F5005F18BFB0F5405F02D0F1
:101950000BE000F087FA300008D100F05CFA22F4C6
:101960004052E06A02430A6001E00126B046206866
:10197000400519D5206B58B1B0F5807F06D0B0F581
:10198000007F18BFB0F5407F02D00BE000F06AFA8C
:10199000300008D100F03FFA22F44072206B02437D
:1019A0000A6001E00126B0462068C00422D5606BC1
:1019B00088B1B0F5803F0BD0B0F5003F15D0B0F541
:1019C000403F1CBFB0F5802FB0F5A02F03D00FE033
:1019D00000F053FA016030000BD100F01CFA22F441
:1019E000E022606B02430A6004E000F031FAF1E7A4
:1019F0000126B0462068800422D5A06B88B1B0F5DE
:101A0000807F0BD0B0F5007F15D0B0F5407F1CBFB4
:101A1000B0F5806FB0F5A06F03D00FE000F02DFAA5
:101A2000016030000BD100F0F2F922F4E062A06B0B
:101A300002430A6004E000F00BFAF1E70126B04629
:101A40002068400422D5E06B88B1B0F5805F0BD0F0
:101A5000B0F5005F15D0B0F5405F1CBFB0F5804F0A
:101A6000B0F5A04F03D00FE000F007FA016030009E
:101A70000BD100F0CCF922F4E042E06B02430A60A3
:101A800004E000F0E5F9F1E70126B0462068000423
:101A900019D5206C052814D8DFE800F006031006DD
:101AA000060600F0CBF9016030000BD100F0AFF971
:101AB000D208206C40EAC2020A6004E000F0CDF9CE
:101AC000F1E70126B0462068C00301D500F0CAF94D
:101AD0002068800313D5A06C18B1B0F1006F02D05C
:101AE0000BE000F0BFF9300008D100F0CBF922F094
:101AF0000062A06C02430A6001E00126B046206843
:101B0000000323D5E06C60B1B0F5803F16D0B0F58E
:101B1000003F16D0B0F5403F18BFB0F5802F03D07E
:101B200012E000F0A5F9016030000ED100F06BF971
:101B300022F4E022E06C02430A6007E000F09DF925
:101B4000F1E700F080F9EEE70126B0462068C00218
:101B500025D5206D70B1B0F5801F18D0B0F5001FED
:101B600018D0B0F5401F1CBFB0F5800FB0F5A00F26
:101B700003D012E000F07CF9016030000ED100F0DB
:101B800042F922F4E002206D02430A6007E000F00F
:101B900074F9F1E700F057F9EEE70126B046206846
:101BA000400220D5A06E48B1B0F1807F13D0B0F1D3
:101BB000007F13D0B0F1407F03D012E000F058F95D
:101BC000016030000ED100F026F922F04072A06EC4
:101BD00002430A6007E000F022F9F1E700F038F96B
:101BE000EEE70126B0462068000223D5A06D60B163
:101BF000B0F5807F16D0B0F5007F16D0B0F5407FED
:101C000018BFB0F5806F03D012E000F031F9016029
:101C100030000ED100F0F7F822F4E062A06D02432C
:101C20000A6007E000F029F9F1E700F00CF9EEE7AF
:101C30000126B0462068C0011FD5E06D40B11028D4
:101C400013D0202814D0302818BF402803D012E029
:101C500000F00EF9016030000ED100F0DCF822F047
:101C60007002E06D02430A6007E000F006F9F1E758
:101C700000F0E9F8EEE70126B046206880011DD5A6
:101C8000206E60B1102807D0202812D030281CBF49
:101C90004028502803D00FE000F0D0F80160300059
:101CA0000BD100F0B0F822F07002206E02430A60FF
:101CB00004E000F0D2F8F1E70126B04620684001C8
:101CC0001DD5606E60B1102807D0202812D03028B2
:101CD0001CBF4028502803D00FE000F0AFF801608F
:101CE00030000BD100F093F822F07002606E0243D6
:101CF0000A6004E000F0B1F8F1E70126B046206880
:101D0000C00019D5E06E052814D8DFE800F00603FE
:101D10001006060600F092F8016030000BD100F0CA
:101D200072F8D208E06E40EAC2020A6004E000F0F5
:101D300094F8F1E70126B0462068800019D5206F9D
:101D4000052814D8DFE800F006031006060600F0A8
:101D500075F8016030000BD100F05DF8D208206FFB
:101D600040EAC2020A6004E000F077F8F1E70126D9
:101D7000B0462068400017D5606F002818BFB0F546
:101D8000805F05D0B0F5005F0CD100F066F801600F
:101D9000300008D100F076F822F44052606F024320
:101DA0000A6001E00126B046206800281AD5A06F1D
:101DB00060B1B0F5804F06D0B0F5004F18BFB0F558
:101DC000404F03D00CE000F048F80160300008D12B
:101DD00000F058F822F44042A06F02430A6001E08C
:101DE0000126B0462068000107D52B490A6822F475
:101DF0000042D4F8800002430A605FEA080018BF7E
:101E00000120BDE8F081DFF814170A687047DFF899
:101E100010170A687047DFF80C170A6870472048E7
:101E2000016841F4802170471D48016841F4801128
:101E300070471B48016841F4002170471848016849
:101E400041F4003170471648016841F00061704765
:101E50001348016841F0005170471148016841F092
:101E6000805170470E48016841F000510160704791
:101E70000B48016841F0400170470948016841F48E
:101E800080317047DFF8A8160A687047000000002C
:101E9000704402580048025810440258CFFFFF0F08
:101EA0002C44025880B501460020012971D0022936
:101EB00000F08380042900F09180082900F0AA80B6
:101EC000102900F0B380202900F0BB80402900F0E9
:101ED000D380802900F0DB80B1F5807F00F0E980BD
:101EE000B1F5007F00F0F580B1F5806F00F0008162
:101EF000B1F5006F00F00C81B1F5805F00F0178143
:101F0000B1F5005F00F02981B1F5804F00F0398113
:101F1000B1F5004F00F04A81B1F5803F00F0E38158
:101F2000B1F5003F00F05081B1F5802F00F05481F1
:101F3000B1F5002F00F08A81B1F5801F00F0978184
:101F4000B1F5001F00F0A481B1F5800F00F0B4815D
:101F5000B1F5000F00F0CF81B1F1807F00F0DC819E
:101F6000B1F1007F00F00482B1F1806F00F00682D1
:101F7000B1F1805F00F01682B1F1005F00F02182C4
:101F8000B1F1804F00F05382B1F1004F00F0618257
:101F900002BDDFF89415096801F4E041B1F5A04FE6
:101FA00024D000F08CFA01F003010329F0D8DFE817
:101FB00011F05F00C10192011F02DFF86C15096882
:101FC00001F07001402911D000F079FA11F03001D0
:101FD0004ED0102918D0202919D002BDDFF848159D
:101FE000096801F4E061B1F5806F03D100F06AFE89
:101FF000800802BD00F063FA11F0C00138D040291A
:1020000002D0802903D002BD00F045FA46E100F07D
:1020100042FA4AE100F053FA11F0405100F0E88131
:10202000B1F1805F1FD0B1F1005FB5E100F047FA78
:1020300011F0407159D0B1F1807F60D0B1F1007FD3
:1020400076E100F03CFA11F4E00111D0B1F5801F07
:102050004BD0B1F5001F00F07D81B1F5401F00F0BD
:102060008481B1F5800F00F0D281B1F5A00F30E18D
:10207000BDE8014000F026BE00F01EFA11F040510C
:1020800063D0B1F1805F64D0B1F1005F3EE0FFF753
:10209000F9FE02F44032B2F5803F1ED0B2F5003FA7
:1020A00006D1096811F4802117D0B1F5802F08D02E
:1020B00002BD00F004FA11F480210ED0B1F5802F9A
:1020C000F6D100F0EFF9C905F2D5BDE8014000F006
:1020D0007FBE00F0F1F911F4400100F0D381B1F5B9
:1020E000800F00F02781B1F5000F00F02B8102BDB9
:1020F00000F0E2F911F440711DD0B1F5807F00F0DD
:10210000F280B1F5007F0DD0B1F5407FABD002BDBC
:1021100000F0D2F911F440510DD0B1F5805FEED04E
:10212000B1F5005F00F06481B1F5405FEEE700F0CB
:10213000C3F911F4E02100F04F81B1F5803FD4D014
:10214000B1F5003FDBD0B1F5403F00F06881B1F55B
:10215000802F5ED0B1F5A02FEAE000F0AAF911F4CB
:10216000E06112D0B1F5807FBFD0B1F5007FC6D05D
:10217000B1F5407FE9D0B1F5806F4AD0B1F5A06FDD
:10218000D6E000F096F911F4E04100F00781B1F5D6
:10219000805F62D0B1F5005FB1D0B1F5405FD4D0BF
:1021A000B1F5804F35D0B1F5A04FC1E000F081F915
:1021B00001F00701052933D8DFE811F0F000120122
:1021C0005C011A012901310100F079F911F0006177
:1021D00095D0B1F1006FABE0DFF858130A6802F454
:1021E0004072B2F5407F08D1DFF840231268120137
:1021F00002F47C3242F4407202E00A6802F4407257
:10220000002A0DD0B2F5807F00F00B81B2F5007F7F
:1022100007D1DFF824130968890701D54FF4FA4084
:1022200002BD096801F44071B1F5407FF8D100F0BA
:102230002EF9F5D5DFF8F4120968C1F3052102295A
:1022400003D3DFF8F802B0FBF1F002BD00F02EF985
:1022500011F4E0216ED0B1F5803F73D0B1F5003FAD
:102260000FD0B1F5403F0FD0B1F5802F60E000F006
:102270001DF911F4E0015DD0B1F5801F62D0B1F518
:10228000001F67D0B1F5401F6FD0B1F5800F4FE050
:1022900000F015F9490700F0FEF806D4C90AC9058F
:1022A00018D5BDE8014000F068BDC90A890511D5FF
:1022B000BDE8014000F06ABD00F0FEF811F0407189
:1022C00038D0B1F1807F06D0B1F1007F0BD0B1F1F1
:1022D000407F5DD002BD00F0E1F80906FAD5BDE807
:1022E000014000F044BD00F0DDF80906F2D5BDE87C
:1022F000014000F067BD00F0D9F811F4E06119D099
:10230000B1F5807F1ED0B1F5007F23D0B1F5407FBD
:102310002BD0B1F5806F0BE000F0CEF811F070011A
:1023200008D010290ED0202914D030291DD04029E2
:1023300018D002BD00F0AFF84906FAD5BDE801405B
:1023400000F0F8BC00F0AAF88906F2D5BDE801401B
:1023500000F0FABC00F0A6F8890608D5BDE80140F7
:1023600000F01EBDBDE80140B2E04BF6803002BD7A
:1023700000F09CF811F070011FD004E000F099F813
:1023800011F070010AD010292AD0202959D0302903
:102390002ED040293BD050294DD002BDBDE8014090
:1023A00000F0B8BC00F082F801F0070105296DD8F3
:1023B000DFE801F00316601E2D35BDE8014000F096
:1023C0009DBC00F079F801F0070105295ED8DFE82F
:1023D00001F00307510F1E26BDE8014000F082BC4A
:1023E00000F05CF8490651D5BDE8014000F0B5BCED
:1023F000DFF84C110A68520748D50A68920645D59D
:10240000DFF840010968C1F3C101C84002BDDFF82F
:1024100030110968C90539D5DFF82C0102BDDFF894
:1024200014110968890731D54FF4004002BD00F04E
:1024300046F811F4405125D0B1F5805F03D0B1F5D5
:10244000005F17D002BD00F022F81FD5DFF8FC00B6
:1024500002BD00F034F811F4404105D0B1F5804FD1
:1024600008D0B1F5004F97E73549096889040DD5C3
:10247000374802BD00F016F8490607D5BDE801400F
:1024800000F092BC00F003F848BF2C4802BD2C4974
:102490000968890370472F49096870472D49096801
:1024A000C90A70472B490968890D70471B4909689B
:1024B00070471B49096870471A49096870471C49E9
:1024C0000968704718490A68FFE7104308607047B9
:1024D00000201749096811F040510CD118490A68C9
:1024E000520719D50A68920616D516480968C1F32D
:1024F000C101C8407047B1F1805F05D1104909683A
:10250000C90509D510487047B1F1005F04D10C49E5
:102510000968890348BF09487047000054440258BD
:10252000584402585044025800450258104402587A
:102530004C440258704402587444025800366E01EC
:10254000004402580090D00300093D00001BB70072
:10255000006CDC022C44025801480068704700BF40
:102560007C0400242DE9F843070060D0DFF87C08E4
:10257000D0F8008008F03808DFF88408066806F014
:102580000306DFF83C582C6804F028543878C0075C
:1025900009D5B8F1100F03D0002C66D0022E64D1FB
:1025A0007868002843D03878800732D5B8F1000F1A
:1025B00005D0002C00F0A380002E40F0A080F86829
:1025C000002834D0286800F0180026B9002C1CBF61
:1025D0003969884219D1296821F019013869014304
:1025E00041F001012960B8F1000F0BD1DFF80018AC
:1025F00001222868C0F3C1008240B1FBF2F0DFF88D
:10260000F417086000F0AAF9002840F0988100F063
:10261000AFF93878C0060CD5B8F1080F05D0002CFA
:1026200000F09780012E40F09480386A002800F076
:1026300086813878000740F1BD80B8690028DFF84E
:10264000D847206800F0A78040F001002060FFF725
:1026500083FF06462068800700F1AC80FFF77CFF0F
:10266000801B0228F6D303206CE17868B0F5803F28
:102670001ED048B9286820F4803000F06AF928603C
:10268000286820F480201FE0B0F5A02F05D128682D
:1026900040F4802000F05DF909E0B0F5502F286883
:1026A0000AD140F480202860286840F40020286087
:1026B000286840F4803007E020F4803028602868E3
:1026C00020F4802000F045F900F05CF9814678683C
:1026D00050B1286880033FF566AFFFF73DFFA0EBE0
:1026E00009006528F5D3BEE7286880037FF55BAF56
:1026F000FFF732FFA0EB09006528F5D3B3E7F868D0
:10270000B0B1296821F019010143386901432960FA
:1027100000F02EF9FFF720FF8146286840073FF5BB
:1027200078AFFFF719FFA0EB09000228F5D39AE76D
:1027300028684008400000F025F9814628684007D5
:102740007FF567AFFFF708FFA0EB09000228F5D37C
:1027500089E7386A002828680ED040F0800000F031
:1027600011F904462868C0053FF563AFFFF7F4FE92
:10277000001B0228F6D376E720F0800000F002F973
:1027800004462868C0057FF554AFFFF7E5FE001B3F
:102790000228F6D367E7400840002060FFF7DCFE20
:1027A00006462068800705D5FFF7D6FE801B022865
:1027B000F7D358E7387880061FD5F86900282868CD
:1027C0000DD040F4805000F0DDF804462868800405
:1027D00013D4FFF7C1FE001B0228F7D343E720F410
:1027E000805000F0CFF804462868800405D5FFF734
:1027F000B3FE001B0228F7D335E7387840075BD5D6
:10280000DFF8C807016841F480710160B8680128E9
:1028100002D1DFF8BC0722E058B9DFF8B40701683D
:102820004908490000F09FF80160016821F00401A7
:1028300021E0052807D1DFF89807016841F004017D
:1028400000F091F80AE08528DFF8840701680AD1D2
:1028500041F004010160016841F0800101600168FC
:1028600041F0010107E0490849000160016821F0D9
:10287000040100F078F80160B86870B1FFF76CFEF1
:102880000446DFF84C070068800715D4FFF764FEA4
:10289000001B00F05AF8F4D3E5E6FFF75DFE0446AE
:1028A000DFF82C070068800706D5FFF755FE001BF0
:1028B00000F04BF8F4D3D6E6786A68B3B8F1180F95
:1028C00022D101283BD0DFF844452068B96CC0F321
:1028D000CC00814220D0DFF8C46830684008400056
:1028E0003060FFF739FE0546FFF736FE401BFBD090
:1028F00020686FF3CF00B96C40EAC10020603068F7
:1029000040F00100306007E00120786407F1240105
:10291000002000F083FA90B9F86C28B107F14C015F
:10292000012000F07BFA50B9786F50B10120C7F850
:10293000940007F17401022000F070FA08B1012040
:1029400000E00020BDE8F283801B41F2893188421B
:1029500070472860286820F400207047DFF844089A
:10296000006800F045BC0160016821F080017047FB
:10297000DFF83408016821F0FE417A6941EA02611A
:10298000016070472860FFF7E7BD2DE9F0410400C2
:10299000884600F0B080DFF87C54286800F03F00E3
:1029A000404502D200F0FAF871D1207840070CD5EA
:1029B00000F0F0F800F007002269904205D20A68A2
:1029C000D208206940EAC2020A60207800070CD5CC
:1029D00000F0E0F800F070006269904205D20A68E9
:1029E00022F07002606902430A602078C0060CD5AC
:1029F00000F0D0F800F4E060A269904205D20A68C5
:102A000022F4E062A06902430A60207880060CD5B7
:102A100000F0C0F800F4E040E269904205D20A6894
:102A200022F4E042E06902430A60207880070DD575
:102A3000DFF8C813086800F00F00E268904205D282
:102A40000A681209E06840EA02120A602078C007AA
:102A500039D5DFF8BC130A681209A06840EA0212EF
:102A60000A606068022804D1DFF85403006880031C
:102A70000CE0032804D1DFF848030068800105E07A
:102A80000128DFF83C03006802D1C00502D432E01F
:102A9000400730D5DFF854733968C908606840EAE8
:102AA000C1013960FFF758FD0646386800F038006C
:102AB0006168B0EBC10F06D0FFF74EFDFFF744FF92
:102AC000F3D3032064E0207880070CD5DFF82C13C3
:102AD000E0680A6802F00F02904204D20A68120904
:102AE00040EA02120A60286800F03F00804504D2E4
:102AF00000F054F801D001204AE0207840070CD5BE
:102B0000DFF8B01620690A6802F00702904204D28A
:102B10000A68D20840EAC2020A60207800070CD591
:102B2000DFF8901660690A6802F07002904204D2E1
:102B30000A6822F0700202430A602078C0060CD5B1
:102B4000DFF87016A0690A6802F4E062904204D2CD
:102B50000A6822F4E06202430A60207880060CD5FD
:102B6000DFF85016E0690A6802F4E042904204D2AD
:102B70000A6822F4E04202430A6000F019F89D4915
:102B80000860DFF820060068BDE8F04100F030BBC7
:102B9000BDE8F081DFF81C160868704728688009D6
:102BA00048EA80102860286800F03F0040457047E0
:102BB0008E48006810F0380004D010280ED0182875
:102BC0000FD073E07E490868800605D588480968FB
:102BD000C1F3C101C8406BE0002069E0DFF8CC051B
:102BE00066E0DFF81C0202680068C0F30510DFF839
:102BF00014120B6803F00103DFF810120968C1F327
:102C0000CC014B4300EE103AB8EE400A00284FD0FA
:102C100012F0030202D0022A17D01DE068490A68A8
:102C200092060FD50968724AC1F3C101CA4000EE8D
:102C3000902AF8EE600A01EE100AB8EE411AC0EED2
:102C4000810A11E09FED650A20E000EE900AF8EE9F
:102C5000600A9FED631A05E000EE900AF8EE600A44
:102C60009FED601AC1EE200A67480068C0F30800B3
:102C700001EE100AB8EE411ADFED5B1A00EE211AE0
:102C8000B7EE000A31EE000A20EE800A5E480068C6
:102C9000C0F34620401C00EE900AF8EE600A80EE79
:102CA000200ABCEEC00A10EE100A01E0DFF80005B1
:102CB000DFF85C11096801F00F01082924BFC91F62
:102CC000C840704780B5FFF773FF4C49096801F0B1
:102CD0000F01082905D3DFF8E424114411F8081C7A
:102CE000C84002BD80B5FFF7EDFF00F01FF801F00E
:102CF0000701042924BFC91EC84002BD80B5FFF7E3
:102D0000E1FF00F013F8C1F30211042924BFC91E2A
:102D1000C84002BD80B5FFF7D5FF00F007F8C1F34A
:102D20000221042924BFC91EC84002BDDFF8841453
:102D30000968704710B500F003F8C4F3064108E0D5
:102D4000DFF87C0404684BE110B500F00CF8C4F324
:102D50004621491CB0FBF1F010BD10B500F003F89E
:102D6000C4F30641F5E7DFF86004046882E110B5BA
:102D7000FFF7F9FFC4F30661EBE710B500F00CF8BC
:102D800004F00704641CB0FBF4F010BD10B500F0B3
:102D900003F8C4F30221DCE7DFF83004046869E1DA
:102DA00010B500F007F8D2E710B500F003F8C4F34F
:102DB0000641CEE7DFF818040468A5E10000000032
:102DC0000044025810B5FFF7F5FFC4F30661C0E7F1
:102DD00010B50948046800F097F9D1E70000000039
:102DE000001BB74B0024744A0000003910440258FD
:102DF0000090D00304000024C84402581C44025828
:102E0000284402582C440258304402583444025892
:102E10001844025800200052744402582DE9FE4F15
:102E200004460F46DFF8980300EBC4000190DFF87A
:102E3000940300EB840000904FF00B0ADFF85C5322
:102E400029684FF478720AFB04F0824091432960AC
:102E50004FF08079DFF860633068610009FA01F1B2
:102E600088433060FFF778FB83464FF0007800F02E
:102E7000B1F807D0FFF770FBA0EB0B003328F6D3B7
:102E80000320A1E03868022840F09080786830B9CB
:102E9000DFF848133268C2F3C102D14003E00228D0
:102EA0000CBFC249C249BA68B1FBF2F1DFF8302366
:102EB000914228BF18220AD2BD4A914228BF10224F
:102EC00005D2DFF8202391422CBF08220222C64BF4
:102ED000D3F800C04FF47C7EE1000EFA01F141F01E
:102EE00003012CEA010140EA010CB9684FEAC40E63
:102EF0000EF1040E01FA0EF141EA0C0CC3F800C009
:102F0000196801F00301814218BF01205CD12968D2
:102F10001B230AFB04F08340994382400A432A6042
:102F2000F868401E3969491E40EA41207969491E06
:102F300040EA0140B969491E40EA01600199086010
:102F4000F869401E396A491E40EA0120009908606C
:102F50001CB9286840F020002860786A90B1A34826
:102F600000EBC40001686FF3CF017A6A41EAC20145
:102F70000160286801210AFB04F2914041EA000A3D
:102F8000C5F800A03168600009FA00F040EA0109C4
:102F9000C6F80090FFF7E0FA054600F01BF812D1E2
:102FA000FFF7DAFA401B3328F7D369E78E48016848
:102FB0004FF47C72E400241D02FA04F421EA0404B4
:102FC00044F0030404600020BDE8FE8F004802586E
:102FD000704402583068610008FA01F108427047F5
:102FE0008148026876480168C2F30510002840D085
:102FF0006A4B1B68DB0708D57C4B1B68C3F3CC030B
:1030000000EE103ABBEEE90A01E09FED650A12F00E
:10301000030203D0022A0DD00FD311E0664A1368D1
:103020009B060DD56D4B1268C2F3C102D34000EE72
:10303000903A07E0DFED5D0A04E0DFED5D0A01E0B4
:10304000DFED570AF8EE600A01EE100AB8EE411AF9
:10305000C0EE810AC1F30801491C01EE101AB8EE56
:10306000411A31EE000A20EE800ABCEEC00A10EED2
:10307000100A70475C48026853480168C2F3053083
:10308000002840D0454B1B681B0508D5514B1B68D9
:10309000C3F3CC0300EE103ABBEEE90A01E09FED6A
:1030A000400A12F0030203D0022A0DD00FD311E020
:1030B000414A13689B060DD5484B1268C2F3C10202
:1030C000D34000EE903A07E0DFED380A04E0DFED90
:1030D000380A01E0DFED320AF8EE600A01EE100A6C
:1030E000B8EE411AC0EE810AC1F30801491C01EE95
:1030F000101AB8EE411A31EE000A20EE800ABCEE3A
:10310000C00A10EE100A704737480268304801685C
:10311000C2F30550002840D0204B1B685B0208D545
:103120002D4B1B68C3F3CC0300EE103ABBEEE90A4B
:1031300001E09FED1B0A12F0030203D0022A0DD01A
:103140000FD311E01C4A13689B060DD5234B126860
:10315000C2F3C102D34000EE903A07E0DFED130A5C
:1031600004E0DFED130A01E0DFED0D0AF8EE600A7E
:1031700001EE100AB8EE411AC0EE810AC1F308014F
:10318000491C01EE101AB8EE411A31EE000A20EE89
:10319000800ABCEEC00A10EE100A70472C44025898
:1031A00000000000000000240444025800366E01B4
:1031B00000093D002044025800440258506E0008A7
:1031C00030440258C044025838440258C44402589B
:1031D000404402583C440258444402580090D003F2
:1031E00000127A0080841E00284402583444025899
:1031F00038B5044600250E490878B0B14FF47A700E
:103200000978B0FBF1F00B490968B1FBF0F000F070
:1032100079F850B9102C08D2002221464FF0FF3027
:1032200000F061F80448046000E00125284632BD42
:10323000400000240400002400000024584A1368C1
:103240004FF6FF010B40000200F4E06018435549BF
:1032500008431060704752480068C0F3022070476E
:10326000020003D40901504A1154704709014F4A22
:1032700000F00F00104400F8041C704710B500F077
:103280000700C0F10703052B2FBF0F23012404FA09
:1032900003F35B1E041D072C34BF0020C01E194021
:1032A0008140012303FA00F0401E1040084310BD86
:1032B00010B50446601EB0F1807F0CD23C49086016
:1032C0000F214FF0FF30FFF7CBFF00203949086096
:1032D000072039490860641EB4F1807F8041C043F3
:1032E000C00F10BDAAE770B504460D461646FFF79D
:1032F000B2FF32462946FFF7C1FF01462046BDE82E
:103300007040ADE7D4E7BFF35F8F40F001002B4979
:1033100008602B48016841F48031016009E0BFF387
:103320005F8F2748016821F4803101600020234924
:103330000860BFF34F8FBFF36F8F7047214908605C
:1033400021480168490849000160704741781D4AD9
:1033500011601D490A68520852000A600A68520842
:1033600052000A604268194B1A60027BC37A1B063E
:1033700043EA0273827A43EAC243427B43EA8243CE
:10338000827B43EA4243C27B43EA0243427A43EAF6
:103390000223027A43EA4203007803430B6070473A
:1033A0000CED00E00000FA0500E400E018ED00E09C
:1033B00014E000E018E000E010E000E094ED00E030
:1033C00024ED00E098ED00E0A0ED00E09CED00E0D1
:1033D00070B504460D4600260020286008232A46C2
:1033E000002104F1080001F07BF860B9296820464B
:1033F00000F090FE40B1052807D10420761CF1B200
:103400000229E9D370BD032070BD042070BD2DE9F1
:10341000F8430446894604260027DFF8AC8B18F8E9
:10342000170084F8640004F16402002104F108002C
:1034300000F0F6FE08EB4700407884F859000025BC
:1034400084F8585049462046FFF7C2FF00B90026CD
:1034500018F81700042805DB6D1CE8B2022801D219
:10346000042EEDD07F1C082F01D2042ED7D0304679
:10347000BDE8F2832DE9F84380464FF000090827A4
:10348000C8F89490DFF8204C7821204601F0B2FA79
:10349000002614E00C2505FB06F0221839464046AC
:1034A00000F0F3FB5FEA000955D1D8F894007543AA
:1034B00061590843C8F894000837761CF6B298F8AA
:1034C0009C00401C8642E5D300270CE07D436059F8
:1034D000082806D1DFF8380C006CC0F30520C8F8C6
:1034E00098007F1CFFB298F89C00401C874232D2A3
:1034F00000220C2505FB07F02044037A05FB07F0AA
:10350000205808280CD040280FD0802813D0B0F5C0
:10351000007F0DD0B0F5805F08BFDFF81C2C0CE0F9
:10352000DFF8EC0B0360021D07E0DFF8102C04E06D
:10353000DFF80C2C01E0DFF80C2C002AC6D09B0031
:1035400005FB07F02044416808F1080000F0C8FFBF
:103550000028BBD0A9464846BDE8F2832DE9F041DA
:10356000804608260027DFF8405B01E008367F1C14
:10357000F8B298F89C10491C88423FD22A4631463E
:10358000404600F082FB040038D128680828EDD1BD
:10359000DFF87C6B2B7A9B00321D696808F108000C
:1035A00000F09EFF50BB306CC0F3052048B3306C78
:1035B000C0F3002020BB306C000A800720D4306CA0
:1035C000000A40071CD4306C000A000718D4306C85
:1035D000000AC0060ED500230022662108F108006B
:1035E00001F056F800230022992108F1080001F0AB
:1035F0004FF806E0306C000A800601D40C2400E08D
:103600000F242046BDE8F0812DE9F04385B08046C7
:1036100089460024002798F89400000758BF072423
:1036200040F1C082DFF8E85AA868002804D4401CA2
:10363000B0FA80F0C0F11F00C01E88F85E0098F854
:103640005E00401E8DF8100004AA042100F0CFFA9D
:103650000126E86AC0F3031006FA00F0C8F860001B
:10366000022088F87500286A88F87700286A000A1E
:1036700088F87800286A000C88F87900286A000E1B
:1036800088F87A00686A88F87B00686A000A88F817
:103690007C00686A000C88F87D00686A000E88F873
:1036A0007E0098F8780058B100F098FAC0F3041042
:1036B00000F0A8FAC2F3412200F085FAC8F88010A1
:1036C00098F87A0058B100F089FAC0F3C42000F0ED
:1036D00099FAC2F3014200F076FAC8F8841098F81B
:1036E0007C0058B100F07AFAC0F3844000F08AFA06
:1036F000C2F3C15200F067FAC8F8881098F87E004B
:1037000050B100F06BFAC0F3446000F07BFA920F06
:1037100000F059FAC8F88C1095F8281001F00F0144
:10372000E86AC0F30460401C4143DFF81C0AEA6AFF
:10373000C2F3417250F822004143C8F890100520AE
:1037400088F8710088F86C006868C0F300100028E1
:103750000CBF5020062088F8700095F8400010F04B
:10376000030F2AD1400723D5502088F87000D8F8DD
:103770009400800540F1AE80DFF8C4190869C00FDD
:1037800021D00869000A88F86C0000F020FA800F48
:1037900000F0010088F86E0000F019FAC0F3007024
:1037A00000281DBF0869C00E00F00100FF2008E0DE
:1037B00095F8400010F0180F01D00620D5E70A2434
:1037C000F0E188F86F004869C00F19D04869000A15
:1037D00088F8710000F0F1F94869800F00F00100ED
:1037E00088F8730000F0E9F90869C0F30070002858
:1037F0000FBFFF204869C00E00F0010088F8740078
:10380000032088F8760098F89400000754D598F8BB
:103810005C00032850DA039488F8644098F85C0050
:1038200040B32869C0F3072068B1297C01F01F016B
:103830002869C0F34210411803912869000A88F8EA
:10384000760088F864602869000E09D0286900F0C5
:10385000ADF92869000E88F87600022088F8640027
:10386000287DC00706D5A86900F0A0F9A869000E58
:1038700088F8760098F85C00022815DB6869C0F3C8
:10388000001070B1E86900F091F9E869000E88F85D
:103890007600042088F86400404600F019FC04001B
:1038A00031D1039888F8590000F0BAF9002839D1CD
:1038B00000F09BF9002835D1D8F89400C00452D507
:1038C00098F85C0003284ED198F8640009281BD1B1
:1038D000012736E088F8726088F87340A86BC0F35F
:1038E000800020B188F86D4088F86E4088E7A86BAA
:1038F0008008800706D5702088F86C00072088F8BB
:103900006D00F1E709244DE1404600F048FAC0B9E6
:10391000012798F85D00C8280CBF0820092000F096
:103920007DF9002850D198F89D00FD2802D114207F
:1039300000F05AF998F89D00FE2802D1082000F006
:1039400053F998F8940000070DD5286811280AD378
:10395000A86CC0F34170022854D2A86C400F00F04C
:10396000030088F858006421404600F060F9002800
:103970002AD198F89400400640F194807FB9286CD1
:10398000C0F3006010B300F036F9E8B900F040F978
:10399000D0B900F03DF9B8B9132088F8760098F84E
:1039A0005C00032804BF98F86400002832D1DFF8D7
:1039B0008C07006800F09070B0F1907F30D1072044
:1039C00000F02CF900281FD00C24EBE0286C000E2E
:1039D000800713D500F01CFB0028F5D100F0F6FAA3
:1039E00098F872008640F6B2009600F0FBFA0028C4
:1039F000EAD100F000F90028E6D1CAE7286C10F0FF
:103A0000C04FC6D10F24CDE0CC2088F876008E20A0
:103A100088F8750098F86400092818BF002815D1A7
:103A2000DFF818170868C0F3801010B1122088F86A
:103A300075000878C00744BF132088F8760008682E
:103A4000C0F3400010B10C2088F8760098F86400AC
:103A5000082816D1DFF8E4160868C0F3006010B13A
:103A6000022088F875000868C0F3405010B1CC20DF
:103A700088F876000868C0F3805010B1FD2088F8FF
:103A80007600DFF8B806416888F878104168090ABE
:103A900088F87A104168090C88F87C104068000E9C
:103AA00088F87E0098F8940000067BD598F86400AA
:103AB000092818BF082875D100200090DFF8847607
:103AC0003868C0F3072018B13868000A88F8760013
:103AD000387D10F01F0F03D000F01F0000F084F8B5
:103AE000286D000F00F0C5F8D8F86820824288BF22
:103AF00002466B46D8F8681008F1080000F038FB61
:103B000008B10D244EE0012089F800000098DFF88C
:103B10003C16884209D3F868C0F3C41048B1F8686D
:103B2000C0F3C4100390F86822E0DFF8241688423E
:103B300009D33869C00E0AD03869C00E03903869BD
:103B4000C0F3845116E0DFF80C1688420BD33869B5
:103B5000C0F3444038B13869C0F344400390386939
:103B6000C0F3043106E03869C0F3C410039038692B
:103B7000C0F3840198F85D00C82802D1102003909A
:103B80000CE0D8F8940080050BD5DFF8B405006A86
:103B9000C00F06D0404600F0ACF918B900F025F887
:103BA00000E00E24204605B0BDE8F083C0F30441D8
:103BB000C0F34250411803917047C87D00F00700E0
:103BC00088F87200704730F8120041437047C87C93
:103BD00000F0070088F86D000869704795F8281014
:103BE00001F00F01A86A7047039003AA012108F1B0
:103BF000080000F015BB00230022B72108F10800DF
:103C000000F046BD401C4143DFF84C05AA6A7047EE
:103C10000022022108F1080000F002BB88F86400CD
:103C200008F16402002108F1080000F0F9BA1FB59C
:103C30006FF0040490F86C20C2B1029190F85D100E
:103C40000191012290F86D108A40D2B2009290F852
:103C50006E2090F96D108A40D3B290F86F2090F8E2
:103C60006C10083000F0ADFD00B90024204604B00F
:103C700010BD0A2807D2DFF8E41431F81000DFF88D
:103C8000E01448437047002070473EB515460024B5
:103C90006A46C2E900440823083000F021FC0028ED
:103CA0007BD128609DF8030028729DF806009DF8DE
:103CB0000510090241EA00419DF8040001436960D2
:103CC0009DF8070050B1802808D29DF80000C00779
:103CD00054BF02200120286020463EBD80285CD3CE
:103CE0009DF80000C0075CBF042028609DF8070015
:103CF000FF28F1D19DF80000E0B1032827D0052866
:103D000029D0062829D0092830D00A2831D00C28FB
:103D100035D00F283CD0812817D0842819D0872887
:103D20001ED088281FD08B2826D08D282AD08E28F8
:103D30002BD030E0082028609DF80300172828BF0A
:103D40001720082128722960C6E71021FBE72021EF
:103D5000F9E74021F7E78021F5E74FF48071F2E7BA
:103D60004FF40071EFE74FF48061ECE74FF400612E
:103D7000E9E74FF48051E6E74FF40051E3E74FF4F1
:103D80008041E0E74FF40041DDE74FF48031DAE7AE
:103D90004FF40031D7E70021D5E703249CE77CB539
:103DA00004460025DFF890633068000E19D03068B3
:103DB00000F090F8316800F089F831688DF8021051
:103DC000716800F077F8716800F078F8716800F0B9
:103DD00079F871688DF80610336800F07FF80028D4
:103DE00060D1B068000E1DD000F060F900283ED10F
:103DF000B06800F06FF8B16800F068F8B1688DF84D
:103E00000210F16800F056F8F16800F057F8F16818
:103E100000F058F8F1688DF80610B36800F05EF80D
:103E200000283FD13069000E1BD000F03FF9F0B9F7
:103E3000306900F04FF8316900F048F831698DF8C9
:103E40000210716900F036F8716900F037F8716995
:103E500000F038F871698DF80610336900F03EF80B
:103E600000BBB069000E1FD000F020F908B10C258E
:103E70001EE0B06900F02EF8B16900F027F8B169D2
:103E80008DF80210F16900F015F8F16900F016F8EC
:103E9000F16900F017F8F1698DF80610B36900F0C8
:103EA0001DF808B10B2503E004F1080000F08CFDBB
:103EB000284676BD090E8DF803107047090C8DF861
:103EC00004107047090A8DF805107047090A8DF82B
:103ED00001107047000C8DF8000070471B0E5B1E30
:103EE0009BB20DF101029DF8001004F1080000F0F2
:103EF000CFBB2DE9FF4180460F46002403A8048074
:103F00008F4D286AC00002D4286A002857D4286A36
:103F1000C0F3C06020B1286AC0F30746360207E04C
:103F200098F85D00C8280EBF0126286AC0F307462E
:103F300098F85D00019000F061F800F0FFFB0028A8
:103F40003DD100F065F8002839D100F03FF801219B
:103F500098F872008140C9B2009100F043F800283F
:103F60002DD19DF80C007F492A6AC2F34172895C09
:103F700095F8232002F007029140884395F823101A
:103F800001F007018F4007438DF80C709DF80C007D
:103F90008DF80D000220009003AB3246296AC9B2A9
:103FA00008F1080000F04CFB48B964214046FFF7D7
:103FB0003EFE20B900F022F800F00DFB00B10C2409
:103FC000204604B0BDE8F081EC6D000898F873005D
:103FD000431E9B41DB0F4FF47A70029098F85D000E
:103FE0000190704798F872008340DBB298F8742013
:103FF00098F8711008F1080000F0E3BB022000906F
:1040000003AB3246296A0904090E08F1080070471B
:104010000023002298F8701008F1080000F038BB67
:104020001CB504460F203A49C96B090D01F0070180
:10403000022902D0042919D016BD00F041F8002849
:1040400030D1012300F036F800282BD19DF8000074
:1040500040F040008DF8000001236A460121FFF77F
:1040600044FF00281ED100F021F81AE000F021F8EA
:10407000002817D19DF8010040F002008DF80100E2
:1040800000F01EF870B902236A460121FFF72DFFE8
:1040900040B900F00BF828B9FF208DF8010000F0BE
:1040A00008F800B10C2016BD30020024642120461F
:1040B000BDE502236A46052104F1080000F009BBB2
:1040C0000023002294F8701004F1080000F001BBF6
:1040D00038B504460F250E49C86BC0F3001028B14F
:1040E0002046FFF79DFF0546382108E0C86B000910
:1040F00040070AD52046FFF793FF054635212800E3
:1041000003D100230022FFF7DFFF284632BD000065
:10411000D803002410B50424134A914204D0134A52
:10412000914207D1002405E00021083000F0FBFB9C
:1041300000B90524204610BD380400247004002472
:10414000A802002458040024FC6D000800C2EB0BF8
:1041500080F5E409406BED07486E0008AC6C000880
:1041600040420F00586E0008465350445346445096
:104170002DE9F84384B006461F4600250AB90125FB
:104180003BE0B1FBF2F424B1B1FBF4F0824228BF72
:10419000641E601CB1FBF0F03860DFF8F887404621
:1041A00000F02CFCDFF8F00700F028FC631C00F0A6
:1041B000E9FB684600F022FC0FF21C39484600F08B
:1041C0001DFC404600F01AFCDFF8D00700F016FC9A
:1041D0003B68C2A20F21684600F0C8FD684600F0A7
:1041E0000DFC484600F00AFC30680068C068000A10
:1041F00044EA002430680068C460284605B0BDE881
:10420000F08310B504462160201DDFF894174C227E
:10421000FDF768F8002084F8500084F8520010BDC3
:104220002DE9F14F90B000208DF800001098406803
:104230000C90109880680B901098C0680A901098A5
:104240000069029010984069019010988469C069D3
:1042500009901098056A466AD0F828B0C06A08909C
:104260001098006B03901098406B07901098806B2B
:1042700006901098D0F83C80006C05901098D0F80B
:104280004490876CD0F84CA0042900F2BC80DFE891
:1042900001F003AA81BA8C001078109981F85200BD
:1042A00000F06DFBDFF8FC0600F0A8FBDFF8F80675
:1042B000109991F8521001EB0111084400F09EFB97
:1042C000109890F852000B2860D8DFE800F006063E
:1042D0000606131321323C43505501200290002062
:1042E000019000244FF480754FF4005683464FF040
:1042F000807824E0032002900020019000244FF4F5
:10430000407583464FF400564FF0407881460EE0EA
:10431000032002900020019008244FF440754FF4D0
:1043200000564FF4006B4FF040784FF000690627BD
:1043300007E0012000F0B3F883464FF08068814623
:10434000082782465CE0042000F0A9F800F0A0F8FD
:10435000082718E0042002901020019008244FF450
:1043600080654FF4405600F093F814270BE000F0FE
:104370009FF84FF0806803E000F09AF84FF0A068D3
:104380004FF000690A274FF0005A39E001208DF8FC
:10439000000035E000F0F3FADFF8100600F02EFB25
:1043A00000F0EAFA4FF4405638E01078049000F03C
:1043B000E6FADFF8FC0500F021FB049B00F085F82D
:1043C0000DA800F01BFB00F0D7FA109800680068F9
:1043D000806820F4F810049940EA014010990968B7
:1043E000096888601AE0177800F0C9FADFF8C40598
:1043F00000F004FB3B4600F068F80DA800F0FEFA60
:1044000000F0BAFA0AE000F0BAFADFF8AC0500F002
:10441000F5FA00F0B1FA01208DF800000C9810991F
:1044200048600B98109988600A981099C8600298A3
:104430001099086101981099486110988461099851
:104440001099C86110980562109846621098C0F8DB
:1044500028B008981099C8620398109908630798C3
:10446000109948630698109988631098C0F83C80AA
:104470000598109908641098C0F8449010988764C3
:104480001098C0F84CA09DF8000011B0BDE8F08F66
:104490004FF4006B4FF080684FF000697047029056
:1044A0000020019000244FF480654FF4405670477F
:1044B000042002900020019000244FF480654FF406
:1044C00040564FF4006B03907047DFF8F0240A2148
:1044D0000DA800F04BBC00000A000000257A750012
:1044E000F0B593B004460E4615461F4600F021F97C
:1044F0005A2200F00FF9029006960F9708201190AB
:104500000798B0F5807F04BF4FF4005008901098D2
:10451000B0F1006F0CBF4FF00050002000F0BBF96D
:10452000060002D100F052F8064630001CBF206899
:1045300000F058FE304613B0F0BD78B593B000F0EF
:10454000F5F89F2200F0E6F802900F9603980128F4
:1045500005D10020079011904FF0807006E00328ED
:1045600006D10020079011904FF040700E901EE091
:10457000042818D1002006902878C22808D1109865
:10458000B0F1006F11D104201190002010900EE0C6
:10459000C82804BF1098B0F1006F06D10820119010
:1045A0000020079003E0002006900820119000F002
:1045B00073F9060002D100F009F8064630001CBF6E
:1045C000206800F00FFE304614B070BD642229460A
:1045D000206800F01CBD2DE9F84193B000F052F8BE
:1045E00000F0A7F800F095F8029006970F9694F85F
:1045F0005200012810D002280BD005280FD14FF40B
:10460000006009904FF00060109094F853001190F2
:1046100005E04FF4007007904FF000700E9000F02E
:104620003BF95FEA000804D12946204600F0DEF994
:1046300080465FEA08001CBF206800F0D3FD1DE043
:104640002DE9F84193B000F01DF800F072F800F089
:1046500060F8029006970F960020119000F01BF969
:104660005FEA000804D12946204600F0BBF98046E5
:104670005FEA08001CBF206800F0B4FD404614B09B
:10468000BDE8F0810446884617461D461A9E7047CD
:10469000F0B593B004460F4615461E4600F049F8A3
:1046A0003A4600F037F800F039F804BF00200E90C9
:1046B00000F0F2F8070006D156B1642229462068BE
:1046C00000F068FC074638001CBF206800F08AFD37
:1046D0001CE0F0B593B004460F4615461E4600F0A8
:1046E00028F83A4600F016F800F018F804BF002049
:1046F0000E9000F0D1F8070003D13EB1FFF766FF3E
:10470000074638001CBF206800F06CFD384613B027
:10471000F0BD4246049994F8500059E102900020FF
:10472000079011900F9612903000704704460D4686
:1047300016466846211D4C22FCF7D4BD2DE9F043F6
:1047400093B006468846174699461A9C1B9D6846B4
:10475000311D00F088F84246049996F8500000F0A8
:1047600037F90290069796F8510011900F94C22DD8
:1047700006D11098B0F1006F0BD1002010900AE024
:10478000C82D04BF1098B0F1006F02D10020109026
:1047900000E00020129064226946306800F0A1FB1E
:1047A000040005D164224946306800F030FC04461C
:1047B00020001CBF306800F015FD204613B0BDE896
:1047C000F0832DE9F04198B00546884616461F460D
:1047D0001E9C05A800F046F8684679491422FCF7AB
:1047E00081FD009701944246099900F091F80790E5
:1047F00001201490002017900898012805D14FF04F
:104800008070139000200C9016901398B0F1806F78
:1048100012D11F98C22804BF1598B0F1006F04D1BF
:104820004FF000501790002015904FF480600C90CE
:104830004FF440500D900B96642205A9286800F0B3
:1048400050FB040005D1209A6946286800F03EFC20
:10485000044620001CBF286800F0C4FC204618B0A5
:10486000BDE8F081291D4C22FCF73CBD78B593B022
:10487000FFF75CFF032000902A46FFF74BFF0290F2
:10488000119600F009F805001CBF206800F0AAFC92
:10489000284614B070BD129064226946206800F06A
:1048A00020BBF0B595B005460C4617461E4602A83B
:1048B000FFF7D8FF08220021684600F093FE012090
:1048C0000290224600F023F80490139700F023F89A
:1048D000040014D11A9C02200290324600F017F80E
:1048E0000490139400F017F8040008D10020009001
:1048F000502001906946286800F03EFC04462000E4
:104900001CBF286800F06EFC204615B0F0BD06996B
:1049100095F850005CE0642202A9286800F0E1BA32
:10492000BFF34F8F51E03EB50025026812689468CE
:1049300004F0E064F1B914B94FF0807404E0B4F10C
:10494000807F0CBF002401251146896821F0E061B9
:1049500021431046816000F012F81A4800F04EF82A
:10496000234600F00FF8684600F048F800F004F81D
:1049700028463EBD01203EBD05A000F03FB80548D9
:1049800000F03CB80D4A0A21684600F0EFB900007B
:104990000A000000286E0008DC6D0008346E000874
:1049A0007C6A00088C6D0008B06900082C6D000856
:1049B000A06D0008446D0008FC6B0008406E000804
:1049C000B46D00081C6C000800BF006800F00ABC51
:1049D000102905D11102012804BFD243D2B20A43E3
:1049E000104670476422006800F0D4BA6422006860
:1049F00000F00DBB002200F0FFBD000010B5044622
:104A0000FCF73AFC4FF47A7382B221469C48BDE829
:104A1000104000F053BE38B500F04AF999490868D3
:104A200080030BD400F044F80020974A106000F097
:104A30003FF8086840F4003000F039F80868C00317
:104A400021D40020914A1060BFF34F8F9048026834
:104A5000C2F34E338F4DC2F3C90443F6E07000EA4F
:104A6000431040EA847028602046441E0028F4D198
:104A70001846431E0028EED1BFF34F8F086840F45C
:104A8000803000F014F801F05BF900F016F800F047
:104A9000C8F800F08AF800F06CF801F095F900F021
:104AA000D9F801F001FA08B100F05EF9FEE70860FC
:104AB000BFF34F8FBFF36F8F704700B5AFB09C212E
:104AC00008A8FFF797FF20216846FFF793FF012012
:104AD00001F0BEFA08B100F047F902200890012069
:104AE0000B9000200C9040200D900220119000208F
:104AF0001290202013904FF496701490012015907E
:104B00000220169017901890199000201A900220F9
:104B10001B9000201C9004201D9019201E90022044
:104B20001F90209021902290239000202490259087
:104B300008A8FDF717FD08B100F016F93F20009016
:104B4000032001900020029008200390042004908C
:104B5000402005904FF4806006904FF4804007900D
:104B600037216846FDF711FF08B100F0FDF82FB0BE
:104B700000BD1FB500F04EF8474C484820600220A9
:104B80006060A1604FF0C060E0601F2020610520E0
:104B900000F036F80A20206300F02CF808B100F08D
:104BA000E3F810200090002019E01FB500F032F863
:104BB0003B4C3C48206004206060A1604FF0807056
:104BC000E0601F202061022000F01AF8216300F04D
:104BD00011F808B100F0C8F81020009001200190F1
:104BE00041F288326946204600F04DFB08B100F0E2
:104BF000BBF81FBD6163A163E163204600F0D8B834
:104C00006061A161E16121626162A1624FF0805047
:104C1000E0627047684600210022002380E80E0011
:104C2000704781B02048016841F40051016001687B
:104C300000910099016841F4804101600168009190
:104C40000099016841F400410160006800900098FB
:104C500001B070470A48154901604FF4E1314160E5
:104C600000218160C16001610821416100218161F1
:104C70004FF40041C16100210162416200F0D6BCE5
:104C80009C01002414ED00E050EF00E084ED00E012
:104C900080ED00E060EF00E01803002400500052B7
:104CA0007803002400A0005240450258004C004008
:104CB0001FB56846002100220023002480E81E0062
:104CC000FEF72DFBE0B2FEF739FB641CE0B21028C2
:104CD000F8D301208DF8000000208DF8010001902C
:104CE0001F208DF8080087208DF809000020ADF8FE
:104CF0000A0001208DF80C0000208DF80D00ADF8A1
:104D00000E006846FEF722FB01208DF801004FF0EF
:104D10001040019018208DF8080000208DF809003F
:104D200001208DF80A0003208DF80B0000208DF87B
:104D30000D0001208DF80E008DF80F006846FEF77B
:104D400005FB02208DF801004FF0E04001901A2091
:104D50008DF8080000208DF80C006846FEF7F6FA82
:104D60000420FEF7D0FA1FBD72B6FEE708B438B5CE
:104D700085B009AC00250494039500290EBF019568
:104D80000190491E0291009504AB01A9074878449F
:104D90001A30FBF78DFA019901B10D70002858BF48
:104DA000039806B030BC5DF808FB00BF73C4FFFF7A
:104DB0007CB504460025FDF7CFFB06460CB901255E
:104DC0008DE00020A065606D0028F9D1204601F03B
:104DD000BAF941F28831204600F052FA2068816821
:104DE000DFF8F0030140E0680143206941EA004137
:104DF0006069401E41EA0021E0690143206881604A
:104E00002068C16821F4E021206A01432068C16064
:104E10002068006920F4F810216B40EA0140216805
:104E2000086120680169090A606B40EA0121206875
:104E30000161A06B216848612068006820F4F85087
:104E40006168491E40EA012021680860E06D009019
:104E5000334600F091F8050041D12068C168090A85
:104E6000606A40EA01212068C1602068DFF86813A9
:104E700088421CBFDFF86413884206D1E06D0090C1
:104E8000334600F079F8050029D120680168DFF881
:104E900050030140A0680143E06B014320680160BA
:104EA0002068D0F8081121F08041A06A01432068F1
:104EB000C0F808112068006840F00100216808600F
:104EC000A069022805D12068806840F002002168AE
:104ED000886000F04BF80CBF012002206065284676
:104EE00076BDF8B500F04DF80746606D022805D193
:104EF00000F03CF80FD100F049F8F2BD142803D1BE
:104F00002868022805D106E02428F4D12868012861
:104F100001D00328EFD100963B4600F02DF818BBD6
:104F2000A0652946204600F042FA0100E5D1A96BB0
:104F300039B900963B4600F01FF802212268516201
:104F4000F2BD296811B904216165F2BD012904D1BE
:104F5000616D2429F7D01421F6E70229CDD1616DC6
:104F60001429F0D02421EFE70220F2BDE068B0F16F
:104F7000806F7047E06D009000222021204600F0F5
:104F8000F3B904460D461646FDF7E6BA0120102196
:104F9000A16570472DE9FC4105460C461646FDF714
:104FA000DBFA8046286800F1500714B90120082177
:104FB0002AE0686D042825D12868006C401CA8648C
:104FC000A86C68642C642868006820F04050296848
:104FD0000860009643460122042100F074F80100A5
:104FE00013D1286C0078387000F062F8F1D1009687
:104FF000434600F066F8010007D102212A68516299
:10500000696502E001201021A965BDE8F681F8B5C7
:1050100005460F461646FDF79FFA044628685030AD
:105020002968896C2A68D2F8102117B90120082153
:105030003CE06B6D042B37D12B681B6C5B1CAB64A5
:10504000AB6C6B642F6401232F683F6863F31D779B
:105050002B681F60EB68B3F1806F1BD12A689164E5
:105060000746009623460122062100F02CF8010095
:105070001DD13878296C087000F01AF8F1D100962B
:10508000234600F01EF8010011D102212A68516266
:105090006965F2BD2B68D3F8003113F4E06FDDD100
:1050A0002968C1F81021DBE701201021A965F2BDB4
:1050B000286C401C2864A86C401EA864A86C0028BA
:1050C000704701220221284600F04EB92DE9F8432D
:1050D00004460F461546FDF73FFA80462068866C69
:1050E000D0F81091606D042804BFF868B0F5800F07
:1050F0003AD100954346FFF73FFF98BB38682168D7
:10510000C1F8880078682168C1F880003869216892
:10511000C1F890002068016821F04351B86801434C
:10512000F868014341F0005120680160FFF71EFF5D
:10513000206805D0D0F8000110F4E06F206801D09D
:10514000866401E0C0F810910095434601220821D1
:10515000FFF714FF010009D10821226851620221E2
:10516000616503E0022001E0FFF710FFBDE8F28374
:1051700004460D46FDF7F0B938B5FFF7F9FF0346D1
:10518000606D042821D1FFF7F5FE01001FD18821B1
:105190006165296808290CD169682268C2F8301154
:1051A0001021226851622168096841F48011226847
:1051B000116021680A68DFF80C140A4029680A4364
:1051C00042F0405221680A6032BDFFF7DFFE32BD77
:1051D00000000000FCC0E0F80050005200A00052A7
:1051E000BFFFFFFE7CB504460026FDF7B5F9054676
:1051F000606D002838D02068006840070ED500F0A8
:1052000038F8E06C01F038F808B10420A065206D92
:1052100001F032F806001CBF0420A0652068006A77
:1052200080062068006818D540F0020021680860F8
:10523000E06D00902B4601220221FFF79FFE060041
:1052400015D1022021684862E06D00902B46FFF7DF
:1052500093FE06000BD12068006820F040502168C2
:1052600008600220606502E001261020A06530463B
:1052700076BD2068006820F004002168086070474F
:10528000C16500207047F8B586B006460D4600247B
:1052900018220021684600F0A5F900270C21794367
:1052A0006944781CC0B200F066F97F1C022FF5D368
:1052B000DFF814130868C00704D5086840084000E8
:1052C00008600124DFF804231068C00705D51068C2
:1052D00040084000106044F00204DFF8F43200207F
:1052E0001860186820F47F00AF687F1E40EA07400E
:1052F00018603068884226D168680190286820B11B
:105300001E6826F0300606431E60019D049EB542CD
:1053100003D11D6845F001051D600198012803D1E6
:10532000186840F002001860E00703D5086840F0F4
:1053300001000860A00703D5106840F0010010606C
:10534000002007B0F0BD904208D16868049028683A
:105350000028DAD01E6826F05006D4E7B06D40F081
:105360000800B0650120ECE72DE9F04105460E4646
:1053700090461F46069C2868006A304018BF0120EE
:10538000404511D014F1010FF5D0FDF7E5F8C01B31
:10539000844201D3002CEED102206865A86D40F054
:1053A0000100A865032000E00020BDE8F081F0B511
:1053B000002203681B6823F040530468236083685D
:1053C0003BB903681C6824F040444B681C430368E5
:1053D0001C600B68022B09D1036803F5C07403F548
:1053E000C47603F5C87503F5D07713E0032B036883
:1053F00008D103F5A07403F5A47603F5A87503F5A9
:10540000B07707E003F5807403F5847603F58875BB
:1054100003F590778B6C2360CB6A5BB18B6A3B6042
:10542000276827F47C17CB6A1F434B6B1F430B6B1A
:105430001F43276037687F094B6C43EA4717376083
:105440008B6BEBB10B682BB9CB6B5B1E06683364BF
:105450008B6BABB10B6CB3F1006F05D10368D3F864
:10546000083123F0804308E0836AB3F1804F07D10D
:105470000368D3F8083143F080430668C6F8083162
:10548000CB68002BCB692ED0002B8B6B10D0002B60
:10549000266805D04F4B00F057F800F04FF804E0B5
:1054A0004D4B00F051F800F05DF88B682B602EE05A
:1054B000002B26680AD0494B1E40CB681E434B691F
:1054C0001E430B691E4300F039F809E0B6090F6965
:1054D000CB681F434B691F4347EA861600F042F82A
:1054E0008B682B601AE0B3B18B6B002B256808D05A
:1054F0003B4B1D4000F01CF81D438B6B1D430B6C98
:1055000003E025F47C5500F013F81D4325608B69FA
:105510000468A36402E00122082383658B6B2BB12E
:105520000B681BB9C96B491E006801641046F0BDC9
:10553000CB691D434B6A1D430B6A70478B6B1E433F
:105540000B6C1E43266070471E40CB681E434B69A0
:105550001E430B691E43CB691E434B6A1E430B6AF5
:105560001E43704726604B69082B03D1236843F024
:105570000063236070470128154802680AD112F0C1
:10558000020218BF01224A600268D2060FD50068E5
:10559000800610E0036802F00102C3F340039A4260
:1055A00014BF002201224A600268D20601D4002002
:1055B00004E0006840064CBF70201020086070476F
:1055C00000000000F7FFFFCF0050005200A0005283
:1055D00000B40052C0C0FFF0C0C0FFFFC0FFFFF02A
:1055E000FFC0FFF010B5044610460A4601462046AB
:1055F00000F0A0FE204610BD00B500BF1300964687
:105600009446103928BFA0E80C50FAD85FEA417CD4
:1056100028BF0CC048BF40F8042BC90728BF20F89A
:10562000022B48BF00F8012B00BD000010B504009C
:1056300001D1012010BDD4F8880008B900F023F88A
:1056400000F026F808B100F01BF800F016F8012869
:1056500002D000F028F800E010BD2168886000F05A
:1056600004F8BDE8104000F074BA2068006840F00B
:1056700001002168086020467047204600F08EB87F
:10568000204600F0F9B984F88400204600F085BE79
:105690002420C4F888002068006840084000216881
:1056A0000860A06A70472068406820F49040216834
:1056B00048602068806820F02A0070472DE9FC418E
:1056C00006460D4614461F46D6F88800202847D1C6
:1056D0000DB1200001D1012043E00020C6F8900068
:1056E0002120C6F88800FCF737FF8046A6F8544012
:1056F000A6F85640B068B0F5805F04BF3069002856
:105700001ABF2C460025002414E0002280213046D8
:1057100000F070FAF8B9002C12BF14F8010B35F83C
:10572000020BC0F3080031688862B6F85600401ECC
:10573000A6F85600B6F85600002800974346E4D174
:1057400000224021304600F055FA20B92020C6F84A
:105750008800002005E02020C6F88800032000E033
:105760000220BDE8F6812020C4F888007047206838
:1057700050E8001F024621F4907142E80010002812
:1057800070472068083050E8001F206800F10802C8
:105790004908490042E800100028704738B504461F
:1057A000002520680168DFF84C050140A06801432E
:1057B0002069014360690143E06901432068016099
:1057C0002068416821F44051E0680143206841604D
:1057D000A269DFF82415206888421CBF206A0243B2
:1057E00020688368DFF8140503401A43206882604C
:1057F0002068C26A1209606A40EA02122068C26226
:105800002068DFF8FC2490423CD1DFF8F80400F077
:105810002EF953D8DFE800F00366686A6C6E012049
:10582000E169B1F5004F40F0CB8090B1012800F064
:10583000B280042800F0B280082800F0B28010285E
:1058400000F0B280202800F0B580402800F0B5803C
:10585000ECE0FDF747FA002813D000F0F2F8490811
:1058600001EB40016068B1FBF0F04FF6F071A0F180
:1058700010028A42ECD20140C0F34200014320688A
:10588000C160D4E0DFF8802490421CBFDFF87C24A4
:1058900090420FD0DFF8782490421CBFDFF87424C8
:1058A000904207D0DFF8702490421CBFDFF86C24D0
:1058B00090420BD1DFF8680400F0D9F81CD8DFE87B
:1058C00000F0031113151719002016E0884213D1B8
:1058D000DFF8500400F0CBF80ED8DFE800F0360314
:1058E0000507090B042008E0082006E0102004E06A
:1058F000202002E0402000E0802022688A428FD1F0
:10590000022822D0042808D008281BD010281FD035
:10591000202823D0402824D088E0FDF71EFA002854
:10592000AFD0DFF80414626A31F81220B0FBF2F253
:10593000636803EB43039A4278D363681B03934283
:1059400012D273E0FDF730FAE9E7FDF7E3F9E6E795
:1059500000F080F8E5D500F085F8E0E7DFF8CC034B
:10596000DFE74FF40040DCE7626A31F81210B0FB69
:10597000F1F260684008002110EB022051EB126147
:1059800062680023FBF7E4FDA0F54071DFF8A02377
:1059900091424BD232E0FDF7B1F95CE7FDF7DDF95A
:1059A00059E7FDF701FA56E700F054F804D500F086
:1059B00059F850E7DFF874034FE74FF400404CE725
:1059C00060B101281DD004281ED008281FD010283F
:1059D00020D0202824D0402825D027E0FDF782F9C8
:1059E00028B300F02EF800EB5100B0FBF1F0A0F16D
:1059F00010014FF6F072914218D280B22168C8604F
:105A000015E0FDF77BF9EBE7FDF7A7F9E8E7FDF710
:105A1000CBF9E5E700F01EF8E3D500F023F8DFE767
:105A2000DFF80803DDE74FF40040DAE70125012045
:105A3000A4F86A00A4F8680000206067A067284600
:105A400032BDDFF8E412626A31F81210B0FBF1F0F7
:105A500061687047DFF8DC1208688006DFF8D8025A
:105A6000704700000968C1F3C101C8407047006871
:105A700000F007000528704790F82810090707D59F
:105A800001684A6822F40042816B0A4301684A6057
:105A900090F82810C90707D501684A6822F4003237
:105AA000C16A0A4301684A6090F82810890707D53F
:105AB00001684A6822F48032016B0A4301684A6037
:105AC00090F82810490707D501684A6822F4802217
:105AD000416B0A4301684A6090F82810C90607D54F
