:020000040800F2
:1000000000040020A9820008C5810008C7810008FB
:10001000C9810008CB810008CD81000800000000E4
:10002000000000000000000000000000CF81000878
:10003000D181000800000000D3810008D5810008AC
:100040000D830008000000001183000815830008DC
:10005000198300081D830008000000000000000054
:100060002183000825830008298300080000000080
:10007000000000002D8300080000000000000000C8
:100080003183000835830008398300083D83000868
:100090004183000845830008498300084D83000818
:1000A0005183000855830008598300085D830008C8
:1000B0006183000865830008698300086D83000878
:1000C0007183000875830008798300087D83000828
:1000D0008183000885830008898300088D830008D8
:1000E0009183000895830008998300089D83000888
:1000F000A1830008A5830008A9830008AD83000838
:10010000B1830008B5830008B9830008BD830008E7
:10011000C1830008C5830008C9830008CD83000897
:10012000D1830008D5830008D9830008DD83000847
:10013000E1830008E5830008E9830008ED830008F7
:10014000F1830008F5830008F9830008FD830008A7
:100150000184000805840008098400080D84000853
:100160001184000815840008198400081D84000803
:100170002184000825840008298400082D840008B3
:100180003184000835840008398400083D84000863
:100190004184000845840008498400084D84000813
:1001A0005184000855840008598400085D840008C3
:1001B0006184000865840008698400086D84000873
:1001C0007184000875840008798400087D84000823
:1001D0008184000885840008898400088D840008D3
:1001E0009184000895840008998400089D84000883
:1001F000A1840008A58400080000000000000000A1
:10020000A9840008AD840008B1840008B584000802
:10021000B9840008BD840008C1840008C5840008B2
:10022000C9840008CD840008D1840008D584000862
:10023000D9840008DD840008E1840008E584000812
:10024000E9840008ED840008F1840008F5840008C2
:10025000F9840008FD840008018500080585000870
:10026000098500080D85000811850008158500081E
:10027000198500081D8500082185000825850008CE
:10028000298500082D85000831850008358500087E
:10029000398500083D85000841850008458500082E
:1002A000498500084D8500085185000855850008DE
:1002B0002DE9F843050000275FF000082868400397
:1002C00071D5DFF8E89AD9F8000010F44070040006
:1002D000002C23D0E86F10F4407084421ED0DFF869
:1002E000D00A016851F4807101600068C00502D431
:1002F0000120070012E0D9F8000030F4407004003B
:10030000D9F8000050F48030C9F80000D9F8000096
:1003100030F48030C9F80000C9F800403800C0B29D
:1003200000283FD1E86FB0F5807F0FD101F01AFDB2
:100330000600D9F80000800708D401F013FD801BE7
:1003400041F289318842F4D3032007003800C0B25B
:10035000002825D1E86F10F47C3F0CD0DFF8540A58
:10036000016831F47C51EA6FDFF84C3A13EA12135A
:100370001943016005E0DFF83C0A016831F47C5163
:100380000160D9F80000E96F11F440710843C9F821
:100390000000D9F8000050F40040C9F8000002E065
:1003A000B84600E0B8462878C00728D56868002815
:1003B00005D002280BD003D303280FD00FE010E0A4
:1003C000DFF8F809016851F04001016009E0DFF849
:1003D000EC09016851F48021016002E001E0012094
:1003E00007003800C0B2002808D1DFF8D4190A6825
:1003F00092089200686802430A6000E0B8462878D4
:10040000800726D5A868002804D0102803D020280B
:1004100008D00EE00FE0DFF8A409016851F40021D4
:10042000016008E0DFF89409016851F4801101606F
:1004300001E0012007003800C0B2002808D1DFF831
:1004400080190A6832F03002A86802430A6000E0AE
:10045000B8462878400726D5E868002804D0402808
:1004600003D0802808D00EE00FE0DFF850090168C3
:1004700051F40021016008E0DFF84009016851F4FF
:100480008011016001E0012007003800C0B200289F
:1004900008D1DFF82C190A6832F0C002E86802437C
:1004A0000A6000E0B8462878000707D5DFF8101981
:1004B0000A6832F04052286902430A6028688002C4
:1004C00023D5686D002802D0042807D00DE0DFF89E
:1004D000EC08016851F40021016008E0DFF8DC0855
:1004E000016851F48011016001E00120070038002B
:1004F000C0B2002808D1DFF8C8180A6832F0040238
:10050000686D02430A6000E0B8462878C00628D526
:100510006869002806D0B0F1807F0AD0B0F1007F72
:100520000ED00EE0DFF89408016851F480310160CC
:1005300009E0DFF88808016851F00051016002E02D
:1005400001E0012007003800C0B2002808D1DFF820
:1005500070180A6832F04072686902430A6000E06D
:10056000B8462878800631D5A86900281DD0B0F596
:10057000801F0CD0B0F5001F10D0B0F5401F14D074
:10058000B0F5800F11D0B0F5A00F0ED00EE0DFF85F
:100590002C08016851F48031016009E0DFF81C0883
:1005A000016851F00061016002E001E001200700F4
:1005B0003800C0B2002808D1DFF804180A6832F405
:1005C000E002A86902430A6000E0B84628784006C5
:1005D00007D5DFF8F0170A6832F04052E8690243A5
:1005E0000A602878000607D5DFF8D4170A6832F4C5
:1005F0004032286A02430A602868C0051ED5686A2E
:10060000002803D0B0F5802F01D007E008E0DFF824
:10061000AC07016851F08041016001E00120070052
:100620003800C0B2002808D1DFF894170A6832F405
:100630008022686A02430A6000E0B84628688005A4
:1006400028D5A86A002814D0B0F5800F03D0B0F5E3
:10065000000F07D00EE0DFF86407016851F0400199
:10066000016009E0DFF85407016851F4803101604E
:1006700002E001E0012007003800C0B2002808D1E4
:10068000DFF840170A6832F44002A86A02430A60A1
:1006900000E0B8462868000524D5E86A002810D094
:1006A000B0F5805F06D0B0F5005F0AD0B0F5405FCE
:1006B00007D007E0DFF80407016851F0005101603E
:1006C00002E001E0012007003800C0B2002808D194
:1006D000DFF8F0160A6832F44052E86A02430A6012
:1006E00000E0B8462868400524D5286B002810D0C3
:1006F000B0F5807F06D0B0F5007F0AD0B0F5407F1E
:1007000007D007E0DFF8B406016851F0005101603E
:1007100002E001E0012007003800C0B2002808D143
:10072000DFF8A0160A6832F44072286B02430A60B0
:1007300000E0B8462868C00434D5686B00280FD0A4
:10074000B0F5803F0DD0B0F5003F11D0B0F5403F7F
:1007500015D0B0F5802F13D0B0F5A02F11D011E037
:1007600012E0DFF85806016851F4803101600BE0B7
:10077000DFF84806016851F00051016004E003E031
:1007800002E001E0012007003800C0B2002808D1D3
:10079000DFF830160A6832F4E022686B02430A6020
:1007A00000E0B8462868800434D5A86B00280FD034
:1007B000B0F5807F0DD0B0F5007F11D0B0F5407F4F
:1007C00015D0B0F5806F13D0B0F5A06F11D011E047
:1007D00012E0DFF8E805016851F4803101600BE0B8
:1007E000DFF8D805016851F00051016004E003E032
:1007F00002E001E0012007003800C0B2002808D163
:10080000DFF8C4150A6832F4E062A86B02430A609C
:1008100000E0B8462868400434D5E86B00280FD0C3
:10082000B0F5805F0DD0B0F5005F11D0B0F5405F3E
:1008300015D0B0F5804F13D0B0F5A04F11D011E016
:1008400012E0DFF87805016851F4803101600BE0B7
:10085000DFF86805016851F00051016004E003E031
:1008600002E001E0012007003800C0B2002808D1F2
:10087000DFF854150A6832F4E042E86B02430A607C
:1008800000E0B846286800042DD5286C002808D060
:1008900002280ED006D3042813D011D3052811D076
:1008A00011E012E0DFF81405016851F40031016035
:1008B0000BE0DFF80805016851F08051016004E0A9
:1008C00003E002E001E0012007003800C0B2002888
:1008D00008D1DFF8F4140A68D208D200286C024369
:1008E0000A6000E0B8462868C00305D5DFF8CC04EC
:1008F000016851F000510160286880031ED5A86C82
:10090000002803D0B0F1006F07D007E0DFF8AC0497
:10091000016851F00051016002E001E00120070090
:100920003800C0B2002808D1DFF894140A6832F009
:100930000062A86C02430A6000E0B8462868000321
:1009400036D5E86C00280CD0B0F5803F10D0B0F55B
:10095000003F14D0B0F5403F18D0B0F5802F16D02E
:1009600016E0DFF85804016851F04001016011E021
:10097000DFF84804016851F4803101600AE0DFF8D3
:100980003C04016851F00061016003E002E001E015
:10099000012007003800C0B2002808D1DFF82C146D
:1009A0000A6832F4E022E86C02430A6000E0B846CC
:1009B0002868C0023AD5286D00280FD0B0F5801FF6
:1009C00013D0B0F5001F17D0B0F5401F1BD0B0F505
:1009D000800F19D0B0F5A00F17D017E0DFF8DC03B7
:1009E000016851F04001016012E0DFF8D0030168B6
:1009F00051F4803101600BE0DFF8C003016851F071
:100A00000061016004E003E002E001E00120070072
:100A10003800C0B2002808D1DFF8B0130A6832F4F9
:100A2000E002286D02430A6000E0B84628684002F0
:100A300032D5A86E002809D0B0F1807F0DD0B0F17A
:100A4000007F11D0B0F1407F15D015E0DFF86C03C6
:100A5000016851F04001016010E0DFF860030168B7
:100A600051F48021016009E0DFF85003016851F082
:100A70000051016002E001E0012007003800C0B22F
:100A8000002808D1DFF83C130A6832F04072A86EE3
:100A900002430A6000E0B8462868000236D5A86D17
:100AA00000280CD0B0F5807F10D0B0F5007F14D0B6
:100AB000B0F5407F18D0B0F5806F16D016E0DFF8A3
:100AC000FC02016851F04001016011E0DFF8EC0226
:100AD000016851F4803101600AE0DFF8E00201684A
:100AE00051F00061016003E002E001E00120070035
:100AF0003800C0B2002808D1DFF8D0120A6832F4FA
:100B0000E062A86D02430A6000E0B8462868C001B0
:100B10002FD5E86D002808D010280CD0202810D040
:100B2000302814D0402813D013E0A448016851F0B5
:100B3000400101600FE0A148016851F4803101607B
:100B400009E09E48016851F00061016003E002E0A5
:100B500001E0012007003800C0B2002808D1DFF80A
:100B600064120A6832F07002E86D02430A6000E025
:100B7000B846286880012DD5286E00280AD0102894
:100B800009D020280DD0302811D0402810D050286E
:100B90000FD00FE010E08948016851F40031016086
:100BA0000AE08648016851F08051016004E003E0EA
:100BB00002E001E0012007003800C0B2002808D19F
:100BC000DFF808120A6832F07002286E02430A60E9
:100BD00000E0B846286840012DD5686E00280AD08C
:100BE000102809D020280DD0302811D0402810D04E
:100BF00050280FD00FE010E07048016851F4003128
:100C000001600AE06D48016851F08051016004E024
:100C100003E002E001E0012007003800C0B2002834
:100C200008D1DFF8A4110A6832F07002686E02433E
:100C30000A6000E0B8462868C0002AD5E86E00289F
:100C400008D002280DD006D3042811D00FD30528D0
:100C50000FD00FE010E05948016851F400310160F5
:100C60000AE05648016851F08051016004E003E059
:100C700002E001E0012007003800C0B2002807D1DF
:100C800052490A68D208D200E86E02430A6000E0C6
:100C9000B846286880002AD5286F002808D0022886
:100CA0000DD006D3042811D00FD305280FD00FE0A4
:100CB00010E04248016851F4003101600AE03F4809
:100CC000016851F08051016004E003E002E001E0BE
:100CD000012007003800C0B2002807D139490A684E
:100CE000D208D200286F02430A6000E0B8462868A4
:100CF00040001ED5686F00280BD0B0F5805F08D08B
:100D0000B0F5005F06D12D48016851F080510160B7
:100D100002E001E0012007003800C0B2002807D13E
:100D200027490A6832F44052686F02430A6000E0C3
:100D3000B8462868002822D5A86F00280FD0B0F543
:100D4000804F06D0B0F5004F09D0B0F5404F06D027
:100D500006E01A48016851F08051016002E001E0AC
:100D6000012007003800C0B2002807D114490A68E2
:100D700032F44042A86F02430A6000E0B846286897
:100D8000000109D50B49086830F4004008600A6882
:100D9000D5F8800002430A604046C0B2002801D165
:100DA000002000E00120BDE8F283000070440258FA
:100DB0000048025810440258CFFFFF0F2C4402583D
:100DC0004C44025850440258584402585444025863
:100DD0002DE9F04107005FF000083800012872D0CB
:100DE000022800F0BB80042800F0EF80082800F003
:100DF0002681102800F05781202800F07E814028AD
:100E000000F0CB81802800F0F581B0F5807F00F004
:100E10002C82B0F5007F00F04A82B0F5806F00F0C0
:100E20007482B0F5006F00F0AC82B0F5805F00F026
:100E3000E482B0F5005F00F02983B0F5804F00F048
:100E40006D83B0F5004F00F0B183B0F5803F00F046
:100E5000F983B0F5003F00F0FF83B0F5802F00F07C
:100E60001784B0F5002F00F05A84B0F5801F00F011
:100E70008F84B0F5001F00F0C884B0F5800F00F03B
:100E8000DD84B0F5000F00F01585B0F1807F00F033
:100E90004A85B0F1007F00F08985B0F1806F00F0E5
:100EA000D285B0F1805F00F01B86B0F1005F00F0EA
:100EB0006186B0F1804F00F0AB86B0F1004F00F0DA
:100EC000D48600F004BFDFF8840A006810F4E04024
:100ED000B0F5A04F02D14FF4A04404E0DFF8700A4F
:100EE000046814F003042000002809D001280BD066
:100EF000022812D003281AD0B0F5A04F27D02BE03B
:100F000001F006FC804627E0DFF8480A006840064A
:100F100002D501F03FFC80461EE0DFF8380A006889
:100F2000C00A000602D501F05FFC804614E0DFF83D
:100F3000280A0168490709D50168890606D5DFF83E
:100F40001C1A0068C0F3C100C140884604E001F0EB
:100F5000DFFB80088046FFE700F0B9BEDFF8EC0950
:100F6000006810F07000402801D1402404E0DFF850
:100F7000E009046814F030042000002806D010288E
:100F800008D0202810D0402818D01CE001F0C0FB69
:100F9000804618E0DFF8BC090068C00AC00502D529
:100FA00001F030FC80460EE0DFF8A8090068C00AB6
:100FB000800502D501F036FC804604E001F0A8FB74
:100FC00080088046FFE700F082BEDFF880090068F5
:100FD00010F4E060B0F5806F02D14FF4806404E05B
:100FE000DFF86C09046814F0C0042000002807D062
:100FF000402809D0802811D0B0F5806F18D01CE0AF
:1010000001F086FB804618E0DFF848090068C00A56
:10101000C00502D501F0F6FB80460EE0DFF834098A
:101020000068C00A800502D501F0FCFB804604E0A0
:1010300001F06EFB80088046FFE700F048BEDFF855
:101040001009006810F0405004002000002806D06D
:10105000B0F1805F13D0B0F1005F19D021E0DFF86C
:10106000F8080168490709D50168890606D5DFF83F
:10107000EC180068C0F3C100C140884611E0DFF8F9
:10108000D8080068C00502D5DFF8080B804608E0E4
:10109000DFF8C4080068800302D5DFF8FC0A804648
:1010A000FFE700F014BEDFF8A808006810F04070F9
:1010B00004002000002806D0B0F1807F0DD0B0F1F0
:1010C000007F14D017E0DFF88C080068C00A8006A3
:1010D00002D501F06BFB80460DE0DFF87808006870
:1010E000800D000602D501F0C7FB804603E000F04A
:1010F000F9FD8046FFE700F0EABDDFF8540800681C
:1011000010F4E0000400200000280FD0B0F5801F8C
:1011100010D0B0F5001F17D0B0F5401F1ED0B0F5AD
:10112000800F1FD0B0F5A00F25D034E001F0F0FA09
:10113000804630E0DFF81C080068C00A800602D54F
:1011400001F034FB804626E0DFF808080068800DD7
:10115000800602D501F074FB80461CE04BF680301F
:10116000804618E0DFF8F0070068C00502D5DFF818
:10117000240A80460FE0DFF8E0070168490709D537
:101180000168890606D5DFF8D4170068C0F3C100EE
:10119000C1408846FFE700F09ABDDFF8F40A006816
:1011A00010F0405004002000002806D0B0F1805F0D
:1011B0000CD0B0F1005F12D01AE0DFF8F80A006836
:1011C000800702D54FF40040804611E0DFF8E80ABE
:1011D0000068800702D54FF4FA40804608E0DFF847
:1011E00078070068C00502D5DFF8A8098046FFE748
:1011F00000F06DBDDFF85807016811F440310C00B4
:101200002100002906D0B1F5803F04D0B1F5003FA0
:101210000AD028E027E0DFF840070068800302D505
:10122000DFF8740980461EE0006810F48020050095
:101230002800002803D0B0F5802F09D012E0DFF895
:1012400018070068800302D5DFF84C09804609E0E2
:10125000DFF800070068800DC00502D501F018FB1B
:101260008046FFE7FFE700F032BDDFF8E4060068E4
:1012700010F4802004002000002803D0B0F5802F57
:1012800009D012E0DFF8D0060068800302D5DFF84D
:101290000809804609E0DFF8BC060068800DC0053B
:1012A00002D501F0F5FA8046FFE700F010BDDFF847
:1012B000E009006810F4400004002000002806D077
:1012C000B0F5800F0CD0B0F5000F12D01BE0DFF8A6
:1012D00088060068800302D5DFF8BC08804612E06B
:1012E000DFF870060068400602D501F053FA804628
:1012F00009E0DFF860060068C00A800602D501F048
:1013000055FA8046FFE700F0E2BCDFF88409006888
:1013100010F4407004002000002809D0B0F5807F50
:101320000AD0B0F5007F11D0B0F5407F1ED026E086
:1013300001F004FA804622E0DFF818060068800D0C
:10134000000602D501F098FA804618E0DFF808069A
:101350000168490709D50168890606D5DFF8FC153B
:101360000068C0F3C100C140884608E0DFF8E80526
:101370000068C00502D5DFF81C088046FFE700F0D2
:10138000A6BCDFF80C09006810F4405004002000EF
:10139000002809D0B0F5805F0AD0B0F5005F11D009
:1013A000B0F5405F1ED026E001F0C8F9804622E08B
:1013B000DFF8A0050068800D000602D501F05CFA98
:1013C000804618E0DFF890050168490709D50168F3
:1013D000890606D5DFF884150068C0F3C100C14056
:1013E000884608E0DFF870050068C00502D5DFF820
:1013F000A4078046FFE700F06ABCDFF894080068A5
:1014000010F4E0200400200000280FD0B0F5803F49
:1014100010D0B0F5003F17D0B0F5403F1ED0B0F56A
:10142000802F24D0B0F5A02F2AD02DE001F086F92E
:10143000804629E0DFF81C050068C00A800602D556
:1014400001F0B4F980461FE0DFF808050068800D60
:10145000000602D501F010FA804615E0DFF85408C6
:101460000068800702D54FF4004080460CE0DFF8AA
:1014700048080068800702D54FF4FA40804603E030
:1014800000F030FC8046FFE700F021BCDFF8500898
:10149000006810F4E0600400200000280FD0B0F5D0
:1014A000807F10D0B0F5007F17D0B0F5407F1ED000
:1014B000B0F5806F24D0B0F5A06F2AD02DE001F0F8
:1014C0005BF9804629E0DFF88C040068C00A8006DA
:1014D00002D501F06BF980461FE0DFF87804006860
:1014E000800D000602D501F0C7F9804615E0DFF84F
:1014F000C4070068800702D54FF4004080460CE026
:10150000DFF8B4070068800702D54FF4FA40804640
:1015100003E000F0E7FB8046FFE7D8E3DFF8C00711
:10152000006810F4E0400400200000280FD0B0F55F
:10153000805F10D0B0F5005F17D0B0F5405F1ED0CF
:10154000B0F5804F24D0B0F5A04F2AD02DE001F0A7
:1015500013F9804629E0DFF8FC030068C00A800622
:1015600002D501F023F980461FE0DFF8E8030068A8
:10157000800D000602D501F07FF9804615E0DFF806
:1015800034070068800702D54FF4004080460CE025
:10159000DFF824070068800702D54FF4FA40804640
:1015A00003E000F09FFB8046FFE790E3DFF83007A1
:1015B000006810F007000400002C08D0022C14D0A2
:1015C00009D3042C2BD01AD3052C31D039E001F0EB
:1015D000D3F8804635E0DFF87C030068C00A400697
:1015E00002D501F0F3F880462BE0DFF868030068CD
:1015F000800D400602D501F031F9804621E0DFF888
:1016000058030168490709D50168890606D5DFF83E
:101610004C130068C0F3C100C140884611E0DFF8F8
:1016200038030068C00502D5DFF86805804608E089
:10163000DFF880060068800702D54FF4004080463E
:10164000FFE744E3DFF80C030068800D000602D5D5
:1016500001F012F980463AE3DFF8F402006810F076
:10166000006004002000002803D0B0F1006F0AD011
:101670000DE0DFF8E0020068800D000602D501F001
:10168000FBF8804603E000F02DFB8046FFE71EE3F9
:10169000DFF82006016811F44071B1F5407F08D1F0
:1016A000DFF894160C68240114F47C3454F440746C
:1016B00002E0046814F440742100002906D0B1F55A
:1016C000807F04D0B1F5007F08D010E026E00068EC
:1016D000800702D54FF4004080461FE0DFF8D805B0
:1016E0000068800702D54FF4FA40804616E0006893
:1016F00010F44070B0F5407F10D197480068800327
:101700000CD5DFF834060068C0F305200600022E71
:1017100004D3DFF88404B0FBF6F08046D7E2DFF8AC
:101720001C06006810F4E0200400200000280CD003
:10173000B0F5803F11D0B0F5003F17D0B0F5403F75
:1017400021D0B0F5802F1AD021E0824800684006F1
:1017500002D501F01FF8804619E07E480068C00AF3
:10176000800602D501F022F8804610E07948006832
:10177000800D800602D501F063F8804607E000F096
:10178000B1FA804603E04BF680308046FFE79EE2E8
:10179000DFF8A805006810F4E0000400200000282D
:1017A0000FD0B0F5801F14D0B0F5001F1AD0B0F5DF
:1017B000401F25D0B0F5800F1DD0B0F5A00F1ED072
:1017C00022E064480068400602D500F0E3FF80464E
:1017D0001AE060480068C00A800602D500F0E6FF03
:1017E000804611E05B480068800D800602D501F05C
:1017F00027F8804608E000F075FA804604E003E030
:101800004BF680308046FFE761E25148006810F0F7
:1018100004000400002C08D14E480068C00AC0052E
:101820000BD500F0EFFF804607E04A480068C00A89
:10183000800502D500F0F6FF804648E2DFF850044C
:10184000006810F0407004002000002809D0B0F1BA
:10185000807F0ED0B0F1007F14D0B0F1407F1AD05D
:1018600027E03C480068400602D500F093FF804620
:101870001FE038480068C00A000602D500F0B4FF37
:10188000804616E033480068800D000602D500F05F
:10189000F3FF80460DE030480168490708D501682C
:1018A000890605D52D490068C0F3C100C1408846AE
:1018B000FFE70CE2DFF88404006810F4E060040045
:1018C000200000280CD0B0F5807F11D0B0F5007F4B
:1018D00017D0B0F5407F21D0B0F5806F1AD021E04D
:1018E0001C480068400602D500F054FF804619E00D
:1018F00018480068C00A800602D500F057FF8046ED
:1019000010E014480068800D800602D500F098FFB2
:10191000804607E000F0E6F9804603E04BF68030B1
:101920008046FFE7D3E1DFF86803006810F070003D
:1019300004002000002813D010281AD0202822D01C
:1019400030282ED0402828D02FE000BF0045025874
:101950004C4402582C440258004402580090D003D2
:10196000DFF8DC030068400602D500F013FF804674
:101970001BE0DFF8CC030068C00A800602D500F047
:1019800015FF804611E0DFF8B8030068800D80067F
:1019900002D500F055FF804607E000F0A3F980462D
:1019A00003E04BF680308046FFE790E1DFF88C03E0
:1019B000006810F070000400200000280AD01028F1
:1019C0000CD0202814D030281CD040282AD05028F1
:1019D00030D037E000F0C0FE804633E0DFF860032F
:1019E0000068C00A400602D500F0F0FE804629E0FB
:1019F000DFF84C030068800D400602D500F02EFF92
:101A000080461FE0DFF83C030168490709D50168FB
:101A1000890606D5DFF830130068C0F3C100C14065
:101A200088460FE0DFF81C030068C00501D559485F
:101A3000804607E0DFF80C030068800301D55648B4
:101A40008046FFE743E1DFF89802006810F070007D
:101A50000400200000280AD010280CD0202814D020
:101A600030281CD040282AD0502830D037E000F051
:101A700083FE804633E0DFF8C8020068C00A4006F3
:101A800002D500F0A3FE804629E0DFF8B40200682A
:101A9000800D400602D500F0E1FE80461FE0DFF831
:101AA000A4020168490709D50168890606D5DFF84F
:101AB00098120068C0F3C100C14088460FE0DFF80B
:101AC00084020068C00501D53248804607E0DFF88F
:101AD00074020068800301D52F488046FFE7F6E0D6
:101AE000DFF85802006810F007000400002C08D04E
:101AF000022C14D009D3042C2BD01AD3052C30D0AF
:101B000037E000F029FE804633E0DFF83402006859
:101B1000C00A400602D500F059FE804629E0DFF8F1
:101B200020020068800D400602D500F097FE804636
:101B30001FE0DFF810020168490709D5016889062E
:101B400006D5DFF804120068C0F3C100C140884622
:101B50000FE0DFF8F0010068C00501D50D488046B0
:101B600007E054480068800702D54FF400408046E3
:101B7000FFE7ACE04648006810F007000400002CC6
:101B80000CD0022C18D00DD3042C2FD01ED3052C32
:101B900035D03CE000093D0000366E0100F0CEFD7E
:101BA000804634E0DFF898010068C00A400602D59C
:101BB00000F00CFE80462AE0DFF884010068800D0A
:101BC000400602D500F04AFE804620E0DFF87401AE
:101BD0000168490709D50168890606D5DFF868114B
:101BE0000068C0F3C100C140884610E0DFF854012E
:101BF0000068C00502D5DFF85401804607E02D4893
:101C00000068800702D54FF400408046FFE75EE0A1
:101C1000DFF83C01006810F4405004002000002868
:101C200006D0B0F5805F0CD0B0F5005F12D01BE09D
:101C3000DFF810010068800302D5DFF81801804644
:101C400012E0DFF800010068800302D5DFF8080128
:101C5000804609E0DFF8E8000068800D400602D504
:101C600000F0FCFD8046FFE731E0DFF8E4000068AB
:101C700010F440400400200000280BD0B0F5804F45
:101C80000FD0B0F5004F19D0B0F5404F1DD01DE07A
:101C9000504402582B480068800401D52F488046E4
:101CA00014E027480068800D400602D500F0D6FDFC
:101CB00080460BE070440258744402582148006882
:101CC000800301D52348804600E0FFE7FFE7404658
:101CD000BDE8F08122490A6802430A6070470000AB
:101CE0005844025800201A49096811F0405100294F
:101CF0000DD1144A13685B071CD513689B0619D5D0
:101D0000114B1268C2F3C102D340180012E0B1F1C6
:101D1000805F06D10B4A1268D2050BD50B4A100022
:101D200008E0B1F1005F05D1064A1268920301D5BF
:101D3000084A1000704700001044025854440258EA
:101D40002C440258004402580090D00300093D0082
:101D50004C44025800366E01001BB700006CDC02D8
:101D60000045025801480068704700BF680400241D
:101D70002DE9F84F0700002F01D101209AE2DFF88A
:101D80008809056815F03805DFF8380A066816F086
:101D90000306DFF878A7DAF8004014F02854387802
:101DA000C00740F18B80102D03D0002C07D0022EED
:101DB00005D17868002840F0818001207AE27868B7
:101DC000B0F5803F06D1DAF8000050F48030CAF850
:101DD000000055E07868002812D1DAF8000030F4ED
:101DE0008030CAF80000DAF8000030F40020CAF8A9
:101DF0000000DAF8000030F48020CAF800003FE06C
:101E00007868B0F5A02F12D1DAF8000050F48020E5
:101E1000CAF80000DAF8000030F40020CAF8000028
:101E2000DAF8000050F48030CAF8000028E0786842
:101E3000B0F5502F12D1DAF8000050F48020CAF823
:101E40000000DAF8000050F40020CAF80000DAF8C8
:101E5000000050F48030CAF8000011E0DAF8000009
:101E600030F48030CAF80000DAF8000030F4802046
:101E7000CAF80000DAF8000030F40020CAF80000C8
:101E8000FFF770FF8046786800280BD0DAF8000072
:101E9000800313D4FFF766FFB0EB08006528F5D385
:101EA000032007E2DAF80000800307D5FFF75AFFA6
:101EB000B0EB08006528F5D30320FBE138788007F4
:101EC00040F17F80002D03D0002C40D0002E3ED169
:101ED000F868002801D10120ECE1DAF8000010F0E8
:101EE00018008146002E06D1002C04D038698145A7
:101EF00001D00120DEE1DAF8001031F01901386973
:101F0000014351F00101CAF80010002D0CD1DFF897
:101F1000FC170122DAF80000C0F3C1008240B1FBD7
:101F2000F2F0DFF8F0150860DFF8EC05006800F06B
:101F300091FE002801D00120BCE1DFF8D405016842
:101F400031F0FE417A6951EA0261016039E0F868D6
:101F5000002821D0DAF8001031F01901F8680143A7
:101F600038690143CAF80010DFF8A405016831F0B0
:101F7000FE417A6951EA02610160FFF7F3FE804693
:101F8000DAF8000040071CD4FFF7ECFEB0EB0800C5
:101F90000228F5D303208DE1DAF800004008400064
:101FA000CAF80000FFF7DEFE8046DAF800004007BE
:101FB00007D5FFF7D7FEB0EB08000228F5D30320C2
:101FC00078E13878C00637D5082D03D0002C06D02C
:101FD000012E04D1386A00282ED101206AE1386A26
:101FE000002814D0DAF8000050F08000CAF8000091
:101FF000FFF7B8FE8046DAF80000C0051CD4FFF7F2
:10200000B1FEB0EB08000228F5D3032052E1DAF864
:10201000000030F08000CAF80000FFF7A3FE804601
:10202000DAF80000C00507D5FFF79CFEB0EB08000A
:102030000228F5D303203DE13878000730D5B86990
:10204000002816D0DFF868B8DBF8000050F0010077
:10205000CBF80000FFF786FE8046DBF80000800723
:102060001ED4FFF77FFEB0EB08000228F5D3032053
:1020700020E1DFF83CB8DBF8000040084000CBF876
:102080000000FFF76FFE8046DBF80000800707D5F1
:10209000FFF768FEB0EB08000228F5D3032009E142
:1020A000387880062CD5F869002814D0DAF80000BA
:1020B00050F48050CAF80000FFF754FE8046DAF86A
:1020C000000080041CD4FFF74DFEB0EB080002288E
:1020D000F5D30320EEE0DAF8000030F48050CAF8BF
:1020E0000000FFF73FFE8046DAF80000800407D5C5
:1020F000FFF738FEB0EB08000228F5D30320D9E043
:10210000387840077AD5DFF8AC07016851F4807160
:102110000160B868012806D1DFF89C07016851F01A
:102120000101016043E0B86800280ED1DFF888079C
:102130000168490849000160016831F080010160CF
:10214000016831F00401016031E0B86805280ED162
:10215000DFF86407016851F004010160016831F0A3
:1021600080010160016851F0010101601FE0B86861
:1021700085280ED1DFF84007016851F004010160A5
:10218000016851F080010160016851F001010160B6
:102190000DE0DFF824070168490849000160016883
:1021A00031F004010160016831F080010160B8681C
:1021B000002811D0FFF7D6FD8046DFF8FC06006846
:1021C00080071BD4FFF7CEFDB0EB080041F2893148
:1021D0008842F2D303206DE0FFF7C4FD8046DFF8AC
:1021E000D8060068800709D5FFF7BCFDB0EB0800F2
:1021F00041F289318842F2D303205BE0786A0028FB
:102200003CD0182D2FD1786A012801D1012051E04E
:10221000DFF8D0A5DAF80000C0F3CC008146B86C36
:1022200048452BD0DFF8A0B5DBF80000400840009F
:10223000CBF80000FFF796FD8046FFF793FDB0EB6B
:1022400008000028F9D0DAF800006FF3CF00B96C6D
:1022500050EAC100CAF80000DBF8000050F00100AD
:10226000CBF800000AE00120786417F12401002077
:1022700000F024FB002801D001201BE0F86C0028AE
:1022800008D017F14C01012000F018FB002801D004
:1022900001200FE0786F00280BD00120C7F89400D0
:1022A00017F17401022000F009FB002801D0012081
:1022B00000E00020BDE8F28F2DE9F04104000D00A0
:1022C000002C01D101201EE1944F386810F03F002E
:1022D000A8420BD2386880098001284338603868EA
:1022E00010F03F00A84201D001200CE12078400707
:1022F0000DD5DFF88014086810F0070022699042BD
:1023000005D20A68D208D200206902430A60207808
:1023100000070DD5DFF85C14086810F070006269E2
:10232000904205D20A6832F07002606902430A6086
:102330002078C0060DD5DFF83C14086810F4E06082
:10234000A269904205D20A6832F4E062A0690243B1
:102350000A60207880060DD5DFF81814086810F49C
:10236000E040E269904205D20A6832F4E042E06956
:1023700002430A60207880070DD5DFF8A4140868AE
:1023800010F00F00E268904205D20A6812091201AB
:10239000E06802430A602078C00746D5DFF87C1465
:1023A0000A6812091201A06802430A6060680228E4
:1023B00005D156480068800319D40120A3E0606865
:1023C000032805D151480068800110D401209AE00B
:1023D0006068012805D14D480068C00507D4012078
:1023E00091E04A480068400701D401208BE0DFF803
:1023F0001883D8F80010C908C90060680143C8F8FC
:102400000010FFF7AFFC0600D8F8000010F038000D
:102410006168B0EBC10F08D0FFF7A4FC801B41F24C
:1024200089318842F0D303206DE0207880070DD5F4
:10243000DFF8EC13E0680A6812F00F02904205D250
:102440000A6812091201E06802430A60386810F055
:102450003F0085420BD238688009800128433860EC
:10246000386810F03F00A84201D001204BE02078EE
:1024700040070DD5DFF8FC1220690A6812F0070248
:10248000904205D20A68D208D200206902430A604D
:10249000207800070DD5DFF8DC1260690A6812F0B9
:1024A0007002904205D20A6832F0700260690243FD
:1024B0000A602078C0060DD5DFF8B812A0690A6856
:1024C00012F4E062904205D20A6832F4E062A06938
:1024D00002430A60207880060CD5A649E0690A68A4
:1024E00012F4E042904205D20A6832F4E042E06918
:1024F00002430A6000F014F80649086006480068C4
:1025000000F0A8FBC0B2BDE8F08100000044025812
:1025100004440258440100244001002400200052D9
:1025200030B47948006810F03800002806D0082838
:1025300011D0102812D0182813D0D7E0DFF8C846E1
:102540002068800605D571482468C4F3C104E040C2
:1025500000E00020CCE0DFF8B406C9E0DFF8B00608
:10256000C6E09848046814F0030422000068C0F331
:10257000051001009448006810F00100030099481C
:102580000068C0F3CC0000FB03F002EE100AB8EEC6
:10259000422AB0EE421A002900F0A680002A03D099
:1025A000022A52D032D36FE0DFF85C060468A4063A
:1025B00027D5BE4C0068C0F3C100C44002EE104AEB
:1025C000F0EE420AB8EE602A02EE901AF8EE622AA5
:1025D00082EE222A8A480068C005C00D02EE900AE9
:1025E000F8EE622A9FED953A81EE033A72EE832A65
:1025F000B7EE003A72EE832A22EE222AF0EE421A59
:1026000003E09FED952AF0EE421A5BE002EE101A0D
:10261000B8EE422ADFED972A82EE822A78480068D7
:10262000C005C00D02EE900AF8EE622A9FED833AD3
:1026300081EE033A72EE832AB7EE003A72EE832AF5
:1026400022EE222AF0EE421A3CE002EE101AB8EE18
:10265000422ADFED952A82EE822A69480068C00589
:10266000C00D02EE900AF8EE622A9FED743A81EEF8
:10267000033A72EE832AB7EE003A72EE832A22EE14
:10268000222AF0EE421A1DE002EE101AB8EE422A9B
:10269000DFED782A82EE822A59480068C005C00D15
:1026A00002EE900AF8EE622A9FED643A81EE033A58
:1026B00072EE832AB7EE003A72EE832A22EE222AC5
:1026C000F0EE421A4E480068C0F34620401C02EE6D
:1026D000100AB0EE420AB8EE402A81EE822ABCEE21
:1026E000C22A12EE100A00E0002001E0DFF81C050B
:1026F0004A4C246814F00F04082C02D314F1F90595
:10270000E84030BC70470000104402580090D003ED
:10271000E0B56846DFF8FC14D1E90023C0E90023E6
:10272000FFF7FEFE3E49096811F00F01082904D3A6
:102730006A460A4412F8082CD0400EBD80B5FFF757
:10274000E7FFDFF8D414096811F00701042902D368
:1027500011F1FD02D04002BD80B5FFF7D9FFDFF8CF
:10276000B8140968C1F30211042902D311F1FD0262
:10277000D04002BD2044025880B5FFF7C9FFDFF802
:1027800098140968C1F30221042902D311F1FD0252
:10279000D04002BD10B5DFF884040068C0F30644E1
:1027A000641C00F089F9B0FBF4F010BD10B5DFF83F
:1027B00074040068C0F34624641C00F0B5F9B0FB53
:1027C000F4F010BD284402582C44025810B5DFF82C
:1027D00054040068C0F30644641C00F0A5F9B0FB83
:1027E000F4F010BD3444025810B5DFF83804006826
:1027F000C0F30664641C00F097F9B0FBF4F010BD60
:102800003044025810B5DFF82004046814F00704BF
:10281000641C00F089F9B0FBF4F010BD18440258B4
:102820001C44025810B5DFF800040068C0F302240D
:10283000641C00F079F9B0FBF4F010BD0000004614
:1028400010B5DFF8E8030068C0F34624641C00F00C
:10285000A3F9B0FBF4F010BD0000000010B5DFF8E4
:10286000CC030068C0F30644641C00F095F9B0FB8B
:10287000F4F010BD0024744A10B5DFF8B00300680E
:10288000C0F30664641C00F087F9B0FBF4F010BDDF
:1028900010B5DFF89C03046814F00704641C00F012
:1028A0007BF9B0FBF4F010BD001BB74B0090D003D8
:1028B0007444025800480258704402582DE9F84FF9
:1028C00086B004000D0000208DF80000DFF84C03F6
:1028D00000EBC4000590DFF8480300EB840004908F
:1028E0000B27DFF85483D8F800104FF4787207FBF9
:1028F00004F082409143C8F800105FF08079DFF85F
:1029000008A3DAF800002100C9B2490019FA01F160
:102910008843CAF80000FFF725FA06005FF0007B45
:10292000DAF800002100C9B249001BFA01F108429F
:1029300006D0FFF717FA801B3328EFD30320B8E047
:102940002868022840F0A880686801900198002853
:1029500007D1DFF8F002DAF80010C1F3C101C84076
:1029600005E00198022801D1A94800E0A748A9681C
:10297000B0FBF1F0B449884201D318210AE0A34921
:10298000884201D3102105E0B049884201D30821D3
:1029900000E0022107FB04F081400391A5490A6889
:1029A0004FF47C732000C0B2C000834053F0030397
:1029B0009A4301980243A868E3001B1D9840024314
:1029C0000A60086810F003000199884201D00120D4
:1029D0006FE0D8F800101B2207FB04F082409143FF
:1029E00003980143C8F80010E868401E2969491E91
:1029F00050EA41206969491E50EA0140A969491E0F
:102A000050EA016005990860E869401E296A491E7C
:102A100050EA012004990860002C05D1D8F8000084
:102A200050F02000C8F80000686A002816D08848D6
:102A300000EBC4000290029800686FF3CF00696A4F
:102A400050EAC10002990860D8F80000012107FB94
:102A500004F711FA07F70743C8F80070DAF8001016
:102A60002000C0B2400019FA00F959EA0109CAF879
:102A70000090FFF777F90600DAF800002100C9B2EC
:102A800049001BFA01F1084211D1FFF76BF9801BD5
:102A90003328F1D303200CE0664801684FF47C72C0
:102AA000E3001B1D9A40914351F0030101609DF822
:102AB000000007B0BDE8F08F70B45E480268574868
:102AC0000368C2F30511DC05E40D641C002901D183
:102AD000002027E0D00704D55D480068C0F3CC058E
:102AE00000E0002512F00300002803D002280DD0DA
:102AF0000ED30FE0444E3068800605D55148366845
:102B0000C6F3C106F04000E0002004E0404802E0C7
:102B10003E4800E00020B0FBF1F014EB553404FB1C
:102B200000F4200070BC704770B4424802683D4811
:102B30000368C2F30531DC05E40D641C002901D1F2
:102B4000002027E0100504D53C480068C0F3CC0500
:102B500000E0002512F00300002803D002280DD069
:102B60000ED30FE0284E3068800605D5354836680C
:102B7000C6F3C106F04000E0002004E0244802E073
:102B8000224800E00020B0FBF1F014EB553404FBC8
:102B900000F4200070BC704770B4264802682348D7
:102BA0000368C2F30551DC05E40D641C002901D162
:102BB000002027E0500204D521480068C0F3CC056E
:102BC00000E0002512F00300002803D002280DD0F9
:102BD0000ED30FE00C4E3068800605D519483668D4
:102BE000C6F3C106F04000E0002004E0084802E01F
:102BF000064800E00020B0FBF1F014EB553404FB74
:102C000000F4200070BC70470044025800093D00E9
:102C100000366E01048300082044025830440258F4
:102C2000C044025838440258C44402584044025830
:102C3000C8440258284402582C4402583C440258C4
:102C4000444402580090D00300127A0080841E0091
:102C50003444025838B50400002513490878002888
:102C60001DD04FF47A700978B0FBF1F00F49096874
:102C7000B1FBF0F000F09CF800280DD1102C08D228
:102C8000002221005FF0FF3000F080F80848046067
:102C900007E00120050004E00120050001E001201B
:102CA00005002800C0B232BD800100244401002488
:102CB0004001002410B410F00703DFF898412268A7
:102CC0004FF6FF010A4052EA0322DFF88C110A4353
:102CD000226010BC7047DFF87C010068C0F302205E
:102CE0007047000010B4020012B2002A05D40A0195
:102CF0005A4B040024B21A5508E00A01584B04004C
:102D000024B214F00F04234403F8042C10BC7047C1
:102D100070B4030013F00704D4F10700052801D3B1
:102D2000042001E0D4F10700251D072D01D2002564
:102D300000E0E51E012616FA00F0401E0140A94001
:102D400016FA05F56D1E2A401143080070BC704745
:102D500010B50400601EB0F1807F01D301200EE0A9
:102D6000601E404908600F215FF0FF30FFF7BAFF97
:102D700000203D49086007203C490860002010BD44
:102D800010B504002000FFF795FF10BDF8B5040052
:102D90000D001600FFF79FFF0700320029003800E2
:102DA000FFF7B6FF0100200000B2FFF79BFFF1BD67
:102DB00010B504002000FFF7CBFF10BDBFF35F8FFD
:102DC00050F001012A4A11602A490A6852F48032FF
:102DD0000A60BFF34F8FBFF36F8F7047BFF35F8FF2
:102DE0002448016831F480310160002020490860E6
:102DF000BFF34F8FBFF36F8F704741781E4A11604A
:102E0000017800291ED041681C4A1160017BC27AFA
:102E1000120652EA0172817A52EAC142417B52EAB9
:102E20008142817B52EA4142C17B52EA0142417AAE
:102E300052EA0122017A52EA410201780A4310491A
:102E40000A6005E000210E4A116000210B4A116062
:102E5000704700000CED00E00000FA0500E400E01F
:102E600018ED00E014E000E018E000E010E000E001
:102E700094ED00E024ED00E098ED00E09CED00E032
:102E8000A0ED00E02DE9F14FB0B0924604910DF1B4
:102E900042013A9A2B9199464A7000200AE01AF8AA
:102EA000011B0498309A90470028049000F06A862D
:102EB0000D98401C0D909AF8000050B12528EED1D5
:102EC000002100220791089209910A920B910C921D
:102ED00004E00D9800F058BE41F001011AF8010F0E
:102EE0002028F9D023280CD02B2804D02D2805D059
:102EF000302809D00BE041F00201EFE741F0040176
:102F0000ECE741F00801E9E741F01001E6E72A2883
:102F10000FD1D9F8002052F8040BC9F8002000287E
:102F20000F9003D540420F9041F004010AF1010ACD
:102F300014E00F92DFF8583C0AE00F98984205DA47
:102F400000EB800402EB4402303A0F920AF1010ACE
:102F50009AF80020A2F130000A28EED39AF8000077
:102F60002E2803D04FF0FF320E9229E01AF8010FFD
:102F70002A2809D1D9F8000050F8042BC9F800001C
:102F80000E920AF1010A1BE02D280CBF0AF1010A7A
:102F9000002000220E92DFF8F84B0BE040B90E9AA9
:102FA000A24205DA02EB820503EB4503303B0E93A8
:102FB0000AF1010A9AF80030A3F130020A2AEDD38F
:102FC000ADF840100FF6CC309AF8001000F00EFF6C
:102FD00008B11AF8010B8DF842009DF842006828EC
:102FE00005D19AF8000068280CD1622106E06C280F
:102FF00004BF9AF800006C2804D171218DF84210AA
:103000000AF1010A12A806901AF801BBBBF12501CA
:103010002CD01C3900F0D681091F022940F2D28140
:10302000133900F0E184093900F0CC81891E00F0E9
:103030007685491E00F02385491E022940F2C2818F
:10304000091F00F01C85491F00F03181491E00F066
:10305000CB84491E00F0D880C91E0DD0891E00F017
:10306000C384C91E00F0C08400F064BD25238DF820
:103070004830012100F069BDD9F8000050F8044B38
:10308000C9F80000002C059440F0AB802B994878DB
:10309000002800F0A1804FF0FF340FF6003000F060
:1030A000BDFE201A40F06E8500F050BD01236A4637
:1030B00002A9304600F042FE002840F063856D1EF4
:1030C000F4D13096079D12AF75B1309E17F8012BE1
:1030D00002A9304600F022FE002801D46D1EF5D171
:1030E0000028309640F04E850A9D3020002D8DF846
:1030F00000000CDD309E01236A4602A9304600F034
:103100001DFE002840F03E856D1EF4D13096059FCF
:10311000089D75B1309E17F8012B02A9304600F0CA
:10312000FDFD002801D46D1EF5D10028309640F039
:1031300029850B9D3020002D8DF800000CDD309E80
:1031400001236A4602A9304600F0F8FD002840F04D
:1031500019856D1EF4D1309605980899099D471878
:1031600075B1309E17F8012B02A9304600F0D6FD4C
:10317000002801D46D1EF5D10028309640F002855C
:103180000C9D3020002D8DF800000CDD309E0123B9
:103190006A4602A9304600F0D1FD002840F0F284D2
:1031A0006D1EF4D130969DF8400041077FF583AE47
:1031B0002020002C8DF800007FF77DAE309D01238C
:1031C0006A4602A9284600F0B9FD002840F0DA84DA
:1031D000641EF4D130956EE60FF6C030059000F015
:1031E000B5BC0E9D002D04D5204600F037FE0446E8
:1031F00007E02A46204600F04DFE002814BF041BBD
:103200002C46089400F0A2BCD9F8001051F8040B29
:10321000C9F8001020F00004002121F0FF3512ABA6
:10322000CDE902450593DDE9022306993C2413B953
:103230000AB90E98A0B102F00F05641E30353A2D80
:1032400008DA12090D5542EA03721B0908BF002A69
:1032500002D105E02735F4E705980D19A842EAD315
:1032600008190590C4F13C020E98089282420ADACD
:10327000BDF84010821A4FF6EF7001400A92ADF887
:10328000401000F063BC002840F160849DF84000CD
:1032900000F01400102840F059840F9B07990A98F9
:1032A0005B1A1B1A9A1A002A40F350849AE32B994E
:1032B000487820B14FF0FF340FF6B020EFE69DF8CC
:1032C0004200622860D0682817D06A283FD06C2856
:1032D00006D0712847D074282CD07A281DD062E0FF
:1032E000D9F8001051F8040BC9F80010002866D175
:1032F0004FF0FF340FF68C20D1E6D9F8001051F8CA
:10330000040BC9F8001020B94FF0FF340FF67420F9
:10331000C5E60D99018000F019BCD9F8001051F8EC
:10332000040BC9F80010002849D14FF0FF340FF604
:103330005420B4E6D9F8001051F8040BC9F8001075
:1033400000283CD14FF0FF340FF63820A7E6D9F81B
:10335000001051F8040BC9F8001080B94FF0FF3489
:103360000FF620209BE6D9F8001051F8040BC9F89D
:10337000001020B94FF0FF340FF608208FE60D9AA9
:10338000D317C0E90023E1E3D9F8001051F8040B8A
:10339000C9F8001020B94FF0FF340FF6E8107EE6B0
:1033A0000D990170D2E3D9F8001051F8040BC9F857
:1033B000001020B94FF0FF340FF6C8106FE60D99DA
:1033C0000160C3E3D9F80020D21D22F00702C9F83A
:1033D0000020D2E900010832C9F80020CDE902013D
:1033E000C80F02D007982D210AE0BDF840008107E0
:1033F00002D507982B2103E0C00705D507982021A7
:1034000012AA1154401C079012A80799DDE9024541
:1034100043184BF020006128059321AE0BD00E9885
:10342000002802D506200E9005E001BF4BF02000D9
:10343000672801210E91DDE9020148004015401C7A
:103440000A460DD109030BD0ABF1610703201A2FF7
:10345000089002D20FF648110DE00FF648110AE06D
:1034600070B912030CD1ABF1610703201A2F089039
:103470001CD30FF638110322184600F037FD65E320
:10348000DDE902016A4600F085FDCDE902014BF05D
:103490002000612811D1059830210170821C05920D
:1034A000BBF1610F0CBF7821582102E00FF6F80143
:1034B000E1E741700798801C0790DDE9020120F0E8
:1034C000000231F0004308BF002A02D10025002489
:1034D00045E14BF02008B8F1610F40F095800E985F
:1034E000002847BF21210191401C0190019F7F1CB2
:1034F0002046294600220023DDE9024500F082FD36
:1035000038BF85F0004500998DF88420091F002FF1
:1035100000910DF1850034DD064620462946002243
:10352000002300F089FD2BD21C2200F09FFD0446F1
:103530000D4600F01DFEFF1F002F804609DD00F044
:103540001EFE02460B462046294600F01FFE04469A
:103550000D46F01D0721B8F1000F0CDD491E5EBFBE
:1035600008F00F0200F8012D4FEA2818F3D502E009
:10357000002200F8012D491EFAD5C61D002FCCDC13
:1035800030460DF18501401A01990DF18506054679
:103590008842C8BF0D46002D2FD4854206DA0DF1B2
:1035A0008500415D0829A8BF0F2000DA00202946C8
:1035B00021AA0A4400E06D1E12F80139491E834217
:1035C000F9D00F2804D10DF18500425C521C425401
:1035D000002904D50098001D21AE6D1C0090681EC6
:1035E0000BD431180A783032D3B23A2BA4BF5A44E4
:1035F0003A3A401E01F80129F4D50E98002840F10E
:10360000AD80691E0E91A9E00099DFF8002747F20E
:103610009750414391FBF2F2009225F00045C2F130
:103620000702002A04DD2046294600F04BFB0BE090
:1036300052420020DFF8D81600F044FB02460B4649
:103640002046294600F0ABFD04460D46B8F1660F52
:1036500006BF009F0A3706270E983F18142FC8BFD1
:10366000142730208DF884000DF1850000E03046ED
:10367000002F35DD06462046294600F099FD01461B
:103680000A4606F1080304200A26B2FBF6F606EB0A
:10369000860EA2EB4E02303203F8012C0A22B6FB52
:1036A000F2F202EB820EA6EB4E063036401E03F815
:1036B000026DE9D1083F002F03F10806D7DD084667
:1036C00000F07DFD02460B462046294600F05EFDD7
:1036D0000022DFF8403600F079FD04460D46CAE7C7
:1036E0000DF18501401A0DF1850604E00099491E8F
:1036F000401E0091761C31783029F7D0B8F1660F62
:1037000002D10099491C04E0B8F1650F0CBF0121FA
:1037100000210E9D4D19A842B8BF451E002D1DD495
:10372000854204DA705D3428C8BF392000DC3020BF
:103730002946721E531800E06D1E13F80149491EF8
:103740008442F9D0392802D1705C401C70540029A1
:1037500004D50098401C16466D1C0090009C00F09B
:103760003FFD406A0778DDF8388028B2002802DC87
:1037700001250FF23C664BF02000662808BF641C50
:1037800016D0672846D120B210F1040F48DB40451F
:1037900046DA9DF84000641C010703D428B2404576
:1037A000D8BF804620B2B8EB000848BF4FF00008F1
:1037B0000FFA84FBBBF1000F00F3B5800898411CA1
:1037C0000891302205990A54B8F1000F03DC9DF8E6
:1037D0004000010704D50898411C089105990F5431
:1037E00018EB0B0FB8BFC8F1000424B26042A0442C
:1037F0002AB20B909045B8BF4546059B08982DB25C
:1038000009952A463146184400F070FBA8EB0500E4
:103810000C90D2E0BBF1610F17D14FF0700B19E0A3
:1038200028B2404504DA9DF840100A0758BF804688
:10383000B8F1010848BF4FF00008BBF1670F14BF93
:103840004FF0450B4FF0650B04E0BBF1410F08BF93
:103850004FF0500B0898411C0891B8F1000F0599E2
:1038600016F8012B0A5403DC9DF8400001071AD515
:103870000898411C0891B8F1000F05990F5412DD0A
:103880006D1E28B28045B8BF45460598089B2AB2F0
:103890003146184400F02AFB08992DB269180891A6
:1038A000A8EB05000B9005980899084421B200295F
:1038B00080F800B003D42B224270821C04E02D2239
:1038C00042700C46821C644200212CAB20460AE068
:1038D00004460A2094FBF0F000EB8005A4EB4504BD
:1038E00003F8014B491C00B20028F1DC012906DC79
:1038F0004BF02000652804BF302002F8010B00299E
:103900002CAB08D1302002F8010B06E0491E585CB0
:10391000303002F8010B0029F8DC059908980844BA
:10392000121A099249E028B221B288421CDA05989D
:10393000089B2AB23146184400F0D8FA08992DB2F3
:1039400069180891ABEB0500B8F1000F0B9003DC90
:103950009DF84000020704D5059847540999491C71
:103960000991CDF8308028E00598089B22B23146B5
:10397000184400F0BBFA08982D1B5844B8F1000F0A
:10398000089003DC9DF840100A0703D5411C0891FC
:1039900005990F5428B28045B8BF45460598089B45
:1039A0002AB206EB0B01184400F0A0FA08982DB2D9
:1039B00028180890A8EB05000B909DF8400000F037
:1039C0001400102840F0C280079A08990B988A18B2
:1039D000099982180C988A1882180F98824280F2EE
:1039E000B580821A0A92B1E09DF84200622808D0A0
:1039F00068280ED06A2814D06C281FD0712810D0E7
:103A00001CE0D9F8001051F8040BC9F80010C0B23E
:103A10001AE0D9F8001051F8040BC9F8001080B270
:103A200012E0D9F80020D21D22F00702C9F80020C8
:103A3000D2E900010832C9F8002006E0D9F80010E8
:103A400051F8040BC9F800100021CDE902019DF8DE
:103A5000400001075AD5DDE90223002B08BF002AE8
:103A600054D04BF02000782850D1079812A930226A
:103A70000A54401C431C079301F800B046E09DF82F
:103A80004200622808D068280ED06A2814D06C281A
:103A90001FD0712810D01CE0D9F8001051F8040B89
:103AA000C9F8001040B21AE0D9F8001051F8040B20
:103AB000C9F8001000B212E0D9F80020D21D22F09F
:103AC0000702C9F80020D2E900010832C9F8002035
:103AD00006E0D9F8001051F8040BC9F80010C1171E
:103AE000CDE90201002902D507982D210AE0BDF891
:103AF0004000810702D507982B2103E0C00705D5B8
:103B00000798202112AA1154401C079012A8079967
:103B10000144059102A8594600F04EF816E0012034
:103B20000790D9F8000050F8041BC9F800008DF880
:103B300048100BE025210122BBF1000F8DF8481041
:103B4000079203D08DF849B0022107910F9A079888
:103B50000A990C9C121A0898521A0B99121A099871
:103B6000521A121A9DF84000141B41073FF5AAAAE9
:103B70002020002C8DF800007FF7A4AA309E254657
:103B8000FFF794BA4FF0FF3031B0BDE8F08F00007E
:103B9000CBCCCC0C686A6C747A4C00007072696E85
:103BA00074665F733A2062616420257320617267D6
:103BB000756D656E740000002DE9FC4304466F29A5
:103BC000256908BF082605D041F02000782814BFD9
:103BD0000A261026D4E900233C27904699466429FA
:103BE00018BF692905D1002B03D5D8F1000869EB6E
:103BF0004909B9F1000F08BFB8F1000F0CD1206BD3
:103C000050B9082E3AD194F83800010736D5302043
:103C10003B2785F83B0031E08DF8001040464946CF
:103C20003246F31700F0E0FA3032D0B27F1E3A2865
:103C300001970EDAEA55404649463246F31700F03E
:103C4000D3FA80465FEA010908BFB8F1000F05D139
:103C500008E09DF800001218513AEBE7E068E91916
:103C60008842DBD3082E09D194F83800010705D526
:103C7000E85D302802D07F1E3020E855C7F13C02B5
:103C8000A261E919E160206B824208DA821A22629D
:103C90004FF6EF70218F01402187BDE8F3830028A4
:103CA0000ED594F8380000F01400102808D1636B8A
:103CB0006169206A5B1A1B1A9A1A002AC8BF22621D
:103CC000BDE8F3832DE9D04306460F4614464FF076
:103CD0000008DFF8449012E0E00707D542464B4663
:103CE0003046394600F072FA06460F4640464946CD
:103CF00042464B4600F06AFA641080468946002C22
:103D0000EAD130463946BDE8D0830000A0860100E4
:103D10000000F03F84D797410000244010B50346CF
:103D20000C461146A0689847A06020B1E06A401C8C
:103D3000E062002010BD4FF0FF3010BDF8B5054621
:103D40000E4617461C4600205CB117F8011BB068F0
:103D5000A847B06030B1F06A401CF0620020641ED9
:103D6000F3D1F2BD4FF0FF30F2BD00007072696E0A
:103D700074665F733A20256E20646973616C6C6FA2
:103D8000776564007072696E74663A2062616420BF
:103D9000256E20617267756D656E7400000000000D
:103DA0006E616E004E414E00696E6600494E4600DF
:103DB000300030B5016884684218416802EB510355
:103DC000C90703D54C4401E0491C08D19A4218BFE9
:103DD00012F9011B01D10C3030BD12F8015B002932
:103DE00004F8015BF0D4491EF7D5EFE7C9B20278B9
:103DF0008A421AB11CBF10F8012FF9E718BF002042
:103E000070478268521C8260426832B10268531C5B
:103E1000036011704168491E4160704780B500B968
:103E200006A005490B681BB122220021984701E03A
:103E300000F0F2FA222002BD70040024636F6E735A
:103E4000747261696E742068616E646C65723A2088
:103E5000626164206D6573736167650000F1010341
:103E6000810704D010F8011B820781B1FAD10268E2
:103E7000A2F10131914311F0803104BF50F8042FB9
:103E8000F6E709BAB1FA81F100EBD100401CC01A83
:103E900070472E00C9B2830706D0521E22D310F8F5
:103EA000013B9942F7D11FE0083A13D302F1040213
:103EB00041EA012141EA014150F8043B121F21BFB0
:103EC0004B40A3F1013C2CEA030C1CF0803FF3D0E3
:103ED000C9B2001F083210F8013B521E28BF91EAF8
:103EE000030FF8D818BF0120401E704762B38B073C
:103EF00008D0521E11F8013B00F8013B00F024806D
:103F00008B07F6D1830740F0208000BF103A07D31B
:103F100030B4B1E83810103AA0E83810F9D230BC0B
:103F2000530724BFB1E80810A0E8081044BF51F8B7
:103F3000043B40F8043BD20724BF31F8022B20F8A1
:103F4000022B44BF0B7803707047121F17D35B001E
:103F500009D151F8043B20F8023B1B0C121F20F83A
:103F6000023BF6D20BE051F8043B00F8013B1B0A80
:103F700020F8023B1B0C121F00F8013BF3D238BFA4
:103F8000121D521E24BF11F8013B00F8013BF8D866
:103F90007047000010B5144600F002F8226010BD12
:103FA000C1F30A5343B14A0012F5001F28D2A3F20D
:103FB000FE32A1EB0251704750EA410C20D001F0D3
:103FC000004C31EA0C01B1FA81F204BFB0FA80F37F
:103FD000D2180B3AB2F120032CBF00FA03F1914042
:103FE00041EA0C013EBFC2F1200C20FA0CF3194348
:103FF0009040524240F2FD33D21A01EB0351704718
:104000000022704741EA030C50EA4C0C52EA0C0CB7
:104010004FF4001C09D307D01CEB410F9CBF1CEBD5
:10402000430F8B4208BF824270471CEB430FFBD803
:10403000994208BF9042704741EA030C50EA4C0C89
:1040400052EA0C0C4FF4001C09D307D01CEB410FB3
:104050009CBF1CEB430F994208BF904270471CEB7A
:10406000410FFBD88B4208BF8242704741EC100BD6
:10407000104600B500F004F851EC100B00BD000034
:10408000020030EE101B40F2FF7C37D41CEA1153C3
:1040900013D063456BD09B18634504D201EB0251EA
:1040A00020EE101B704701F0004141EA0C51002046
:1040B00041EC100BAFF30080704710EE100B50EA8C
:1040C000410054D0B2F57F7F08D202EB5C010905B4
:1040D000002041EC110B20EE010B70474FF0FE4128
:1040E000002341EC113B20EE010BB2F57E7230EE65
:1040F000101B4FEA410342EB5353CDE752421CEAF7
:10410000115316D0634532D09A4204D2A1EB02512A
:1041100020EE101B70475B1ED21AA1EB035120EE5C
:10412000101B372A0CD3002001F0004141EC100B8A
:10413000C0E710EE100B50EA410018D0372AF2D237
:10414000C2EB5C021105002041EC110BF1EE100AEC
:1041500020F01F0121F4F851E1EE101A20EE010BBE
:10416000F1EE101AE1EE100A11F0080FA2D170471B
:1041700041EC100BBDEEC00B10EE100A704700EEC4
:10418000100AB8EEC00B51EC100B704741EC100B4D
:1041900043EC112B30EE410B51EC100B704741EC0E
:1041A000100B43EC112B80EE010B51EC100B704700
:1041B00041EC100BBCEEC00B10EE100A704700EE85
:1041C000100AB8EE400B51EC100B704741EC100B8D
:1041D00043EC112B20EE010B51EC100B704700004B
:1041E0000048704748010024BBBBE1B1B2F5803FF5
:1041F00080F07E80022A1ED98C46B1FBF2F102FBD0
:1042000011C31B0443EA1043B3FBF2FC02FB1C3353
:1042100080B240EA0343B3FBF2F002FB103240EA03
:104220000C4000237047022A05D98446B0FBF2F007
:1042300002FB10C270474AB105D100F001024908E3
:104240005FEA3000704700220023704700F0E8B8B2
:104250000B000200002100207047904271EB030C1C
:10426000F6D3B3F5803F2FD2F0B5B3FA83F7B1FAA6
:1042700081F4A7F10F0E3D1B5340CEF1200602FA48
:104280000EF2F3415340B5F10F0746D80F3C2C44D2
:104290004140C4F12006A040F1414140B1FBF3F69A
:1042A00003FB1611A2FB0645001BA94102D2761E94
:1042B0008018594180EA010221FA0EF362FA0EF2E7
:1042C00000215A403046F0BD30B4B1FBF3FC03FB93
:1042D0001C11A2FB0C45001BA94103D2ACF1010C3F
:1042E0008018594130BC02460B4660460021704799
:1042F000B2F1807F65D3F0B5B2FA82F7B1FA81F4FA
:10430000C7F10F063D1B22FA06F307F1110EF24129
:1043100020355A40B5F10F07B8D94140C4F1200605
:10432000A040F1414140B1FBF3FC03FB1C11A2FB97
:104330000C45001BA94103D2BCF1010C8018594166
:104340000F2F12D30F3FC90341EA5041B1FBF3F6DF
:1043500003FB1611A2FB0645D4EBC030A94102D2E3
:10436000761E8018594146EACC3C07B34140C7F15C
:104370002006B840F1414140B1FBF3F603FB1611B2
:10438000A2FB0645001BA94102D2761E80185941A6
:1043900080EA010221FA0EF3C7F1200462FA0EF25C
:1043A0000CFA07F05A402CFA04F13043F0BD80EAD1
:1043B000010221FA0EF3002162FA0EF260465A4021
:1043C000F0BD8C46B1FBF2F102FB11C31B0243EAC4
:1043D0001063B3FBF2FC02FB1C331B024CEA00200F
:1043E00043EA1063B3FBF2FC02FB1C331B024CEAF2
:1043F000002043EA1063B3FBF2FC02FB1C331B02F8
:104400004CEA002043EA1063B3FBF2FC02FB1C32CF
:104410004CEA002000237047012000F003B80000A0
:104420007047000080B5AFF30080024A11001820E9
:10443000ABBEFBE726000200FEB50400002768467D
:10444000DFF8241AD1E90023C0E900230020060088
:1044500068463900C9B2405C84F85C007F1C14F1E6
:104460005C020021200000F059FF002802D00E203D
:1044700005000BE0DFF8F419200000F0D1FC050086
:104480002800C0B2002801D001200600300040B250
:10449000012803D13800C0B20528D7D32800C0B204
:1044A000FEBD2DE9F84F050000265FF0080800204A
:1044B000C5F88C005FF078095FF0000ADFF8B0798A
:1044C0003C0052464946200001F034FB0024200005
:1044D000C0B2DFF898198979491C88421FD25FF071
:1044E0000C092000C0B209FB00F007EB00024146B6
:1044F000280000F0BFFC06003000C0B2002874D1D4
:10450000D5F88C102000C0B209FB00F957F809005B
:104510000143C5F88C1018F10808641CD7E75FF058
:1045200000095FF00C0A4846C0B20AFB00F0385898
:1045300000285AD000244846C0B20AFB00F0384494
:1045400090F808B04846C0B20AFB00F03858082876
:104550000AD0402814D080281AD0B0F5007F13D09C
:10456000B0F5805F18D01BE0DFF8AC0B4946C9B24C
:104570000AFB01F13944097A0160001D04000FE0D3
:10458000DFF8980B04000BE0DFF8940B040007E061
:10459000DFF8900B040003E0DFF88C0B0400FFE76A
:1045A000002C10D05FEA8B0322004846C0B20AFB01
:1045B00000F038444168280001F062F8002802D079
:1045C0000B20060011E04846C0B20AFB00FA57F87B
:1045D0000A00082806D1DFF8400B006CC0F3052064
:1045E000C5F8900019F101099BE73000C0B2BDE8A1
:1045F000F28F2DE9F0470400062506265FF0080833
:1046000000275FF000094846C0B2DFF860188979DA
:10461000491C884230D2DFF858A852464146200053
:1046200000F028FC05002800C0B2002816D1DAF8F6
:104630000000082812D19AF808008300DFF8F82B50
:10464000DAF80410200001F01BF8002802D00B203B
:10465000050003E000200500012007002800C0B28B
:10466000002803D13800C0B2012800D104E018F1BD
:10467000080819F10109C6E72800C0B2002803D1D3
:104680003800C0B2002802D10B20050050E0DFF84E
:10469000AC1B086CC0F30520002802D100200600E6
:1046A00022E0086CC0F30020002802D001200600A0
:1046B0001AE0086C000A800702D50220060013E009
:1046C000086C000A400702D5032006000CE0086CC5
:1046D000000A000702D50420060005E0086C000A65
:1046E000C00601D505200600086C000A800602D528
:1046F0000E2005001CE03000C0B2002805D0401E8E
:10470000032810D9001F01D010E011E0002300227F
:104710006621200001F0A7F8002300229921200043
:1047200001F0A1F804E00E20050001E001200500E1
:104730002800C0B2BDE8F0872DE9FF47050000263C
:10474000002700208DF8080095F88C00000702D49F
:10475000062006004AE395F88C00400607D5DFF8EE
:10476000B889D8F80400C0F34140002802D10720DE
:1047700006003BE3D8F80800002809D4D8F8080060
:10478000401CB0FA80F0D0F11F0085F8550003E01E
:10479000D8F8080085F8550095F85500C01E85F832
:1047A000550095F85500401E8DF809000DF10902DD
:1047B0000521280000F0B2FD5FF00109D8F82C00B7
:1047C000C0F3031019FA00F0A865D8F8200085F8A6
:1047D0007000D8F82000000A85F87100D8F8200091
:1047E000000C85F87200D8F82000000E85F87300E0
:1047F000D8F8240085F87400D8F82400000A85F859
:104800007500D8F82400000C85F87600D8F824004C
:10481000000E85F8770095F87100002813D098F8FD
:10482000281011F00F01D8F82800C0F30410401C24
:104830004143DFF80C0AD8F82820C2F3412230F8AF
:1048400012004143A96795F87300002813D098F827
:10485000281011F00F01D8F82800C0F3C420401C24
:104860004143DFF8DC09D8F82820C2F3014230F8D0
:1048700012004143E96795F87500002814D098F8B4
:10488000281011F00F01D8F82800C0F38440401C14
:104890004143DFF8AC09D8F82820C2F3C15230F800
:1048A00012004143C5F8801095F87700002813D016
:1048B00098F8281011F00F01D8F82800C0F34460D0
:1048C000401C4143DFF87809D8F82820920F30F8CF
:1048D00012004143C5F8841098F8281011F00F0118
:1048E000D8F82C00C0F30460401C4143DFF85409A1
:1048F000D8F82C20C2F3417250F822004143C5F889
:104900008810052085F86900052085F86400D8F82E
:104910000400C0F30010002803D0502085F8680080
:1049200002E0062085F8680098F84000C00703D52B
:10493000062085F8680023E098F84000800703D53A
:10494000062085F868001BE098F84000400703D572
:10495000502085F8680013E098F8400010F00B0F25
:1049600003D0502085F868000AE098F84000C0069F
:1049700003D5062085F8680002E00920060035E22C
:10498000D5F88C00800548D5DFF894170869C00F6A
:1049900000281ED00869000A85F86400C87C10F061
:1049A000070085F865000869800F10F0010085F8A0
:1049B00066000869C0F3007000280AD00869C00EBC
:1049C00010F0010085F86700C87C10F0070085F83A
:1049D00065004869C00F002847D04869000A85F87B
:1049E0006900C87D10F0070085F86A004869800FEB
:1049F00010F0010085F86B000869C0F30070002812
:104A000033D04869C00E10F0010085F86C00C87DF5
:104A100010F0070085F86A0027E0D8F83800C0F3E6
:104A20008000002809D0052085F86400002085F862
:104A30006500002085F8660011E0D8F8380080088D
:104A4000800709D5702085F86900072085F86A007D
:104A5000002085F86B0002E008200600C6E1002077
:104A600085F86500002085F86600022085F86E0054
:104A7000D5F88C00C0045ED595F8540003285AD1AF
:104A800095F85C00052802D1012007002CE02800E1
:104A900000F098FA002827D101200700052085F8AA
:104AA0005C0015F15C020021280000F037FC0028B2
:104AB00002D00B20060099E1DFF8B0A39AF80700B6
:104AC000FD2806D11420039003AA0121280000F03C
:104AD00025FC9AF80700FE2806D10820039003AAB7
:104AE0000121280000F01AFC95F88C00000718D569
:104AF000D8F80000112814D3D8F84800400F10F05F
:104B00000300002802D0012804D007E001208DF81E
:104B1000080006E000208DF8080002E00E200600E4
:104B200064E102AA0421280000F0F8FB002802D06A
:104B30000B2006005AE195F88C00400640F1C98030
:104B40003800C0B200286FD1D8F84000C0F3006030
:104B5000002814D000230022B721280000F083FE93
:104B6000002802D00B20060040E10022022128008C
:104B700000F0D4FB00284DD00B20060036E1D8F819
:104B80004000000E800738D50023002295F86810F9
:104B9000280000F068FE002802D00B20060025E166
:104BA00095F86B00002801D1012300E000234FF4A9
:104BB0007A70019095F86A0019FA00F95FFA89F99C
:104BC000CDF8009095F86A008340DBB295F86C2030
:104BD00095F86910280000F08BFE002802D00B2009
:104BE000060003E100230022B721280000F03BFE6D
:104BF00000280FD00B200600F8E0D8F84000000E87
:104C0000400607D4D8F84000000E800602D40E20DB
:104C10000600EBE000220221280000F07FFB0028C4
:104C200002D00B200600E1E095F8540003281FD1C4
:104C300095F85C0000281BD1DFF8E004006810F054
:104C40009070B0F1907F13D1042085F85C0015F1CD
:104C50005C020021280000F061FB002802D00B203C
:104C60000600C3E0CC2085F86E008E2085F86D002C
:104C700095F85C00052803D095F85C00002817D152
:104C8000DFF898140868C0F38010002802D01220C2
:104C900085F86D000878C00702D5132085F86E00EE
:104CA0000868C0F34000002802D00C2085F86E0090
:104CB000DFF86804416885F871104168090A85F8D1
:104CC00073104168090C85F875104068000E85F86E
:104CD000770095F88C00000640F1808095F85C0024
:104CE00005287BD1DFF83C94D9F80000C0F30720F9
:104CF000002804D0D9F80000000A85F86E00D8F822
:104D00005000000F00F077F880466B464246296E4F
:104D1000280000F0A9FA002802D00C20060065E067
:104D20000098DFF8241588420AD3D9F80C00C0F3A4
:104D3000C4100390D9F80C00C0F38400040030E0E4
:104D4000DFF80805009981420ED30099DFF80025AD
:104D5000914209D2D9F81000C00E0390D9F8100082
:104D6000C0F3845004001CE00099DFF8E82491426D
:104D70000DD3009981420AD2D9F81000C0F3444003
:104D80000390D9F81000C0F30430040009E0D9F80A
:104D90001000C0F3C4100390D9F81000C0F38400D1
:104DA000040003AA0121280000F0B8FAD5F88C000D
:104DB000800510D5DFF86803406AC00F00280AD0CC
:104DC0002100C9B2280000F0B1F906003000C0B2DD
:104DD000002803D00AE00D20060007E095F85C00EB
:104DE000002802D0052801D100E0FFE73000C0B262
:104DF00004B0BDE8F08718B587B004006846DFF856
:104E000058141C22FFF782F80A2C06D2684630F8A4
:104E10001400DFF84814484300E0002008B010BD3B
:104E20002DE9F84304000D00002608275FF0AA08CA
:104E3000A94642463900484600F07CFE08232A0075
:104E40000021200000F01CFC002802D003200600F6
:104E500006E02868DFF80814884201D00420060024
:104E60003000C0B2BDE8F283F48200086004002480
:104E7000180200242DE9FC4104000D001600002753
:104E800008210022E846404600F054FE08236A4606
:104E90002900200000F0F4FB002802D003200700C6
:104EA0008CE0002030609DF8030030729DF8060011
:104EB0009DF80510090251EA00419DF804000143E4
:104EC00071609DF8070000280DD09DF8070080282C
:104ED00009D29DF80700C00702D5012030606DE0BF
:104EE000022030606AE09DF80000C00701D4042071
:104EF00030609DF80700FF2860D19DF80000002871
:104F00001CD0032829D005282DD006282ED009280A
:104F100038D00A283AD00C2840D00F284AD081280F
:104F200018D084281CD0872824D0882826D08B2805
:104F300030D08D2836D08E2838D03FE00820306021
:104F40009DF80300102801D2102001E09DF8030015
:104F5000307233E01020306030E0202030602DE0EF
:104F6000402030602AE08020306027E04FF48070DD
:104F7000306023E04FF4007030601FE04FF4806039
:104F800030601BE04FF40060306017E04FF4805059
:104F9000306013E04FF4005030600FE04FF4804079
:104FA00030600BE04FF40040306007E05FF4803089
:104FB000306003E05FF400303060FFE73800C0B2DB
:104FC000BDE8F6817CB504000025574E3068000E20
:104FD000002824D03068000C8DF800006846316845
:104FE000090A4170316881707168090EC170716879
:104FF000090C01717168090A417171688171336826
:105000001B0E5B1E9BB20DF101029DF800102000EB
:1050100000F029FC002802D00A20050079E0B068E1
:10502000000E002824D0B068000C8DF800006846FF
:10503000B168090A4170B1688170F168090EC170E8
:10504000F168090C0171F168090A4171F168817117
:10505000B3681B0E5B1E9BB20DF101029DF80010A0
:10506000200000F000FC002802D00A20050050E0DB
:105070003069000E002824D03069000C8DF8000043
:1050800068463169090A4170316981707169090E98
:10509000C1707169090C01717169090A4171716905
:1050A000817133691B0E5B1E9BB20DF101029DF8ED
:1050B0000010200000F0D7FB002802D00A200500D5
:1050C00027E0B069000E002823D0B069000C8DF8ED
:1050D00000006846B169090A4170B1698170F169DF
:1050E000090EC170F169090C0171F169090A417178
:1050F000F1698171B3691B0E5B1E9BB20DF1010258
:105100009DF80010200000F0AEFB002801D00A201E
:1051100005002800C0B276BDC00300245804002456
:105120009002002440040024200400242DE9FF41C3
:1051300005000E000027DFF82C81D8F8240010F0BD
:10514000C050B0F1C05F02D00B2007006FE0D8F86C
:105150002400C0F307414FF4807041430C0002204B
:10516000009002AB2200D8F82410090AC9B2280026
:1051700000F001FB002802D00B20070057E00023BD
:10518000002295F86810280000F06DFB002802D07E
:105190000B2007004BE095F86B00002801D101239C
:1051A00000E000234FF47A700190012195F86A0025
:1051B0008140C9B2009195F86A008340DBB295F84E
:1051C0006C2095F86910280000F092FB002802D0AE
:1051D0000B2007002BE09DF8080098F8271011F02D
:1051E000070116FA01F108438DF8090000208DF837
:1051F00008000220009002AB2200D8F82410C9B2A7
:10520000280000F0F2FA002802D00B2007000EE080
:105210000220009002AB2200D8F82410090AC9B27B
:10522000280000F0A8FA002801D00B200700380061
:10523000C0B204B0BDE8F081C4030024C003002460
:10524000FC8200089882000800C2EB0B80F5E4099C
:1052500001C2EB0B406BED07E480000840420F00F9
:1052600053464450900200242DE9FE4306000F00EF
:10527000150098465FF00009002D02D101208146FB
:1052800030E0B7FBF5F00400002C08D0B7FBF4F0D9
:10529000C8F80000D8F80000854200D3641E601CE6
:1052A000B7FBF0F0C8F80000DFF8F40600F076FC79
:1052B000DFF8F00600F072FC2300DFF8EC260A218C
:1052C000684600F06FFE684600F068FC12A000F02F
:1052D00065FC30680068C068000A0002204331683D
:1052E0000968C8604846C0B2BDE8FE8330B593B0D7
:1052F00004000D006846DFF8B4164C22FEF706FEE7
:105300002560201D69464C22FEF700FE002084F82F
:105310005000002013B030BD0A0000002DE9F0411C
:105320009CB004000D00160000276846211D4C2289
:10533000FEF7ECFD2800C0B200280CD0012800F0D8
:105340006981022800F01981042800F025810528D0
:1053500000F03B817AE196F80080DFF8440600F027
:105360001DFCDFF84C0600F019FC4046C0B20028D6
:105370000ED0022844D027D304287BD05CD3062843
:1053800000F0B380C0F09280072800F0CF80EEE0FC
:10539000DFF8200600F002FC0120039000200490BA
:1053A000002005904FF4807007904FF40050089053
:1053B000002009905FF080700E900020109008206F
:1053C000119000201290D4E0DFF8EC0500F0E6FB2D
:1053D0000220039000200490002005904FF40070FC
:1053E00007904FF400500890002009905FF0007083
:1053F0000E90002010900820119000201290B8E02C
:10540000DFF8B80500F0CAFB0320039000200490E9
:10541000002005904FF440700790002009904FF451
:10542000005008905FF040700E900020109008200F
:105430001190002012909CE0DFF8840500F0AEFB94
:105440000320039000200490002005904FF440704A
:1054500007904FF4005008904FF4006009905FF0FF
:1054600040700E905FF000601090082011900020B6
:1054700012907EE0DFF84C0500F090FB01200390D5
:1054800000200490002005904FF4806007904FF4B6
:1054900040500890002009905FF080600E9000203E
:1054A0001090102011900020129062E0DFF8180593
:1054B00000F074FB04200390102004900820059055
:1054C0004FF4806007904FF4405008904FF4006014
:1054D00009905FF080600E905FF0006010901420E3
:1054E00011905FF00050129043E0DFF8E00400F00C
:1054F00055FB0420039000200490002005904FF4F9
:10550000806007904FF4405008904FF4006009907D
:1055100000200B905FF080600E905FF000601090B4
:105520000A2011905FF00050129022E0DFF8A004F2
:1055300000F034FB0420039000200490002005902C
:105540004FF4806007904FF4405008904FF4006093
:10555000099000200B905FF0A0600E905FF000605B
:1055600010900A2011905FF00050129001E001208D
:10557000070042A000F012FB75E0DFF8240400F001
:105580000DFBDFF8500400F009FB3CA000F006FB27
:105590004FF44050089066E0DFF8040400F0FEFA93
:1055A000DFF8340400F0FAFA3378DFF8FC230A213C
:1055B00019A800F0F7FC19A800F0F0FA2FA000F0ED
:1055C000EDFA307884F850004DE096F80080DFF86E
:1055D000D00300F0E3FADFF8040400F0DFFA4346FA
:1055E000DBB2DFF8C4230A2116A800F0DBFC16A802
:1055F00000F0D4FA21A000F0D1FA20680068806899
:1056000030F4F8104146C9B250EA014021680968F7
:10561000886028E096F80080DFF8840300F0BEFA86
:10562000DFF8BC0300F0BAFA4346DBB2DFF87823B8
:105630000A2113A800F0B6FC13A800F0AFFA0FA0DF
:1056400000F0ACFA4046C0B211900CE0DFF8500315
:1056500000F0A4FADFF88C0300F0A0FA07A000F035
:105660009DFA01200700201D69464C22FEF74EFCE2
:105670003800C0B21CB0BDE8F08100000A00000094
:105680002DE9F04393B005000E0014001F0068469A
:10569000291D4C22FEF73AFC0498002802D15A201A
:1056A000029002E045F6A520029006960F9741F27F
:1056B00088394A466946286800F048FD80464046D9
:1056C000C0B2002807D1002C05D04A462100286826
:1056D00000F01DFE80464046C0B2002802D0286877
:1056E00000F043FF4046C0B213B0BDE8F0832DE99F
:1056F000F84193B005000C0016006846291D4C22A5
:10570000FEF704FC9F22049995F8500000F0F9F987
:1057100002900F960398012807D1002011900020D5
:1057200007905FF080700E9005E000200690042046
:1057300011900020109041F288384246694628684E
:1057400000F004FD07003800C0B2002807D1002C8B
:1057500005D042462100286800F0D9FD0700380036
:10576000C0B2002802D0286800F0FFFE3800C0B2A6
:1057700014B0BDE8F0812DE9F84793B004000D00A6
:1057800016001F00DDF870806846211D4C22FEF7D0
:10579000BDFB2A00D2B2049994F8500000F0B1F990
:1057A00002900696CDF83C8041F2883A524669460E
:1057B000206800F0CBFC81464846C0B2002808D1E2
:1057C00052463900206800F0A2FD81464846C0B22A
:1057D00000284846C0B2002802D0206800F0C5FE6C
:1057E0004846C0B214B0BDE8F0872DE9F84793B041
:1057F00004000D0016001F00DDF870806846211DB2
:105800004C22FEF783FB2A00D2B2049994F8500090
:1058100000F077F902900696CDF83C8000201190B8
:105820000020129041F2883A52466946206800F002
:105830008DFC81464846C0B2002808D15246390046
:10584000206800F00BFD81464846C0B2002848465B
:10585000C0B2002802D0206800F087FE4846C0B2DF
:1058600014B0BDE8F0872DE9F04393B004000D00BB
:1058700016001F006846211D4C22FEF747FB2A0038
:10588000D2B2049994F8500000F03BF90290002045
:10589000079000201190380080B20F9000201290E5
:1058A000380080B2002801D100200E9041F28839E2
:1058B0004A466946206800F049FC80464046C0B22E
:1058C000002809D1380080B2002805D04A463100AE
:1058D000206800F0C3FC80464046C0B2002802D0D9
:1058E000206800F042FE4046C0B213B0BDE8F0832D
:1058F0002DE9F04798B005000E0017009846209C4F
:10590000DDF8849005A8291D4C22FEF7FFFA6846B1
:1059100035491422FEF7FAFA4046C0B20090200042
:10592000C0B201903200D2B2099995F8500000F04F
:10593000E8F80790012014904FF440500D900B9719
:1059400000201590002017900898012807D15FF0DB
:105950008070139000200C900020169001E004202D
:10596000169041F2883205A9286800F0EFFB8246C4
:105970005046C0B2002805D14A466946286800F062
:1059800055FD82465046C0B2002802D0286800F07B
:10599000ECFD5046C0B218B0BDE8F0870000000032
:1059A000D4820008E0820008EC820008207F000812
:1059B000DC8100081882000828820008388200086C
:1059C000488200085882000868820008788200082F
:1059D0008882000864810008C8800008F0810008FF
:1059E0007C8100085880000804820008F0B593B05C
:1059F00004000D0016006846211D4C22FEF786FAB1
:105A0000032000902A00D2B2049994F8500000F0CC
:105A100078F802903000C0B2119041F288326946A5
:105A2000206800F093FB07003800C0B2002838005F
:105A3000C0B2002802D0206800F097FD3800C0B244
:105A400013B0F0BD2DE9F84795B005000E00170022
:105A500098461E9C02A8291D4C22FEF757FA0822E0
:105A60000021684601F042F8012002903200D2B2D3
:105A7000069995F8500000F044F804903800C0B240
:105A8000139041F2883A524602A9286800F05EFB62
:105A900081464846C0B200281FD1022002904246EB
:105AA000D2B2069995F8500000F02BF8049020002F
:105AB000C0B21390524602A9286800F047FB814605
:105AC0004846C0B2002808D1002000905020019024
:105AD0006946286800F011FD81464846C0B200289A
