:020000040800F2
:1000000000040020D9680008956800089768000877
:10001000996800089B6800089D68000800000000BF
:100020000000000000000000000000009F680008C1
:10003000A168000800000000A3680008A568000887
:100040000569000800000000096900080D69000842
:100050001169000815690008000000000000000098
:10006000196900081D6900082169000800000000E6
:1000700000000000256900080000000000000000EA
:10008000296900082D6900083169000835690008F0
:10009000396900083D6900084169000845690008A0
:1000A000496900084D690008516900085569000850
:1000B000596900085D690008616900086569000800
:1000C000696900086D6900087169000875690008B0
:1000D000796900087D690008816900088569000860
:1000E000896900088D690008916900089569000810
:1000F000996900089D690008A1690008A5690008C0
:10010000A9690008AD690008B1690008B56900086F
:10011000B9690008BD690008C1690008C56900081F
:10012000C9690008CD690008D1690008D5690008CF
:10013000D9690008DD690008E1690008E56900087F
:10014000E9690008ED690008F1690008F56900082F
:10015000F9690008FD690008016A0008056A0008DD
:10016000096A00080D6A0008116A0008156A00088B
:10017000196A00081D6A0008216A0008256A00083B
:10018000296A00082D6A0008316A0008356A0008EB
:10019000396A00083D6A0008416A0008456A00089B
:1001A000496A00084D6A0008516A0008556A00084B
:1001B000596A00085D6A0008616A0008656A0008FB
:1001C000696A00086D6A0008716A0008756A0008AB
:1001D000796A00087D6A0008816A0008856A00085B
:1001E000896A00088D6A0008916A0008956A00080B
:1001F000996A00089D6A00080000000000000000E5
:10020000A16A0008A56A0008A96A0008AD6A00088A
:10021000B16A0008B56A0008B96A0008BD6A00083A
:10022000C16A0008C56A0008C96A0008CD6A0008EA
:10023000D16A0008D56A0008D96A0008DD6A00089A
:10024000E16A0008E56A0008E96A0008ED6A00084A
:10025000F16A0008F56A0008F96A0008FD6A0008FA
:10026000016B0008056B0008096B00080D6B0008A6
:10027000116B0008156B0008196B00081D6B000856
:10028000216B0008256B0008296B00082D6B000806
:10029000316B0008356B0008396B00083D6B0008B6
:1002A000416B0008456B0008496B00084D6B000866
:1002B0002DE9FF4704468A4615464FF000090026FF
:1002C00000F01DF9DFF8680700F0D8FF00F0FEFC31
:1002D0002C60284600F0B6F928B14FF0FF394846A7
:1002E00004B0BDE8F0876A6F5146284600F01FFA57
:1002F00000284FD1291D05F1740000F0F5FC0028FD
:100300004BD195F8690030B1284600F0D5FB10B10B
:100310006FF00509E3E741F20108B5F960004045D7
:100320004CD105F5A070A865284600F0CFFE002846
:1003300044D06FF00609D2E76FF00809CFE76FF0FD
:100340000E09CCE76FF00709C9E700F0BCF8B0F17F
:10035000006F10D100F0A3F800F00F0001282CD19D
:1003600074432819B0F89C10284600F06FFB20B3A6
:100370006FF00909B3E77443281900F0A4F8B0F14D
:10038000007F40F07F80D5F810215146284600F0CC
:10039000CEF928B16FF00309A1E76FF004099EE7D9
:1003A000291D05F5887000F09FFC0028F5D195F80F
:1003B000500110B105F5AA70A865761CB5F8940037
:1003C0008642DFF8EC0660D200F058FF32464AA1C0
:1003D000684601F00BF900F082FCDFF8D80600F067
:1003E0004DFF684600F04AFF00F071FC142404FB46
:1003F00006F0284400F067F8B0F1806F04FB06F0C7
:100400002844A2D190F89800C00606D5002200F03A
:100410004CF800F0C0F9002894D100F040F88006B4
:1004200014D5B5F96000404509D100F031F8002835
:1004300085D1AA6D291D286800F00AFDF8B900F0E1
:1004400034F800F038FA00287FF476AF00F034F882
:10045000B3D5B5F96000404503D100F019F8002884
:10046000E6D100F029F8A8D501227443281900F13B
:100470009801284600F08FF900289ED062E76FF0BF
:100480000D092CE76FF00B0929E700F0F7FE26E7CE
:100490004FF4FA73AA6D291D286800F073BD04FBA0
:1004A00006F0284490F89800704704FB06F02844B2
:1004B00000F198012846704704FB06F0284490F8A4
:1004C000980040067047D0F8980000F070607047C0
:1004D00038B50446002500F012F8DFF8080800F0EF
:1004E000CDFE00F021F9204600F0ECF808B16FF0E5
:1004F0000105284632BD0000257500000668DFF8BA
:100500008C0C00F0BBBE2DE9FE43074600243D1DC8
:10051000D7F8008008220021684601F087F8FFF72D
:10052000EEFFDFF86C0B00F0A9FE0FF2941900F05B
:1005300021FDD7F81001002814BF07F5887607F1D0
:100540007406391D304600F0CFFB08B16FF004048B
:1005500001202860B088A860308900F02FF808B129
:100560006FF002047069400006D5391D304600F076
:100570003FFC08B16FF0040402202860F088A860F6
:10058000708900F01BF808B16FF0020400200090A1
:10059000502001906946404601F04FFA10B16FF0CB
:1005A000110401E0200006D000F00FF800F0E2FC9A
:1005B000404601F077FA2046BDE8FE8368644FF4B8
:1005C000FA722946404601F0EDB8DFF8C80B00F09A
:1005D00055BE70B50024FFF791FFDFF8BC0B00F0AB
:1005E0004DFE37A5284600F049FE304601F05AFA84
:1005F00030B1FFF7EAFF284600F040FE6FF012042A
:10060000204670BD70B50C466FF07F05FFF776FF92
:10061000DFF8880B00F032FE00F086F83068DFF873
:10062000801B884203D14FF01040206000253068C5
:10063000DFF8701B884203D14FF0E04020600025B6
:10064000284670BD38B50446002502202168486060
:1006500021688D60606E2168C86094F86800216828
:100660000861B4F872002168486121688D612168D1
:10067000CD6121680D6221680D6321688D63E06E94
:10068000002803D520F0004021688862206801F02E
:1006900070F838B1DFF8100B00F0F0FD00F044F80E
:1006A0004FF0FF35206800F0CBFF38B1DFF8FC0ACF
:1006B00000F0E4FD00F038F84FF0FF35284632BD79
:1006C0000A0D000070B506460024351D3068406DE7
:1006D00040B396F8690028B1304600F0EDF908B152
:1006E0004FF0FF34306801F044F840B1DFF8C40A3D
:1006F00000F0C4FD00F018F84FF0FF3412E028605D
:100700006860A860E86028616861A861E8612862A3
:100710006862A862E86228636863A863E863286483
:100720006864A864204670BDBFA000F0A7BD3EB5B8
:100730000024DFF8843A9A4224BFDFF8803A9A18FE
:1007400012B94FF0FF3414E0B1FBF2F323B1B1FB67
:10075000F3F5AA4228BF5B1E5A1CB1FBF2F10165FA
:1007600001680968C968090A43EA01230168096840
:10077000CB60026DADA1684600F038FF00F0AFFA23
:10078000DFF83C0A00F07AFD684600F077FDFFF7DD
:10079000CBFF20463EBD2DE9F04385B004460F4611
:1007A00091460025261DD4F8008000F046F900F09F
:1007B00078F83560386800F07060B0F1806F58D11B
:1007C000B9F1000F1FD1788900F06EF800F087FAB8
:1007D000DFF8F00900F052FD00F035F9FFF7A4FF53
:1007E000386800281AD57868B061024600F05EF8D3
:1007F00000F075FADFF8D00900F040FD00F023F9B1
:10080000FFF792FF0BE0B9F1010F32D1B88900F088
:100810004BF800F064FADFF8B409DBE7F561306CFF
:10082000B0F1006F0CBF02200120F0634FF4FA72A8
:100830003146404600F0B6FF30B100F036F800F027
:100840004EFADFF88C090EE04FF4FA726946404622
:1008500001F03EF880B19DF8002000F027F800F08C
:100860003EFADFF8700900F009FD00F0ECF8FFF740
:100870005BFF4FF0FF350FE09DF80000606502461A
:1008800000F014F800F02BFADFF84C0900F0F6FC49
:1008900000F0D9F8FFF748FF01A900F0CCF800F00C
:1008A00070BC01A930464BE2B060B268DFF82C1989
:1008B00002A800F09BBE2DE9F04F85B007460C461C
:1008C00000253E1DD7F800B000F0B7F8FFF7E9FFAC
:1008D000DFF8088922894146FFF7EAFF00F048FB6C
:1008E000DFF8FC0800F0CAFC00F0ADF800F0F2F907
:1008F000206800F0C040B0F1005FE189608A26D135
:1009000001407A6D4FF6FF731B1A1A401143080A13
:100910008DF800008DF801100220F0639DF8002092
:100920004146FFF7C5FF00F025FBDFF8B80800F0EF
:10093000A5FC00F088F800F0CFF99DF801204146B1
:10094000FFF7B6FF00F016FBDFF89C081EE0014041
:10095000786D628AC2F1FF02104001438DF80010E9
:10096000306CB0F1006F06D10220F0639DF80000FA
:100970008DF8010001E00120F0639DF80020414660
:10098000FFF796FF00F0F6FADFF8600800F076FC5B
:1009900000F059F800F0A0F935602089B060756466
:1009A0002068002810D56068B06102464146FFF714
:1009B0007FFF00F0DFFADFF8380800F05FFC00F09E
:1009C00042F800F089F900E0F5614FF4FA7231461F
:1009D000584600F0E7FE40B1B2684146FFF768FFB5
:1009E00000F0C8FADFF80C080FE04FF4FA7269461D
:1009F000584600F030FF80B19DF800204146FFF7D7
:100A000057FF00F0B7FADFF8F00700F037FC00F00E
:100A10001AF800F061F94FF0FF3501A900F00BF86A
:100A2000284605B0BDE8F08F0A0D000025750000CE
:100A30009865000869463046ACE101950222002124
:100A4000684600F0F3BD02A800F018BCF8B584B009
:100A50000F460024051D066800946946284600F0EC
:100A60006FF92C60AF60EC61AC634FF4FA72294609
:100A7000304600F097FE08B14FF0FF34AA6800F04E
:100A800011F800F02CF9DFF8740700F0F7FB00F024
:100A9000E2FBFFF749FE6946284600F07BF9204655
:100AA00005B0F0BDDFF8341701A800F09FBD0000CD
:100AB00050620008B86800082DE9F84F86B08146FA
:100AC0004FF0000B09F10406D9F80070012400254D
:100AD00000956946FFF7E6FE3560F561B56375641C
:100AE000D9F8100120B909F174010197029408E0C6
:100AF00009F58871087E99F88C209042F5D002247F
:100B0000F3E799F86900401E022802D9C01E7CD084
:100B1000A3E000F0B8F8087E002821D1662000F09C
:100B2000BDF858B100F0C4F800F0D9F800F0CAF8E8
:100B300000F0BBF8FFF7F8FD4FF0FF3BDFF89C86B5
:100B4000B268414600F0B7F800F0B8F8DFF8B0A698
:100B500000F0C2F800F0A9F800F0B8F8992030E0F1
:100B600010284BD199F8690002280CBF46F2996011
:100B700046F2666000F092F858B100F099F800F083
:100B8000AEF800F09FF800F090F8FFF7CDFD4FF0C1
:100B9000FF3BDFF84886B268414600F08CF800F071
:100BA0008DF8DFF85CA600F097F800F07EF800F012
:100BB0008DF899F8690002280CBF49F6661049F6CD
:100BC000991000F06BF868B1B268414600F073F814
:100BD00000F075F800F076F800F067F800F077F8AC
:100BE0004FF0FF3BB268414600F065F800F067F84F
:100BF00000F072F800F059F838462BE0DFF80406F0
:100C000000F03CFBFFF790FD27E000F03CF84FF4CC
:100C10008060F0614FF44050306200207062FF202D
:100C200000F03CF858B100F043F800F058F800F03C
:100C300049F800F03AF8FFF777FD4FF0FF3B00F07E
:100C400037F800F04CF8DFF8B80500F017FB00F0BB
:100C50002CF8CAA000F012FB01E04FF0FF3BB9F8FE
:100C6000700008B101F010F909F174016D1C0298CF
:100C70008542FFF446AF3046694600F08BF858468F
:100C800007B0BDE8F08F087C00F00700F060087E38
:100C90003061087C00F0080070617047B0604FF46C
:100CA000FA723146019800F07DBD03A800F0E6BA63
:100CB000B268DFF8281503A800F098BCB0A420465D
:100CC00000F0DCBADFF8400500F0D8BAABA7384630
:100CD00000F0D4BA0FF2A42A504600F0CFBAA8A070
:100CE00000F0CCBAB465000800220A604A608A604D
:100CF000027C02F00702CA60027E0A61027C02F0F6
:100D000008024A6100228A61026902F4E062CA6153
:100D1000B0F91A200A62026902F400624A620022F3
:100D20008A62CA620A634A63026902F0E0628A6305
:100D30000022CA63026902F000620A64828982E0CA
:100D4000027B02F00702037C03F030031A43037DA9
:100D500003F008031A43C36903F4E0631A43036A08
:100D600003F440531A43436A03F400631A43836B4A
:100D700003F0E0631A43036C03F000631A43836CCF
:100D800003F000531A43406C000400F4F8100243CF
:100D90000A6070470A7802F00702C2600A7802F01F
:100DA000300202610A7802F0080242610A6802F425
:100DB000E062C2610A6802F4405202620A6802F408
:100DC0000062426200228262C262026342630A6877
:100DD00002F0E06282630A6802F0006202640A685C
:100DE000C2F304424264096801F000518164704713
:100DF00000220A604A608A60027D02F00702CA602F
:100E0000027E0A61027D02F008024A6100228A61C4
:100E1000426902F4E062CA61B0F91A200A624269CA
:100E200002F400624A6200228A62CA620A634A636A
:100E3000426902F0E0628A630022CA63426902F0FA
:100E400000620A6442894A64C0698864002070476D
:100E50002DE9F84789B006460C461746002500F0F4
:100E600022F9009569462046FFF76AFF25607889D8
:100E7000A060E561A563656400F074F870B14FF09F
:100E8000FF35A268D54900F01BF9FFF728FFDF48BE
:100E900000F0F4F900F00FF938A05BE0DFF83C83D4
:100EA00000F00CF900F064F8D94800F0E7F900F020
:100EB00002F9FFF70FFF00F0FBF83889A060206C03
:100EC000B0F1006F0CBF02200120E06300F04AF88F
:100ED00038B14FF0FF3500F0F1F800F04BF8CD4895
:100EE00033E000F0D9F8387B0290787B01904FF422
:100EF000FA7201A9304600F04AFD00282ED04FF0CA
:100F0000FF35C54800F0BAF9FFF7E6FE3A7B00F07E
:100F1000D6F800F02FF8C14800F0B0F900F0CBF897
:100F2000FFF7DAFE7A7B00F0CAF800F023F8BC483D
:100F300000F0A4F900F0BFF8FFF7CEFE3068026DB4
:100F400000F0BDF800F016F8B64800F097F900F090
:100F5000B2F8504600F092F900F0AAF828460AB01C
:100F6000BDE8F0874FF4FA722146304600F01ABC13
:100F70000FF21C29484600F081B900000A0D00005C
:100F8000092000002DE9F04389B007460C461546BC
:100F90009846002600F087F8009669462046FFF73D
:100FA000CFFE2889A0602868002846BF20F00040B6
:100FB000A061E661206CB0F1006F0CBF022001203F
:100FC000E0634FF4FA722146384600F0EBFB70B153
:100FD000A268824900F074F8FFF781FE8D4800F0A6
:100FE0004DF900F068F8FFF79FFB4FF0FF36002047
:100FF00000F052F8A87B0290E87B0190424601A9DC
:10100000384600F0C4FC00282ED0874800F036F99E
:1010100020A600F058F8DFF8C481AA7B00F04FF852
:10102000FFF7A6FF814800F029F900F044F800F02E
:101030004AF8EA7B00F043F8FFF79CFF7C4800F099
:101040001DF900F038F800F03EF83868026D00F045
:1010500036F8FFF78FFF734800F010F900F02BF817
:1010600000F031F84FF0FF36A2685C4900F028F834
:10107000FFF735FE6F4800F001F900F01CF8FFF7AC
:1010800053FB00F015F8304609B0BDE8F0830000CE
:10109000806200080A0D000003904FF48000049065
:1010A0001020059070471422002101A800F0BEBA5C
:1010B000694620466EE606A800F0E0B8A268414600
:1010C00006A800F093BA304600F0D8B82DE9F843EE
:1010D00084B000F0C6F8FFF733FE35609F20B060A3
:1010E000F5610320F06300F0AFF868B1B268FFF774
:1010F000D9FCFFF7F4FD504800F0C0F800F0ABF861
:10110000FFF712FB4FF0FF354FF4FA7204F15C0168
:10111000384600F0DDFB08B14FF0FF352F4F94F853
:101120005C203946FFF7C0FC0FF2640800F096F827
:10113000424800F0A3F800F08EF80FF27409FFF7B0
:1011400019FF94F85D203946FFF7AEFC00F086F8F1
:101150003B4800F093F800F07EF8FFF70BFF94F89F
:101160005E203946FFF7A0FC00F078F8354800F023
:1011700085F800F070F8FFF7FDFE69463046FFF78E
:1011800009FE284605B0BDE8F0830000A868000805
:101190000920000008680008B062000830630008F9
:1011A0000050005200A00052546300081C68000860
:1011B0000A0D00003068000881F0FA0240420F007A
:1011C00044680008046400084464000824640008BB
:1011D000786300086464000884640008F468000808
:1011E000E866000800670008186700083067000814
:1011F000486700089C630008A4640008D0650008E4
:1012000058680008E0620008EC65000860670008A4
:101210006C68000878670008086600082466000803
:1012200040660008906700085C6600087866000861
:101230009466000880680008B0660008C46400086E
:10124000E46400080465000875644FF4FA723146DE
:10125000384600F0A7BA01A800F010B8404600F0E8
:101260000DB804460025261D2768009569463046BE
:1012700070470268531C03601170704710B5044634
:1012800000F016FE4FF47A7382B221469C48BDE806
:10129000104000F05FBE38B500F04AF9994908687F
:1012A00080030BD400F044F80020974A106000F04F
:1012B0003FF8086840F4003000F039F80868C003CF
:1012C00021D40020914A1060BFF34F8F90480268EC
:1012D000C2F34E338F4DC2F3C90443F6E07000EA07
:1012E000431040EA847028602046441E0028F4D150
:1012F0001846431E0028EED1BFF34F8F086840F414
:10130000803000F014F801F06FF900F016F800F0EA
:10131000E1F800F0C6F800F08AF800F06AF801F091
:10132000A7F901F0E1F908B100F05EF9FEE7086005
:10133000BFF34F8FBFF36F8F704700B5AFB09C21E5
:1013400008A801F06FFA2021684601F06BFA01202D
:1013500001F0A2FA08B100F047F90220089001203C
:101360000B9000200C9040200D9002201190002046
:101370001290202013904FF4967014900120159035
:101380000220169017901890199000201A900220B1
:101390001B9000201C9004201D9019201E900220FC
:1013A0001F9020902190229023900020249025903F
:1013B00008A801F0A1FA08B100F016F93F2000904A
:1013C0000320019000200290082003900420049044
:1013D000402005904FF4806006904FF480400790C5
:1013E0003721684601F09BFC08B100F0FDF82FB0F2
:1013F00000BD1FB500F04EF8474C48482060022061
:101400006060A1604FF0C060E0601F202061052097
:1014100000F033F80A20206300F036F808B100F03D
:10142000E3F8102000900020019001201AE01FB581
:1014300000F030F83A4C3B48206004206060A16026
:101440004FF08070E0601F202061022000F015F84E
:10145000216300F019F808B100F0C6F810200090E0
:1014600001200190029041F288326946204600F046
:101470006AFB08B100F0B8F81FBD6061A161E161CD
:1014800021626162A16270476163A163E1632046EA
:1014900000F0D6B8684600210022002380E80E0044
:1014A000704781B02048016841F400510160016833
:1014B00000910099016841F4804101600168009148
:1014C0000099016841F400410160006800900098B3
:1014D00001B070470A48154901604FF4E13141609D
:1014E00000218160C16001610821416100218161A9
:1014F0004FF40041C16100210162416200F0E2BC91
:10150000EC05002414ED00E050EF00E084ED00E075
:1015100080ED00E060EF00E0800600240050005203
:10152000E006002400A0005240450258004C004054
:101530001FB56846002100220023002480E81E0019
:1015400002F09DF8E0B202F0A9F8641CE0B21028A5
:10155000F8D301208DF8000000208DF801000190E3
:101560001F208DF8080087208DF809000020ADF8B5
:101570000A0001208DF80C0000208DF80D00ADF858
:101580000E00684602F092F801208DF801004FF03D
:101590001040019018208DF8080000208DF80900F7
:1015A00001208DF80A0003208DF80B0000208DF833
:1015B0000D0001208DF80E008DF80F00684602F036
:1015C00075F802208DF801004FF0E04001901A20DC
:1015D0008DF8080000208DF80C00684602F066F8CF
:1015E000042002F040F81FBD72B6FEE70CB430B51F
:1015F00083B00A4606A9029104460025019400958D
:1016000002AB01A9084878441E3002F093F8019A11
:10161000157000284EBF04460198041B204603B0F5
:1016200030BC5DF80CFB00BF4BFCFFFF10B504465F
:1016300010460A460146204603F014F8204610BD25
:101640007CB50446002503F041F806460CB9012597
:101650008DE00020A065606D0028F9D1204603F0E0
:1016600084F841F28831204600F06AFA20688168E7
:10167000DFF820040140E0680143206941EA0041AD
:101680006069401E41EA0021E069014320688160F1
:101690002068C16821F4E021206A01432068C1600C
:1016A0002068006920F4F810216B40EA01402168AD
:1016B000086120680169090A606B40EA012120681D
:1016C0000161A06B216848612068006820F4F8502F
:1016D0006168491E40EA012021680860E06D0090C1
:1016E000334600F0AAF8050041D12068C168090A14
:1016F000606A40EA01212068C1602068DFF8981321
:1017000088421CBFDFF89413884206D1E06D009038
:10171000334600F092F8050029D120680168DFF80F
:1017200080030140A0680143E06B01432068016031
:101730002068D0F8081121F08041A06A0143206898
:10174000C0F808112068006840F0010021680860B6
:10175000A069022805D12068806840F00200216855
:10176000886000F064F80CBF012002206065284604
:1017700076BD38B5044600250CB9012510E0206877
:10178000006840084000216808602068806820F0F8
:10179000020021688860204603F06BF80020606535
:1017A000284632BDF8B500F04DF80746606D0228B6
:1017B00005D100F03CF80FD100F049F8F2BD142833
:1017C00003D12868022805D106E02428F4D128682E
:1017D000012801D00328EFD100963B4600F02DF8F8
:1017E00018BBA0652946204600F041FA0100E5D16A
:1017F000A96B39B900963B4600F01FF80221226818
:101800005162F2BD296811B904216165F2BD012957
:1018100004D1616D2429F7D01421F6E70229CDD136
:10182000616D1429F0D02421EFE70220F2BDE068B9
:10183000B0F1806F7047E06D0090002220212046BB
:1018400000F0F2B904460D46164602F03FBF0120F3
:101850001021A16570472DE9FC4105460C4616464E
:1018600002F034FF8046286800F1500714B90120C7
:1018700008212AE0686D042825D12868006C401CE6
:10188000A864A86C68642C642868006820F0405044
:1018900029680860009643460122042100F074F88C
:1018A000010013D1286C0078387000F062F8F1D193
:1018B0000096434600F066F8010007D102212A682D
:1018C0005162696502E001201021A965BDE8F68139
:1018D000F8B505460F46164602F0F8FE044628689D
:1018E00050302968896C2A68D2F8102117B9012074
:1018F00008213CE06B6D042B37D12B681B6C5B1C03
:10190000AB64AB6C6B642F6401232F683F6863F397
:101910001D772B681F60EB68B3F1806F1BD12A68BD
:1019200091640746009623460122062100F02CF818
:1019300001001DD13878296C087000F01AF8F1D137
:101940000096234600F01EF8010011D102212A68FA
:1019500051626965F2BD2B68D3F8003113F4E06F72
:10196000DDD12968C1F81021DBE701201021A9652C
:10197000F2BD286C401C2864A86C401EA864A86CAA
:101980000028704701220221284600F04DB92DE9B8
:10199000F84304460F46154602F098FE804620683C
:1019A000866CD0F81091606D042804BFF868B0F51B
:1019B000800F3AD100954346FFF73FFF98BB386848
:1019C0002168C1F8880078682168C1F8800038690A
:1019D0002168C1F890002068016821F04351B8687F
:1019E0000143F868014341F0005120680160FFF7AE
:1019F0001EFF206805D0D0F8000110F4E06F2068C9
:101A000001D0866401E0C0F81091009543460122A0
:101A10000821FFF714FF010009D108212268516253
:101A20000221616503E0022001E0FFF710FFBDE83D
:101A3000F28304460D4602F049BE38B5FFF7F9FFC0
:101A40000346606D042821D1FFF7F5FE01001FD188
:101A500088216165296808290CD169682268C2F863
:101A600030111021226851622168096841F4801107
:101A70002268116021680A68DFF8EC130A402968BF
:101A80000A4342F0405221680A6032BDFFF7DFFE90
:101A900032BD0000FCC0E0F80050005200A000522F
:101AA000BFFFFFFE7CB50446002602F00FFE054690
:101AB000606D002838D02068006840070ED500F01F
:101AC00038F8E06C02F064FF08B10420A065206DD6
:101AD00002F05EFF06001CBF0420A0652068006ABB
:101AE00080062068006818D540F002002168086070
:101AF000E06D00902B4601220221FFF7A0FE0600B8
:101B000015D1022021684862E06D00902B46FFF756
:101B100094FE06000BD12068006820F04050216838
:101B200008600220606502E001261020A0653046B2
:101B300076BD2068006820F00400216808607047C6
:101B4000C16500207047F8B586B006460D460024F2
:101B5000182200216846FFF769FD00270C21794310
:101B60006944781CC0B200F059F97F1C022FF5D3EC
:101B7000DFF8F8120868C00704D50868400840007C
:101B800008600124DFF8E8221068C00705D5106856
:101B900040084000106044F00204DFF8D832002012
:101BA0001860186820F47F00AF687F1E40EA074085
:101BB00018603068884226D168680190286820B192
:101BC0001E6826F0300606431E60019D049EB54245
:101BD00003D11D6845F001051D600198012803D15E
:101BE000186840F002001860E00703D5086840F06C
:101BF00001000860A00703D5106840F001001060E4
:101C0000002007B0F0BD904208D1686804902868B1
:101C10000028DAD01E6826F05006D4E7B06D40F0F8
:101C20000800B0650120ECE72DE9F04105460E46BD
:101C300090461F46069C2868006A304018BF012065
:101C4000404511D014F1010FF5D002F03FFDC01B4B
:101C5000844201D3002CEED102206865A86D40F0CB
:101C60000100A865032000E00020BDE8F081F0B588
:101C7000002203681B6823F04053046823608368D4
:101C80003BB903681C6824F040444B681C4303685C
:101C90001C600B68022B09D1036803F5C07403F5BF
:101CA000C47603F5C87503F5D07713E0032B0368FA
:101CB00008D103F5A07403F5A47603F5A87503F520
:101CC000B07707E003F5807403F5847603F5887533
:101CD00003F590778B6C2360CB6A5BB18B6A3B60BA
:101CE000276827F47C17CB6A1F434B6B1F430B6B92
:101CF0001F43276037687F094B6C43EA47173760FB
:101D00008B6BEBB10B682BB9CB6B5B1E0668336436
:101D10008B6BABB10B6CB3F1006F05D10368D3F8DB
:101D2000083123F0804308E0836AB3F1804F07D184
:101D30000368D3F8083143F080430668C6F80831D9
:101D4000CB68002BCB6931D0002B8B6B12D0002BD2
:101D5000266807D0484B00F054F81E438B6B1E4397
:101D60000B6C02E0454B00F04CF81E4326608B687C
:101D70002B602FE0002B26680CD0414B1E40CB6817
:101D80001E434B691E430B691E438B6B1E430B6C3A
:101D90001E4307E0B6090F69CB681F434B691F4319
:101DA00047EA861626608B682B601AE0B3B18B6B0E
:101DB000002B256808D0334B1D4000F01CF81D4354
:101DC0008B6B1D430B6C03E025F47C5500F013F87E
:101DD0001D4325608B690468A36402E00122082387
:101DE00083658B6B2BB10B681BB9C96B491E0068EF
:101DF00001641046F0BDCB691D434B6A1D430B6A5D
:101E000070471E40CB681E434B691E430B691E433F
:101E1000CB691E434B6A1E430B6A70470128154865
:101E200002680AD112F0020218BF01224A60026859
:101E3000D2060FD50068800610E0036802F00102A8
:101E4000C3F340039A4214BF002201224A60026891
:101E5000D20601D4002004E0006840064CBF702088
:101E60001020086070470000F7FFFFCF00500052BD
:101E700000A0005200B40052C0C0FFF0C0C0FFFF7D
:101E8000C0FFFFF0FFC0FFF038B5044602F01EFCB3
:101E9000054614F1010F02D004480078241802F01E
:101EA00015FC401BA042FAD331BD00BF080300243B
:101EB00000F1010310F8011B11B110F8011BFBE741
:101EC000C01A704710B5040001D1012010BDD4F82C
:101ED000880008B900F023F800F026F808B100F0F7
:101EE0001BF800F016F8012802D000F028F800E0F6
:101EF00010BD2168886000F004F8BDE8104000F0D3
:101F00007CBA2068006840F0010021680860204623
:101F10007047204600F096B8204600F001BA84F8D9
:101F20008400204602F0D6BC2420C4F88800206833
:101F300000684008400021680860A06A7047206877
:101F4000406820F49040216848602068806820F054
:101F50002A0070472DE9FC4106460D4614461F46EF
:101F6000D6F8880020284ED1002D3AD0200038D055
:101F70000020C6F890002120C6F8880002F0A6FBD9
:101F80008046A6F85440A6F85640B068B0F5805F89
:101F900004BF306900281ABF2C460025002404E045
:101FA000B6F85600401EA6F85600B6F856000028AF
:101FB0000097434617D000228021304600F06EFA89
:101FC000E0B9002C06BF35F8020BC0F3080014F886
:101FD000010B31688862D6F8880000F021002128C2
:101FE000DED0012010E000224021304600F056FAF9
:101FF00020B92020C6F88800002005E02020C6F87F
:102000008800032000E00220BDE8F6812020C4F80B
:1020100088007047206850E8001F024621F4907144
:1020200042E80010002870472068083050E8001F80
:10203000206800F108024908490042E80010002821
:102040007047000038B50446002520680168DFF8B5
:102050004C050140A06801432069014360690143C8
:10206000E0690143206801602068416821F4405123
:10207000E068014320684160A269DFF82415206808
:1020800088421CBF206A024320688368DFF8140579
:1020900003401A43206882602068C26A1209606A9D
:1020A00040EA02122068C2622068DFF8FC249042F5
:1020B0003CD1DFF8F80400F02EF953D8DFE800F047
:1020C0000366686A6C6E0120E169B1F5004F40F06B
:1020D000CB8090B1012800F0B280042800F0B280DB
:1020E000082800F0B280102800F0B280202800F00C
:1020F000B580402800F0B580ECE000F0BDFF00287E
:1021000013D000F0F2F8490801EB40016068B1FB20
:10211000F0F04FF6F071A0F110028A42ECD20140CB
:10212000C0F3420001432068C160D4E0DFF880249E
:1021300090421CBFDFF87C2490420FD0DFF8782457
:1021400090421CBFDFF87424904207D0DFF870245F
:1021500090421CBFDFF86C2490420BD1DFF868047A
:1021600000F0D9F81CD8DFE800F003111315171997
:10217000002016E0884213D1DFF8500400F0CBF8BD
:102180000ED8DFE800F036030507090B042008E04D
:10219000082006E0102004E0202002E0402000E0BB
:1021A000802022688A428FD1022822D0042808D0B9
:1021B00008281BD010281FD0202823D0402824D046
:1021C00088E000F094FF0028AFD0DFF80414626AC2
:1021D00031F81220B0FBF2F2636803EB43039A423A
:1021E00078D363681B03934212D273E000F0A6FF1A
:1021F000E9E700F059FFE6E700F080F8E5D500F0E8
:1022000085F8E0E7DFF8CC03DFE74FF40040DCE7D8
:10221000626A31F81210B0FBF1F2606840080021E8
:1022200010EB022051EB12616268002302F00EFCF9
:10223000A0F54071DFF8A02391424BD232E000F0CC
:1022400027FF5CE700F053FF59E700F077FF56E700
:1022500000F054F804D500F059F850E7DFF87403A3
:102260004FE74FF400404CE760B101281DD004282F
:102270001ED008281FD0102820D0202824D0402885
:1022800025D027E000F0F8FE28B300F02EF800EB90
:102290005100B0FBF1F0A0F110014FF6F072914245
:1022A00018D280B22168C86015E000F0F1FEEBE7BB
:1022B00000F01DFFE8E700F041FFE5E700F01EF841
:1022C000E3D500F023F8DFE7DFF80803DDE74FF49C
:1022D0000040DAE701250120A4F86A00A4F86800AC
:1022E00000206067A067284632BDDFF8E412626A0A
:1022F00031F81210B0FBF1F061687047DFF8DC12C2
:1023000008688006DFF8D802704700000968C1F34A
:10231000C101C8407047006800F0070005287047F9
:1023200090F82810090707D501684A6822F400428E
:10233000816B0A4301684A6090F82810C90707D5E5
:1023400001684A6822F40032C16A0A4301684A609F
:1023500090F82810890707D501684A6822F480326E
:10236000016B0A4301684A6090F82810490707D5B5
:1023700001684A6822F48022416B0A4301684A607E
:1023800090F82810C90607D501688A6822F480529F
:10239000C16B0A4301688A6090F82810890607D546
:1023A00001688A6822F40052016C0A4301688A605D
:1023B00090F82810490613D501684A6822F4801263
:1023C000416C0A4301684A60416CB1F5801F07D136
:1023D00001684A6822F4C002816C0A4301684A60BD
:1023E00090F82810090607D501684A6822F40022EF
:1023F000C16C0A4300684260704738B5044600F07B
:1024000041F802F063F9054620680068000713D51B
:1024100000F032F84FF40011204600F03FF858B1B8
:10242000206850E8001F024621F0800100F082F889
:10243000F6D1FFF7EBFD14E020680068400715D5E2
:1024400000F01AF84FF48001204600F027F868B138
:10245000FFF7E0FDFCD1FFF7E7FDFCD12020C4F839
:102460008C00002084F88400032032BD00F00EF8B8
:10247000206784F8840032BD6FF07E4000902B46C8
:10248000002270470020C4F8900070472020C4F854
:102490008800C4F88C000020E06670472DE9F04108
:1024A00005460E4690461F46069C2868C069304087
:1024B000B0420CBF0120002040452CD114F1010F87
:1024C000F3D002F003F9C01B844200D314B90320F7
:1024D000BDE8F081286800684007E6D5802E18BF67
:1024E000402EE2D02868C069000704D42868C0697B
:1024F0000005DAD507E0082000F00FF8082000F00A
:1025000010F80120E4E74FF4006000F006F8202006
:1025100000F007F8DBE70020DAE7296808622846C0
:102520000DE0C5F89000002085F884007047DFF8C2
:10253000B400014042E80010002870470000016824
:1025400051E8002F0B4622F4907243E80021002945
:10255000F5D10168083151E8002F016801F1080345
:102560000D490A4043E800210029F2D1C16E01293A
:1025700009D1016851E8002F0B4622F0100243E810
:1025800000210029F5D12021C0F88C100021C1665E
:102590004167704700000000FEFFFFEFF369FFCFC7
:1025A000000C0058FFF4FF11001000425444025880
:1025B0000044004000480040004C004000500040F3
:1025C00000780040007C00405044025858440258B3
:1025D000D867000800093D0000FD0F0000440258C4
:1025E0000090D003FEFF7FEF10B50024032001F020
:1025F00028F80F2002F0AEFA002814BF012402F0E0
:102600006BF8204610BD2AE017490968084018BF3A
:1026100001207047F0B5012912D1012808BF00241C
:1026200003D004280CBF08241024104D2E68FF2767
:10263000A740BE43A2403243241DA3401A432A6050
:10264000094A136823EA400390FAA0F0B0FA80F038
:10265000401C814019431160F0BD000000BF0249D9
:102660000A681043086070471005005818050058A4
:1026700010B5012003F0BCF9164C4FF43871204618
:1026800000F0D0F8042020701348606004F10C00C2
:1026900012494FF4B27203F0F5F9042084F8700186
:1026A0000F48C4F8740104F5BE700E494FF4B272BD
:1026B00003F0E8F9042002F08BFE0146002003F04D
:1026C000EDF9022002F084FE01460120BDE8104031
:1026D00003F0E4B90C030024E00600240000002409
:1026E000800600246401002480B500F006F8010093
:1026F00002D1BDE8014018E002BD38B50025002434
:102700000021204603F020FA50B1B0F1FF3F06D17E
:102710000CB9042504E0204603F0EAF900E00325A3
:10272000641C022CECD3284632BDF8B56946002063
:1027300003F036FA08B104205BE003F067FA2E4894
:10274000016889030AD500F067F8016821F40031B7
:1027500001600021294A116000F05EF80168C90398
:1027600033D50021264A1160BFF34F8F016821F451
:1027700080310160BFF34F8F224802A9016003A995
:10278000016001A9016000F047F81F48006801904E
:10279000C0F34E3002900198C0F3C9000390029834
:1027A00043F6E07101EA4011039841EA807117484D
:1027B00001600398411E03910028F0D10298411E48
:1027C00002910028E7D100F027F8EFF3108072B6ED
:1027D00000990F4A11600F49009A121D12680A6091
:1027E000009A126882F3088880F31088086880478E
:1027F000002005B000BD000014ED00E050EF00E047
:1028000084ED00E070EF00E080ED00E074EF00E0A8
:1028100008ED00E040070024BFF34F8FBFF36F8F38
:1028200070472E00002203F0F9B9000070B504468D
:10283000DFF8B850286800F007000628286804D0A0
:1028400000F01F00A04225D022E0400944EA4010D9
:10285000286001F03BFF0646DFF89400006880071F
:1028600006D401F033FF801B00F030F8F4D30FE002
:102870001E2C18BF1D2C0DD101F028FF044628681E
:10288000C00307D401F022FF001B00F01FF8F6D3AD
:10289000012070BD002070BD38B5DFF858402168B8
:1028A000490840EA410000F00DF80546206880071D
:1028B00006D401F00BFF00F008F8F7D3012032BD79
:1028C000002032BD206001F001BF401B40F2E93121
:1028D000884270470548016841F4804101607047B3
:1028E0000248016841F40041016070470C480258F9
:1028F00004480258144802582DE9F843070060D0F4
:10290000DFF87C08D0F8008008F03808DFF8840889
:10291000066806F00306DFF83C582C6804F02854DB
:102920003878C00709D5B8F1100F03D0002C66D055
:10293000022E64D17868002843D03878800732D5D9
:10294000B8F1000F05D0002C00F0A380002E40F05D
:10295000A080F868002834D0286800F0180026B954
:10296000002C1CBF3969884219D1296821F019014E
:102970003869014341F001012960B8F1000F0BD122
:10298000DFF8001801222868C0F3C1008240B1FBC3
:10299000F2F0DFF8F417086000F0AAF9002840F020
:1029A000988100F0AFF93878C0060CD5B8F1080F5F
:1029B00005D0002C00F09780012E40F09480386AFA
:1029C000002800F086813878000740F1BD80B869A2
:1029D0000028DFF8D847206800F0A78040F0010009
:1029E000206001F073FE06462068800700F1AC808D
:1029F00001F06CFE801B0228F6D303206CE178689E
:102A0000B0F5803F1ED048B9286820F4803000F02F
:102A10006AF92860286820F480201FE0B0F5A02F14
:102A200005D1286840F4802000F05DF909E0B0F598
:102A3000502F28680AD140F480202860286840F48C
:102A400000202860286840F4803007E020F48030BF
:102A50002860286820F4802000F045F900F05CF937
:102A60008146786850B1286880033FF566AF01F071
:102A70002DFEA0EB09006528F5D3BEE7286880038A
:102A80007FF55BAF01F022FEA0EB09006528F5D3CE
:102A9000B3E7F868B0B1296821F01901014338693A
:102AA0000143296000F02EF901F010FE81462868EC
:102AB00040073FF578AF01F009FEA0EB09000228BE
:102AC000F5D39AE728684008400000F025F98146D0
:102AD000286840077FF567AF01F0F8FDA0EB09001B
:102AE0000228F5D389E7386A002828680ED040F01C
:102AF000800000F011F904462868C0053FF563AF77
:102B000001F0E4FD001B0228F6D376E720F08000F8
:102B100000F002F904462868C0057FF554AF01F0C3
:102B2000D5FD001B0228F6D367E74008400020606F
:102B300001F0CCFD06462068800705D501F0C6FDF2
:102B4000801B0228F7D358E7387880061FD5F8692C
:102B5000002828680DD040F4805000F0DDF80446CD
:102B60002868800413D401F0B1FD001B0228F7D3BC
:102B700043E720F4805000F0CFF804462868800432
:102B800005D501F0A3FD001B0228F7D335E73878FF
:102B900040075BD5DFF8C807016841F48071016028
:102BA000B868012802D1DFF8BC0722E058B9DFF885
:102BB000B40701684908490000F09FF80160016806
:102BC00021F0040121E0052807D1DFF8980701680A
:102BD00041F0040100F091F80AE08528DFF884074D
:102BE00001680AD141F004010160016841F08001EF
:102BF0000160016841F0010107E0490849000160F6
:102C0000016821F0040100F078F80160B86870B143
:102C100001F05CFD0446DFF84C070068800715D41E
:102C200001F054FD001B00F05AF8F4D3E5E601F082
:102C30004DFD0446DFF82C070068800706D501F03B
:102C400045FD001B00F04BF8F4D3D6E6786A68B374
:102C5000B8F1180F22D101283BD0DFF84445206895
:102C6000B96CC0F3CC00814220D0DFF8C468306872
:102C700040084000306001F029FD054601F026FDC6
:102C8000401BFBD020686FF3CF00B96C40EAC10055
:102C90002060306840F00100306007E00120786477
:102CA00007F12401002000F083FA90B9F86C28B1F4
:102CB00007F14C01012000F07BFA50B9786F50B158
:102CC0000120C7F8940007F17401022000F070FAA7
:102CD00008B1012000E00020BDE8F283801B41F232
:102CE0008931884270472860286820F400207047A6
:102CF000DFF84408006801F02DBF0160016821F091
:102D000080017047DFF83408016821F0FE417A69DC
:102D100041EA026101607047286001F0D7BC2DE9EB
:102D2000F0410400884600F0B080DFF87C54286849
:102D300000F03F00404502D200F0FAF871D120784F
:102D400040070CD500F0F0F800F00700226990422F
:102D500005D20A68D208206940EAC2020A602078D7
:102D600000070CD500F0E0F800F0700062699042B6
:102D700005D20A6822F07002606902430A60207876
:102D8000C0060CD500F0D0F800F4E060A2699042D3
:102D900005D20A6822F4E062A06902430A60207842
:102DA00080060CD500F0C0F800F4E040E2699042E3
:102DB00005D20A6822F4E042E06902430A60207802
:102DC00080070DD5DFF8C813086800F00F00E2682F
:102DD000904205D20A681209E06840EA02120A60CD
:102DE0002078C00739D5DFF8BC130A681209A0683B
:102DF00040EA02120A606068022804D1DFF8540336
:102E0000006880030CE0032804D1DFF84803006861
:102E1000800105E00128DFF83C03006802D1C0050D
:102E200002D432E0400730D5DFF854733968C9085E
:102E3000606840EAC101396001F048FC0646386824
:102E400000F038006168B0EBC10F06D001F03EFC25
:102E5000FFF744FFF3D3032064E0207880070CD50C
:102E6000DFF82C13E0680A6802F00F02904204D2E7
:102E70000A68120940EA02120A60286800F03F005E
:102E8000804504D200F054F801D001204AE02078B7
:102E900040070CD5DFF8B01620690A6802F0070277
:102EA000904204D20A68D20840EAC2020A6020783E
:102EB00000070CD5DFF8901660690A6802F070020E
:102EC000904204D20A6822F0700202430A6020781D
:102ED000C0060CD5DFF87016A0690A6802F4E0623B
:102EE000904204D20A6822F4E06202430A60207829
:102EF00080060CD5DFF85016E0690A6802F4E0425B
:102F0000904204D20A6822F4E04202430A6000F0D0
:102F100019F89D490860DFF820060068BDE8F04117
:102F200001F018BEBDE8F081DFF81C160868704794
:102F30002868800948EA80102860286800F03F006F
:102F4000404570478E48006810F0380004D01028C3
:102F50000ED018280FD073E07E490868800605D58A
:102F600088480968C1F3C101C8406BE0002069E0EE
:102F7000DFF8CC0566E0DFF81C0202680068C0F3E9
:102F80000510DFF814120B6803F00103DFF81012CC
:102F90000968C1F3CC014B4300EE103AB8EE400A89
:102FA00000284FD012F0030202D0022A17D01DE0F1
:102FB00068490A6892060FD50968724AC1F3C101CF
:102FC000CA4000EE902AF8EE600A01EE100AB8EE50
:102FD000411AC0EE810A11E09FED650A20E000EE83
:102FE000900AF8EE600A9FED631A05E000EE900A81
:102FF000F8EE600A9FED601AC1EE200A674800688B
:10300000C0F3080001EE100AB8EE411ADFED5B1ABA
:1030100000EE211AB7EE000A31EE000A20EE800A17
:103020005E480068C0F34620401C00EE900AF8EEAF
:10303000600A80EE200ABCEEC00A10EE100A01E021
:10304000DFF80005DFF85C11096801F00F010829BD
:1030500024BFC91FC840704780B5FFF773FF4C49B4
:10306000096801F00F01082905D3DFF8E4241144B1
:1030700011F8081CC84002BD80B5FFF7EDFF00F055
:103080001FF801F00701042924BFC91EC84002BD72
:1030900080B5FFF7E1FF00F013F8C1F30211042936
:1030A00024BFC91EC84002BD80B5FFF7D5FF00F0A0
:1030B00007F8C1F30221042924BFC91EC84002BD7C
:1030C000DFF884140968704710B500F003F8C4F302
:1030D000064108E0DFF87C0404684BE110B500F01D
:1030E0000CF8C4F34621491CB0FBF1F010BD10B53B
:1030F00000F003F8C4F30641F5E7DFF86004046864
:1031000082E110B5FFF7F9FFC4F30661EBE710B5F4
:1031100000F00CF804F00704641CB0FBF4F010BDE0
:1031200010B500F003F8C4F30221DCE7DFF8300447
:10313000046869E110B500F007F8D2E710B500F0B7
:1031400003F8C4F30641CEE7DFF818040468A5E1EC
:10315000000000000044025810B5FFF7F5FFC4F36B
:103160000661C0E710B50948046800F097F9D1E797
:1031700000000000001BB74B0024744A0000003917
:10318000104402580090D003CC020024C8440258D6
:103190001C440258284402582C4402583044025817
:1031A0003444025818440258002000527444025813
:1031B0002DE9FE4F04460F46DFF8980300EBC400EC
:1031C0000190DFF8940300EB840000904FF00B0AAD
:1031D000DFF85C5329684FF478720AFB04F08240F0
:1031E000914329604FF08079DFF8606330686100B7
:1031F00009FA01F18843306001F068FA83464FF024
:10320000007800F0B1F807D001F060FAA0EB0B00F5
:103210003328F6D30320A1E03868022840F09080DC
:10322000786830B9DFF848133268C2F3C102D14080
:1032300003E002280CBFC249C249BA68B1FBF2F1EF
:10324000DFF83023914228BF18220AD2BD4A9142AA
:1032500028BF102205D2DFF8202391422CBF08227C
:103260000222C64BD3F800C04FF47C7EE1000EFA78
:1032700001F141F003012CEA010140EA010CB968B7
:103280004FEAC40E0EF1040E01FA0EF141EA0C0CE5
:10329000C3F800C0196801F00301814218BF012082
:1032A0005CD129681B230AFB04F0834099438240C8
:1032B0000A432A60F868401E3969491E40EA4120E5
:1032C0007969491E40EA0140B969491E40EA016036
:1032D00001990860F869401E396A491E40EA0120D8
:1032E000009908601CB9286840F020002860786ABE
:1032F00090B1A34800EBC40001686FF3CF017A6A74
:1033000041EAC2010160286801210AFB04F29140F0
:1033100041EA000AC5F800A03168600009FA00F02F
:1033200040EA0109C6F8009001F0D0F9054600F026
:103330001BF812D101F0CAF9401B3328F7D369E713
:103340008E4801684FF47C72E400241D02FA04F4F4
:1033500021EA040444F0030404600020BDE8FE8F69
:1033600000480258704402583068610008FA01F1C0
:10337000084270478148026876480168C2F3051028
:10338000002840D06A4B1B68DB0708D57C4B1B68C4
:10339000C3F3CC0300EE103ABBEEE90A01E09FED67
:1033A000650A12F0030203D0022A0DD00FD311E0F8
:1033B000664A13689B060DD56D4B1268C2F3C102B5
:1033C000D34000EE903A07E0DFED5D0A04E0DFED68
:1033D0005D0A01E0DFED570AF8EE600A01EE100A1F
:1033E000B8EE411AC0EE810AC1F30801491C01EE92
:1033F000101AB8EE411A31EE000A20EE800ABCEE37
:10340000C00A10EE100A70475C4802685348016811
:10341000C2F30530002840D0454B1B681B0508D57A
:10342000514B1B68C3F3CC0300EE103ABBEEE90A24
:1034300001E09FED400A12F0030203D0022A0DD0F2
:103440000FD311E0414A13689B060DD5484B126813
:10345000C2F3C102D34000EE903A07E0DFED380A34
:1034600004E0DFED380A01E0DFED320AF8EE600A31
:1034700001EE100AB8EE411AC0EE810AC1F308014C
:10348000491C01EE101AB8EE411A31EE000A20EE86
:10349000800ABCEEC00A10EE100A70473748026876
:1034A00030480168C2F30550002840D0204B1B680B
:1034B0005B0208D52D4B1B68C3F3CC0300EE103A1A
:1034C000BBEEE90A01E09FED1B0A12F0030203D0F4
:1034D000022A0DD00FD311E01C4A13689B060DD5AC
:1034E000234B1268C2F3C102D34000EE903A07E0CA
:1034F000DFED130A04E0DFED130A01E0DFED0D0A52
:10350000F8EE600A01EE100AB8EE411AC0EE810A28
:10351000C1F30801491C01EE101AB8EE411A31EE50
:10352000000A20EE800ABCEEC00A10EE100A7047B6
:103530002C44025800000000C80200240444025831
:1035400000366E0100093D00204402580044025834
:10355000FC68000830440258C044025838440258FD
:10356000C4440258404402583C440258444402585F
:103570000090D00300127A0080841E002844025874
:10358000344402585E4A13684FF6FF010B400002B4
:1035900000F4E06018435B490843106070475848E6
:1035A0000068C0F302207047010007D4012200F038
:1035B0001F018A405449400941F820207047020009
:1035C00003D40901514A115470470901504A00F0CF
:1035D0000F00104400F8041C704710B500F00700FD
:1035E000C0F10703052B2FBF0F23012404FA03F3B7
:1035F0005B1E041D072C34BF0020C01E19408140F3
:10360000012303FA00F0401E1040084310BD10B51E
:103610000446601EB0F1807F0CD23E4908600F2145
:103620004FF0FF30FFF7CBFF00203B490860072039
:103630003A490860641EB4F1807F8041C043C00FE6
:1036400010BD9FE770B504460D461646FFF7A7FF6D
:1036500032462946FFF7C1FF01462046BDE87040CB
:10366000ADE7A1E7D3E7BFF35F8F40F001002C493E
:1036700008602C48016841F48031016009E0BFF323
:103680005F8F2848016821F48031016000202449BF
:103690000860BFF34F8FBFF36F8F704722490860F8
:1036A00022480168490849000160704741781E4A74
:1036B00011601E490A68520852000A600A685208DE
:1036C00052000A6042681A4B1A60027BC37A1B06DA
:1036D00043EA0273827A43EAC243427B43EA82436B
:1036E000827B43EA4243C27B43EA0243427A43EA93
:1036F0000223027A43EA4203007803430B607047D7
:103700000CED00E00000FA0500E100E000E400E05C
:1037100018ED00E014E000E018E000E010E000E048
:1037200094ED00E024ED00E098ED00E0A0ED00E075
:103730009CED00E02DE9F14FB0B0924604910DF1FF
:1037400042013A9A2B9199464A7000200AE01AF8F1
:10375000011B0498309A90470028049000F06A8674
:103760000D98401C0D909AF8000050B12528EED11C
:10377000002100220791089209910A920B910C9264
:1037800004E00D9800F058BE41F001011AF8010F55
:103790002028F9D023280CD02B2804D02D2805D0A0
:1037A000302809D00BE041F00201EFE741F00401BD
:1037B000ECE741F00801E9E741F01001E6E72A28CB
:1037C0000FD1D9F8002052F8040BC9F800200028C6
:1037D0000F9003D540420F9041F004010AF1010A15
:1037E00014E00F92DFF8583C0AE00F98984205DA8F
:1037F00000EB800402EB4402303A0F920AF1010A16
:103800009AF80020A2F130000A28EED39AF80000BE
:103810002E2803D04FF0FF320E9229E01AF8010F44
:103820002A2809D1D9F8000050F8042BC9F8000063
:103830000E920AF1010A1BE02D280CBF0AF1010AC1
:10384000002000220E92DFF8F84B0BE040B90E9AF0
:10385000A24205DA02EB820503EB4503303B0E93EF
:103860000AF1010A9AF80030A3F130020A2AEDD3D6
:10387000ADF840100FF6CC309AF8001002F0E8F9DD
:1038800008B11AF8010B8DF842009DF84200682833
:1038900005D19AF8000068280CD1622106E06C2856
:1038A00004BF9AF800006C2804D171218DF84210F1
:1038B0000AF1010A12A806901AF801BBBBF1250112
:1038C0002CD01C3900F0D681091F022940F2D28188
:1038D000133900F0E184093900F0CC81891E00F031
:1038E0007685491E00F02385491E022940F2C281D7
:1038F000091F00F01C85491F00F03181491E00F0AE
:10390000CB84491E00F0D880C91E0DD0891E00F05E
:10391000C384C91E00F0C08400F064BD25238DF867
:103920004830012100F069BDD9F8000050F8044B7F
:10393000C9F80000002C059440F0AB802B99487822
:10394000002800F0A1804FF0FF340FF6003002F0A5
:103950008BF9201A40F06E8500F050BD01236A46B5
:1039600002A9304600F042FE002840F063856D1E3B
:10397000F4D13096079D12AF75B1309E17F8012B28
:1039800002A9304600F022FE002801D46D1EF5D1B8
:103990000028309640F04E850A9D3020002D8DF88D
:1039A00000000CDD309E01236A4602A9304600F07B
:1039B0001DFE002840F03E856D1EF4D13096059F17
:1039C000089D75B1309E17F8012B02A9304600F012
:1039D000FDFD002801D46D1EF5D10028309640F081
:1039E00029850B9D3020002D8DF800000CDD309EC8
:1039F00001236A4602A9304600F0F8FD002840F095
:103A000019856D1EF4D1309605980899099D4718BF
:103A100075B1309E17F8012B02A9304600F0D6FD93
:103A2000002801D46D1EF5D10028309640F00285A3
:103A30000C9D3020002D8DF800000CDD309E012300
:103A40006A4602A9304600F0D1FD002840F0F28419
:103A50006D1EF4D130969DF8400041077FF583AE8E
:103A60002020002C8DF800007FF77DAE309D0123D3
:103A70006A4602A9284600F0B9FD002840F0DA8421
:103A8000641EF4D130956EE60FF6C030059000F05C
:103A9000B5BC0E9D002D04D52046FEF709FA04465C
:103AA00007E02A46204602F0FFF8002814BF041B56
:103AB0002C46089400F0A2BCD9F8001051F8040B71
:103AC000C9F8001020F00004002121F0FF3512ABEE
:103AD000CDE902450593DDE9022306993C2413B99B
:103AE0000AB90E98A0B102F00F05641E30353A2DC8
:103AF00008DA12090D5542EA03721B0908BF002AB1
:103B000002D105E02735F4E705980D19A842EAD35C
:103B100008190590C4F13C020E98089282420ADA14
:103B2000BDF84010821A4FF6EF7001400A92ADF8CE
:103B3000401000F063BC002840F160849DF8400014
:103B400000F01400102840F059840F9B07990A9840
:103B50005B1A1B1A9A1A002A40F350849AE32B9995
:103B6000487820B14FF0FF340FF6B020EFE69DF813
:103B70004200622860D0682817D06A283FD06C289D
:103B800006D0712847D074282CD07A281DD062E046
:103B9000D9F8001051F8040BC9F80010002866D1BC
:103BA0004FF0FF340FF68C20D1E6D9F8001051F811
:103BB000040BC9F8001020B94FF0FF340FF6742041
:103BC000C5E60D99018000F019BCD9F8001051F834
:103BD000040BC9F80010002849D14FF0FF340FF64C
:103BE0005420B4E6D9F8001051F8040BC9F80010BD
:103BF00000283CD14FF0FF340FF63820A7E6D9F863
:103C0000001051F8040BC9F8001080B94FF0FF34D0
:103C10000FF620209BE6D9F8001051F8040BC9F8E4
:103C2000001020B94FF0FF340FF608208FE60D9AF0
:103C3000D317C0E90023E1E3D9F8001051F8040BD1
:103C4000C9F8001020B94FF0FF340FF6E8107EE6F7
:103C50000D990170D2E3D9F8001051F8040BC9F89E
:103C6000001020B94FF0FF340FF6C8106FE60D9921
:103C70000160C3E3D9F80020D21D22F00702C9F881
:103C80000020D2E900010832C9F80020CDE9020184
:103C9000C80F02D007982D210AE0BDF84000810727
:103CA00002D507982B2103E0C00705D507982021EE
:103CB00012AA1154401C079012A80799DDE9024589
:103CC00043184BF020006128059321AE0BD00E98CD
:103CD000002802D506200E9005E001BF4BF0200021
:103CE000672801210E91DDE9020148004015401CC2
:103CF0000A460DD109030BD0ABF1610703201A2F3F
:103D0000089002D20FF648110DE00FF648110AE0B4
:103D100070B912030CD1ABF1610703201A2F089080
:103D20001CD30FF638110322184601F0ABFE65E3F1
:103D3000DDE902016A4601F0E3FFCDE902014BF043
:103D40002000612811D1059830210170821C059254
:103D5000BBF1610F0CBF7821582102E00FF6F8018A
:103D6000E1E741700798801C0790DDE9020120F02F
:103D7000000231F0004308BF002A02D100250024D0
:103D800045E14BF02008B8F1610F40F095800E98A6
:103D9000002847BF21210191401C0190019F7F1CF9
:103DA0002046294600220023DDE9024501F0E0FF1C
:103DB00038BF85F0004500998DF88420091F002F39
:103DC00000910DF1850034DD06462046294600228B
:103DD000002301F0E7FF2BD21C2201F0FDFF044677
:103DE0000D4602F07BF8FF1F002F804609DD02F030
:103DF0007CF802460B462046294602F07DF8044630
:103E00000D46F01D0721B8F1000F0CDD491E5EBF05
:103E100008F00F0200F8012D4FEA2818F3D502E050
:103E2000002200F8012D491EFAD5C61D002FCCDC5A
:103E300030460DF18501401A01990DF185060546C0
:103E40008842C8BF0D46002D2FD4854206DA0DF1F9
:103E50008500415D0829A8BF0F2000DA002029460F
:103E600021AA0A4400E06D1E12F80139491E83425E
:103E7000F9D00F2804D10DF18500425C521C425448
:103E8000002904D50098001D21AE6D1C0090681E0D
:103E90000BD431180A783032D3B23A2BA4BF5A442B
:103EA0003A3A401E01F80129F4D50E98002840F155
:103EB000AD80691E0E91A9E00099DFF8002747F256
:103EC0009750414391FBF2F2009225F00045C2F178
:103ED0000702002A04DD2046294600F04BFB0BE0D8
:103EE00052420020DFF8D81600F044FB02460B4691
:103EF0002046294602F009F804460D46B8F1660F3F
:103F000006BF009F0A3706270E983F18142FC8BF18
:103F1000142730208DF884000DF1850000E0304634
:103F2000002F35DD06462046294601F0F7FF014601
:103F30000A4606F1080304200A26B2FBF6F606EB51
:103F4000860EA2EB4E02303203F8012C0A22B6FB99
:103F5000F2F202EB820EA6EB4E063036401E03F85C
:103F6000026DE9D1083F002F03F10806D7DD0846AE
:103F700001F0DBFF02460B462046294601F0BCFF5C
:103F80000022DFF8403601F0D7FF04460D46CAE7AD
:103F90000DF18501401A0DF1850604E00099491ED6
:103FA000401E0091761C31783029F7D0B8F1660FA9
:103FB00002D10099491C04E0B8F1650F0CBF012142
:103FC00000210E9D4D19A842B8BF451E002D1DD4DD
:103FD000854204DA705D3428C8BF392000DC302007
:103FE0002946721E531800E06D1E13F80149491E40
:103FF0008442F9D0392802D1705C401C70540029E9
:1040000004D50098401C16466D1C0090009C01F0E1
:104010009DFF406A0778DDF8388028B2002802DC6E
:1040200001250FF23C664BF02000662808BF641C97
:1040300016D0672846D120B210F1040F48DB404566
:1040400046DA9DF84000641C010703D428B24045BD
:10405000D8BF804620B2B8EB000848BF4FF0000838
:104060000FFA84FBBBF1000F00F3B5800898411CE8
:104070000891302205990A54B8F1000F03DC9DF82D
:104080004000010704D50898411C089105990F5478
:1040900018EB0B0FB8BFC8F1000424B26042A04473
:1040A0002AB20B909045B8BF4546059B08982DB2A3
:1040B00009952A463146184401F0E4FCA8EB0500B6
:1040C0000C90D2E0BBF1610F17D14FF0700B19E0EB
:1040D00028B2404504DA9DF840100A0758BF8046D0
:1040E000B8F1010848BF4FF00008BBF1670F14BFDB
:1040F0004FF0450B4FF0650B04E0BBF1410F08BFDB
:104100004FF0500B0898411C0891B8F1000F059929
:1041100016F8012B0A5403DC9DF8400001071AD55C
:104120000898411C0891B8F1000F05990F5412DD51
:104130006D1E28B28045B8BF45460598089B2AB237
:104140003146184401F09EFC08992DB26918089177
:10415000A8EB05000B9005980899084421B20029A6
:1041600080F800B003D42B224270821C04E02D2280
:1041700042700C46821C644200212CAB20460AE0AF
:1041800004460A2094FBF0F000EB8005A4EB450404
:1041900003F8014B491C00B20028F1DC012906DCC0
:1041A0004BF02000652804BF302002F8010B0029E5
:1041B0002CAB08D1302002F8010B06E0491E585CF8
:1041C000303002F8010B0029F8DC05990898084402
:1041D000121A099249E028B221B288421CDA0598E5
:1041E000089B2AB23146184401F04CFC08992DB2C4
:1041F00069180891ABEB0500B8F1000F0B9003DCD8
:104200009DF84000020704D5059847540999491CB8
:104210000991CDF8308028E00598089B22B23146FC
:10422000184401F02FFC08982D1B5844B8F1000FDA
:10423000089003DC9DF840100A0703D5411C089143
:1042400005990F5428B28045B8BF45460598089B8C
:104250002AB206EB0B01184401F014FC08982DB2A9
:1042600028180890A8EB05000B909DF8400000F07E
:104270001400102840F0C280079A08990B988A18F9
:10428000099982180C988A1882180F98824280F235
:10429000B580821A0A92B1E09DF84200622808D0E7
:1042A00068280ED06A2814D06C281FD0712810D02E
:1042B0001CE0D9F8001051F8040BC9F80010C0B286
:1042C0001AE0D9F8001051F8040BC9F8001080B2B8
:1042D00012E0D9F80020D21D22F00702C9F8002010
:1042E000D2E900010832C9F8002006E0D9F8001030
:1042F00051F8040BC9F800100021CDE902019DF826
:10430000400001075AD5DDE90223002B08BF002A2F
:1043100054D04BF02000782850D1079812A93022B1
:104320000A54401C431C079301F800B046E09DF876
:104330004200622808D068280ED06A2814D06C2861
:104340001FD0712810D01CE0D9F8001051F8040BD0
:10435000C9F8001040B21AE0D9F8001051F8040B67
:10436000C9F8001000B212E0D9F80020D21D22F0E6
:104370000702C9F80020D2E900010832C9F800207C
:1043800006E0D9F8001051F8040BC9F80010C11765
:10439000CDE90201002902D507982D210AE0BDF8D8
:1043A0004000810702D507982B2103E0C00705D5FF
:1043B0000798202112AA1154401C079012A80799AF
:1043C0000144059102A8594600F04EF816E001207C
:1043D0000790D9F8000050F8041BC9F800008DF8C8
:1043E00048100BE025210122BBF1000F8DF8481089
:1043F000079203D08DF849B0022107910F9A0798D0
:104400000A990C9C121A0898521A0B99121A0998B8
:10441000521A121A9DF84000141B41073FF5AAAA30
:104420002020002C8DF800007FF7A4AA309E25469E
:10443000FFF794BA4FF0FF3031B0BDE8F08F0000C5
:10444000CBCCCC0C686A6C747A4C00007072696ECC
:1044500074665F733A20626164202573206172671D
:10446000756D656E740000002DE9FC4304466F29EC
:10447000256908BF082605D041F02000782814BF20
:104480000A261026D4E900233C2790469946642941
:1044900018BF692905D1002B03D5D8F1000869EBB5
:1044A0004909B9F1000F08BFB8F1000F0CD1206B1A
:1044B00050B9082E3AD194F83800010736D530208B
:1044C0003B2785F83B0031E08DF800104046494617
:1044D0003246F31700F0BAFA3032D0B27F1E3A28D3
:1044E00001970EDAEA55404649463246F31700F086
:1044F000ADFA80465FEA010908BFB8F1000F05D1A7
:1045000008E09DF800001218513AEBE7E068E9195D
:104510008842DBD3082E09D194F83800010705D56D
:10452000E85D302802D07F1E3020E855C7F13C02FC
:10453000A261E919E160206B824208DA821A2262E4
:104540004FF6EF70218F01402187BDE8F3830028EB
:104550000ED594F8380000F01400102808D1636BD1
:104560006169206A5B1A1B1A9A1A002AC8BF226264
:10457000BDE8F3832DE9D04306460F4614464FF0BD
:104580000008DFF8449012E0E00707D542464B46AA
:104590003046394601F0D0FC06460F4640464946B3
:1045A00042464B4601F0C8FC641080468946002C08
:1045B000EAD130463946BDE8D0830000A08601002C
:1045C0000000F03F84D797410000244010B5034617
:1045D0000C461146A0689847A06020B1E06A401CD4
:1045E000E062002010BD4FF0FF3010BDF8B5054669
:1045F0000E4617461C4600205CB117F8011BB06838
:10460000A847B06030B1F06A401CF0620020641E20
:10461000F3D1F2BD4FF0FF30F2BD00007072696E51
:1046200074665F733A20256E20646973616C6C6FE9
:10463000776564007072696E74663A206261642006
:10464000256E20617267756D656E74000000000054
:104650006E616E004E414E00696E6600494E460026
:104660003000000062F30F2262F31F42401810F086
:10467000030308D0C91A1FD3DB0748BF00F8012D78
:1046800028BF20F8022D130030B414461546103907
:1046900028BF20E93C00FAD8490728BF20E90C00D0
:1046A00048BF40F8042D890028BF20F8022D48BFDC
:1046B00000F8012D30BC7047C91818BF00F8012D53
:1046C000CB0728BF00F8012D7047000001480068A3
:1046D000704700BF4407002480B5A8B09C22002189
:1046E00001A8FCF7A3FF0420FEF7A0F808B1FCF72F
:1046F0007BFF9B48016841F0020100F02CF9FEF7B6
:10470000E9F8FEF7EDF8102001908020099001A84B
:10471000FEF7F2F808B1FCF767FF00230022002142
:104720000420FDF777FF0023002200211020FDF771
:1047300071FF0420FDF767FF1020FDF764FF4FF4C1
:104740000070FDF761FF0128F9D14FF48060FDF79B
:104750005BFF0128F9D14FF40030FDF77FFF4FF4E4
:104760008020FDF77BFF29B000BD18B5A7B0044637
:10477000142200216846FCF759FF00F0E7F8206892
:104780007849884230D1022006901020089006A86F
:1047900000F006FA08B1FCF727FF00F05AF843F0E2
:1047A000200300F043F843F480431360136805933B
:1047B000059B136843F40043136012680592059A41
:1047C0001D2200F03AF8684801F0C4FB4FF6FF7074
:1047D0000090022001900020029003200390092005
:1047E0000490694661481DE0614988421CD104205B
:1047F00006904020099006A800F0D2F908B1FCF715
:10480000F3FE00F026F843F4805300F00FF843F471
:104810000053136012680592059A40F67F7200F00B
:104820000CF8544801F096FB28B010BD13601268D4
:104830000592059A504A136870470092022201922D
:104840000022029203220392092204920160694627
:1048500070474A480168491C012907D1484A136832
:1048600043F48043136012680592059A444A136822
:10487000704780B501683B4A91420DD100F01EF8A7
:1048800023F02003136008601D21374801F0FBFB73
:104890004FF6FF7135480CE00846354988420CD187
:1048A00000F00CF823F480531360086040F67F7129
:1048B0003048BDE8044001F0E6BB01BD2F4908685F
:1048C000401E04D12E4A136823F4804313602C4AFF
:1048D0001368704718B5A7B004461422002101A838
:1048E000FCF7A4FE00F032F82068264988422BD15C
:1048F0004FF0005006900020229006A800F050F9DA
:1049000008B1FCF771FE2048016841F4002100F075
:1049100022F81948016841F0080100F01CF8032052
:10492000019002200290002003900490082005903E
:1049300001A9164801F00EFB002206215520FEF7C2
:1049400081FE5520FEF78DFE28B010BD8422002187
:1049500006A8FCF76BBE01600068009000987047E5
:10496000544502580050005200380258003C02588A
:1049700000A0005200340258404502584807002465
:1049800034450258004C004048450258000C02587B
:1049900038B50446FFF79AFE05461CB394F8540058
:1049A000022802D02020A0651AE02068406940F06B
:1049B000040021684861052084F8540020680069DB
:1049C000800411D4FFF782FE401B0628F6D3A06DA9
:1049D00040F01000A065032084F8540000F012F8A5
:1049E00000F021F8012032BD00F014F8042084F812
:1049F00054004FF4FE402168C86000F018F884F8B5
:104A00004C0032BD94F85000000602D50120616FC1
:104A1000087370472068406940F0020021684861CF
:104A200070474020A065002084F84C0070470120AA
:104A300084F8540094F85000000605D50120616FF9
:104A4000087300202168886400207047D3BBD9B167
:104A5000B2F5803F5BD2022A1ED98C46B1FBF2F13F
:104A600002FB11C31B0443EA1043B3FBF2FC02FB3D
:104A70001C3380B240EA0343B3FBF2F002FB103276
:104A800040EA0C4000237047022A05D98446B0FB57
:104A9000F2F002FB10C270474AB105D100F00102EA
:104AA00049085FEA3000704700220023704701F098
:104AB00069BB0B000200002100207047F7D30022E1
:104AC00000237047904271EB030CF2D370B5B1FA3A
:104AD00081F4B3FA83F52C1BA340C4F1200532FA0C
:104AE00005F63343A2405FF00046E64002E05B0873
:104AF0005FEA3202841A71EB030524BF204629467F
:104B00007641F4D302000B003000002170BD70B577
:104B1000B1FA81F4B2FA82F5C4F120046419B4F157
:104B20002006DAD3B2405FF00044F440002502E0F2
:104B300052085FEA3303C61A71EB020E24BF3046F7
:104B4000714664416D41F3D302000B00200029003F
:104B500070BD000038B5044600250E490878B0B194
:104B60004FF47A700978B0FBF1F00B490968B1FB9A
:104B7000F0F0FEF777FD50B9102C08D20022214644
:104B80004FF0FF30FEF75EFD0448046000E00125B1
:104B9000284632BD08030024CC020024C8020024A9
:104BA0002DE9F04104460026B0462068400315D5A3
:104BB000DFF80878386810F440701EBFE16F01F428
:104BC000407188422DD0DFF8F807016841F4807108
:104BD00001600068C00518D40126B0462078C007DF
:104BE00052D5606803284DD8DFE800F0050249057A
:104BF00000F0D4FB0160300045D100F0D9FB9208F1
:104C0000606840EA82020A603EE03868396841F430
:104C100080313960396821F48031396020F4407086
:104C20003860E06FB0F5807F0ED1FFF74FFD05468D
:104C30003868800708D4FFF749FD401B41F28931ED
:104C40008842F5D30326C8E7E06F10F47C3FDFF815
:104C50007407016821F47C5105D0E26FDFF86837F2
:104C600003EA1213194301603868E16F01F44071DF
:104C700008433860386840F400403860AEE700F020
:104C800064FBB7E70126B0462078800718D5A068F6
:104C900038B1102802D020280DD00FE000F05FFBC3
:104CA000016030000BD100F083FB22F03002A068DD
:104CB00002430A6004E000F04DFBF1E70126B04634
:104CC0002078400718D5E06838B1402802D0802805
:104CD0000DD00FE000F043FB016030000BD100F07D
:104CE00067FB22F0C002E06802430A6004E000F0C3
:104CF00031FBF1E70126B0462078000706D500F029
:104D000057FB22F04052206902430A60206880026B
:104D100016D5606D10B104280DD00FE000F01FFB18
:104D2000016030000BD100F043FB22F00402606D03
:104D300002430A6004E000F00DFBF1E70126B046F3
:104D40002078C0061AD5606930B1B0F1807F10D0EC
:104D5000B0F1007F03D00FE000F025FB01603000D0
:104D60000BD100F025FB22F04072606902430A601B
:104D700004E000F003FBF1E70126B046207880064E
:104D800022D5A06988B1B0F5801F0BD0B0F5001F07
:104D900015D0B0F5401F1CBFB0F5800FB0F5A00FC7
:104DA00003D00FE000F0FFFA016030000BD100F0FB
:104DB000FFFA22F4E002A06902430A6004E000F076
:104DC000D8FAF1E70126B0462078400606D500F073
:104DD000B8FA22F04052E06902430A6020780006E7
:104DE00006D500F0E5FA22F44032206A02430A6058
:104DF0002068C00516D5606A40B1B0F5802F0FD18C
:104E0000DFF8C805016841F080410160300008D139
:104E100000F0CEFA22F48022606A02430A6001E0C8
:104E20000126B046206880051AD5A06A48B1B0F5C1
:104E3000800F03D0B0F5000F0DD00FE000F0AEFAF8
:104E4000016030000BD100F07CFA22F44002A06A2D
:104E500002430A6004E000F0A6FAF1E70126B0463A
:104E60002068000519D5E06A58B1B0F5805F06D01A
:104E7000B0F5005F18BFB0F5405F02D00BE000F066
:104E800087FA300008D100F05CFA22F44052E06A60
:104E900002430A6001E00126B0462068400519D5AA
:104EA000206B58B1B0F5807F06D0B0F5007F18BFF9
:104EB000B0F5407F02D00BE000F06AFA300008D174
:104EC00000F03FFA22F44072206B02430A6001E0D6
:104ED0000126B0462068C00422D5606B88B1B0F5C9
:104EE000803F0BD0B0F5003F15D0B0F5403F1CBF60
:104EF000B0F5802FB0F5A02F03D00FE000F053FAEB
:104F0000016030000BD100F01CFA22F4E022606B4B
:104F100002430A6004E000F031FAF1E70126B046EE
:104F20002068800422D5A06B88B1B0F5807F0BD0BB
:104F3000B0F5007F15D0B0F5407F1CBFB0F5806F95
:104F4000B0F5A06F03D00FE000F02DFA0160300043
:104F50000BD100F0F2F922F4E062A06B02430A6088
:104F600004E000F00BFAF1E70126B04620684004A7
:104F700022D5E06B88B1B0F5805F0BD0B0F5005F53
:104F800015D0B0F5405F1CBFB0F5804FB0F5A04F15
:104F900003D00FE000F007FA016030000BD100F001
:104FA000CCF922F4E042E06B02430A6004E000F036
:104FB000E5F9F1E70126B0462068000419D5206C18
:104FC000052814D8DFE800F006031006060600F0F6
:104FD000CBF9016030000BD100F0AFF9D208206CA2
:104FE00040EAC2020A6004E000F0CDF9F1E70126D0
:104FF000B0462068C00301D500F0CAF920688003DC
:1050000013D5A06C18B1B0F1006F02D00BE000F026
:10501000BFF9300008D100F0CBF922F00062A06C9B
:1050200002430A6001E00126B0462068000323D550
:10503000E06C60B1B0F5803F16D0B0F5003F16D0FF
:10504000B0F5403F18BFB0F5802F03D012E000F05C
:10505000A5F9016030000ED100F06BF922F4E022D6
:10506000E06C02430A6007E000F09DF9F1E700F010
:1050700080F9EEE70126B0462068C00225D5206DF4
:1050800070B1B0F5801F18D0B0F5001F18D0B0F582
:10509000401F1CBFB0F5800FB0F5A00F03D012E089
:1050A00000F07CF9016030000ED100F042F922F4EA
:1050B000E002206D02430A6007E000F074F9F1E7B6
:1050C00000F057F9EEE70126B0462068400220D5EF
:1050D000A06E48B1B0F1807F13D0B0F1007F13D043
:1050E000B0F1407F03D012E000F058F901603000C9
:1050F0000ED100F026F922F04072A06E02430A6041
:1051000007E000F022F9F1E700F038F9EEE70126B8
:10511000B0462068000223D5A06D60B1B0F5807F55
:1051200016D0B0F5007F16D0B0F5407F18BFB0F5AF
:10513000806F03D012E000F031F9016030000ED131
:1051400000F0F7F822F4E062A06D02430A6007E085
:1051500000F029F9F1E700F00CF9EEE70126B0467E
:105160002068C0011FD5E06D40B1102813D0202861
:1051700014D0302818BF402803D012E000F00EF9F8
:10518000016030000ED100F0DCF822F07002E06D1A
:1051900002430A6007E000F006F9F1E700F0E9F8E1
:1051A000EEE70126B046206880011DD5206E60B173
:1051B000102807D0202812D030281CBF40285028A3
:1051C00003D00FE000F0D0F8016030000BD100F008
:1051D000B0F822F07002206E02430A6004E000F092
:1051E000D2F8F1E70126B046206840011DD5606E77
:1051F00060B1102807D0202812D030281CBF4028CA
:10520000502803D00FE000F0AFF8016030000BD160
:1052100000F093F822F07002606E02430A6004E02E
:1052200000F0B1F8F1E70126B0462068C00019D5BA
:10523000E06E052814D8DFE800F006031006060625
:1052400000F092F8016030000BD100F072F8D20843
:10525000E06E40EAC2020A6004E000F094F8F1E770
:105260000126B0462068800019D5206F052814D883
:10527000DFE800F006031006060600F075F801608E
:1052800030000BD100F05DF8D208206F40EAC20276
:105290000A6004E000F077F8F1E70126B0462068E4
:1052A000400017D5606F002818BFB0F5805F05D0AB
:1052B000B0F5005F0CD100F066F80160300008D155
:1052C00000F076F822F44052606F02430A6001E079
:1052D0000126B046206800281AD5A06F60B1B0F54D
:1052E000804F06D0B0F5004F18BFB0F5404F03D047
:1052F0000CE000F048F80160300008D100F058F8E8
:1053000022F44042A06F02430A6001E00126B04649
:105310002068000107D52B490A6822F40042D4F81E
:10532000800002430A605FEA080018BF0120BDE860
:10533000F081DFF814170A687047DFF810170A6861
:105340007047DFF80C170A6870472048016841F47D
:10535000802170471D48016841F4801170471B4847
:10536000016841F4002170471848016841F4003198
:1053700070471648016841F00061704713480168A2
:1053800041F0005170471148016841F08051704769
:105390000E48016841F00051016070470B480168F8
:1053A00041F0400170470948016841F4803170477D
:1053B000DFF8A8160A687047000000007044025821
:1053C0000048025810440258CFFFFF0F2C440258E7
:1053D00080B501460020012971D0022900F08380A8
:1053E000042900F09180082900F0AA80102900F01B
:1053F000B380202900F0BB80402900F0D3808029B1
:1054000000F0DB80B1F5807F00F0E980B1F5007F2E
:1054100000F0F580B1F5806F00F00081B1F5006F0C
:1054200000F00C81B1F5805F00F01781B1F5005FED
:1054300000F02981B1F5804F00F03981B1F5004FBE
:1054400000F04A81B1F5803F00F0E381B1F5003F03
:1054500000F05081B1F5802F00F05481B1F5002F9C
:1054600000F08A81B1F5801F00F09781B1F5001F2F
:1054700000F0A481B1F5800F00F0B481B1F5000F08
:1054800000F0CF81B1F1807F00F0DC81B1F1007FCD
:1054900000F00482B1F1806F00F00682B1F1805F0C
:1054A00000F01682B1F1005F00F02182B1F1804F6F
:1054B00000F05382B1F1004F00F0618202BDDFF8CD
:1054C0009415096801F4E041B1F5A04F24D000F033
:1054D0008CFA01F003010329F0D8DFE811F05F0036
:1054E000C10192011F02DFF86C15096801F070011B
:1054F000402911D000F079FA11F030014ED0102976
:1055000018D0202919D002BDDFF84815096801F428
:10551000E061B1F5806F03D1FDF79EFD800802BD0B
:1055200000F063FA11F0C00138D0402902D0802980
:1055300003D002BD00F045FA46E100F042FA4AE12C
:1055400000F053FA11F0405100F0E881B1F1805FB2
:105550001FD0B1F1005FB5E100F047FA11F04071E2
:1055600059D0B1F1807F60D0B1F1007F76E100F0D9
:105570003CFA11F4E00111D0B1F5801F4BD0B1F528
:10558000001F00F07D81B1F5401F00F08481B1F56E
:10559000800F00F0D281B1F5A00F30E1BDE80140ED
:1055A000FDF75ABD00F01EFA11F0405163D0B1F181
:1055B000805F64D0B1F1005F3EE0FFF7F9FE02F4D6
:1055C0004032B2F5803F1ED0B2F5003F06D10968E7
:1055D00011F4802117D0B1F5802F08D002BD00F062
:1055E00004FA11F480210ED0B1F5802FF6D100F02D
:1055F000EFF9C905F2D5BDE80140FDF7B3BD00F0F4
:10560000F1F911F4400100F0D381B1F5800F00F001
:105610002781B1F5000F00F02B8102BD00F0E2F907
:1056200011F440711DD0B1F5807F00F0F280B1F52A
:10563000007F0DD0B1F5407FABD002BD00F0D2F9B4
:1056400011F440510DD0B1F5805FEED0B1F5005F9F
:1056500000F06481B1F5405FEEE700F0C3F911F4AA
:10566000E02100F04F81B1F5803FD4D0B1F5003F8B
:10567000DBD0B1F5403F00F06881B1F5802F5ED0FE
:10568000B1F5A02FEAE000F0AAF911F4E06112D020
:10569000B1F5807FBFD0B1F5007FC6D0B1F5407FB6
:1056A000E9D0B1F5806F4AD0B1F5A06FD6E000F037
:1056B00096F911F4E04100F00781B1F5805F62D006
:1056C000B1F5005FB1D0B1F5405FD4D0B1F5804FF6
:1056D00035D0B1F5A04FC1E000F081F901F007012C
:1056E000052933D8DFE811F0F00012015C011A013E
:1056F0002901310100F079F911F0006195D0B1F183
:10570000006FABE0DFF858130A6802F44072B2F59C
:10571000407F08D1DFF840231268120102F47C3286
:1057200042F4407202E00A6802F44072002A0DD08E
:10573000B2F5807F00F00B81B2F5007F07D1DFF872
:1057400024130968890701D54FF4FA4002BD09689E
:1057500001F44071B1F5407FF8D100F02EF9F5D594
:10576000DFF8F4120968C1F30521022903D3DFF839
:10577000F802B0FBF1F002BD00F02EF911F4E021C7
:105780006ED0B1F5803F73D0B1F5003F0FD0B1F5C9
:10579000403F0FD0B1F5802F60E000F01DF911F40B
:1057A000E0015DD0B1F5801F62D0B1F5001F67D078
:1057B000B1F5401F6FD0B1F5800F4FE000F015F943
:1057C000490700F0FEF806D4C90AC90518D5BDE896
:1057D0000140FDF79CBCC90A890511D5BDE801400F
:1057E000FDF79EBC00F0FEF811F0407138D0B1F129
:1057F000807F06D0B1F1007F0BD0B1F1407F5DD04A
:1058000002BD00F0E1F80906FAD5BDE80140FDF758
:1058100078BC00F0DDF80906F2D5BDE80140FDF7DF
:105820009BBC00F0D9F811F4E06119D0B1F5807F8C
:105830001ED0B1F5007F23D0B1F5407F2BD0B1F55C
:10584000806F0BE000F0CEF811F0700108D0102945
:105850000ED0202914D030291DD0402918D002BDE7
:1058600000F0AFF84906FAD5BDE80140FDF72CBCC1
:1058700000F0AAF88906F2D5BDE80140FDF72EBC7C
:1058800000F0A6F8890608D5BDE80140FDF752BC36
:10589000BDE80140B2E04BF6803002BD00F09CF85C
:1058A00011F070011FD004E000F099F811F07001C0
:1058B0000AD010292AD0202959D030292ED04029A9
:1058C0003BD050294DD002BDBDE80140FDF7ECBBF7
:1058D00000F082F801F0070105296DD8DFE801F03A
:1058E0000316601E2D35BDE80140FDF7D1BB00F069
:1058F00079F801F0070105295ED8DFE801F0030718
:10590000510F1E26BDE80140FDF7B6BB00F05CF864
:10591000490651D5BDE80140FDF7E9BBDFF84C1160
:105920000A68520748D50A68920645D5DFF8400153
:105930000968C1F3C101C84002BDDFF83011096830
:10594000C90539D5DFF82C0102BDDFF8141109684B
:10595000890731D54FF4004002BD00F046F811F43C
:10596000405125D0B1F5805F03D0B1F5005F17D06D
:1059700002BD00F022F81FD5DFF8FC0002BD00F0E8
:1059800034F811F4404105D0B1F5804F08D0B1F59D
:10599000004F97E73549096889040DD5374802BD9E
:1059A00000F016F8490607D5BDE80140FDF7C6BB73
:1059B00000F003F848BF2C4802BD2C490968890350
:1059C00070472F49096870472D490968C90A70470F
:1059D0002B490968890D70471B49096870471B49A5
:1059E000096870471A49096870471C490968704777
:1059F00018490A68FFE710430860704700201749FC
:105A0000096811F040510CD118490A68520719D59C
:105A10000A68920616D516480968C1F3C101C84044
:105A20007047B1F1805F05D110490968C90509D5F2
:105A300010487047B1F1005F04D10C49096889032F
:105A400048BF09487047000054440258584402585F
:105A50005044025800450258104402584C44025821
:105A6000704402587444025800366E0100440258D3
:105A70000090D00300093D00001BB700006CDC0261
:105A80002C4402584AB1000011F8013B521E00F8A4
:105A9000013B1CBF11F8013BF8E7704770B50446A5
:105AA0000E466FF004055348FBF7E8FB00F040F8A2
:105AB000022C1BD200254FF4B8704F4B00FB04F1B1
:105AC000595C04290ED100FB04F1194401F10C02C8
:105AD0003146444318194068FAF7EAFB30B16FF0D9
