:020000040800F2
:10000000000400203D4B0008114A0008134A000874
:10001000154A0008174A0008194A000800000000A5
:100020000000000000000000000000001B4A000863
:100030001D4A0008000000001F4A0008214A00086D
:100040005D4B000800000000614B0008654B000894
:10005000694B00086D4B0008000000000000000024
:10006000714B0008754B0008794B00080000000038
:10007000000000007D4B00080000000000000000B0
:10008000814B0008854B0008894B00088D4B000808
:10009000914B0008954B0008994B00089D4B0008B8
:1000A000A14B0008A54B0008A94B0008AD4B000868
:1000B000B14B0008B54B0008B94B0008BD4B000818
:1000C000C14B0008C54B0008C94B0008CD4B0008C8
:1000D000D14B0008D54B0008D94B0008DD4B000878
:1000E000E14B0008E54B0008E94B0008ED4B000828
:1000F000F14B0008F54B0008F94B0008FD4B0008D8
:10010000014C0008054C0008094C00080D4C000883
:10011000114C0008154C0008194C00081D4C000833
:10012000214C0008254C0008294C00082D4C0008E3
:10013000314C0008354C0008394C00083D4C000893
:10014000254A00082B4A0008414C0008454C00088D
:10015000494C00084D4C0008514C0008554C000813
:10016000594C00085D4C0008614C0008654C0008C3
:10017000694C00086D4C0008714C0008754C000873
:10018000794C00087D4C0008814C0008854C000823
:10019000894C00088D4C0008914C0008954C0008D3
:1001A000994C00089D4C0008A14C0008A54C000883
:1001B000A94C0008AD4C0008B14C0008B54C000833
:1001C0000000000000000000B94C0008BD4C000811
:1001D000C14C0008C54C0008C94C0008CD4C0008B3
:1001E000D14C0008D54C0008D94C0008DD4C000863
:1001F000E14C0008E54C0008000000000000000091
:10020000E94C0008ED4C0008F14C0008F54C0008E2
:10021000F94C0008FD4C0008014D0008054D000890
:10022000094D00080D4D0008114D0008154D00083E
:10023000194D00081D4D0008214D0008254D0008EE
:10024000294D00082D4D0008314D0008354D00089E
:10025000394D00083D4D0008414D0008454D00084E
:10026000494D00084D4D0008514D0008554D0008FE
:10027000594D00085D4D0008614D0008654D0008AE
:10028000694D00086D4D0008714D0008754D00085E
:10029000794D000800000000000000000000000090
:1002A0007D4D0008814D0008854D0008894D0008EE
:1002B0002DE9F041044600262068B046DFF8A45737
:1002C000410313D5286E10F440701EBFE16F01F496
:1002D000407188422CD0DFF89007026842F48072A7
:1002E00002600068C10517D40126B0462078C10716
:1002F00054D56268032A4FD8DFE802F005024A05A8
:1003000000F0A1FBE861300047D1E96B6068890823
:1003100040EA8101E96341E0286E296E41F48031B1
:1003200029662A6E20F4407022F480322A662866FC
:10033000E06FB0F5807F0ED100F0D4FE0746286E46
:10034000810708D400F0CEFEC01B41F289329042F2
:10035000F5D30326C9E7E06F10F47C3F09D0296884
:10036000DFF8082702EA101221F47C5111432960BA
:1003700003E0286820F47C502860296EE06F00F4C8
:10038000407001432966296E41F400412966ADE7BA
:10039000E86940F48020B5E70126B046207881075F
:1003A0001AD5A26842B1102A02D0202A0DD011E03D
:1003B000E86940F40020E86130000CD1E96BA068E6
:1003C00021F030010143E96306E0E96941F480115D
:1003D000E961F1E70126B046207841071AD5E268C5
:1003E00042B1402A02D0802A0DD011E0E86940F4E1
:1003F0000020E86130000CD1E96BE06821F0C00119
:100400000143E96306E0E96941F48011E961F1E73C
:100410000126B0462078010705D5EA6B206922F055
:1004200040520243EA6321688A0217D5606D10B119
:1004300004280DD010E0E96941F400213000E961A1
:100440000BD1E96B606D21F004010143E96305E024
:10045000E96941F48011F1E70126B0462078C10630
:1004600018D5626932B1B2F1807F0ED0B2F1007F4F
:1004700002D00DE000F0F0FA30000AD1E96B6069BB
:1004800021F040710143E96304E000F0C4FAF3E7AE
:100490000126B0462078810622D5A26982B1B2F544
:1004A000801F0BD0B2F5001F13D0B2F5401F1CBF48
:1004B000B2F5800FB2F5A00F02D00FE000F0CCFA39
:1004C00030000CD1E96BA06921F4E0010143E9633C
:1004D00006E0E96941F00061E961F1E70126B04613
:1004E0002078410605D52A6CE06922F0405202438B
:1004F0002A6421780A0605D5EB6B206A23F4403381
:100500000343EB632168CA0513D5606A30B1B0F5C7
:10051000802F0CD1E96941F08041E961300007D1B9
:10052000E96B606A21F480210143E96301E001265F
:10053000B0462168880519D5A26A4AB1B2F5800F84
:1005400003D0B2F5000F0CD00EE000F07CFAE861A9
:1005500030000AD1296CA06A21F4400101432964CA
:1005600004E000F062FAF3E70126B04620680105D6
:1005700018D5E26A5AB1B2F5805F06D0B2F5005FD5
:1005800018BFB2F5405F02D00AE000F057FA300021
:1005900007D1296CE06A21F440510143296401E04C
:1005A0000126B0462168480518D5226B5AB1B2F52C
:1005B000807F06D0B2F5007F18BFB2F5407F02D031
:1005C0000AE000F03BFA300007D1296C206B21F4DF
:1005D00040710143296401E00126B0462168C80446
:1005E00020D5626B82B1B2F5803F0BD0B2F5003FEF
:1005F00013D0B2F5403F1CBFB2F5802FB2F5A02F4B
:1006000002D00DE000F028FA30000AD1296C606BAE
:1006100021F4E0210143296404E000F0FCF9F3E750
:100620000126B0462068810420D5A26B82B1B2F5C4
:10063000807F0BD0B2F5007F13D0B2F5407F1CBF96
:10064000B2F5806FB2F5A06F02D00DE000F004FAB1
:1006500030000AD1A96CA06B21F4E0610143A964C8
:1006600004E000F0D8F9F3E70126B0462068410421
:1006700020D5E26B82B1B2F5805F0BD0B2F5005F9E
:1006800013D0B2F5405F1CBFB2F5804FB2F5A04F5A
:1006900002D00DE000F0E0F930000AD1A96CE06B67
:1006A00021F4E0410143A96404E000F0B4F9F3E768
:1006B0000126B0462068010417D5226C052A12D8FD
:1006C000DFE802F005030E05050500F0C0F9300073
:1006D0000AD1A96C206CC90840EAC101A96404E0F0
:1006E00000F09EF9F3E70126B0462068C10303D568
:1006F000EA6942F00052EA612068810312D5A26CD7
:100700001AB1B2F1006F02D00AE000F097F93000A0
:1007100007D1E96BA06C21F000610143E96301E0BE
:100720000126B0462168080322D5E26C62B1B2F519
:10073000803F15D0B2F5003F15D0B2F5403F18BF4D
:10074000B2F5802F03D011E000F07DF9E8613000B0
:100750000DD1696CE06C21F4E0210143696407E08C
:1007600000F063F9F3E700F065F9EFE70126B04622
:100770002068C10224D5226D72B1B2F5801F17D056
:10078000B2F5001F17D0B2F5401F1CBFB2F5800FA5
:10079000B2F5A00F03D011E000F055F9E861300088
:1007A0000DD1696C206D21F4E0010143696407E01B
:1007B00000F03BF9F3E700F03DF9EFE70126B04622
:1007C0002068410222D5A26E4AB1B2F1807F12D0D8
:1007D000B2F1007F14D0B2F1407F03D014E000F0FA
:1007E00032F9E861300010D1296CA06E21F040711F
:1007F000014329640AE0E96941F48021E961F1E7F4
:10080000E86940F00050ECE70126B046206801029C
:1008100022D5A26D62B1B2F5807F15D0B2F5007F0E
:1008200015D0B2F5407F18BFB2F5806F03D011E04C
:1008300000F009F9E86130000DD1696CA06D21F478
:10084000E0610143696407E000F0EFF8F3E700F0CE
:10085000F1F8EFE70126B0462068C1011ED5E26D30
:1008600042B1102A12D0202A13D0302A18BF402AB1
:1008700003D011E000F0E7F8E86130000DD1296CF9
:10088000E06D21F070010143296407E000F0CDF82C
:10089000F3E700F0CFF8EFE70126B04620688101CA
:1008A0001BD5226E5AB1102A07D0202A10D0302A28
:1008B0001CBF402A502A02D00DE000F0C8F83000DA
:1008C0000AD1696C206E21F070010143696404E073
:1008D00000F0A6F8F3E70126B046206841011BD5D9
:1008E000626E5AB1102A07D0202A10D0302A1CBFBD
:1008F000402A502A02D00DE000F0A9F830000AD1B9
:10090000A96C606E21F070010143A96404E000F05D
:1009100087F8F3E70126B0462068C10017D5E26EDC
:10092000052A12D8DFE802F005030E05050500F0E0
:100930008EF830000AD1696CE06EC90840EAC10146
:10094000696404E000F06CF8F3E70126B046206823
:10095000810017D5226F052A12D8DFE802F00503BF
:100960000E05050500F073F830000AD1296C206FE0
:10097000C90840EAC101296404E000F051F8F3E736
:100980000126B0462068410017D5626F002A18BFC3
:10099000B2F5805F06D0B2F5005F0CD1E86940F097
:1009A0008050E861300007D1E96B606F21F440515D
:1009B0000143E96301E00126B046216800291AD508
:1009C000A26F6AB1B2F5804F06D0B2F5004F18BFE2
:1009D000B2F5404F04D00CE0E86940F08050E86187
:1009E000300007D1E96BA06F21F440410143E96376
:1009F00001E00126B04621680A0106D52B68D4F82B
:100A0000800023F4004303432B605FEA080018BF13
:100A10000120BDE8F081E96941F00051E9617047CA
:100A2000E96941F08051E9617047E96941F4803139
:100A3000E9617047E86940F000607047E86940F09C
:100A40000050E8617047E86940F040007047E8698D
:100A500040F40030E8617047E86940F48030E861B4
:100A6000704700001044025800480258CFFFFF0FA3
:100A7000014600200129DFF850C6F8B54FF4FA47C7
:100A8000DFF84836DFF848464FF40045DFF84466A3
:100A9000DFF8442671D0022900F08180042900F09B
:100AA0008D80082900F0A680102900F0B080202950
:100AB00000F0B880402900F0DD80802900F0E88057
:100AC000B1F5807F00F0F580B1F5007F00F0008186
:100AD000B1F5806F00F00F81B1F5006F00F0188163
:100AE000B1F5805F00F02481B1F5005F00F0348142
:100AF000B1F5804F00F04481B1F5004F00F0558111
:100B0000B1F5803F00F05E81B1F5003F00F05E81FD
:100B1000B1F5802F00F06181B1F5002F00F09081D8
:100B2000B1F5801F00F09C81B1F5001F00F0A88195
:100B3000B1F5800F00F0B681B1F5000F00F0D08163
:100B4000B1F1807F00F0DC81B1F1007F00F0028222
:100B5000B1F1806F00F00D82B1F1805F00F01F8273
:100B6000B1F1005F00F02982B1F1804F00F05182B5
:100B7000B1F1004F00F06182F2BDDCF8001001F429
:100B8000E041B1F5A04F20D0D16C01F00301032961
:100B9000F2D8DFE811F05E00C20195012802DCF80E
:100BA000001001F0700140290FD0D16C11F030011C
:100BB0004FD0102916D0202918D0F2BDDCF8001033
:100BC00001F4E061B1F5806F03D100F00AFE800806
:100BD000F2BDD16C11F0C0013BD0402902D0802978
:100BE00004D0F2BDD16AC90ACA054FE1D16AC90A67
:100BF0008A0552E1D16C11F0405100F0F481B1F15D
:100C0000805F00F0FC81B1F1005FEAD1C4E1D16CFA
:100C100011F040710CD0B1F1807F00F05981B1F139
:100C2000007F78E1D16C11F4E00112D0B1F5801FA2
:100C300000F07A81B1F5001F00F07E81B1F5401F10
:100C400000F08581B1F5800F07D0B1F5A00F07D076
:100C5000F2BDBDE8F14000F0C4BD1168CA05D0E1A5
:100C600014686107F4D51568AC06F1D51168C1F3B5
:100C7000C101C1E1116D11F0405166D0B1F1805F49
:100C800066D0B1F1005F00D0F2BD1268D305B8E1C3
:100C9000D16C01F44031B1F5803F1CD0B1F5003F7B
:100CA00006D1D16C11F4802115D0B1F5802F07D079
:100CB000F2BDD16C11F480210DD0B1F5802FF7D1A8
:100CC000D36A9B0DD905F3D5BDE8F14000F00BBE0A
:100CD000116D11F4400100F0C881B1F5800F03D00F
:100CE000B1F5000F03D0F2BDD36A590617E1D26AFD
:100CF000D20A91061BE1116D11F440711BD0B1F5C0
:100D0000807F47D0B1F5007F0BD0B1F5407F0CE07C
:100D1000116D11F440510ED0B1F5805F3AD0B1F5AC
:100D2000005F00F06081B1F5405F00F06881F2BDC6
:100D3000116D11F4E02100F04A81B1F5803F11D02E
:100D4000B1F5003F26D0B1F5403F5FD0B1F5802F1F
:100D50005FD0B1F5A02FDEE0916D11F4E06112D00B
:100D6000B1F5807F00F0E080B1F5007F12D0B1F5E1
:100D7000407F4BD0B1F5806F4BD0B1F5A06FCAE08A
:100D8000916D11F4E04100F00381B1F5805F5DD019
:100D9000B1F5005F00F09C80B1F5405F36D0B1F551
:100DA000804F36D0B1F5A04FB5E0916D01F007014D
:100DB000052932D8DFE811F0EC000F0151011701CD
:100DC00023012801D36A9B0D190684E0D16C11F030
:100DD000006170D0B1F1006F9DE0116F01F44071BE
:100DE000B1F5407F06D11169090101F47C3141F46C
:100DF000407102E0116F01F4407100290DD0B1F58E
:100E0000807F03D0B1F5007F03D007E0116F8A0720
:100E1000FCE0536F990700D53846F2BD146F04F417
:100E20004074B4F5407FF8D111688B03F5D5116992
:100E3000C1F30521022902D33046B0FBF1F0F2BD27
:100E4000516D11F4E02168D0B1F5803F6CD0B1F55F
:100E5000003F71D0B1F5403F0ED0B1F5802F5AE080
:100E6000516D11F4E00158D0B1F5801F5CD0B1F59F
:100E7000001F61D0B1F5401F69D0B1F5800F4AE085
:100E8000D16CD26A490706D4D20AD10517D5BDE87C
:100E9000F14000F001BDD20A910510D5BDE8F14046
:100EA00000F003BD116D11F0407136D0B1F1807FBB
:100EB00006D0B1F1007F0BD0B1F1407F53D0F2BD2D
:100EC000D16AC90A0A06FAD5BDE8F14000F0DEBCD5
:100ED000D16A890D0A06F2D5BDE8F14000F0FDBCEB
:100EE000516D11F4E06118D0B1F5807F1CD0B1F5DF
:100EF000007F21D0B1F5407F29D0B1F5806F0AE0A5
:100F0000116D11F0700108D010290DD0202913D0D7
:100F100030291CD0402917D0F2BDD16A4A06FBD532
:100F2000BDE8F14000F095BCD16AC90A8A06F3D544
:100F3000BDE8F14000F097BCD16A890D8A0608D55A
:100F4000BDE8F14000F0BBBCBDE8F14098E04BF6D5
:100F50008030F2BD516D11F070012AD010293AD0C5
:100F600020290DD030293ED0402948D05029F0D139
:100F700012E0916D11F070010AD010292BD02029B8
:100F80006BD030292FD0402939D0502904D0F2BD60
:100F9000BDE8F14000F050BC1268910367E0516D6C
:100FA00001F00701052964D8DFE801F00315571D9A
:100FB000292EBDE8F14000F032BC116D01F00701AF
:100FC000052956D8DFE801F00307490F1B20BDE8CB
:100FD000F14000F017BCD16AC90A4A0649D5BDE8FC
:100FE000F14000F049BC11684C0742D51568A906CC
:100FF0003FD51268C2F3C10123FA01F0F2BD1168B6
:10100000CB0536D52046F2BD126F910731D5284663
:10101000F2BDD16C11F4405127D0B1F5805F03D0FF
:10102000B1F5005F05D0F2BD1368990321D52B48B7
:10103000F2BDD26A920D510612E0D16C11F440411A
:1010400006D0B1F5804F08D0B1F5004F0DD0F2BDFC
:1010500011688A040DD52248F2BDD16A890D4A066D
:1010600007D5BDE8F14000F02EBC11688A0348BFE7
:101070003046F2BD14490A68FFE710430860704724
:1010800010B5154A0020D16C11F040510BD11168F8
:101090004B0717D51468A10614D512680B48C2F384
:1010A000C101C84010BDB1F1805F04D11168CA050B
:1010B00008D5074810BDB1F1005F03D111688A035C
:1010C00048BF044810BD0000004502580090D003FE
:1010D00000093D0000366E0100440258001BB700B5
:1010E000006CDC0201484068704700BF000000242B
:1010F0002DE9F843070064D0DFF80858D5F81080D0
:10110000AE6A2C683878C10708F0380806F0030684
:1011100004F0285409D5B8F1100F03D0002C6CD07E
:10112000022E6AD1786800284BD039788A073AD5E0
:10113000B8F1000F05D0002C00F0B580002E40F073
:10114000B280F86800283CD0286800F0180026B962
:10115000002C1CBF396988421CD12A68386922F0EA
:101160001902024342F00102B8F1000F2A600BD1CC
:101170002B680122DFF89C17C3F3C1008240B1FB4A
:10118000F2F0DFF88C170860DFF88027106800F0B5
:1011900027FD002840F09D816868796920F0FE40B5
:1011A00040EA016068603878C1060CD5B8F1080FD4
:1011B00005D0002C00F0A780012E40F0A480386AF2
:1011C000002800F0868139780A0740F1D080B8699C
:1011D000002800F0BC80696F41F001016967FFF7EA
:1011E00081FF0446686F810700F1C180FFF77AFF35
:1011F000001B0228F6D303206EE17868B0F5803F2B
:1012000004D1286840F48030286031E058B929685A
:1012100021F480312960286820F4002028602A68A1
:1012200022F4802223E0B0F5A02F07D1286840F4F3
:1012300080202860296821F4002109E0B0F5502FB2
:1012400028680AD140F480202860296841F40021F0
:1012500029602A6842F4803209E020F48030286056
:10126000296821F4802129602A6822F400222A605A
:10127000FFF738FF8146786850B129688A033FF547
:1012800054AFFFF72FFFA0EB09006528F5D3B2E7B5
:10129000286881037FF549AFFFF724FFA0EB090021
:1012A0006528F5D3A7E7F868D8B12A68396922F02C
:1012B000190210430843286068687A6920F0FE40EC
:1012C00040EA02606860FFF70DFF81462868410729
:1012D0003FF569AFFFF706FFA0EB09000228F5D341
:1012E00089E72868400840002860FFF7FBFE814638
:1012F000296848077FF557AFFFF7F4FEA0EB090018
:101300000228F5D377E7386A80B1296841F0800177
:101310002960FFF7E7FE04462868C1053FF553AF93
:10132000FFF7E0FE001B0228F6D364E7286820F0F0
:1013300080002860FFF7D6FE04462968C8057FF5BF
:1013400042AFFFF7CFFE001B0228F6D353E7686FCA
:10135000400840006867FFF7C5FE0446686F8107D4
:1013600005D5FFF7BFFE001B0228F7D343E7397806
:101370008A0621D5F86978B1296841F4805129603D
:10138000FFF7B0FE04462868810415D4FFF7AAFED3
:10139000001B0228F7D32EE7286820F4805028602D
:1013A000FFF7A0FE04462968880405D5FFF79AFEDA
:1013B000001B0228F7D31EE7387841074AD5DFF82B
:1013C000D807026842F480720260B868012817D01A
:1013D00040B9286F4008400000F080F8286F20F0E6
:1013E000040010E0052804D100F07EF821F080010F
:1013F00005E0852809D100F077F841F080012967E0
:10140000286F40F00100286708E0296F490849006B
:101410002967286F20F0040000F060F8B86841F2F6
:10142000893458B1FFF75EFE0646286F810711D454
:10143000FFF758FE801BA042F7D3DCE6FFF752FE11
:101440000646286F810705D5FFF74CFE801BA0429A
:10145000F7D3D0E6786A48B3B8F1180F1ED1012847
:1014600037D0686BB96CC0F3CC0081421ED0E86AFB
:1014700040084000E862FFF735FE0446FFF732FE01
:10148000001BFBD0686BB96C6FF3CF0040EAC10062
:101490006863E86A40F00100E86207E0012100208B
:1014A000796407F1240100F037FA90B9F86C28B19B
:1014B00007F14C01012000F02FFA50B9786F50B1BC
:1014C00001210220C7F8941007F1740100F024FAFA
:1014D00008B1012000E00020BDE8F2832867296FF1
:1014E00021F0800129677047286F40F004002867C9
:1014F000296F70472DE9F0410400884656D0DFF887
:101500000854286800F03F00404502D200F0D7F8A8
:101510007AD12078DFF8EC63410706D52069326A7A
:1015200002F00702824200F0C3F82078010706D5D6
:101530006069326A02F07002824200F0B2F82078EC
:10154000C10606D5A069326A02F4E062824200F068
:10155000A1F82078810606D5E069326A02F4E042FB
:10156000824200F090F82078810706D5E068F269A1
:1015700002F00F02824200F07FF82078C10731D5D7
:10158000B269A068120940EA0212B26160680228DA
:1015900002D131688A0308E0032802D131688A0148
:1015A00003E0012803D13168CA0503D42CE0336875
:1015B000590729D53269D20840EAC2003061FFF7E5
:1015C00091FD07463069616800F03800B0EBC10F4B
:1015D00008D0FFF787FDC01B41F289329042F1D35A
:1015E000032047E02078810706D5E068F26902F021
:1015F0000F02904200F040F8286800F03F0080455C
:1016000004D200F05CF801D0012033E020784107DB
:1016100006D52069326A02F00702904200F048F8CD
:101620002078010706D56069326A02F070029042A4
:1016300000F037F82078C10606D5A069326A02F4B6
:10164000E062904200F026F82078810606D5E06935
:10165000326A02F4E042904200F015F800F03AF8E5
:10166000DFF8AC120860DFF8A4020068BDE8F041C2
:1016700000F0B6BABDE8F08104D2F169090940EA88
:101680000110F061704704D2316A21F4E04108434F
:101690003062704704D2316A21F4E061084330625D
:1016A000704704D2316A21F07001084330627047FC
:1016B00004D2316AC90840EAC10030627047296823
:1016C000890948EA811129602A6802F03F024245EF
:1016D0007047000030B5DFF82C32DFF838021969A6
:1016E00011F0380104D010290AD018290BD06EE06F
:1016F0001A68940669D51968C1F3C101C84068E049
:10170000DFF8980465E09C6A996ADD6A5A6B05F017
:101710000105C1F30511C2F3CC025543002900EEC7
:10172000105AB8EE400A50D014F0030400EE901A9C
:10173000F8EE600A02D0022C20D022E019688A0656
:1017400019D51968DFED6B1AC1F3C101C84001EE6C
:10175000100A186BB8EE411AC1EE200AC0F3080057
:1017600001EE100AB8EE411A00EE211AB7EE000A97
:1017700031EE000A18E09FED600A17E09FED5F1A56
:1017800001E09FED5F1A186B9FED5A2AC1EE200A07
:10179000C0F3080001EE900AF8EE611A40EE021A5A
:1017A000B7EE000A31EE800A20EE800A186BC0F313
:1017B0004620401C00EE900AF8EE600A80EE200AF7
:1017C000BCEEC00A10EE100A03E0002001E0DFF8D2
:1017D000D003996901F00F01082924BFC91FC8402F
:1017E00030BD80B5FFF776FFDFF8BC13096801F064
:1017F0000F01082905D30FF2E0320A4412F8081C41
:10180000C84002BD80B5FFF7ECFFDFF8A013096800
:1018100001F00701042924BFCA1ED04002BD80B5D3
:10182000FFF7DFFFDFF884130A68C2F3021104290F
:1018300024BFCB1ED84002BD80B5FFF7D2FFDFF832
:101840006C130A68C2F30221042924BFCB1ED840BE
:1018500002BD10B500F003F8C4F3064108E0DFF85C
:101860005003046822E110B500F00CF8C4F34621DF
:10187000491CB0FBF1F010BD10B500F003F8C4F343
:101880000641F5E7DFF83003046823E110B5FFF700
:10189000F9FFC4F30661EBE710B500F00CF804F0B3
:1018A0000704641CB0FBF4F010BD10B500F003F8A1
:1018B000C4F30221DCE7DFF8040304680AE110B591
:1018C00000F007F8D2E710B500F003F8C4F30641C2
:1018D000CEE7DFF8EC02046848E110B5FFF7F9FF46
:1018E000C4F30661C4E710B5DFF8D802FFF7F3FFD1
:1018F000D5E700000000003900000000001BB74BD6
:101900000024744A004402580020005208000024B9
:101910000C0000240090D0032DE9F84F04460B275B
:101920000D46A34800EBC401674300919D4EF06A49
:101930004FF478719F4AB94002EB84084FEA440A99
:101940008843F0624FF08070326800FA0AF922EAA8
:1019500009023260FFF7C6FB83464FF0007000FAC1
:101960000AFA316811EA0A0F07D0FFF7BBFBA0EBB8
:101970000B003328F5D3032096E02868E200121DFF
:101980004FF47C73022840F086806868844940B92F
:10199000D6F800C0DFF830E2CCF3C10C2EFA0CFE12
:1019A00004E002280CBFDFF8F4E18E46D5F808C049
:1019B000DFF818B2BEFBFCFEDE4528BF4FF0180E64
:1019C0000BD28E4528BF4FF0100E06D280498E45AF
:1019D0002CBF4FF0080E4FF0020ED6F828B0E100F1
:1019E0008B4043F003030CFA02F22BEA030101439C
:1019F0000A43B262B26A02F00302824218BF0120B7
:101A000052D1F06A1B21B94088430EFA07F141EA2E
:101A1000000EC6F82CE0EA6828696969521E401E6B
:101A200042EA4022491EA86942EA01420099401E4A
:101A300042EA00620A60E8692A6A401E521E40EAD1
:101A40000220C8F800001CB9F06A40F02000F062E3
:101A5000686A70B15F4901EBC4010A686FF3CF0295
:101A600042EAC0020A60F06A012101FA07F707435F
:101A7000F762326849EA0209C6F80090FFF732FBC4
:101A80000446306810EA0A0F0DD1FFF72BFB001B4C
:101A90003328F6D36FE7B06A03FA02F220EA0202B3
:101AA00042F00302B2620020BDE8F28F3D498A6A2B
:101AB0000B6BC2F30510002800D1704730B5CC6A1B
:101AC000E50703D54C6B00F049F801E09FED310AC2
:101AD00012E0000033498A6A8B6BC2F3053000289C
:101AE00000D1704730B5CC6A250503D5CC6B00F02A
:101AF00035F801E09FED270A12F0030203D0022A15
:101B00000CD00ED310E00A6894060DD509682E4D4E
:101B1000C1F3C101CD4000EE905A07E0DFED1F0A8E
:101B200004E0DFED1F0A01E0DFED1A0A01EE100A02
:101B3000C3F30803F8EE600A5B1CB8EE411AC0EE6E
:101B4000810A01EE103AB8EE411A31EE000A20EE99
:101B5000800ABCEEC00A10EE100A30BDC4F3CC04FB
:101B600000EE104ABBEEE90A704700000D498A6A90
:101B70000B6CC2F30550002800D1704730B5CC6A19
:101B8000650203D54C6CFFF7E9FF01E09FED010A08
:101B9000B2E70000000000000048025800366E0165
:101BA00000093D00004402581C44025820440258D9
:101BB00030440258C044025838440258C4440258C1
:101BC00040440258C84402580090D00300127A00E2
:101BD00080841E00344402580102030406070809E9
:101BE00070B504460D4E30780025A0B14FF47A71DF
:101BF0000B4AB1FBF0F11068B0FBF1F000F055F8C2
:101C000048B9102C07D2002221464FF0FF3000F0D7
:101C100023F8B46000E00125284670BD00000024D0
:101C20000C0000240901020002D42A4881547047A4
:101C3000294B02F00F021A4402F8041C7047274B8C
:101C40004FF6FF021968000200F4E06011400843FB
:101C5000234908431860704770B5204B1C68C4F3D3
:101C600002230124C3F10705052D2EBF0F2504FA19
:101C700005F56D1E1E1D072E34BF0023DB1E2940F7
:101C8000994004FA03F35B1E1A401143BDE870400B
:101C9000C8E70000010007D4012200F01F018A40BC
:101CA000104B400943F820207047401EB0F1807F60
:101CB00010B501D3012010BD0B4C0F2160604FF017
:101CC000FF30FFF7AFFF00220721A2600020216054
:101CD00010BD000000E400E018ED00E00CED00E0B5
:101CE0000000FA0500E100E010E000E0F8B504466D
:101CF0000D46002600272F6008232A46002104F104
:101D0000080000F00FFF60B92968204600F0A8FD28
:101D100040B1052807D1761C0420F1B20229EAD38C
:101D2000F2BD0320F2BD0420F2BD2DE9F04780464C
:101D300089460426002408F158050FF6743A1AF86B
:101D4000143008F16402002108F108002B73002709
:101D500000F0FEFD0AEB4403597869702F70494684
:101D60004046FFF7C3FF00B900261AF81400042804
:101D700005DB7F1CF9B2022901D2042EEED0641CCF
:101D8000082C01D2042EDAD03046BDE8F0872DE9C8
:101D9000F84F0646DFF8EC8A4FF0000B06F194048A
:101DA000C4F800B078214046082501F0D5F8002796
:101DB0004FF00C0A12E00AFB07F92946304608EBFF
:101DC000090200F068FB5FEA000B47D1206858F871
:101DD00009107F1C0835FFB208432060207A401CA0
:101DE0008742E8D30096DFF8A05ADFF8A09A0026D1
:101DF00008E03868082803D1286CC0F3052060602B
:101E0000761CF6B20AFB06F008EB0007386828B328
:101E1000002208283B7A0BD040280CD0802810D014
:101E2000B0F5007F0AD0B0F5805F08BF4A460AE0EF
:101E30002B602A1D07E009F1380204E0DFF8502A80
:101E400001E009F12002002AD3D0009879689B00B4
:101E5000083000F067FE0028CBD0D3465846BDE8D6
:101E6000F28F2DE9F041804608270025DFF8146A3B
:101E700001E008376D1C98F89C10E8B2491C8842B4
:101E800031D232463946404600F005FB04002AD1E3
:101E900030680828EDD1337A7168DFF8EC7908F101
:101EA00008003A1D9B0000F03DFEE0B9396CC1F31B
:101EB0000520D8B1C1F30020B8B9090A880714D4A5
:101EC0004A0712D4080710D4CA060AD500230022F4
:101ED000662100F0AAFA00230022992100F0A5FA59
:101EE00004E0880601D40C2400E00F242046BDE85D
:101EF000F0812DE9F24F804684B008F17806002485
:101F0000307FA346010758BF072440F16582DFF800
:101F10007879B868002804D4401CB0FA80F0C0F189
:101F20001F00C01E08F15805A871431E8DF80C3023
:101F300003AA042100F080FAF86A012302210FF6B7
:101F40008012C0F303108340AB606977386AE8778A
:101F5000396A090A3170386A000C7070396A090EE2
:101F6000B170786AF070796A090A3171786A000C88
:101F70007071796A3078090EB17150B1B86AC0F3E6
:101F80000411491C00F00F03C0F3412000F03FFA98
:101F9000B360B07850B1B86AC0F3C421491C00F0F6
:101FA0000F03C0F3014000F032FAF360307950B112
:101FB000B86AC0F38441491C00F00F03C0F3C1505C
:101FC00000F025FA3361B07958B1B86AC0F34463C0
:101FD0005B1C00F00F01800F32F8100059434143A1
:101FE0007161F86A97F82810C0F30462521CC0F3BC
:101FF000417001F00F0151430FF6CC0252F820005E
:102000004143B1610521697629757868C0F30010F4
:1020100000280CBF502006202876386C10F0030FE3
:1020200024D141071FD550202876F169DFF8609848
:102030008A0540F18E80D9F81020FF21D00F1AD0E8
:10204000120A2A7500F0D2F9920F02F00102AA7565
:1020500000F0CCF9C2F3007000281ABFD20E02F0D3
:102060000102FF2206E010F0180F01D00620DBE786
:102070000A24B1E1EA75D9F81420D00F16D0120A5B
:102080006A7600F0ADF9D9F81420920F02F001023F
:10209000EA7600F0A5F9D9F81000C0F3007020B17D
:1020A000D9F81410C90E01F0010129770320A8778F
:1020B000F169082941D102942C732879F8B1396962
:1020C000C1F3072048B101F01F02C1F3421082188A
:1020D000090A02920120A97728733969080E08D0ED
:1020E000C1F30442C1F342518A180292A877022038
:1020F0002873397DC80702D5B96900F07FF92879BE
:1021000002280FDB7869C0F3001048B1F96900F0CC
:1021100075F904202873404600F080FB04002BD1A1
:102120000298687008F1640200F08AF9002803D16F
:1021300002AA00F080F9002879D1F069C1044AD5DB
:102140002A79032A47D1287B092816D14FF0010BA1
:1021500032E00121A976EC76B96BC1F3800010B1B1
:102160006C75AC75A2E78908880704D57021072231
:1021700029756A75F5E709242EE1404600F00AFA50
:10218000D0B9092008F164022873002108F1080081
:102190004FF0010B00F0DCFB002848D198F89D00BF
:1021A000FD2802D1142100F044F998F89D00FE2882
:1021B00002D1082100F03DF9307F01070BD53A68C4
:1021C000112A08D3B86CC0F34171012954D8400FCB
:1021D00000F003002870307FDFF8B0A6410640F120
:1021E0009180BBF1000F0ED1396CC1F3006000B3D8
:1021F00000F018F9D8B900F00FF9C0B900F00CF9E7
:10220000A8B91320A8772979032904BF287B0028BF
:1022100038D1DAF8381001F09071B1F1907F36D1F1
:10222000072008F16402287300F00AF930B30C2487
:10223000D2E0080E82071CD5297E0023002200F080
:10224000F4F80028F3D1E87E4FF47A71431EA87E9B
:1022500000F085FA2A7F697E8340DBB208F108002E
:1022600000F0B0FD0028E2D100F0DCF80028DED15B
:10227000C4E711F0C04FC1D10F24ADE0CC208E21B6
:10228000A8776977287B092818BF002813D1DAF8C6
:102290003800C0F3801008B1122169779AF838002D
:1022A000C10744BF1322AA77DAF83800C0F3400010
:1022B00008B10C21A977287B082814D1DAF8380056
:1022C000C0F3006008B102216977DAF83800C0F382
:1022D000405008B1CC21A977DAF83800C0F380501B
:1022E00008B1FD21A977DAF83C003070DAF83C102B
:1022F000090AB170DAF83C00000C3071DAF83C10D1
:10230000090EB171307F010666D5287B092818BFF8
:10231000082861D1DAF8201000200090C1F30720CE
:1023200008B1090AA977DAF8340010F01F0F05D0B8
:1023300000F01F0002AA029000F07DF8386D000F37
:1023400000F09DF829690A46824288BF02466B4622
:1023500008F1080000F0D0FA08B10D243CE0049820
:102360000121DFF8302501700098DAF83010904232
:1023700008D3DAF82C20C2F3C41038B10290C2F3AB
:10238000840119E0DFF81025904205D3C80E07D06C
:102390000290C1F384510FE0DFF80025904206D38C
:1023A000C1F3444018B10290C1F3043104E0C1F319
:1023B000C410C1F384010290F26993050BD5D9F8DA
:1023C0002000C00F07D0404600F056F920B902AAFD
:1023D00000F031F800E00E24204605B0BDE8F08F93
:1023E00099F8170000F00700A876704799F81300D5
:1023F00000F007006875D9F810207047C1F3044257
:10240000C1F3425082180292090EA97770474B43DC
:1024100032F810104B4370470022022108F10800E7
:1024200000F096BA00230022B72108F1080000F05E
:102430004EBC02AA0291012108F1080000F088BAFE
:10244000002108F1080000F083BAFEB50A4600F149
:102450006C0529786FF0040479B101266B7801923C
:1024600008309E40F6B20096AF78EA7807FA03F398
:10247000DBB200F0A7FC00B900242046FEBD0A280C
:1024800007D20FF25442DFF8181432F81000484314
:102490007047002070473EB515460024CDE9004442
:1024A00008236A46083000F03DFB08B1032418E019
:1024B00028609DF8031029729DF805109DF806000C
:1024C000090241EA00419DF80400014369609DF85A
:1024D000070040B1802806D2C00754BF0220012067
:1024E000286020463EBD9DF80010CA075CBF04234B
:1024F0002B60FF28F5D19DF800102868F1B1032961
:1025000027D0052929D0062929D0092930D00A2920
:1025100031D00C2935D00F2939D0812917D0842901
:1025200019D087291ED088291FD08B2926D08D2924
:102530002AD08E2908BF4FF48030D1E708202860C8
:102540009DF80310102938BF10212972C8E7102008
:10255000C6E72020C4E74020C2E78020C0E74FF450
:102560008070BDE74FF40070BAE74FF48060B7E7C2
:102570004FF40060B4E74FF48050B1E74FF40050DF
:10258000AEE74FF48040ABE74FF40040A8E74FF4CC
:102590000030A5E77CB50446BC4E30680025030E2C
:1025A0000AD000F04AF8706800F04EF8002837D1E1
:1025B00000F031F9002838D1B068030E0AD000F0DD
:1025C0003CF8F06800F040F8002829D100F023F929
:1025D00000282AD13069030E08D000F02EF8706967
:1025E00000F032F8E0B900F016F9F0B9B069030E66
:1025F0001DD000F022F8F0698DF801208DF806005A
:102600005B1E9BB2010E020C8DF80310060A9DF8AA
:1026100000108DF804208DF8056000F026F808B150
:102620000B2508E000F0F7F808B10C2503E004F1F1
:10263000080000F06DFC284676BD8DF80200010C04
:102640008DF80010020A70478DF801208DF8060001
:102650005B1E9BB2010E020C8DF80310010A8DF86F
:1026600005109DF800108DF804200DF1010204F111
:10267000080000F02CBB00002DE9FE430E46894FF8
:1026800081463968002402A80480C80001D40029CA
:1026900061D4C1F3C06000281ABFC1F307404FEAFC
:1026A00000284FF0010802200904009002AB4246C6
:1026B000090E09F1080000F051FB00284BD109F187
:1026C000700500232978002209F1080000F0FFFAC4
:1026D000002840D1E8784FF47A71431EA87800F0C2
:1026E0003EF82A7969788340DBB209F1080000F0EE
:1026F00069FB00282FD1396897F803007DA39DF866
:102700000820C1F34175C9B25B5D00F00700864047
:1027100083409A43164302238DF808609DF80820F1
:10272000009302AB8DF80920424609F1080000F041
:102730009AFA80B964214846FFF787FE58B939688C
:102740000220009002AB424609F108000904090E7C
:1027500000F049FA00B10C242046BDE8FE83019147
:102760009B410122DB0F8240D2B20092704738B504
:1027700000F06BF8090D01F00701022902D00429CD
:102780001ED040E094F8701000F064F8002839D1B1
:10279000012300F03AF8002834D19DF8000001230D
:1027A0006A46012140F040008DF80000FFF75FFF0E
:1027B000002827D100F02FF8002823D1002522E09F
:1027C000022300F022F800281CD19DF8010000230C
:1027D000002240F002008DF8010094F8701000F023
:1027E0003BF878B902236A460121FFF740FF48B958
:1027F00000F011F830B9FF2002238DF8010000F03D
:1028000004F800B10C25284632BD6A46052104F1C2
:10281000080000F077BA6421204616E638B500F0CB
:1028200014F8C1F3001038B12046FFF7A0FF0546A9
:102830003821280007D104E00909490703D50025FC
:10284000352100F007F8284632BD04460E48C16B1A
:102850000F2570470023002204F1080000F052BA4F
:1028600010B50424104A914204D0104A914207D175
:10287000002405E00021083000F030FB00B90524F9
:10288000204610BD6C02002454030024B40300242D
:10289000E402002400C2EB0B80F5E409406BED0775
:1028A00040420F0004030024465350445346445012
:1028B000000804020408040609080914090A09109A
:1028C00010000001A00F00FA10000000000100003D
:1028D000A00F000000FA00000000210032004200BA
:1028E000500064008500A600C800FA000A014D01EE
:1028F0009001000003070F1F70B5054600200AB9BC
:10290000012070BDB1FBF2F424B1B1FBF4F6B24288
:1029100028BF641E621CB1FBF2F119602B681968B4
:10292000CD682D0A44EA0524CC6070BD10B504467C
:10293000201D216005494C2200F026FB04F15000C7
:10294000002404708470002010BD00008C49000831
:102950002DE9F44F8AB000238DF8013044680994C2
:1029600083680893C4680794026943698469C569E8
:1029700004290695056AD0F824A0D0F82880C66AF4
:102980000596D0F830B0466B0496866B0396D0F867
:102990003CE0066C0296466C876CD0F84C900DD8E3
:1029A000DFE801F003836F8672000A9909788DF8D9
:1029B000001080F852109DF800100B2900F278806A
:1029C000DFE801F00606060611111D2C3A455055A8
:1029D0000023012200244FF480754FF4005A9846DA
:1029E0004FF0807E24E00023032200244FF4407542
:1029F00098464FF4005A4FF0407E00260CE0032228
:102A0000002308244FF440754FF4005A4FF4006837
:102A10004FF0407E4FF0006606270BE000230122B6
:102A200000244FF480654FF4405A98464FF0806E72
:102A30000026082799463EE004220023002400F0E7
:102A40005FF84FF0806E4FF00066082716E0042212
:102A50001023082400F054F84FF0806E4FF0006609
:102A600014270BE000F053F84FF0806E03E000F005
:102A70004EF84FF0A06E4FF000660A274FF0005955
:102A800019E04FF4405A16E001680968019189681D
:102A9000DDF828C09CF800C021F4F81141EA0C418F
:102AA000DDF804C0CCF8081005E00A990F7802E0C0
:102AB00001218DF8011009994160089981600799F9
:102AC000C1600261436184610699C1610562C0F819
:102AD00024A0C0F828800599C162C0F830B0049ADB
:102AE000426303998163C0F83CE0029A0264466441
:102AF0008764C0F84C909DF801000BB0BDE8F08FE2
:102B00004FF480654FF4405A4FF40068704700233B
:102B1000042200244FF480654FF4405A4FF40068BB
:102B20009B4670472DE9F84193B0044604F15005E7
:102B30000E4690461F4600F0C5F8287804995A22A0
:102B400000F0EAF90290079806960F976A78B0F5B8
:102B5000807F119204BF4FF4005108911099B1F198
:102B6000006F07BF4FF0005212920021129100F047
:102B700075F8060005D120686422414600F033FB59
:102B8000064630001CBF206800F022FC304692E070
:102B900078B593B004460D46164600F093F894F8C5
:102BA000500004999F2200F0B7F903990022029087
:102BB0000F960129079204D14FF0807111920E9166
:102BC00002E008210692119100F048F8060002D1B7
:102BD00000F0B7F8064630001CBF206800F0F8FB94
:102BE000304614B070BD2DE9F04393B0044604F1B3
:102BF00050068846154699461A9F00F063F83078CB
:102C000000F029F802904FF0007206950F97B37804
:102C1000012B0FD0022B0AD0052B0CD14FF40061F1
:102C20004FF0006209911092F178119103E04FF496
:102C3000007307930E9200F011F8060004D1494684
:102C4000204600F07AF9064630001CBF206800F0EC
:102C5000BFFB3046AEE0049942465DE12068642245
:102C6000694600F030BA2DE9F84193B00446884631
:102C700017461D461A9E00F025F894F85000FFF7FD
:102C8000EAFF02900023069764220F96694611938B
:102C90001293206800F017FA5FEA000804D1294671
:102CA000204600F046F980465FEA08001CBF206815
:102CB00000F08EFB404614B0BDE8F08104460F469C
:102CC00015461E466846211D4C2200F05DB9F0B540
:102CD00093B0FFF7F3FF00F02FF800F037F808BFCC
:102CE0000E92FFF7BBFF070006D156B120686422A1
:102CF000294600F03EFA074638001CBF206800F065
:102D000067FB16E0F0B593B0FFF7D8FF00F014F8BA
:102D100000F01CF808BF0E92FFF7A0FF070003D1D8
:102D20003EB100F00EF8074638001CBF206800F0E6
:102D30004FFB384613B0F0BD94F8500004993A4662
:102D4000EAE020686422294600F04DBA0022029091
:102D50000792310011920F96129270472DE9F043BD
:102D600093B0054605F150078946164698461A9CC9
:102D7000684600F022F8387804994A4600F0CCF80A
:102D80000290002306967A780F9469461293119266
:102D90002868642200F097F9040005D128686422AD
:102DA000414600F020FA044620001CBF286800F0CD
:102DB0000FFB204613B0BDE8F083291D4C2200F024
:102DC000E3B800002DE9FC4198B006468846174656
:102DD0001D46209C05A8311DFFF7F0FF4FEA0D00AE
:102DE00058A1142200F0D0F800950999019496F8A2
:102DF0005000FFF731FF079008980121002214913D
:102E00000128179204D14FF080710C921391169201
:102E10001398B0F1806F06D14FF480624FF44053A5
:102E20000C920D930B973068642205A900F04BF9C2
:102E3000040005D1219A3068694600F03CFA044646
:102E400020001CBF306800F0C3FA20461AB0BDE86D
:102E5000F081F0B595B005460C4617461E4602A80F
:102E6000FFF7ABFF08220021684600F0F1FC0120CB
:102E70000699029095F85000224600F04DF8049013
:102E800064221397286802A900F01DF904001AD1E2
:102E900002200699029095F850001A9C324600F0E4
:102EA0003BF8049064221394286802A900F00BF9FF
:102EB000040008D15022002101920091286869463F
:102EC00000F04BFA044620001CBF286800F080FA8E
:102ED000204615B0F0BDBFF34F8F1AE00246002028
:102EE000126813689A6802F0E06271B912B94FF083
:102EF000807204E0B2F1807F0CBF0022012099684B
:102F000021F0E0610A439A60704701207047000099
:102F100000BF006800F05CBA1029134607D10128F1
:102F200003BFD243D2B242EA032243EA032210464D
:102F300070470068642200F01CB90068642200F049
:102F400052B9000000000000000000000000000076
:102F50000000400010000000002200F087BC0EE0DE
:102F600002684368024408305FEAC37C44BF4B44B4
:102F70005B1E52F804CB43F804CB091FF9D150F87B
:102F8000041B0029ECD170474AB1000011F8013B45
:102F9000521E00F8013B1CBF11F8013BF8E77047D7
:102FA0007CB504460025FEF79DF806460CB90125C0
:102FB00087E00021A165606D0028F9D1204600F06E
:102FC000A5FC41F28832DFF8F813E26522689368C5
:102FD000E06825690B4061690343E06943EA054302
:102FE000491E43EA0123034393602168CA68206AAB
:102FF00022F4E0220243CA6020680169226B21F4B6
:10300000F81141EA0241016121680B69606B1B0AFA
:1030100040EA03230B612268A16B51612068002202
:103020000368616823F4F853491E43EA0123202111
:103030000360E06D0090334600F08FF8050040D14A
:103040002168CA68606A120A40EA0222CA602068DF
:10305000DFF8701388421CBFDFF86C23904206D162
:10306000E06D3346009000F076F8050029D1236822
:10307000DFF858231E68A168E06B16400E43064334
:103080001E602268D2F80831A16AE06A23F0A043EA
:103090000B430343C2F808312068026842F0010282
:1030A0000260A069022804D12068816841F0020111
:1030B0008160E068B0F1806F07BF01216165022087
:1030C0006065284676BDF8B500F04AF80746606DA1
:1030D000022806D1E068B0F1806F10D100F045F809
:1030E000F2BD142803D12868022805D107E024285E
:1030F000F4D12968012902D028680328EED100F014
:1031000028F820BBA0652946204600F091FA01006E
:10311000E6D1A96B29B900F01CF82268022151629E
:10312000F2BD296811B904216165F2BD012907D1F9
:10313000616D242902D104226265F2BD1421F3E7F6
:103140000229CDD1616D1429F5D02421ECE70220AC
:10315000F2BD00963B4600222021204600F044BAF2
:1031600004460D461646FDF7BDBF10210120A1659E
:1031700070472DE9FC4105460C461646FDF7B2FFA7
:103180008046286800F1500714B90120082127E083
:103190006A6D042A22D1006C401CA864A96C696481
:1031A0002C642868026822F0405201460A600096AA
:1031B00043460122042100F07BF8010011D1286C64
:1031C0000178397000F069F8F1D10096434600F0BB
:1031D0006DF8010005D100F05AF802E0012010213D
:1031E000A965BDE8F681F8B505460F461646FDF718
:1031F00079FF2B680446996CD3F8102103F1500035
:1032000017B90120082140E0D5F854C0BCF1040FE3
:1032100039D11B6C5B1CAB64D5F848C0C5F844C001
:1032200001232F642F68D7F800C063F31D7CBE46CE
:10323000CEF800C0EB68B3F1806F19D12A689164B1
:103240000746009623460122062100F031F80100CE
:103250001CD13878296C087000F01FF8F1D1009665
:10326000234600F023F8010010D100F010F8F2BD61
:103270002B6803F58077D7F800C01CF4E06F0CBF13
:103280003A619964DCE701201021A965F2BD2A6842
:103290000221022351626B6570472A6C531C2B6418
:1032A000A96C491EA964A86C00287047012202215C
:1032B000284600F099B92DE9F84304460F46154613
:1032C000FDF710FF80462068866CD0F81091606D85
:1032D000042804BFF968B1F5800F3AD10095434640
:1032E000FFF739FF98BB21683868C1F88800236868
:1032F0007A68C3F8802021683869C1F89000226894
:103300001368B968F86823F043530B43034343F051
:1033100000531360E2682068B2F1806F05D000F5B9
:1033200080710A6812F4E06F01D0866401E0C1F890
:1033300010900095434601220821FFF70EFF01007F
:1033400009D12268082102235162636503E002204B
:1033500001E0FFF70AFFBDE8F2837CB505460C46A5
:10336000FDF7C0FE0346686D042823D1E96D0022F5
:1033700000912021FFF79CFF01001ED18821696583
:103380002268082A0BD12B6861681022C3F830111B
:103390002E68726229680B6843F480130B602B68F7
:1033A000DFF88C241D68216815400D4345F0405519
:1033B0001D6076BD10230120AB6576BD00000000C6
:1033C000FCC0E0F80050005200A00052BFFFFFFE1A
:1033D0007CB504460026FDF785FE0546606D002895
:1033E0003FD0206801684A0710D5036823F0040322
:1033F0000360E06C00F0F1FC08B10420A065206DD2
:1034000000F0EBFC06001CBF0420A06521680A6ADE
:1034100090061DD50B680A46022143F00203136093
:10342000E06D00902B460122FFF797FE06001BD1AE
:10343000216802202B464862E26D0092FFF78BFE66
:10344000060011D1206800F011F8022060650BE041
:103450000A4610461168022321F04051016063655D
:1034600002E010210126A165304676BD016821F0F9
:103470004051016070472DE9F04186B005460E4687
:1034800018220021684600F0E3F9002400270C23ED
:10349000DFF8A0131022086810F00200844618BF5D
:1034A0004FF0010CCDF804C00868C00613D5D1F860
:1034B00000C05FEA8C6052BF0092702000901CE058
:1034C0004FF0010E0DF1040848F800E0D1F800C0FB
:1034D0005FEACC6E06D45FFA87F813FB08F84DF864
:1034E00008400AE0D1F800C05FEA4C6E46BF4FF0DA
:1034F00070084DF800804DF800207F1CF8B20128BC
:1035000011D80028C7D0D1F800C0D1F800E0584346
:103510000CF0010CCEF3400EF445D1D00DF1040EA9
:103520004EF80040D2E7DFF810331868C70704D51B
:103530001C68640864001C600124DFF800733868AC
:10354000C00709D5D7F800E044F002044FEA5E0056
:103550004FEA400EC7F800E000200860D1F800C034
:10356000B2682CF47F00521E40EA024CC1F800C041
:103570002868984226D170680190306820B10D68A3
:1035800025F03005284308600198049A904203D141
:103590000D6845F001050D60012803D1086840F071
:1035A00002000860E10703D5186840F001001860C8
:1035B000A10703D5386840F001003860002006B04C
:1035C000BDE8F081B84208D17068049030680028E6
:1035D000DAD00D6825F05005D4E7A86D40F008005A
:1035E000A8650120EBE700002DE9F04105460E46F5
:1035F00090461F46069C2868016A16EA010018BF1B
:103600000120404511D014F1010FF4D0FDF76AFDFF
:10361000C01B844201D3002CEDD102206865A96D46
:10362000032041F00101A96500E00020BDE8F08120
:103630002DE9F04F04460D4620680022FFF716FFE3
:10364000A06830B921680B68686823F040430343E1
:103650000B6029682068022908D100F5C07700F5C1
:10366000C47800F5C87C00F5D07112E0032908D1B8
:1036700000F5A07700F5A47800F5A87C00F5B071FE
:1036800007E000F5807700F5847800F5887C00F588
:103690009071AB6C3B60E86A68B1D5F828E0C1F87E
:1036A00000E03E68EB6A696B286B26F47C161E43CB
:1036B0000E4306433E60D8F800E06B6C4FEA5E10A4
:1036C00043EA401EC8F800E0A96BF1B1286828B9A8
:1036D000E96B2368491E1964A86BB0B1296CB1F17C
:1036E000006F07D12068D0F8083123F08043C0F87C
:1036F00008310AE0A06AB0F1804F06D12068D0F806
:10370000081141F08041C0F80811EB68E969002B0D
:1037100065D00029D5F810E06E69A86B39D0D5F8CE
:103720002090D5F824A098B1D7F800B0DFF8108128
:1037300008EA0B0B43EA0B0333434EEA0303194336
:103740004AEA01012B6C49EA01010143194318E0DF
:10375000D7F800803B4800EA0800034333434EEAB1
:10376000030319434AEA010149EA01013960E16AA8
:10377000B1F1805F04BF6869082803D1396841F05E
:1037800000613960A868CCF800002368A9699964D1
:103790004AE058B13C682C490C40234333434EEA7D
:1037A00003030343286C03433B6014E0D7F8008015
:1037B00043EA0E0333434FEA981043EA80133B6019
:1037C000E16AB1F1805F04BF6869082803D13968F4
:1037D00041F000613960A868CCF8000024E001B332
:1037E000A86BD5F82080D5F824C068B1D7F800E0E0
:1037F000164B03EA0E0319434CEA010148EA0101A2
:103800000143286C014307E03E6826F47C563143AF
:103810004CEA010148EA010139602168A86988641D
:1038200002E008230122A3651046BDE8F08F0000E6
:10383000F7FFFFCF00B400520050005200A000522A
:10384000C0C0FFF0C0C0FFFFC0FFFFF0FFC0FFF02F
:1038500010B5044610460A460146204600F028FCF2
:10386000204610BD62F30F2262F31F4200B500BF75
:10387000130096469446103928BFA0E80C50FAD899
:103880005FEA417C28BF0CC048BF40F8042BC90741
:1038900028BF20F8022B48BF00F8012B00BD000014
:1038A00080B5A8B09C22002101A8FFF7D1FF02201B
:1038B00000F032FC08B100F0BDFD8148016841F024
:1038C0000201016000680090009A00F075FC102170
:1038D0008023019101A80993FDF70AFC08B100F0CB
:1038E000A9FD002300220021102000F0BBFD1020C4
:1038F00000F0B1FD4FF4806000F0AEFD0128F9D179
:103900004FF4802000F0D0FD29B000BD2DE9F04338
:10391000A7B004461422002168466A4DFFF798FFBD
:103920008422002106A8684EFFF792FF20686749AD
:10393000884240F0968002221023069206A808933F
:10394000FCF7B6FC08B100F075FD3168491C01298F
:1039500006D1286840F4804028602A680592059BBB
:1039600028684FF400384FF4000940F02000286028
:103970002A680592059BEF6847F40057EF60EA68F4
:1039800005920222059B3160019240F67D7700236B
:103990000322029309234E4E009703926946049333
:1039A000304600F089FD4B4F4B483860082000221C
:1039B0003861BA6004207A61022278620221B8621A
:1039C0000020BA614FF480634FF08042386378631F
:1039D00038467960FB6000F067F800F085F808B1C0
:1039E00000F028FDE76400F065F808B100F022FD62
:1039F00000223A4F3A48BA603A6102213860022206
:103A000079600420BA6100234FF400217862B86223
:103A10004FF48042FB603846796100F045F83B6323
:103A20007B6300F061F808B100F004FD276500F049
:103A300041F808B100F0FEFCE9680223304641F489
:103A40000051E960EA68059205990322009300217C
:103A500001930291092104916946039200F02CFD23
:103A60001FE0204988421CD104224023069206A868
:103A70000993FCF71DFC08B100F0DCFC3068401C29
:103A8000012806D1296841F4804129602A680592FD
:103A9000059B3060286840F48050286029680591B3
:103AA000059A27B0BDE8F083C7F81C80C7F82090BE
:103AB000FA6270474FF08071FC65384600F097BAA3
:103AC0005445025834450258F8030024005000526F
:103AD000003402587C010024D0000052F40100247C
:103AE0005000005200A000522DE9F84F0446FDF7A7
:103AF000F9FA0646DCB104F14C0500212970287A58
:103B000020B96961A961E8612962696202202872AD
:103B100000F05DF922685069C1070AD5FDF7E2FAA5
:103B2000801B0628F6D310200321E86029720120AB
:103B30004BE120465369016ADFF8EC44DFF8ECA45E
:103B4000DFF8ECB423F44303DFF8E8C40B43DFF8F9
:103B5000E8E453614669C369026981690768DFF86F
:103B6000DC84DFF8DC941E4316430E43DFF8D424D4
:103B7000DFF8D43497421CBFDFF8D0148F4267D0EF
:103B8000DFF8CC148F421CBFDFF8C8148F425FD01F
:103B9000DFF8C4148F421CBFDFF8C0148F4257D027
:103BA000DFF8BC148F421CBFDFF8B8148F424FD02F
:103BB000DFF8B4148F421CBFDFF8B0148F4247D037
:103BC000DFF8AC148F421CBFDFF8A8148F423FD03F
:103BD0004F4518BF47453BD0774518BF674537D09D
:103BE000DFF894148F421CBFDFF890148F422FD05F
:103BF000DFF88C148F421CBFDFF888148F4227D067
:103C0000DFF884148F421CBFDFF880148F421FD06E
:103C1000DFF87C148F421CBFDFF878148F4217D076
:103C2000DFF874148F421CBFDFF870148F420FD07E
:103C3000DFF86C148F421CBFDFF868148F4207D086
:103C40005F4518BF574503D0A74218BF9F420DD10B
:103C5000C16A0E43816A491E090501F07C710E4359
:103C6000416A491E090101F47C710E433E640779E3
:103C70008668016B07F07F073E430E43C168B1F5CC
:103C8000806F71D1016891421CBFDFF8C02391425F
:103C900067D0DFF8BC73B9421CBFDFF8B82391428C
:103CA0005FD0DFF8B42391421CBFDFF8B073B94294
:103CB00057D0DFF8AC2391421CBFDFF8A823914214
:103CC0004FD0DFF8A473B9421CBFDFF8A0239142A4
:103CD00047D0DFF89C2391421CBFDFF89873B942AC
:103CE0003FD0494518BF41453BD0714518BF61459C
:103CF00037D0DFF8842391421CBFDFF88023914244
:103D00002FD0DFF87C73B9421CBFDFF878239142D3
:103D100027D0DFF8742391421CBFDFF87073B942DB
:103D20001FD0DFF86C2391421CBFDFF8682391425B
:103D300017D0DFF86473B9421CBFDFF860239142EB
:103D40000FD0DFF85C2391421CBFDFF85873B942F3
:103D500007D0594518BF514503D0A14218BF994219
:103D600007D146F4806604E0B1F5007F08BF46F451
:103D700000760768DFF83023796C11400E43416B01
:103D80000E437E6407680026BE640168594518BF6B
:103D900051450BD0A14218BF994207D0494518BFE1
:103DA000414503D0714518BF614504D100224A65E1
:103DB000036800219965046800220021E267406BD6
:103DC00068600122E96000202A72BDE8F28F206855
:103DD000416941F006014161704770B50446FDF745
:103DE00081F906462CB304F14C05287A022802D04A
:103DF0002021E9601BE02068416941F00401416134
:103E000005202872206801698A0414D4FDF76AF934
:103E1000801B0628F6D3E868032140F01000E86014
:103E200029722879020602D5A86A012101730022AD
:103E30002A70012070BD41694FF4FE42012341F018
:103E400002014161042028722168CA602B7228791E
:103E5000010605D5A86A012200210273236899642E
:103E60000020287070BD38B504462068010B090396
:103E7000CA68A0F15003DB0903F01F03DA40D10741
:103E800040F1AE80026904F14C05510509D5436942
:103E90005A0506D54FF48061C160E86840F0010022
:103EA000E860206801690A0509D54369190506D546
:103EB0004FF40062C260E86840F00200E8602068E9
:103EC0000169CA0409D54369D90406D54FF4805263
:103ED000C260E86840F00400E860206801694A04B4
:103EE00009D54369590406D54FF48042C260E86899
:103EF00040F00800E860206801698A0509D5436937
:103F0000990506D54FF40072C260A96909B120462F
:103F10008847206801698A042BD54369990428D50C
:103F20004FF40052C260287A04281CD120684169ED
:103F300021F4005141612068426942F0020242616D
:103F40000120287229790A0604D5A96A002208737B
:103F500023689A64296A00202870002940D02046EE
:103F6000BDE83440084705212972696A09B1204635
:103F7000884720680169CA051FD54369D9051CD542
:103F80002A7913060BD5C16F002904BF806C002865
:103F900009D1012101222972AB6A1A7303E0806CF6
:103FA00008B90121297222684FF440700021D060C5
:103FB0002970696909B120468847E86880B120689E
:103FC00000F00FF8287229790A0644BFA96A08731D
:103FD000E96900222A7019B12046BDE8344008473B
:103FE00031BD416941F0020141610120704710B5C6
:103FF00008B9012010BD02680123100B0003503ADC
:10400000D209CC0102F01F0203FA02F209D5274BB4
:104010001940994207BF41680A43436823EA0202F4
:104020004260002010BD000050170240D016024030
:1040300050160240D007005250070052D0060052DE
:104040005006005250000052D0170240D0000052DB
:1040500050010052D001005250020052D0020052D2
:1040600050030052D003005250040052D0040052BA
:1040700050050052D005005250100240D0100240AE
:1040800050110240D011024050120240D0120240A2
:1040900050130240D013024050140240D01402408A
:1040A00050150240D01502408021C03C01000001A3
:1040B00062F30F2262F31F42401810F0030308D08E
:1040C000C91A1FD3DB0748BF00F8012D28BF20F80D
:1040D000022D130030B414461546103928BF20E9CC
:1040E0003C00FAD8490728BF20E90C0048BF40F837
:1040F000042D890028BF20F8022D48BF00F8012DAB
:1041000030BC7047C91818BF00F8012DCB0728BF75
:1041100000F8012D70470000F8B50446DFF8A45000
:10412000A86800F00700062805D0A96801F01F0163
:10413000A14224D021E0A86840F2E936400944EACF
:104140004010A860FCF7CEFF07462868810705D419
:10415000FCF7C8FFC01BB042F7D30EE01E2C18BFFF
:104160001D2C0CD1FCF7BEFF0446A868C10306D481
:10417000FCF7B8FF001BB042F7D30120F2BD0020CE
:10418000F2BD38B5DFF844402168490840EA4100F3
:1041900000F00FF805462068810708D4FCF7A2FF5D
:1041A000401B40F2E9329042F5D3012032BD00209D
:1041B00032BD2060FCF796BF0348016841F400411E
:1041C00001607047044802580C48025814480258CD
:1041D000FEB55E4A5E49106883030AD400F0CEF84B
:1041E00000240C6000F0CAF8106840F4003000F0C1
:1041F000C4F81368DC031ED400201067BFF34F8F90
:10420000D36EC3F34E34C3F3C90543F6E07000EA3E
:10421000441040EA857008612846451E0028F4D104
:104220002046441E0028EED1BFF34F8F106840F4A3
:10423000803000F0A2F800F0FFF800F0A4F8454844
:10424000454CC1684FF080564FF0807541F40051E5
:10425000C160C268009200990368002243F0010324
:10426000036000680090009940200021FDF7F4FCF5
:104270004020FDF70FFD002200214120FDF7ECFC5E
:104280004120FDF707FD00F073F834480421206653
:10429000182020670022616604F18400A2660221D2
:1042A000A267E267026016226167002141608660B2
:1042B000C16002614161816104F16000E566C4F89A
:1042C0008010FEF76DFE08B100F0B4F800F04AF877
:1042D00041F2883702933A46694604F16000FFF7DD
:1042E000CAF808B100F0A6F800F042F81C48042112
:1042F000206018200022206161600020A26002215D
:10430000A26162621622E0612062A0622063A06363
:10431000E0632046E5606161E6626263FEF740FEAD
:1043200008B100F087F800F01DF83A46029369469C
:104330002046FFF7A0F808B100F07CF800F076F90D
:1043400000F098F908B100F075F8FEE714ED00E010
:1043500050EF00E0344502581000002400A0005245
:10436000005000520021012200910A23019270475F
:104370000C2200216846FFF76BBA1060BFF34F8F25
:10438000BFF36F8F704700B5AFB09C22002108A823
:10439000FFF75EFA2022FFF7ECFF0120FFF7F1FEA6
:1043A00008B100F047F8012202210B920222089185
:1043B0004021119220220D9140F2131113920122FB
:1043C000149102211592042216910023179108A836
:1043D000189119911B9119211D9202220C9312938D
:1043E0001A931C931E911F92209221922292239243
:1043F00024932593FCF77CFE08B172B6FEE73F21BB
:104400000322009108210391402101920422059189
:104410004FF48041049200234FF48062079102938D
:10442000362106926846FDF765F808B172B6FEE7D8
:104430002FB000BD72B6FEE7032010B5FDF7FFFBFD
:104440000F200024FDF7CCFB002814BF0124FFF748
:1044500027FA204610BD28E016490A68104018BF08
:10446000012070470129F0B5124C11D1012808BF75
:10447000002503D004280CBF08251025A668FF27B7
:10448000AF40AA402D1DAB40BE4332431A43A26049
:10449000226822EA400290FAA0F0B0FA80F0401CB4
:1044A000814011432160F0BD00BF02490A681043FA
:1044B00008607047100500582DE9F04F4FF00009D3
:1044C000574A4FF0B0434FF00F0805460E469FE0A5
:1044D000012000FA09FE1EEA010054D04FEA49010A
:1044E00003248C406FEA040C746804F00307012F66
:1044F0001CBF04F00304022C12D1AC68F7680CEA6C
:1045000004048F403C43AC606C6824EA0E07746876
:10451000C4F3001404FA09F444EA070EC5F804E0F1
:1045200034794FEA890E04F00304032C1ED0EC68A2
:10453000B7680CEA04048F403C43EC60347904F023
:104540000304022C12D14FEAD90705EB87040EF0C1
:104550001C0708FA07FBD4F820A02AEA0B0AD6F8B1
:1045600010B00BFA07F747EA0A0727622C680CEA33
:104570000407347904F0030404FA01F13943296093
:10458000716811F4403F41D04FEA9901DFF894C0BF
:10459000254F5CF821C007EA95270EF00C0E08FAAB
:1045A0000EF42CEA040407FA0EF747EA040CDFF8CD
:1045B00074E04EF821C0D3F800C07468C14301EA2A
:1045C0000C0CE40248BF40EA0C0CC3F800C0D3F85E
:1045D00004C0746801EA0C0CA40248BF40EA0C0C49
:1045E000C3F804C0D2F804C0746801EA0C0CA40338
:1045F00048BF40EA0C0CC2F804C0D2F800C074688E
:1046000001EA0C01E40348BF0143116009F101090B
:10461000316831FA09F07FF45BAFBDE8F08F00003C
:1046200080000058300500587FFF290010B5012098
:104630000E4CFCF71FFDAC212046FEF78DFC002040
:104640000B492070207204206160FCF711FA0146CA
:10465000002000F083F8032020720420FCF708FA01
:1046600001460020BDE8104000F078B8D0000024DA
:104670007000002480B500F006F8010002D1BDE80A
:1046800001400EE002BD10B500210020002400F022
:104690007FF820B1B0F1FF3F0CBF04240324204673
:1046A00010BD38B56946002000F091F808B104202B
:1046B00032BD00F0B5F82349234AC868830309D501
:1046C00000F046F8CC68002024F40034CC60106080
:1046D00000F03EF8CB68DC031FD50020C867BFF3AD
:1046E0004F8FCB6823F48033CB60BFF34F8F8B6F3A
:1046F000C3F34E34C3F3C90543F6E07000EA441037
:1047000040EA857050622846451E0028F4D12046B4
:10471000441E0028EED100F01BF8EFF3108072B6B3
:10472000009A0A60009B094953F8044F009A0C60F4
:10473000156885F3088880F310882046804700209C
:1047400032BD000008ED00E050EF00E0F40300246B
:10475000BFF34F8FBFF36F8F7047000038B50A4625
:104760006FF0040478B92B4D0024287848B9297AD1
:10477000686805F10C0300F05BF820B16FF00204EB
:1047800001E06FF00104204632BD2248002470474A
:1047900010B56FF00404C0B9FFF7F7FF027812B14B
:1047A000032A0DD00FE021B90C3000F0BCF820B97D
:1047B0000BE00C3000F0C8F838B16FF0020010BD0B
:1047C0004FF0FF3401E06FF00104204610BD0200FD
:1047D0006FF0040000D0704730B50E4A0020137807
:1047E000002B18BF022B12D152680B4C1268A24248
:1047F00003D14FF010430B6030BD084DAA4203D1E6
:104800004FF0E0420A6030BD6FF0020030BD6FF043
:10481000010030BDD00000240050005200A0005222
:104820000248016821F002010160704710E000E0D9
:104830002DE9F84386B0894680461D460026144679
:104840008DF80060982105F1080005F1590700F086
:1048500085F887F803900820FE724146AC663870F0
:1048600005F10800FEF762F801AB2B4A00F056F89C
:1048700005F10800FEF72FFB02A92846FDF755FABF
:10488000F8B92846FDF7EDFA0A2000F06BF802A906
:104890002846FDF74AFAA0B99DF80E1005F19C00D4
:1048A00001709DF80F2004A94270042205F1080050
:1048B000FEF76EF99DF8100038712846FDF767FA8B
:1048C00010B14FF0FF3622E069462846FDF711FB94
:1048D00010B16FF002061AE09DF8000020B92A68B6
:1048E00012B101AB00F01AF802A92846FDF7FEF953
:1048F00010B16FF00D060AE0AA22062104A8FEF707
:10490000B1FF042204A905F10800FEF741F9304681
:1049100007B0BDE8F083000080F0FA02214605F1FF
:104920000800FDF7E9BF1CB5002400F175010094F3
:104930000B78026D49780830D2B2FEF78AFA08B1D6
:104940006FF00C04204616BD10B508300024FEF7A9
:10495000C2FA08B16FF00C04204610BD0022FFF728
:10496000ABBB000038B50446FCF7BCFB14F1010FEB
:10497000054602D0044801786418FCF7B3FB401BDD
:10498000A042FAD331BD00BF0000002400000000A7
:10499000000000005A0000000100000000000000BC
:1049A00000000000000000000001000000200000E6
:1049B00000000000000000000000000000000000F7
:1049C00000000000000000010000000000000000E6
:1049D000080000000000000030B4002512E050F88C
:1049E000042BD30744BF4A44521E091F042942F82E
:1049F000045BFAD213468C0744BF15809B1CC90781
:104A000048BF1D7050F8041B0029E8D130BC704726
:104A1000FEE7FEE7FEE7FEE7FEE7704770477047F8
:104A200000F00AB80248FFF71EBA0248FFF71BBAA7
:104A3000F40100247C0100240248416802788A18AD
:104A4000426070470000002410B5074979441831CE
:104A5000064C7C44163404E00A68081D114488475B
:104A60000146A142F8D110BD2C0000004C0000000E
:104A70004EF68851CEF20001086840F470000860DC
:104A8000BFF34F8FBFF36F8F4FF00170E1EE100A4D
:104A90007047000045FFFFFFEC03000010000024FA
:104AA00000000000BBE4FFFF10000000A0000000B9
:104AB0000000002400000000044805490860054883
:104AC000026842F4700202607047000000000008B3
:104AD00008ED00E088ED00E000F00DF8002801D0BE
:104AE000FFF7B2FFAFF300800020AFF30080FFF7C5
:104AF0006FFB00F002F80120704700F001B80000E1
:104B00000746384600F002F8FBE7000080B5AFF337
:104B10000080024A11001820ABBEFBE7260002000D
:104B20000548014603B4684680F30988AFF3008066
:104B3000FFF79EFFFFF7D0FFA5EDF5FE0148804788
:104B400001480047B94A0008214B00080100000055
:104B500000000000100000000090D003FFF7FEBF2F
:104B6000FFF7FEBFFFF7FEBFFFF7FEBFFFF7FEBF79
:104B7000FFF7FEBFFFF7FEBFFFF7FEBFFFF7FEBF69
:104B8000FFF7FEBFFFF7FEBFFFF7FEBFFFF7FEBF59
:104B9000FFF7FEBFFFF7FEBFFFF7FEBFFFF7FEBF49
:104BA000FFF7FEBFFFF7FEBFFFF7FEBFFFF7FEBF39
:104BB000FFF7FEBFFFF7FEBFFFF7FEBFFFF7FEBF29
:104BC000FFF7FEBFFFF7FEBFFFF7FEBFFFF7FEBF19
:104BD000FFF7FEBFFFF7FEBFFFF7FEBFFFF7FEBF09
:104BE000FFF7FEBFFFF7FEBFFFF7FEBFFFF7FEBFF9
:104BF000FFF7FEBFFFF7FEBFFFF7FEBFFFF7FEBFE9
:104C0000FFF7FEBFFFF7FEBFFFF7FEBFFFF7FEBFD8
:104C1000FFF7FEBFFFF7FEBFFFF7FEBFFFF7FEBFC8
:104C2000FFF7FEBFFFF7FEBFFFF7FEBFFFF7FEBFB8
:104C3000FFF7FEBFFFF7FEBFFFF7FEBFFFF7FEBFA8
:104C4000FFF7FEBFFFF7FEBFFFF7FEBFFFF7FEBF98
:104C5000FFF7FEBFFFF7FEBFFFF7FEBFFFF7FCBF8A
:104C6000FFF7FEBFFFF7FEBFFFF7FEBFFFF7FEBF78
:104C7000FFF7FEBFFFF7FEBFFFF7FEBFFFF7FEBF68
:104C8000FFF7FEBFFFF7FEBFFFF7FEBFFFF7FEBF58
:104C9000FFF7FEBFFFF7FEBFFFF7FEBFFFF7FEBF48
:104CA000FFF7FEBFFFF7FEBFFFF7FEBFFFF7FEBF38
:104CB000FFF7FEBFFFF7FEBFFFF7FEBFFFF7FEBF28
:104CC000FFF7FEBFFFF7FEBFFFF7FEBFFFF7FEBF18
:104CD000FFF7FEBFFFF7FEBFFFF7FEBFFFF7FEBF08
:104CE000FFF7FEBFFFF7FEBFFFF7FEBFFFF7FEBFF8
:104CF000FFF7FEBFFFF7FEBFFFF7FEBFFFF7FEBFE8
:104D0000FFF7FEBFFFF7FEBFFFF7FEBFFFF7FEBFD7
:104D1000FFF7FEBFFFF7FEBFFFF7FEBFFFF7FEBFC7
:104D2000FFF7FEBFFFF7FEBFFFF7FEBFFFF7FEBFB7
:104D3000FFF7FEBFFFF7FEBFFFF7FEBFFFF7FEBFA7
:104D4000FFF7FEBFFFF7FEBFFFF7FEBFFFF7FEBF97
:104D5000FFF7FEBFFFF7FEBFFFF7FEBFFFF7FEBF87
:104D6000FFF7FEBFFFF7FEBFFFF7FEBFFFF7FEBF77
:104D7000FFF7FEBFFFF7FEBFFFF7FEBFFFF7FEBF67
:0C4D8000FFF7FEBFFFF7FEBFFFF7FEBF0E
:0400000508004B2183
:00000001FF
