:020000040800F2
:10000000A006002025410008014100080341000826
:1000100005410008074100080941000800000000F0
:100020000000000000000000000000000B4100087C
:100030000D410008000000000F41000811410008B8
:100040004541000800000000494100084D410008FA
:100050005141000855410008000000000000000068
:10006000594100085D41000861410008000000009E
:1000700000000000654100080000000000000000D2
:10008000694100086D410008714100087541000890
:10009000794100087D410008814100088541000840
:1000A000894100088D4100089141000895410008F0
:1000B000994100089D410008A1410008A5410008A0
:1000C000A9410008AD410008B1410008B541000850
:1000D000B9410008BD410008C1410008C541000800
:1000E000C9410008CD410008D1410008D5410008B0
:1000F000D9410008DD410008E1410008E541000860
:10010000E9410008ED410008F1410008F54100080F
:10011000F9410008FD4100080142000805420008BD
:10012000094200080D42000811420008154200086B
:10013000194200081D42000821420008254200081B
:10014000294200082D4200083142000835420008CB
:10015000394200083D42000841420008454200087B
:10016000494200084D42000851420008554200082B
:10017000594200085D4200086142000865420008DB
:10018000694200086D42000871420008754200088B
:10019000794200087D42000881420008854200083B
:1001A000894200088D4200089142000895420008EB
:1001B000994200089D420008A1420008A54200089B
:1001C0000000000000000000A9420008AD42000845
:1001D000B1420008B5420008B9420008BD4200081B
:1001E000C1420008C5420008C9420008CD420008CB
:1001F000D1420008D54200080000000000000000C5
:10020000D9420008DD420008E1420008E54200084A
:10021000E9420008ED420008F1420008F5420008FA
:10022000F9420008FD4200080143000805430008A8
:10023000094300080D430008114300081543000856
:10024000194300081D430008214300082543000806
:10025000294300082D4300083143000835430008B6
:10026000394300083D430008414300084543000866
:10027000494300084D430008514300085543000816
:10028000594300085D4300086143000865430008C6
:1002900069430008000000000000000000000000AA
:1002A0006D43000871430008754300087943000856
:1002B0002DE9F041044600262068B046DFF8A85733
:1002C000410313D5286E10F440701EBFE16F01F496
:1002D000407188422CD0DFF89407026842F48072A3
:1002E00002600068C10517D40126B0462078C10716
:1002F00054D56268032A4FD8DFE802F005024A05A8
:1003000000F0A3FBE861300047D1E96B6068890821
:1003100040EA8101E96341E0286E296E41F48031B1
:1003200029662A6E20F4407022F480322A662866FC
:10033000E06FB0F5807F0ED100F0CEFE0746286E4C
:10034000810708D400F0C8FEC01B41F289329042F8
:10035000F5D30326C9E7E06F10F47C3F09D0296884
:10036000DFF80C2702EA101221F47C5111432960B6
:1003700003E0286820F47C502860296EE06F00F4C8
:10038000407001432966296E41F400412966ADE7BA
:10039000E86940F48020B5E70126B046207881075F
:1003A0001AD5A26842B1102A02D0202A0DD011E03D
:1003B000E86940F40020E86130000CD1E96BA068E6
:1003C00021F030010143E96306E0E96941F480115D
:1003D000E961F1E70126B046207841071AD5E268C5
:1003E00042B1402A02D0802A0DD011E0E86940F4E1
:1003F0000020E86130000CD1E96BE06821F0C00119
:100400000143E96306E0E96941F48011E961F1E73C
:100410000126B0462078010705D5EA6B206922F055
:1004200040520243EA6321688A0217D5606D10B119
:1004300004280DD010E0E96941F400213000E961A1
:100440000BD1E96B606D21F004010143E96305E024
:10045000E96941F48011F1E70126B0462078C10630
:1004600018D5626932B1B2F1807F0ED0B2F1007F4F
:1004700002D00DE000F0F2FA30000AD1E96B6069B9
:1004800021F040710143E96304E000F0C6FAF3E7AC
:100490000126B0462078810622D5A26982B1B2F544
:1004A000801F0BD0B2F5001F13D0B2F5401F1CBF48
:1004B000B2F5800FB2F5A00F02D00FE000F0CEFA37
:1004C00030000CD1E96BA06921F4E0010143E9633C
:1004D00006E0E96941F00061E961F1E70126B04613
:1004E0002078410605D52A6CE06922F0405202438B
:1004F0002A6421780A0605D5EB6B206A23F4403381
:100500000343EB632168CA0513D5606A30B1B0F5C7
:10051000802F0CD1E96941F08041E961300007D1B9
:10052000E96B606A21F480210143E96301E001265F
:10053000B0462168880519D5A26A4AB1B2F5800F84
:1005400003D0B2F5000F0CD00EE000F07EFAE861A7
:1005500030000AD1296CA06A21F4400101432964CA
:1005600004E000F064FAF3E70126B04620680105D4
:1005700018D5E26A5AB1B2F5805F06D0B2F5005FD5
:1005800018BFB2F5405F02D00AE000F059FA30001F
:1005900007D1296CE06A21F440510143296401E04C
:1005A0000126B0462168480518D5226B5AB1B2F52C
:1005B000807F06D0B2F5007F18BFB2F5407F02D031
:1005C0000AE000F03DFA300007D1296C206B21F4DD
:1005D00040710143296401E00126B0462168C80446
:1005E00020D5626B82B1B2F5803F0BD0B2F5003FEF
:1005F00013D0B2F5403F1CBFB2F5802FB2F5A02F4B
:1006000002D00DE000F02AFA30000AD1296C606BAC
:1006100021F4E0210143296404E000F0FEF9F3E74E
:100620000126B0462068810420D5A26B82B1B2F5C4
:10063000807F0BD0B2F5007F13D0B2F5407F1CBF96
:10064000B2F5806FB2F5A06F02D00DE000F006FAAF
:1006500030000AD1A96CA06B21F4E0610143A964C8
:1006600004E000F0DAF9F3E70126B046206841041F
:1006700020D5E26B82B1B2F5805F0BD0B2F5005F9E
:1006800013D0B2F5405F1CBFB2F5804FB2F5A04F5A
:1006900002D00DE000F0E2F930000AD1A96CE06B65
:1006A00021F4E0410143A96404E000F0B6F9F3E766
:1006B0000126B0462068010417D5226C052A12D8FD
:1006C000DFE802F005030E05050500F0C2F9300071
:1006D0000AD1A96C206CC90840EAC101A96404E0F0
:1006E00000F0A0F9F3E70126B0462068C10303D566
:1006F000EA6942F00052EA612068810312D5A26CD7
:100700001AB1B2F1006F02D00AE000F099F930009E
:1007100007D1E96BA06C21F000610143E96301E0BE
:100720000126B0462168080322D5E26C62B1B2F519
:10073000803F15D0B2F5003F15D0B2F5403F18BF4D
:10074000B2F5802F03D011E000F07FF9E8613000AE
:100750000DD1696CE06C21F4E0210143696407E08C
:1007600000F065F9F3E700F067F9EFE70126B0461E
:100770002068C10224D5226D72B1B2F5801F17D056
:10078000B2F5001F17D0B2F5401F1CBFB2F5800FA5
:10079000B2F5A00F03D011E000F057F9E861300086
:1007A0000DD1696C206D21F4E0010143696407E01B
:1007B00000F03DF9F3E700F03FF9EFE70126B0461E
:1007C0002068410222D5A26E4AB1B2F1807F12D0D8
:1007D000B2F1007F14D0B2F1407F03D014E000F0FA
:1007E00034F9E861300010D1296CA06E21F040711D
:1007F000014329640AE0E96941F48021E961F1E7F4
:10080000E86940F00050ECE70126B046206801029C
:1008100022D5A26D62B1B2F5807F15D0B2F5007F0E
:1008200015D0B2F5407F18BFB2F5806F03D011E04C
:1008300000F00BF9E86130000DD1696CA06D21F476
:10084000E0610143696407E000F0F1F8F3E700F0CC
:10085000F3F8EFE70126B0462068C1011ED5E26D2E
:1008600042B1102A12D0202A13D0302A18BF402AB1
:1008700003D011E000F0E9F8E86130000DD1296CF7
:10088000E06D21F070010143296407E000F0CFF82A
:10089000F3E700F0D1F8EFE70126B04620688101C8
:1008A0001BD5226E5AB1102A07D0202A10D0302A28
:1008B0001CBF402A502A02D00DE000F0CAF83000D8
:1008C0000AD1696C206E21F070010143696404E073
:1008D00000F0A8F8F3E70126B046206841011BD5D7
:1008E000626E5AB1102A07D0202A10D0302A1CBFBD
:1008F000402A502A02D00DE000F0ABF830000AD1B7
:10090000A96C606E21F070010143A96404E000F05D
:1009100089F8F3E70126B0462068C10017D5E26EDA
:10092000052A12D8DFE802F005030E05050500F0E0
:1009300090F830000AD1696CE06EC90840EAC10144
:10094000696404E000F06EF8F3E70126B046206821
:10095000810017D5226F052A12D8DFE802F00503BF
:100960000E05050500F075F830000AD1296C206FDE
:10097000C90840EAC101296404E000F053F8F3E734
:100980000126B0462068410017D5626F002A18BFC3
:10099000B2F5805F06D0B2F5005F0CD1E86940F097
:1009A0008050E861300007D1E96B606F21F440515D
:1009B0000143E96301E00126B046216800291AD508
:1009C000A26F6AB1B2F5804F06D0B2F5004F18BFE2
:1009D000B2F5404F04D00CE0E86940F08050E86187
:1009E000300007D1E96BA06F21F440410143E96376
:1009F00001E00126B0462168080108D52A6822F4E2
:100A000000422A602968D4F88000014329605FEA27
:100A1000080018BF0120BDE8F081E96941F00051EC
:100A2000E9617047E96941F08051E9617047E9691E
:100A300041F48031E9617047E86940F00060704737
:100A4000E86940F00050E8617047E86940F0400014
:100A50007047E86940F40030E8617047E86940F4A5
:100A60008030E86170470000104402580048025886
:100A7000CFFFFF0FF8B5002401284FF4FA47DFF845
:100A80003C66DFF83C164FF40042DFF83836DFF8FA
:100A9000385671D0022800F08280042800F092803D
:100AA000082800F0A680102800F0AF80202800F071
:100AB000B680402800F0D880802800F0E280B0F5B1
:100AC000807F00F0E780B0F5007F00F0F180B0F5A6
:100AD000806F00F00081B0F5006F00F00A81B0F582
:100AE000805F00F01581B0F5005F00F02581B0F562
:100AF000804F00F03581B0F5004F00F04581B0F532
:100B0000803F00F04E81B0F5003F00F04E81B0F51F
:100B1000802F00F05181B0F5002F00F07F81B0F5FB
:100B2000801F00F08B81B0F5001F00F09781B0F5B9
:100B3000800F00F0A381B0F5000F00F0BB81B0F191
:100B4000807F00F0C781B0F1007F00F0EA81B0F152
:100B5000806F00F0F581B0F1805F00F00682B0F1A7
:100B6000005F00F00F82B0F1804F00F03582B0F1ED
:100B7000004F00F045825FE200F089FA401E042831
:100B8000F9D8DFE810F064000500080067003200C3
:100B9000E96A4806ADE1E96AC90A08067FE100F0A2
:100BA00076FA401E0328E6D8DFE810F05100040072
:100BB00008001F00E86AC00AC10555E1E86AC00ADA
:100BC000810557E100F063FA401E032810D8DFE8E2
:100BD00010F03E00040008000C00E86AC00AC105DD
:100BE00042E1E86AC00A810544E100F0F4FD8408AE
:100BF00022E2E86C10F0405000F0D881B0F1805F44
:100C00001FD0B0F1005FF3D1ACE1E86C10F04070A0
:100C10000BD0B0F1807F64D0B0F1007F65E1E86C6B
:100C200010F4E00013D0B0F5801F00F06681B0F53D
:100C3000001F00F06981B0F5401F00F06F81B0F532
:100C4000800F00F0BF81B0F5A00F03D0F4E100F0F9
:100C5000C2FDEBE129684807F8D52A689106F5D569
:100C60002868C0F3C100AAE1286D10F040505CD0A4
:100C7000B0F1805F5CD0B0F1005FE7D12B68DA059E
:100C8000A2E1E86C00F44030B0F5803F13D0B0F53D
:100C9000003F18D1E86C10F480200CD0B0F5802F04
:100CA00011D1EA6A920DD0050DD500F016FEBDE116
:100CB000286D10F4400000F0BB81B0F5800F03D028
:100CC000B0F5000F03D0B7E1EA6A500611E1E96A16
:100CD000C90A880614E1286D10F440701BD0B0F5E5
:100CE000807F00F0E080B0F5007F0BD0B0F5407F52
:100CF0000CE0286D10F440500DD0B0F5805FF0D0BE
:100D0000B0F5005F00F05281B0F5405F99D093E1FB
:100D1000286D10F4E02000F03F81B0F5803F11D045
:100D2000B0F5003FDDD0B0F5403F5ED0B0F5802F8C
:100D30005ED0B0F5A02FD8E0A86D10F4E06012D01E
:100D4000B0F5807F00F0D980B0F5007FC9D0B0F554
:100D5000407F4AD0B0F5806F4AD0B0F5A06FC4E0B4
:100D6000A86D10F4E04000F0FA80B0F5805F5BD031
:100D7000B0F5005FB5D0B0F5405F36D0B0F5804F2C
:100D800036D0B0F5A04FB0E0A86D00F00700052800
:100D900032D8DFE810F0E400040145010B0117012F
:100DA0001C01EA6A920D100680E0E86C10F0006009
:100DB0006DD0B0F1006F98E0286F00F44070B0F58E
:100DC000407F06D12869000100F47C3040F4407077
:100DD00002E0286F00F4407000280DD0B0F5807F4D
:100DE00003D0B0F5007F03D007E0286F8107F0E063
:100DF0006A6F900700D53C461EE1296F01F44071EF
:100E0000B1F5407FF8D128688103F5D52869C0F392
:100E10000520022801D3B3FBF0F40DE1686D10F456
:100E2000E02064D0B0F5803F67D0B0F5003F6BD0D4
:100E3000B0F5403F72D0B0F5802F56E0686D10F4E9
:100E4000E00054D0B0F5801F57D0B0F5001F5BD044
:100E5000B0F5401F62D0B0F5800F46E0E86CE96A5B
:100E6000400705D4C90AC80515D500F00FFDDDE01F
:100E7000C90A88050FD500F012FDD7E0286D10F0E3
:100E8000407034D0B0F1807F06D0B0F1007F0AD03E
:100E9000B0F1407F4ED0CFE0E86AC00A0106FAD533
:100EA00000F0EEFCC2E0E86A800D0106F3D500F028
:100EB0000EFDBBE0686D10F4E06018D0B0F5807FE7
:100EC0001BD0B0F5007F1FD0B0F5407F26D0B0F525
:100ED000806F0AE0286D10F0700008D010280CD048
:100EE000202811D0302819D0402814D0A4E0E86A76
:100EF0004106FBD500F0A7FC98E0E86AC00A81062D
:100F0000F4D500F0AAFC91E0E86A800D810607D5CF
:100F100000F0CFFC8AE000F097F887E04BF68034D1
:100F20008AE0686D10F0700029D0102837D0202892
:100F30000DD030283AD0402844D0502812D07BE041
:100F4000A86D10F070000AD0102828D0202867D093
:100F500030282BD0402835D0502803D06CE000F04A
:100F600065FC63E02968880364E0686D00F00700B1
:100F7000052861D8DFE800F00313541A262B00F08F
:100F800048FC53E0286D00F00700052854D8DFE83E
:100F900000F00306470D191E00F02EFC46E0E86A3B
:100FA000C00A410648D500F061FC3FE028684107CF
:100FB00042D52A6890063FD52968C1F3C10026FAB8
:100FC00000F439E02868C20536D50C4634E0296FB4
:100FD000880731D514462FE0E86C10F4405027D034
:100FE000B0F5805F03D0B0F5005F05D024E02A683B
:100FF000900321D5354C1FE0E96A890D480612E0BF
:10100000E86C10F4404006D0B0F5804F08D0B0F541
:10101000004F0DD010E0286881040DD52C4C0BE05A
:10102000E86A800D410607D500F047FC044603E05E
:101030002868810348BF1C462046F2BD25490A683E
:10104000FFE710430860704710B51F4A0020D16CBD
:1010500011F040510BD111684B0717D51468A10648
:1010600014D512681548C2F3C101C84010BDB1F1D2
:10107000805F04D11168CA0508D5114810BDB1F1CF
:10108000005F03D111688A0348BF0E4810BD0146B6
:10109000002001290F4A0CD0022902D0042904D0D3
:1010A00070471068C0F3021070471168C1F3022046
:1010B00070471068C0F30230704700000090D00302
:1010C00000093D0000366E0100440258001BB700C5
:1010D000006CDC020045025801484068704700BFC0
:1010E000000000202DE9F843070064D0DFF808581D
:1010F000D5F81080AE6A2C683878C10708F0380837
:1011000006F0030604F0285409D5B8F1100F03D0F7
:10111000002C6CD0022E6AD1786800284BD0397828
:101120008A073AD5B8F1000F05D0002C00F0B58041
:10113000002E40F0B280F86800283CD0286800F00B
:10114000180026B9002C1CBF396988421CD12A68B6
:10115000386922F01902024342F00102B8F1000F8F
:101160002A600BD12B680122DFF89C17C3F3C10062
:101170008240B1FBF2F0DFF88C170860DFF88027BF
:10118000106800F037FD002840F09D81686879699B
:1011900020F0FE4040EA016068603878C1060CD556
:1011A000B8F1080F05D0002C00F0A780012E40F008
:1011B000A480386A002800F0868139780A0740F157
:1011C000D080B869002800F0BC80696F41F001014F
:1011D0006967FFF781FF0446686F810700F1C180EE
:1011E000FFF77AFF001B0228F6D303206EE1786830
:1011F000B0F5803F04D1286840F48030286031E0A9
:1012000058B9296821F480312960286820F4002029
:1012100028602A6822F4802223E0B0F5A02F07D1AD
:10122000286840F480202860296821F4002109E022
:10123000B0F5502F28680AD140F480202860296832
:1012400041F4002129602A6842F4803209E020F448
:1012500080302860296821F4802129602A6822F4DE
:1012600000222A60FFF738FF8146786850B129686C
:101270008A033FF554AFFFF72FFFA0EB0900652865
:10128000F5D3B2E7286881037FF549AFFFF724FF64
:10129000A0EB09006528F5D3A7E7F868D8B12A685C
:1012A000396922F0190210430843286068687A6996
:1012B00020F0FE4040EA02606860FFF70DFF8146C3
:1012C000286841073FF569AFFFF706FFA0EB09006B
:1012D0000228F5D389E72868400840002860FFF716
:1012E000FBFE8146296848077FF557AFFFF7F4FEFC
:1012F000A0EB09000228F5D377E7386A80B12968A6
:1013000041F080012960FFF7E7FE04462868C10527
:101310003FF553AFFFF7E0FE001B0228F6D364E76A
:10132000286820F080002860FFF7D6FE0446296870
:10133000C8057FF542AFFFF7CFFE001B0228F6D3AA
:1013400053E7686F400840006867FFF7C5FE044632
:10135000686F810705D5FFF7BFFE001B0228F7D392
:1013600043E739788A0621D5F86978B1296841F4CC
:1013700080512960FFF7B0FE04462868810415D427
:10138000FFF7AAFE001B0228F7D32EE7286820F4F7
:1013900080502860FFF7A0FE04462968880405D520
:1013A000FFF79AFE001B0228F7D31EE738784107A3
:1013B0004AD5DFF8F407026842F480720260B86828
:1013C000012817D040B9286F4008400000F080F88D
:1013D000286F20F0040010E0052804D100F07EF80A
:1013E00021F0800105E0852809D100F077F841F06F
:1013F00080012967286F40F00100286708E0296F05
:10140000490849002967286F20F0040000F060F8BF
:10141000B86841F2893458B1FFF75EFE0646286F7E
:10142000810711D4FFF758FE801BA042F7D3DCE6FA
:10143000FFF752FE0646286F810705D5FFF74CFEE1
:10144000801BA042F7D3D0E6786A48B3B8F1180FF2
:101450001ED1012837D0686BB96CC0F3CC00814233
:101460001ED0E86A40084000E862FFF735FE0446F7
:10147000FFF732FE001BFBD0686BB96C6FF3CF0037
:1014800040EAC1006863E86A40F00100E86207E0F2
:1014900001210020796407F1240100F037FA90B9A6
:1014A000F86C28B107F14C01012000F02FFA50B977
:1014B000786F50B101210220C7F8941007F1740130
:1014C00000F024FA08B1012000E00020BDE8F2831A
:1014D0002867296F21F0800129677047286F40F045
:1014E00004002867296F70472DE9F0410400884601
:1014F00056D0DFF80854286800F03F00404502D27B
:1015000000F0D7F87AD12078DFF8EC63410706D5F0
:101510002069326A02F00702824200F0C3F82078A4
:10152000010706D56069326A02F07002824200F05B
:10153000B2F82078C10606D5A069326A02F4E062EA
:10154000824200F0A1F82078810606D5E069326A6F
:1015500002F4E042824200F090F82078810706D53C
:10156000E068F26902F00F02824200F07FF8207812
:10157000C10731D5B269A068120940EA0212B2610E
:101580006068022802D131688A0308E0032802D18A
:1015900031688A0103E0012803D13168CA0503D408
:1015A0002CE03368590729D53269D20840EAC200D5
:1015B0003061FFF791FD07463069616800F038003F
:1015C000B0EBC10F08D0FFF787FDC01B41F2893295
:1015D0009042F1D3032047E02078810706D5E068E8
:1015E000F26902F00F02904200F040F8286800F023
:1015F0003F00804504D200F05CF801D0012033E0C8
:101600002078410706D52069326A02F0070290422D
:1016100000F048F82078010706D56069326A02F0C8
:101620007002904200F037F82078C10606D5A06914
:10163000326A02F4E062904200F026F820788106D7
:1016400006D5E069326A02F4E042904200F015F8F3
:1016500000F03AF8DFF8AC120860DFF8A402006886
:10166000BDE8F04100F0C6BABDE8F08104D2F169EE
:10167000090940EA0110F061704704D2316A21F48F
:10168000E04108433062704704D2316A21F4E061DE
:1016900008433062704704D2316A21F07001084378
:1016A0003062704704D2316AC90840EAC100306232
:1016B00070472968890948EA811129602A6802F07F
:1016C0003F0242457047000030B5DFF82C32DFF8AA
:1016D0003802196911F0380104D010290AD01829EC
:1016E0000BD06EE01A68940669D51968C1F3C10180
:1016F000C84068E0DFF8B80465E09C6A996ADD6A72
:101700005A6B05F00105C1F30511C2F3CC02554334
:10171000002900EE105AB8EE400A50D014F003042D
:1017200000EE901AF8EE600A02D0022C20D022E0DF
:1017300019688A0619D51968DFED6B1AC1F3C10162
:10174000C84001EE100A186BB8EE411AC1EE200A2B
:10175000C0F3080001EE100AB8EE411A00EE211A9B
:10176000B7EE000A31EE000A18E09FED600A17E0BC
:101770009FED5F1A01E09FED5F1A186B9FED5A2AEB
:10178000C1EE200AC0F3080001EE900AF8EE611ADB
:1017900040EE021AB7EE000A31EE800A20EE800A0F
:1017A000186BC0F34620401C00EE900AF8EE600A69
:1017B00080EE200ABCEEC00A10EE100A03E0002002
:1017C00001E0DFF8F003996901F00F01082924BF57
:1017D000C91FC84030BD80B5FFF776FFDFF8DC13C6
:1017E000096801F00F01082905D30FF200420A44ED
:1017F00012F8081CC84002BD80B5FFF7ECFFDFF807
:10180000C013096801F00701042924BFCA1ED04093
:1018100002BD80B5FFF7DFFFDFF8A4130A68C2F34B
:101820000211042924BFCB1ED84002BD80B5FFF7AA
:10183000D2FFDFF88C130A68C2F30221042924BF07
:10184000CB1ED84002BD10B500F003F8C4F306412A
:1018500008E0DFF87003046822E110B500F00CF82E
:10186000C4F34621491CB0FBF1F010BD10B500F0E7
:1018700003F8C4F30641F5E7DFF8500304681FE1FD
:1018800010B5FFF7F9FFC4F30661EBE710B500F000
:101890000CF804F00704641CB0FBF4F010BD10B5A4
:1018A00000F003F8C4F30221DCE7DFF82403046846
:1018B00006E110B500F007F8D2E710B500F003F824
:1018C000C4F30641CEE7DFF80C03046840E110B52D
:1018D000FFF7F9FFC4F30661C4E710B5DFF8F802BB
:1018E000046800F035F9D4E700000039000000007A
:1018F000001BB74B0024744A0044025800200052D9
:10190000080000200C0000200090D0032DE9F84FC3
:1019100004460B270D46AB4800EBC401674300911A
:10192000A54EF06A4FF47871A74AB94002EB8408DB
:101930004FEA440A8843F0624FF08070326800FA40
:101940000AF922EA09023260FFF7C6FB83464FF02C
:10195000007000FA0AFA316811EA0A0F07D0FFF79F
:10196000BBFBA0EB0B003328F5D3032096E02868DF
:10197000E200121D4FF47C73022840F086806868F4
:101980008C4940B9D6F800C0DFF850E2CCF3C10C66
:101990002EFA0CFE04E002280CBFDFF814E28E469B
:1019A000D5F808C0DFF838B2BEFBFCFEDE4528BF24
:1019B0004FF0180E0BD28E4528BF4FF0100E06D2F6
:1019C00088498E452CBF4FF0080E4FF0020ED6F816
:1019D00028B0E1008B4043F003030CFA02F22BEA3B
:1019E000030101430A43B262B26A02F00302824277
:1019F00018BF012052D1F06A1B21B94088430EFA6A
:101A000007F141EA000EC6F82CE0EA682869696926
:101A1000521E401E42EA4022491EA86942EA014283
:101A20000099401E42EA00620A60E8692A6A401E84
:101A3000521E40EA0220C8F800001CB9F06A40F0CB
:101A40002000F062686A70B1674901EBC4010A685E
:101A50006FF3CF0242EAC0020A60F06A012101FA84
:101A600007F70743F762326849EA0209C6F80090AF
:101A7000FFF732FB0446306810EA0A0F0DD1FFF77A
:101A80002BFB001B3328F6D36FE7B06A03FA02F290
:101A900020EA020242F00302B2620020BDE8F28FA7
:101AA00070B5454A936A106BC3F3051109B900205C
:101AB00070BDD46AE50748BF566B00F058F870BD9A
:101AC0003D498A6A8B6BC2F30530002800D170470C
:101AD00030B5CC6A250507D5CC6BC4F3CC0400EE39
:101AE000104ABBEEE90A01E09FED300A12F0030252
:101AF00003D0022A0CD00ED310E00A6894060DD54C
:101B00000968364DC1F3C101CD4000EE905A07E09F
:101B1000DFED270A04E0DFED270A01E0DFED230A0D
:101B2000C3F308035B1C01EE103AB8EE411A31EE24
:101B3000000A01EE100AF8EE600AB8EE411AC0EE93
:101B4000810A20EE200ABCEEC00A10EE100A30BD59
:101B500030B5194A936A106CC3F3055109B90020D6
:101B600030BD5C0248BF556C00F001F830BD13F089
:101B7000030303D0022B0AD00BD30CE013689C069E
:101B800009D51268154BC2F3C102D34004E0084BDB
:101B900002E0084B00E00023C0F30800401CB3FB48
:101BA000F1F148437047000000480258000000006F
:101BB00000366E0100093D00004402581C440258E2
:101BC0002044025830440258C04402583844025855
:101BD000C444025840440258C84402580090D003FC
:101BE00000127A0080841E0034440258010203046B
:101BF0000607080970B504460D4E30780025A0B1DF
:101C00004FF47A710B4AB1FBF0F11068B0FBF1F0C0
:101C100000F04AF848B9102C07D2002221464FF0B4
:101C2000FF3000F023F8B46000E00125284670BDC5
:101C3000000000200C0000200901020002D44448EA
:101C400081547047434B02F00F021A4402F8041CFF
:101C50007047414B4FF6FF021968000200F4E06044
:101C6000114008433D4908431860704770B53A4B2E
:101C70001C68C4F302230124C3F10705052D2EBF00
:101C80000F2504FA05F56D1E1E1D072E34BF002317
:101C9000DB1E2940994004FA03F35B1E1A401143EE
:101CA000BDE87040C8E70000401EB0F1807F10B56D
:101CB00001D3012010BD2A4C0F2160604FF0FF308E
:101CC000FFF7BAFF00220721A2600020216010BDAB
:101CD000BFF35F8F234940F001000867086840F4B4
:101CE0008030086008E0BFF35F8F1E480022016863
:101CF00021F4803101600267BFF34F8FBFF36F8F14
:101D0000704710B54378184A13600178E1B1446810
:101D10005460C37A017B447B1B0643EA0173817ADA
:101D200043EAC143817B43EA8443C47B43EA4143A2
:101D3000417A43EA0443047A007843EA012343EA00
:101D400044030343936010BD91600023536010BDB2
:101D500000E400E018ED00E00CED00E00000FA0502
:101D600010E000E024ED00E098ED00E00FF65011E7
:101D70007CB5D1E9002304460025CDE90023DFF836
:101D800000691DF805006D1C04F15C02002184F857
:101D90005C002046EDB200F0DDFC40B93146204643
:101DA00000F01BFB010003D0052DEAD376BD0E2009
:101DB00076BD2DE9F84F82464FF00009DFF8C448A0
:101DC000CAF88C90782120460825002700F03AFFB9
:101DD000DFF8AC880AF18C0B12E00C2629467E4312
:101DE0005046A21900F012FB5FEA00094DD1DBF862
:101DF0000000A1597F1C0835FFB20843CBF8000052
:101E000098F80600401C8742E7D30020CDF800A0D8
:101E1000DFF874580C2682460BE03868082804D195
:101E2000286CC0F30520CBF804000AF101005FFA2A
:101E300080FA06FB0AF02718386830B30022082819
:101E40003B7A0CD040280DD0802811D0B0F5007F0F
:101E50000BD0B0F5805F08BF08F108020AE02B60E4
:101E60002A1D07E008F1400204E0DFF8202801E025
:101E700008F12802002AD0D0796800989B0000F071
:101E800051FD0028C9D04FF00B094846BDE8F28F3C
:101E90002DE9F047804606264FF008094FF0000A6A
:101EA000DFF8E077DFF8D85703E009F108090AF115
:101EB000010AA9795FFA8AF0491C88421AD23A4687
:101EC0004946404600F0A2FA040013D138680828B9
:101ED000EBD13B7A7968DFF8B05740462A1D9B006A
:101EE00000F020FD30B9296C0A0AC1F3052018B9A9
:101EF000002615E00B242BE0C1F3002008B10126D9
:101F00000EE0900748BF02260AD4510748BF0326B7
:101F100006D4100748BF042602D4D10648BF0526C0
:101F2000900612D4A6B1761E032E0ED9361F0ED1FE
:101F3000002300226621404600F0ACFD0023002271
:101F40009921404600F0A6FD02E00E2400E00124A5
:101F50002046BDE8F0872DE9F84F84B0814609F1AD
:101F600074064FF000088DF80880B069C346010779
:101F700058BF4FF0060809D5400605D5DFF80877A9
:101F80007868C0F3414010B94FF0070800E2B86824
:101F9000002804D4401CB0FA80F0C0F11F00C01E1D
:101FA00009F154046070431E8DF809300DF10902E7
:101FB000052100F0FFF9F86A0123C0F30310834004
:101FC0006360396A2177386A000A6077396A090CD8
:101FD000A177386A000EE077796A3170786A000A72
:101FE0007070796A090CB1707A6A120EF270607FB3
:101FF0000FF2D46250B1B86AC0F30411491C00F06A
:102000000F03C0F3412000F0C7F97360E07F50B1C7
:10201000B86AC0F3C421491C00F00F03C0F30140AB
:1020200000F0BAF9B360707850B1B86AC0F3844177
:10203000491C00F00F03C0F3C15000F0ADF9F3608C
:10204000F07858B1B86AC0F344635B1C00F00F012C
:10205000800F32F81000594341433161F86A97F814
:102060002810C0F30462521CC0F3417001F00F014C
:1020700051430FF25C6252F8200041437161052127
:10208000617521747868C0F30010002814BF5020D7
:1020900006202075386C10F0030F41D110F00F0F9F
:1020A0003CD050202075B169DFF8E0558A053CD559
:1020B0002969C80F16D0090A2174E87C00F00700CE
:1020C00060742969890F01F00101A1742969C1F3C4
:1020D000007038B1C90E01F00101E174E87C00F034
:1020E000070060746969C80F28D0090A6175E87D26
:1020F00000F00700A0756969890F01F00101E17521
:102100002869C0F30070C8B16969C90E01F0010106
:102110002176E87D00F00700A0750FE0C10601D52B
:102120000620BFE74FF0090832E1B96BC1F3800028
:10213000A0B100206074A0746074A0740221DFF864
:1021400040A5A176B069C1044CD52278032A49D1B3
:10215000207A05280FD14FF0010B2AE08908880763
:1021600006D57021072261750020A275E075E3E7AE
:102170004FF008080CE1484600F0C6F9C8B9052040
:1021800009F15C022072002148464FF0010B00F07B
:10219000E1FA00284ED19AF80700FD2802D1142157
:1021A00000F005F99AF80700FE2802D1082100F096
:1021B000FEF8307E010710D53A68102A0DD9B96CA7
:1021C000490F11F0030102D0012904D058E0012287
:1021D0008DF8082001E08DF8088002AA042100F0A3
:1021E000E9F838BB307E410679D5BBF1000F0CD140
:1021F000396CC1F3006000B300F0D3F8D0B900F03F
:10220000DCF8B8B900F0D9F8A0B92178032904BFE7
:10221000207A00283BD1DAF8401001F09071B1F13A
:10222000907F39D1042009F15C022072002100F076
:10223000C6F840B34FF00B08AAE0080E82071CD581
:10224000217D00230022484600F024FC0028F1D123
:10225000E07D4FF47A71431EA07D00F029FA227EC2
:10226000617D8340DBB2484600F046FC0028E1D1A6
:1022700000F097F80028DDD1C4E711F0C04FC1D1BC
:102280004FF00E0884E0CC208E21A0766176207A73
:10229000052818BF002813D1DAF84000C0F38010D9
:1022A00008B1122161769AF84000C10744BF132299
:1022B000A276DAF84000C0F3400008B10C21A17604
:1022C000DAF844006077DAF84410090AE177DAF8BE
:1022D0004400000C7070DAF84410090EF170307E82
:1022E000010655D5227A052A52D1DAF82810C1F311
:1022F000072008B1090AA176386D000F00F062F8D6
:10230000E16802466B46484600F0FAF910B14FF01A
:102310000C083DE00098DFF87813884207D3DAF81C
:102320003400C0F3C4110391C0F384081FE00246D7
:10233000DFF860038218DFF860339A42DAF8381069
:1023400003D2C80EC1F3845810E0009ADFF84C03A2
:10235000DFF84C3382189A4204D2C1F34440C1F3EF
:10236000043803E0C1F3C410C1F38408039003AA46
:1023700000F01FF8B1698A0508D5686AC00F05D05A
:102380004146484600F01EF9804601E04FF00D0836
:10239000404605B0BDE8F08F4B4332F810104B4378
:1023A000704700230022B721484600F073BB03AA00
:1023B00003910121484600F0CDB900220221484690
:1023C00000F0C8B90A2806D20FF21432B54932F823
:1023D0001000484370470020704770B504460D4612
:1023E000AA2208212846002600F044FC08232A4699
:1023F0000021204600F096FA08B1032604E0286880
:10240000A949884218BF0426304670BD3EB515461E
:102410000024CDE9004408236A4600F083FA08B19D
:10242000032418E028609DF8031029729DF8051018
:102430009DF80600090241EA00419DF804000143AD
:1024400069609DF8070040B1802806D2C00754BFDC
:1024500002200120286020463EBD9DF80010CA07DA
:102460005CBF04232B60FF28F5D19DF8001028687D
:10247000F1B1032927D0052929D0062929D0092916
:1024800030D00A2931D00C2935D00F2939D08129F3
:1024900017D0842919D087291ED088291FD08B29CD
:1024A00026D08D292AD08E2908BF4FF48030D1E75D
:1024B000082028609DF80310102938BF10212972C8
:1024C000C8E71020C6E72020C4E74020C2E78020EC
:1024D000C0E74FF48070BDE74FF40070BAE74FF4E7
:1024E0008060B7E74FF40060B4E74FF48050B1E785
:1024F0004FF40050AEE74FF48040ABE74FF400409C
:10250000A8E74FF40030A5E77CB505465C4EB068FF
:102510000024030E06D000F038F8F06800F03CF814
:1025200000282FD13069030E06D000F02EF8706914
:1025300000F032F8002825D1B069030E05D000F074
:1025400024F8F06900F028F8E0B9306A030E1AD0D8
:1025500000F01BF8706A8DF801208DF806005B1EF4
:102560009BB2010E020C8DF80310060A9DF80010B4
:102570008DF804208DF805600DF10102284600F069
:1025800089FA00B10A24204676BD8DF80200010CBC
:102590008DF80010020A70478DF801208DF80600B2
:1025A0005B1E9BB2010E020C8DF80310010A8DF820
:1025B00005109DF800108DF804200DF10102284649
:1025C00000F068BA2DE9FE430C46384E316880466B
:1025D000002501F0C050B0F1C05F4DD1090A0220C2
:1025E00001F47F49009002AB4A46C9B2404600F070
:1025F000FEF9002840D108F168070023397800224D
:10260000404600F047FA002836D1F8784FF47A7146
:10261000431EB87800F04CF83A7979788340DBB201
:10262000404600F069FA38BB3168F07833A39DF872
:102630000820C1F34177C9B2DB5D00F00700844098
:1026400083409A43144302238DF808409DF80820E4
:10265000009302AB8DF809204A46404600F0F8F995
:1026600050B931680220009002AB4A464046090446
:10267000090E00F0BCF900B10B252846BDE8FE8329
:1026800058020020B0000020F8010020280100209E
:1026900000C2EB0B800A1BF681CC0602C09412F834
:1026A000408AF70140420F00534644504C0100203D
:1026B00001919B410122DB0F8240D2B20092704710
:1026C000000102030500000010000001A00F00FA45
:1026D0001000000000010000A00F000000FA000040
:1026E0000000210032004200500064008500A60076
:1026F000C800FA000A014D019001000003070F1FF6
:1027000070B5054600200AB9012070BDB1FBF2F496
:1027100024B1B1FBF4F6B24228BF641E621CB1FBC7
:10272000F2F119602B681968CD682D0A44EA052476
:10273000CC6070BD38B50446201D216004494C2290
:10274000002500F0B5FA84F85050002032BD00009A
:10275000883F00082DE9F44F8AB000238DF800303F
:102760004468099483680893C468079402694369BC
:102770008469C56905290695056AD0F824A0D0F8B2
:102780002880C66A0596D0F830B0466B0496866BF2
:102790000396D0F83CE0066C0296466C876CD0F845
:1027A0004C9009D8DFE801F003886F8B72770A99A3
:1027B00091F800C0BCF1070F00F28180DFE80CF057
:1027C00004101C28374554590023012200244FF4DB
:1027D00080754FF4005A98464FF0807E002624E022
:1027E0000023022200244FF400754FF4005A98464B
:1027F0004FF0007E002618E00023032200244FF44F
:10280000407598464FF4005A4FF0407E00260CE089
:102810000322002300244FF440754FF4005A4FF474
:1028200000684FF0407E4FF0006608270BE0002361
:10283000012200244FF480654FF4405A98464FF02F
:10284000806E0026102799463CE0042210230824BD
:102850004FF480654FF4405A4FF400684FF0806E9B
:102860004FF0006614270BE000F051F84FF0806E37
:1028700003E000F04CF84FF0A06E4FF000660A271E
:102880004FF000591EE04FF4405A1BE00A990978B6
:1028900080F8501016E00168096801918968DDF838
:1028A00028C09CF800C021F4F81141EA0C41DDF881
:1028B00004C0CCF8081005E00A990F7802E0012165
:1028C0008DF8001009994160089981600799C160ED
:1028D0000261436184610699C1610562C0F824A068
:1028E000C0F828800599C162C0F830B0049A4263EC
:1028F00003998163C0F83CE0029A026446648764ED
:10290000C0F84C909DF800000BB0BDE8F08F00239C
:10291000042200244FF480654FF4405A4FF40068BD
:102920009B4670472DE9F84193B006468846144609
:102930001F46684600F020F8049D002D07BF5A206E
:10294000029045F6A5220292CDF8188041F2883512
:102950000F9730682A4600F0CAF8070006D154B134
:1029600030682A46214600F0D1FA074638001CBFDD
:10297000306800F0BFFB58E0311D4C2200F098B9E0
:10298000F0B593B005460C4616466846291DFFF77C
:10299000F4FF95F8500004999F2200F03BF9039949
:1029A00002900F96012906D10022119207924FF052
:1029B00080720E9204E0002104220691119210917F
:1029C000286841F28836324600F091F8070006D1B7
:1029D00054B128683246214600F098FA074638007C
:1029E0001CBF286800F086FB384613B0F0BD2DE907
:1029F000F84193B000F022F800F01BF8029069460D
:102A000006970F9641F288362068324600F0EFF9BB
:102A1000070005D120683246294600F077FA0746BC
:102A200038001CBF206800F065FB384614B0BDE8D4
:102A3000F08194F8500004994246EBE00446884641
:102A400017461D461A9E6846211D4C2200F030B9DB
:102A50002DE9F84193B0FFF7F1FFFFF7EAFF02908D
:102A60000023069769460F9641F288361193324645
:102A70001293206800F0BBF9070005D120683246A8
:102A8000294600F009FA074638001CBF206800F00C
:102A900031FBCAE72DE9F84193B004460F461546CD
:102AA0001E46FFF7D0FF94F8500004993A4600F014
:102AB000B1F8002202900792310011920F96129203
:102AC00008BF0E92206841F28838424600F00FF8A5
:102AD000074630B94EB120684246294600F0DCF97D
:102AE000074617B1206800F005FB9EE7206869469D
:102AF00000F07DB9000000002DE9FC4198B00646C9
:102B0000884617461D46209C05A8FFF735FF6846F6
:102B100047A1142200F0CCF800950999019496F889
:102B20005000FFF789FF0899012207904FF44053A6
:102B300014920022002001290D930B9715921790F3
:102B400005D14FF080720C901392169001E0042191
:102B50001691306841F2883205A900F048F9040066
:102B600005D1219A3068694600F038FA0446200001
:102B70001CBF306800F0BEFA20461AB0BDE8F081F4
:102B8000F0B595B005460C4617461E4602A8291D0D
:102B9000FFF7F3FE08220021684600F0D5FC012073
:102BA0000699029095F85000224600F033F8049000
:102BB00002A9139741F2883728683A4600F017F9BE
:102BC00004001AD102200699029095F850001A9C30
:102BD000324600F01FF804903A461394286802A980
:102BE00000F005F9040008D1502200210192009163
:102BF0002868694600F044FA044620001CBF286893
:102C000000F078FA204615B0F0BDBFF34F8F006892
:102C100000F070BA1029134607D1002803BFD24331
:102C2000D2B242EA032243EA032210467047000070
:102C30000000000000000000000000000000400054
:102C400010000000002200F019B80EE0026843688E
:102C5000024408305FEAC37C44BF4B445B1E52F819
:102C600004CB43F804CB091FF9D150F8041B002909
:102C7000ECD1704762F30F2262F31F4200B500BF30
:102C8000130096469446103928BFA0E80C50FAD895
:102C90005FEA417C28BF0CC048BF40F8042BC9073D
:102CA00028BF20F8022B48BF00F8012B00BD000010
:102CB0004AB1000011F8013B521E00F8013B1CBF55
:102CC00011F8013BF8E770477CB504460025FEF794
:102CD00003FA06460CB9012587E00021A165606D65
:102CE0000028F9D1204600F050FC41F28832DFF88C
:102CF000F413E26522689368E06825690B40616916
:102D00000343E06943EA0543491E43EA01230343C1
:102D100093602168CA68206A22F4E0220243CA60F4
:102D200020680169226B21F4F81141EA0241016136
:102D300021680B69606B1B0A40EA03230B61226860
:102D4000A16B5161206800220368616823F47C5301
:102D5000491E43EA012320210360E06D00903346C1
:102D600000F01AFA050040D12168CA68606A120AA8
:102D700040EA0222CA602068DFF86C1388421CBF58
:102D8000DFF86823904206D1E06D3346009000F0F2
:102D900001FA050029D12368DFF854231E68A168D1
:102DA000E06B16400E4306431E602268D2F80831DD
:102DB000A16AE06A23F0A0430B430343C2F8083141
:102DC0002068026842F001020260A069022804D172
:102DD0002068816841F002018160E068B0F1806F95
:102DE00007BF0121616502206065284676BDF8B500
:102DF00000F049F80746606D022806D1E068B0F19E
:102E0000806F10D100F044F8F2BD142803D1286877
:102E1000022805D107E02428F4D12968012902D02D
:102E200028680328EED100963B4600F0B3F940BB7A
:102E3000A0652946204600F08FFA0100E4D1A96B75
:102E400049B900963B460122022100F0A5F922680B
:102E500002215162F2BD296811B904216165F2BDF8
:102E6000012907D1616D242902D104226265F2BDD6
:102E70001421F3E70229C7D1616D1429F5D024216B
:102E8000ECE70220F2BD04460D461646FEF724B9D3
:102E900010210120A16570472DE9FC4105460C4633
:102EA0001646FEF719F98046286800F1500714B954
:102EB0000120082127E06A6D042A22D1006C401C01
:102EC000A864A96C69642C642868026822F04052E6
:102ED00001460A60009643460122042100F07BF877
:102EE000010011D1286C0178397000F069F8F1D136
:102EF0000096434600F06DF8010005D100F05AF845
:102F000002E001201021A965BDE8F681F8B505466B
:102F10000F461646FEF7E0F82B680446996CD3F886
:102F2000102103F1500017B90120082140E0D5F825
:102F300054C0BCF1040F39D11B6C5B1CAB64D5F8D9
:102F400048C0C5F844C001232F642F68D7F800C0DB
:102F500063F31D7CBE46CEF800C0EB68B3F1806F12
:102F600019D12A689164074600962346012206215A
:102F700000F031F801001CD13878296C087000F09D
:102F80001FF8F1D10096234600F023F8010010D17C
:102F900000F010F8F2BD2B6803F58077D7F800C079
:102FA0001CF4E06F0CBF3A619964DCE7012010214A
:102FB000A965F2BD2A680221022351626B65704740
:102FC0002A6C531C2B64A96C491EA964A86C0028A8
:102FD000704701220221284600F099B92DE9F843F3
:102FE00004460F461546FEF777F880462068866C43
:102FF000D0F81091606D042804BFF968B1F5800F16
:103000003AD10095434600F0C5F898BB216838686E
:10301000C1F8880023687A68C3F88020216838697D
:10302000C1F8900022681368B968F86823F0435328
:103030000B43034343F000531360E2682068B2F18E
:10304000806F05D000F580710A6812F4E06F01D03E
:10305000866401E0C1F810900095434601220821E2
:1030600000F09AF8010009D1226808210223516278
:10307000636503E0022001E0FFF70AFFBDE8F28389
:103080007CB505460C46FEF727F80346686D042814
:1030900023D1E96D002200912021FFF79CFF010060
:1030A0001ED1882169652268082A0BD12B686168C6
:1030B0001022C3F830112E68726229680B6843F43D
:1030C00080130B602B68DFF860241D6821681540B1
:1030D0000D4345F040551D6076BD10230120AB65C2
:1030E00076BD0000FCC0E0F80050005200A0005285
:1030F000BFFFFFFE7CB504460026FDF7EDFF054649
:10310000606D10F00C0F3FD0206801684A0710D5A1
:10311000036823F004030360E06C00F081FA08B157
:103120000420A065206D00F07BFA06001CBF04207F
:10313000A06521680A6A90061DD50B680A4602211F
:1031400043F002031360E06D00902B46012200F073
:1031500023F806001BD1216802202B464862E26D4D
:10316000009200F017F8060011D1206800F016F860
:10317000022060650BE00A4610461168022321F028
:1031800040510160636502E010210126A1653046CF
:1031900076BD0096002220212046B8E0016821F08B
:1031A0004051016070472DE9F04186B005460E465A
:1031B00018220021684600F0C7F9002400270C23DC
:1031C000DFF868131022086810F00200844618BF68
:1031D0004FF0010CCDF804C00868C00613D5D1F833
:1031E00000C05FEA8C6052BF0092702000901CE02B
:1031F0004FF0010E0DF1040848F800E0D1F800C0CE
:103200005FEACC6E06D45FFA87F813FB08F84DF836
:1032100008400AE0D1F800C05FEA4C6E46BF4FF0AC
:1032200070084DF800804DF800207F1CF8B201288E
:1032300011D80028C7D0D1F800C0D1F800E0584319
:103240000CF0010CCEF3400EF445D1D00DF1040E7C
:103250004EF80040D2E7DFF8D8321868C70704D527
:103260001C68640864001C600124DFF8C8723868B8
:10327000C00709D5D7F800E044F002044FEA5E0029
:103280004FEA400EC7F800E000200860D1F800C007
:10329000B2682CF47F00521E40EA024CC1F800C014
:1032A0002868984226D170680190306820B10D6876
:1032B00025F03005284308600198049A904203D114
:1032C0000D6845F001050D60012803D1086840F044
:1032D00002000860E10703D5186840F0010018609B
:1032E000A10703D5386840F001003860002006B01F
:1032F000BDE8F081B84208D17068049030680028B9
:10330000DAD00D6825F05005D4E70120EFE72DE96C
:10331000F04105460E4690461F46069C2868016A05
:1033200016EA010018BF0120404512D014F1010F28
:10333000F4D0FDF7D1FEC01B844201D3002CEDD1A7
:103340004FF400706865A96D032041F00101A96583
:1033500000E00020BDE8F0812DE9F04F04460D4665
:1033600020680022FFF71AFFA06830B921680B68B7
:10337000686823F0404303430B60296820680229F2
:1033800008D100F5C07700F5C47800F5C87C00F5D9
:10339000D07112E0032908D100F5A07700F5A478D8
:1033A00000F5A87C00F5B07107E000F5807700F526
:1033B000847800F5887C00F59071AB6C3B60E86A1E
:1033C00068B1D5F828E0C1F800E03E68EB6A696BA7
:1033D000286B26F47C161E430E4306433E60D8F845
:1033E00000E06B6C4FEA5E1043EA401EC8F800E054
:1033F000A96B29B1286818B9E96B2068491E0164D6
:10340000EB68E969002B65D00029D5F810E06E69FA
:10341000A86B39D0D5F82090D5F824A098B1D7F86A
:1034200000B0DFF8148108EA0B0B43EA0B033343C7
:103430004EEA030319434AEA01012B6C49EA0101F0
:103440000143194318E0D7F800803C4800EA08001F
:10345000034333434EEA030319434AEA010149EAAD
:1034600001013960E16AB1F1805F04BF6869082831
:1034700003D1396841F000613960A868CCF80000D8
:103480002368A96999644AE058B13C682C490C400A
:10349000234333434EEA03030343286C03433B6057
:1034A00014E0D7F8008043EA0E0333434FEA981044
:1034B00043EA80133B60E16AB1F1805F04BF686951
:1034C000082803D1396841F000613960A868CCF858
:1034D000000024E001B3A86BD5F82080D5F824C003
:1034E00068B1D7F800E0174B03EA0E0319434CEA22
:1034F000010148EA01010143286C014307E03E68ED
:1035000026F47C5631434CEA010148EA0101396056
:103510002168A869886402E008230122A365104697
:10352000BDE8F08F00000000F7FFFFCF00B40052AD
:103530000050005200A00052C0C0FFF0C0C0FFFF0A
:10354000C0FFFFF0FFC0FFF010B5044610460A466A
:103550000146204600F0AAF8204610BD80B50220A2
:1035600000F0D8F808B100F055FA2948016841F098
:103570000201016000680090009A00F01BF94FF40E
:103580008020BDE8024000F057BA18B5A7B0044645
:103590001422002101A8FFF7D7FF8422002106A8EA
:1035A000FFF7D2FF21681B4A91422ED10423402409
:1035B000069306A80994FCF77BFE08B100F02AFAEE
:1035C0001548016841F48041016002680092009B47
:1035D000016841F48051016002680092009BC1685B
:1035E00040F67F7341F40051C160C268009202222C
:1035F0000099029203220193002104920391092170
:10360000059101A9054800F01FFA28B010BD00007F
:103610005445025800A00052344502580034025864
:1036200070B50446FDF758FD06462CB304F14C0571
:10363000287A022802D02021E9601BE02068416935
:1036400041F00401416105202872206801698A0463
:1036500014D4FDF741FD801B0628F6D3E86803214A
:1036600040F01000E86029722879020602D5A86AA5
:103670000121017300222A70012070BD41694FF4BD
:10368000FE42012341F002014161042028722168B9
:10369000CA602B722879010605D5A86A012200218B
:1036A0000273236899640020287070BD62F30F22B2
:1036B00062F31F42401810F0030308D0C91A1FD349
:1036C000DB0748BF00F8012D28BF20F8022D1300AA
:1036D00030B414461546103928BF20E93C00FAD80A
:1036E000490728BF20E90C0048BF40F8042D890095
:1036F00028BF20F8022D48BF00F8012D30BC7047CC
:10370000C91818BF00F8012DCB0728BF00F8012DFC
:1037100070470000F8B50446DFF8A450A86800F030
:103720000700062805D0A96801F01F01A14224D096
:1037300021E0A86840F2E936400944EA4010A86058
:10374000FDF7CAFC07462868810705D4FDF7C4FCCD
:10375000C01BB042F7D30EE01E2C18BF1D2C0CD19D
:10376000FDF7BAFC0446A868C10306D4FDF7B4FC13
:10377000001BB042F7D30120F2BD0020F2BD38B5E6
:10378000DFF844402168490840EA410000F00FF8A2
:1037900005462068810708D4FDF79EFC401B40F2D7
:1037A000E9329042F5D3012032BD002032BD2060C5
:1037B000FDF792BC0348016841F400410160704785
:1037C000044802580C4802581448025838B584B0CE
:1037D000102200216846FFF7B7FEFEF784FA0121A8
:1037E00000228DF800101F218DF8012000238DF894
:1037F00008108722012101938DF809206846ADF851
:103800000A308DF80C108DF80D30ADF80E30FEF743
:1038100078FA01214FF0E0428DF801101A2101924F
:1038200000228DF8081001218DF8092003228DF85F
:103830000A1068468DF80B208DF80D108DF80E10CB
:103840008DF80F10FEF75DFA0420FEF741FA3D4AAD
:103850003D49106883030AD400F07FF800240C600F
:1038600000F07BF8106840F4003000F075F8136841
:10387000DC031ED400201067BFF34F8FD36EC3F359
:103880004E34C3F3C90543F6E07000EA441040EA41
:10389000857008612846451E0028F4D12046441E44
:1038A0000028EED1BFF34F8F106840F4803000F055
:1038B00053F800F0B1F800F055F82448244C0168A2
:1038C00041F40051016000680090009A00216846B0
:1038D0000C22FFF739FE1F48042120601F20616081
:1038E0000022206100200221A26061614FF08073FC
:1038F000A2610322E0614FF080512062A062206348
:103900006063A063E0632046E3606262E162FFF708
:10391000DBF908B100F07EF8102101220091694620
:10392000019241F288322046FFF73DFC08B100F0D9
:1039300071F800F043F900F05DF908B100F06AF8A1
:10394000FEE7000014ED00E050EF00E040450258B3
:103950009801002000A000521060BFF34F8FBFF30A
:103960006F8F704700B5AFB09C22002108A8FFF709
:10397000EBFD202200216846FFF7E6FD0120FFF75E
:10398000FEFE08B100F046F8012202210B9202224D
:103990001192102208914021139202220D914FF4AE
:1039A000967115920023169208A8179218921992F0
:1039B0001B920422149119211D9202220C9312933E
:1039C0001A931C931E911F9220922192229223926D
:1039D00024932593FDF786FB08B172B6FEE73F21DD
:1039E00003220091082103914021019204220591B4
:1039F0004FF48041049200234FF4806207910293B8
:103A0000362106926846FDF76FFD08B172B6FEE7F3
:103A10002FB000BD72B6FEE7032010B5FEF719F90E
:103A20000F200024FEF7E6F8002814BF0124FFF75A
:103A300095FD204610BD000000BF02490A681043F2
:103A400008607047100500582DE9F04F4FF000094D
:103A5000574A4FF0B0434FF00F0805460E469FE01F
:103A6000012000FA09FE1EEA010054D04FEA490184
:103A700003248C406FEA040C746804F00307012FE0
:103A80001CBF04F00304022C12D1AC68F7680CEAE6
:103A900004048F403C43AC606C6824EA0E077468F1
:103AA000C4F3001404FA09F444EA070EC5F804E06C
:103AB00034794FEA890E04F00304032C1ED0EC681D
:103AC000B7680CEA04048F403C43EC60347904F09E
:103AD0000304022C12D14FEAD90705EB87040EF03C
:103AE0001C0708FA07FBD4F820A02AEA0B0AD6F82C
:103AF00010B00BFA07F747EA0A0727622C680CEAAE
:103B00000407347904F0030404FA01F1394329600D
:103B1000716811F4403F41D04FEA9901DFF894C039
:103B2000254F5CF821C007EA95270EF00C0E08FA25
:103B30000EF42CEA040407FA0EF747EA040CDFF847
:103B400074E04EF821C0D3F800C07468C14301EAA4
:103B50000C0CE40248BF40EA0C0CC3F800C0D3F8D8
:103B600004C0746801EA0C0CA40248BF40EA0C0CC3
:103B7000C3F804C0D2F804C0746801EA0C0CA403B2
:103B800048BF40EA0C0CC2F804C0D2F800C0746808
:103B900001EA0C01E40348BF0143116009F1010986
:103BA000316831FA09F07FF45BAFBDE8F08F0000B7
:103BB00080000058300500587FFF290010B5012013
:103BC0000A4CFDF73BFAA0212046FFF73BF8002006
:103BD000074920700322616004202272FCF74AFF2B
:103BE00001460020BDE8104000F098B81000002009
:103BF0009801002080B500F00AF8010006D100F01D
:103C00001BF8010002D1BDE801403CE002BD1CB53B
:103C1000002469460094002000F0CCF818B1B0F1FF
:103C2000FF3F07D005E0002100F0A5F810B1032404
:103C300000E00224204616BD7CB569460020002421
:103C4000304D00F0B7F818B1B0F1FF3F0CD017E0DD
:103C5000009E304600F0D8F8002181423EBF725CE1
:103C60006A54491CF9D30CE0002000F0CDF803465B
:103C70002A460021002000F068F810B1042400E07A
:103C80000324204676BD38B500F0C2F800F040F8B5
:103C90001D4C1E49E068002220F40030E0600A60FC
:103CA00000F036F80020E067BFF34F8FE26822F49F
:103CB0008032E260BFF34F8FA26FC2F34E33C2F384
:103CC000C90543F6E07000EA431040EA8570486297
:103CD0002846451E0028F4D11846431E0028EED180
:103CE00000F016F8EFF3108572B600F099F8206036
:103CF000011D0968006880F3088885F310888847EB
:103D0000002032BD0000052408ED00E050EF00E087
:103D1000BFF34F8FBFF36F8F7047000038B50A466F
:103D20006FF0040478B9354D0024287848B9297A11
:103D3000686805F10C0300F077F820B16FF0020419
:103D400001E06FF00104204632BD38B56FF0040584
:103D500060B92A480025047834B90C3000F0B3F873
:103D600020B16FF0020501E06FF00105284632BD79
:103D700022480024704710B56FF00404C0B9FFF763
:103D8000F7FF027812B1032A0DD00FE021B90C30F1
:103D900000F0B4F820B90BE00C3000F0BFF838B1F7
:103DA0006FF0020010BD4FF0FF3401E06FF001042E
:103DB000204610BD02006FF0040000D0704730B5FF
:103DC0000E4A00201378002B18BF022B12D1526824
:103DD0000B4C1268A24203D14FF010430B6030BD70
:103DE000084DAA4203D14FF0E0420A6030BD6FF0A7
:103DF000020030BD6FF0010030BD00001000002057
:103E00000050005200A000524FF480507047000054
:103E10000248016821F002010160704710E000E0F3
:103E200000487047000005242DE9FF4104460D4677
:103E30009846164694214046FEF704FF08F15400C8
:103E40000027057021460772C6604046FEF772FCE7
:103E500002AB194A31464046FEF752FC4046FEF797
:103E6000D4FE00F02BF84046FDF780FF78B94046BD
:103E7000FEF70EF80A2000F073F84046FDF776FFD3
:103E800028B900F01BF84046FDF793FF10B14FF042
:103E9000FF370DE04046FEF75EF810B16FF0020705
:103EA00006E0AA2206216846FEF7E4FE00F006F8C6
:103EB000384604B0BDE8F08180F0FA02032269467A
:103EC0004046FEF75DBD2DE9FC410D460446164611
:103ED0001F4641F2883100F02AF8804650B9009719
:103EE00094F86E1033462A462046FEF780FD08B14E
:103EF0006FF001084046BDE8F68100001CB50024C3
:103F000000F16D0100940B78826C4978D2B2FEF713
:103F100037FE08B16FF00C04204616BD10B5002422
:103F2000FEF773FE08B16FF00C04204610BDFEB51D
:103F30000A4600F1640529786FF0040471B1012686
:103F40006B7801929E40F6B20096AF78EA7807FA55
:103F500003F3DBB2FEF7D0FD00B900242046FEBD1E
:103F600038B50446FDF7B8F814F1010F054602D044
:103F7000044801786418FDF7AFF8401BA042FAD35B
:103F800031BD00BF00000020000000000000000064
:103F90005A000000010000000000000000000000C6
:103FA00000000000000100000020000000000000F0
:103FB0000000000000000000000000000000000001
:103FC00000000001000000000000000008000000E8
:103FD0000000000030B4002512E050F8042BD30795
:103FE00044BF4A44521E091F042942F8045BFAD216
:103FF00013468C0744BF15809B1CC90748BF1D7022
:1040000050F8041B0029E8D130BC704710B50749AF
:1040100079441831064C7C44163404E00A68081DC3
:10402000114488470146A142F8D110BD2C00000080
:104030004C0000004EF68851CEF20001086840F4B2
:1040400070000860BFF34F8FBFF36F8F4FF00170A8
:10405000E1EE100A704700007DFFFFFF90020000B4
:104060001000002000000000E3EBFFFF1000000044
:10407000C4000000000000200000000004480549C2
:1040800008600548026842F4700202607047000050
:104090000000000808ED00E088ED00E000F00DF8F9
:1040A000002801D0FFF7B2FFAFF300800020AFF38C
:1040B0000080FFF78BFB00F002F80120704700F052
:1040C00001B800000746384600F002F8FBE70000A0
:1040D00080B5AFF30080024A11001820ABBEFBE7A9
:1040E000260002000548014603B4684680F30988AB
:1040F000AFF30080FFF79EFFFFF7D0FFA5EDF5FEC1
:10410000FEE7FEE7FEE7FEE7FEE770477047704711
:1041100000F000B80248416802788A18426070478F
:104120000000002001488047014800477D4000080A
:10413000E540000801000000000000001000000041
:104140000090D003FFF7FEBFFFF7FEBFFFF7FEBFF3
:10415000FFF7FEBFFFF7FEBFFFF7FEBFFFF7FEBF93
:10416000FFF7FEBFFFF7FEBFFFF7FEBFFFF7FEBF83
:10417000FFF7FEBFFFF7FEBFFFF7FEBFFFF7FEBF73
:10418000FFF7FEBFFFF7FEBFFFF7FEBFFFF7FEBF63
:10419000FFF7FEBFFFF7FEBFFFF7FEBFFFF7FEBF53
:1041A000FFF7FEBFFFF7FEBFFFF7FEBFFFF7FEBF43
:1041B000FFF7FEBFFFF7FEBFFFF7FEBFFFF7FEBF33
:1041C000FFF7FEBFFFF7FEBFFFF7FEBFFFF7FEBF23
:1041D000FFF7FEBFFFF7FEBFFFF7FEBFFFF7FEBF13
:1041E000FFF7FEBFFFF7FEBFFFF7FEBFFFF7FEBF03
:1041F000FFF7FEBFFFF7FEBFFFF7FEBFFFF7FEBFF3
:10420000FFF7FEBFFFF7FEBFFFF7FEBFFFF7FEBFE2
:10421000FFF7FEBFFFF7FEBFFFF7FEBFFFF7FEBFD2
:10422000FFF7FEBFFFF7FEBFFFF7FEBFFFF7FEBFC2
:10423000FFF7FEBFFFF7FEBFFFF7FEBFFFF7FEBFB2
:10424000FFF7FEBFFFF7FEBFFFF7FEBFFFF7FCBFA4
:10425000FFF7FEBFFFF7FEBFFFF7FEBFFFF7FEBF92
:10426000FFF7FEBFFFF7FEBFFFF7FEBFFFF7FEBF82
:10427000FFF7FEBFFFF7FEBFFFF7FEBFFFF7FEBF72
:10428000FFF7FEBFFFF7FEBFFFF7FEBFFFF7FEBF62
:10429000FFF7FEBFFFF7FEBFFFF7FEBFFFF7FEBF52
:1042A000FFF7FEBFFFF7FEBFFFF7FEBFFFF7FEBF42
:1042B000FFF7FEBFFFF7FEBFFFF7FEBFFFF7FEBF32
:1042C000FFF7FEBFFFF7FEBFFFF7FEBFFFF7FEBF22
:1042D000FFF7FEBFFFF7FEBFFFF7FEBFFFF7FEBF12
:1042E000FFF7FEBFFFF7FEBFFFF7FEBFFFF7FEBF02
:1042F000FFF7FEBFFFF7FEBFFFF7FEBFFFF7FEBFF2
:10430000FFF7FEBFFFF7FEBFFFF7FEBFFFF7FEBFE1
:10431000FFF7FEBFFFF7FEBFFFF7FEBFFFF7FEBFD1
:10432000FFF7FEBFFFF7FEBFFFF7FEBFFFF7FEBFC1
:10433000FFF7FEBFFFF7FEBFFFF7FEBFFFF7FEBFB1
:10434000FFF7FEBFFFF7FEBFFFF7FEBFFFF7FEBFA1
:10435000FFF7FEBFFFF7FEBFFFF7FEBFFFF7FEBF91
:10436000FFF7FEBFFFF7FEBFFFF7FEBFFFF7FEBF81
:0C437000FFF7FEBFFFF7FEBFFFF7FEBF28
:04000005080040E5CA
:00000001FF
