:020000040800F2
:1000000000040020A53F0008813F0008833F00084E
:10001000853F0008873F0008893F00080000000076
:100020000000000000000000000000008B3F0008FE
:100030008D3F0008000000008F3F0008913F00083E
:10004000D53F000800000000D93F0008DD3F000850
:10005000E13F0008E53F000800000000000000004C
:10006000E93F0008ED3F0008F13F000800000000F4
:1000700000000000F53F0008000000000000000044
:10008000F93F0008FD3F0008014000080540000856
:10009000094000080D400008114000081540000804
:1000A000194000081D4000082140000825400008B4
:1000B000294000082D400008314000083540000864
:1000C000394000083D400008414000084540000814
:1000D000494000084D4000085140000855400008C4
:1000E000594000085D400008614000086540000874
:1000F000694000086D400008714000087540000824
:10010000794000087D4000088140000885400008D3
:10011000894000088D400008914000089540000883
:10012000994000089D400008A1400008A540000833
:10013000A9400008AD400008B1400008B5400008E3
:10014000B9400008BD400008C1400008C540000893
:10015000C9400008CD400008D1400008D540000843
:10016000D9400008DD400008E1400008E5400008F3
:10017000E9400008ED400008F1400008F5400008A3
:10018000F9400008FD400008014100080541000851
:10019000094100080D4100081141000815410008FF
:1001A000194100081D4100082141000825410008AF
:1001B000294100082D41000831410008354100085F
:1001C0000000000000000000394100083D41000827
:1001D0004141000845410008494100084D410008DF
:1001E0005141000855410008594100085D4100088F
:1001F00061410008654100080000000000000000A7
:10020000694100086D41000871410008754100080E
:10021000794100087D4100088141000885410008BE
:10022000894100088D41000891410008954100086E
:10023000994100089D410008A1410008A54100081E
:10024000A9410008AD410008B1410008B5410008CE
:10025000B9410008BD410008C1410008C54100087E
:10026000C9410008CD410008D1410008D54100082E
:10027000D9410008DD410008E1410008E5410008DE
:10028000E9410008ED410008F1410008F54100088E
:10029000F94100080000000000000000000000001C
:1002A000FD4100080142000805420008094200081B
:1002B0002DE9F041044600262068B046DFF8A45737
:1002C000410313D5286E10F440701EBFE16F01F496
:1002D000407188422CD0DFF89007026842F48072A7
:1002E00002600068C10517D40126B0462078C10716
:1002F00054D56268032A4FD8DFE802F005024A05A8
:1003000000F0A1FBE861300047D1E96B6068890823
:1003100040EA8101E96341E0286E296E41F48031B1
:1003200029662A6E20F4407022F480322A662866FC
:10033000E06FB0F5807F0ED100F0D4FE0746286E46
:10034000810708D400F0CEFEC01B41F289329042F2
:10035000F5D30326C9E7E06F10F47C3F09D0296884
:10036000DFF8082702EA101221F47C5111432960BA
:1003700003E0286820F47C502860296EE06F00F4C8
:10038000407001432966296E41F400412966ADE7BA
:10039000E86940F48020B5E70126B046207881075F
:1003A0001AD5A26842B1102A02D0202A0DD011E03D
:1003B000E86940F40020E86130000CD1E96BA068E6
:1003C00021F030010143E96306E0E96941F480115D
:1003D000E961F1E70126B046207841071AD5E268C5
:1003E00042B1402A02D0802A0DD011E0E86940F4E1
:1003F0000020E86130000CD1E96BE06821F0C00119
:100400000143E96306E0E96941F48011E961F1E73C
:100410000126B0462078010705D5EA6B206922F055
:1004200040520243EA6321688A0217D5606D10B119
:1004300004280DD010E0E96941F400213000E961A1
:100440000BD1E96B606D21F004010143E96305E024
:10045000E96941F48011F1E70126B0462078C10630
:1004600018D5626932B1B2F1807F0ED0B2F1007F4F
:1004700002D00DE000F0F0FA30000AD1E96B6069BB
:1004800021F040710143E96304E000F0C4FAF3E7AE
:100490000126B0462078810622D5A26982B1B2F544
:1004A000801F0BD0B2F5001F13D0B2F5401F1CBF48
:1004B000B2F5800FB2F5A00F02D00FE000F0CCFA39
:1004C00030000CD1E96BA06921F4E0010143E9633C
:1004D00006E0E96941F00061E961F1E70126B04613
:1004E0002078410605D52A6CE06922F0405202438B
:1004F0002A6421780A0605D5EB6B206A23F4403381
:100500000343EB632168CA0513D5606A30B1B0F5C7
:10051000802F0CD1E96941F08041E961300007D1B9
:10052000E96B606A21F480210143E96301E001265F
:10053000B0462168880519D5A26A4AB1B2F5800F84
:1005400003D0B2F5000F0CD00EE000F07CFAE861A9
:1005500030000AD1296CA06A21F4400101432964CA
:1005600004E000F062FAF3E70126B04620680105D6
:1005700018D5E26A5AB1B2F5805F06D0B2F5005FD5
:1005800018BFB2F5405F02D00AE000F057FA300021
:1005900007D1296CE06A21F440510143296401E04C
:1005A0000126B0462168480518D5226B5AB1B2F52C
:1005B000807F06D0B2F5007F18BFB2F5407F02D031
:1005C0000AE000F03BFA300007D1296C206B21F4DF
:1005D00040710143296401E00126B0462168C80446
:1005E00020D5626B82B1B2F5803F0BD0B2F5003FEF
:1005F00013D0B2F5403F1CBFB2F5802FB2F5A02F4B
:1006000002D00DE000F028FA30000AD1296C606BAE
:1006100021F4E0210143296404E000F0FCF9F3E750
:100620000126B0462068810420D5A26B82B1B2F5C4
:10063000807F0BD0B2F5007F13D0B2F5407F1CBF96
:10064000B2F5806FB2F5A06F02D00DE000F004FAB1
:1006500030000AD1A96CA06B21F4E0610143A964C8
:1006600004E000F0D8F9F3E70126B0462068410421
:1006700020D5E26B82B1B2F5805F0BD0B2F5005F9E
:1006800013D0B2F5405F1CBFB2F5804FB2F5A04F5A
:1006900002D00DE000F0E0F930000AD1A96CE06B67
:1006A00021F4E0410143A96404E000F0B4F9F3E768
:1006B0000126B0462068010417D5226C052A12D8FD
:1006C000DFE802F005030E05050500F0C0F9300073
:1006D0000AD1A96C206CC90840EAC101A96404E0F0
:1006E00000F09EF9F3E70126B0462068C10303D568
:1006F000EA6942F00052EA612068810312D5A26CD7
:100700001AB1B2F1006F02D00AE000F097F93000A0
:1007100007D1E96BA06C21F000610143E96301E0BE
:100720000126B0462168080322D5E26C62B1B2F519
:10073000803F15D0B2F5003F15D0B2F5403F18BF4D
:10074000B2F5802F03D011E000F07DF9E8613000B0
:100750000DD1696CE06C21F4E0210143696407E08C
:1007600000F063F9F3E700F065F9EFE70126B04622
:100770002068C10224D5226D72B1B2F5801F17D056
:10078000B2F5001F17D0B2F5401F1CBFB2F5800FA5
:10079000B2F5A00F03D011E000F055F9E861300088
:1007A0000DD1696C206D21F4E0010143696407E01B
:1007B00000F03BF9F3E700F03DF9EFE70126B04622
:1007C0002068410222D5A26E4AB1B2F1807F12D0D8
:1007D000B2F1007F14D0B2F1407F03D014E000F0FA
:1007E00032F9E861300010D1296CA06E21F040711F
:1007F000014329640AE0E96941F48021E961F1E7F4
:10080000E86940F00050ECE70126B046206801029C
:1008100022D5A26D62B1B2F5807F15D0B2F5007F0E
:1008200015D0B2F5407F18BFB2F5806F03D011E04C
:1008300000F009F9E86130000DD1696CA06D21F478
:10084000E0610143696407E000F0EFF8F3E700F0CE
:10085000F1F8EFE70126B0462068C1011ED5E26D30
:1008600042B1102A12D0202A13D0302A18BF402AB1
:1008700003D011E000F0E7F8E86130000DD1296CF9
:10088000E06D21F070010143296407E000F0CDF82C
:10089000F3E700F0CFF8EFE70126B04620688101CA
:1008A0001BD5226E5AB1102A07D0202A10D0302A28
:1008B0001CBF402A502A02D00DE000F0C8F83000DA
:1008C0000AD1696C206E21F070010143696404E073
:1008D00000F0A6F8F3E70126B046206841011BD5D9
:1008E000626E5AB1102A07D0202A10D0302A1CBFBD
:1008F000402A502A02D00DE000F0A9F830000AD1B9
:10090000A96C606E21F070010143A96404E000F05D
:1009100087F8F3E70126B0462068C10017D5E26EDC
:10092000052A12D8DFE802F005030E05050500F0E0
:100930008EF830000AD1696CE06EC90840EAC10146
:10094000696404E000F06CF8F3E70126B046206823
:10095000810017D5226F052A12D8DFE802F00503BF
:100960000E05050500F073F830000AD1296C206FE0
:10097000C90840EAC101296404E000F051F8F3E736
:100980000126B0462068410017D5626F002A18BFC3
:10099000B2F5805F06D0B2F5005F0CD1E86940F097
:1009A0008050E861300007D1E96B606F21F440515D
:1009B0000143E96301E00126B046216800291AD508
:1009C000A26F6AB1B2F5804F06D0B2F5004F18BFE2
:1009D000B2F5404F04D00CE0E86940F08050E86187
:1009E000300007D1E96BA06F21F440410143E96376
:1009F00001E00126B04621680A0106D52B68D4F82B
:100A0000800023F4004303432B605FEA080018BF13
:100A10000120BDE8F081E96941F00051E9617047CA
:100A2000E96941F08051E9617047E96941F4803139
:100A3000E9617047E86940F000607047E86940F09C
:100A40000050E8617047E86940F040007047E8698D
:100A500040F40030E8617047E86940F48030E861B4
:100A6000704700001044025800480258CFFFFF0FA3
:100A7000014600200129DFF850C6F8B54FF4FA47C7
:100A8000DFF84836DFF848464FF40045DFF84466A3
:100A9000DFF8442671D0022900F08180042900F09B
:100AA0008D80082900F0A680102900F0B080202950
:100AB00000F0B880402900F0DD80802900F0E88057
:100AC000B1F5807F00F0F580B1F5007F00F0008186
:100AD000B1F5806F00F00F81B1F5006F00F0188163
:100AE000B1F5805F00F02481B1F5005F00F0348142
:100AF000B1F5804F00F04481B1F5004F00F0558111
:100B0000B1F5803F00F05E81B1F5003F00F05E81FD
:100B1000B1F5802F00F06181B1F5002F00F09081D8
:100B2000B1F5801F00F09C81B1F5001F00F0A88195
:100B3000B1F5800F00F0B681B1F5000F00F0D08163
:100B4000B1F1807F00F0DC81B1F1007F00F0028222
:100B5000B1F1806F00F00D82B1F1805F00F01F8273
:100B6000B1F1005F00F02982B1F1804F00F05182B5
:100B7000B1F1004F00F06182F2BDDCF8001001F429
:100B8000E041B1F5A04F20D0D16C01F00301032961
:100B9000F2D8DFE811F05E00C20195012802DCF80E
:100BA000001001F0700140290FD0D16C11F030011C
:100BB0004FD0102916D0202918D0F2BDDCF8001033
:100BC00001F4E061B1F5806F03D100F00AFE800806
:100BD000F2BDD16C11F0C0013BD0402902D0802978
:100BE00004D0F2BDD16AC90ACA054FE1D16AC90A67
:100BF0008A0552E1D16C11F0405100F0F481B1F15D
:100C0000805F00F0FC81B1F1005FEAD1C4E1D16CFA
:100C100011F040710CD0B1F1807F00F05981B1F139
:100C2000007F78E1D16C11F4E00112D0B1F5801FA2
:100C300000F07A81B1F5001F00F07E81B1F5401F10
:100C400000F08581B1F5800F07D0B1F5A00F07D076
:100C5000F2BDBDE8F14000F0C4BD1168CA05D0E1A5
:100C600014686107F4D51568AC06F1D51168C1F3B5
:100C7000C101C1E1116D11F0405166D0B1F1805F49
:100C800066D0B1F1005F00D0F2BD1268D305B8E1C3
:100C9000D16C01F44031B1F5803F1CD0B1F5003F7B
:100CA00006D1D16C11F4802115D0B1F5802F07D079
:100CB000F2BDD16C11F480210DD0B1F5802FF7D1A8
:100CC000D36A9B0DD905F3D5BDE8F14000F00BBE0A
:100CD000116D11F4400100F0C881B1F5800F03D00F
:100CE000B1F5000F03D0F2BDD36A590617E1D26AFD
:100CF000D20A91061BE1116D11F440711BD0B1F5C0
:100D0000807F47D0B1F5007F0BD0B1F5407F0CE07C
:100D1000116D11F440510ED0B1F5805F3AD0B1F5AC
:100D2000005F00F06081B1F5405F00F06881F2BDC6
:100D3000116D11F4E02100F04A81B1F5803F11D02E
:100D4000B1F5003F26D0B1F5403F5FD0B1F5802F1F
:100D50005FD0B1F5A02FDEE0916D11F4E06112D00B
:100D6000B1F5807F00F0E080B1F5007F12D0B1F5E1
:100D7000407F4BD0B1F5806F4BD0B1F5A06FCAE08A
:100D8000916D11F4E04100F00381B1F5805F5DD019
:100D9000B1F5005F00F09C80B1F5405F36D0B1F551
:100DA000804F36D0B1F5A04FB5E0916D01F007014D
:100DB000052932D8DFE811F0EC000F0151011701CD
:100DC00023012801D36A9B0D190684E0D16C11F030
:100DD000006170D0B1F1006F9DE0116F01F44071BE
:100DE000B1F5407F06D11169090101F47C3141F46C
:100DF000407102E0116F01F4407100290DD0B1F58E
:100E0000807F03D0B1F5007F03D007E0116F8A0720
:100E1000FCE0536F990700D53846F2BD146F04F417
:100E20004074B4F5407FF8D111688B03F5D5116992
:100E3000C1F30521022902D33046B0FBF1F0F2BD27
:100E4000516D11F4E02168D0B1F5803F6CD0B1F55F
:100E5000003F71D0B1F5403F0ED0B1F5802F5AE080
:100E6000516D11F4E00158D0B1F5801F5CD0B1F59F
:100E7000001F61D0B1F5401F69D0B1F5800F4AE085
:100E8000D16CD26A490706D4D20AD10517D5BDE87C
:100E9000F14000F001BDD20A910510D5BDE8F14046
:100EA00000F003BD116D11F0407136D0B1F1807FBB
:100EB00006D0B1F1007F0BD0B1F1407F53D0F2BD2D
:100EC000D16AC90A0A06FAD5BDE8F14000F0DEBCD5
:100ED000D16A890D0A06F2D5BDE8F14000F0FDBCEB
:100EE000516D11F4E06118D0B1F5807F1CD0B1F5DF
:100EF000007F21D0B1F5407F29D0B1F5806F0AE0A5
:100F0000116D11F0700108D010290DD0202913D0D7
:100F100030291CD0402917D0F2BDD16A4A06FBD532
:100F2000BDE8F14000F095BCD16AC90A8A06F3D544
:100F3000BDE8F14000F097BCD16A890D8A0608D55A
:100F4000BDE8F14000F0BBBCBDE8F14098E04BF6D5
:100F50008030F2BD516D11F070012AD010293AD0C5
:100F600020290DD030293ED0402948D05029F0D139
:100F700012E0916D11F070010AD010292BD02029B8
:100F80006BD030292FD0402939D0502904D0F2BD60
:100F9000BDE8F14000F050BC1268910367E0516D6C
:100FA00001F00701052964D8DFE801F00315571D9A
:100FB000292EBDE8F14000F032BC116D01F00701AF
:100FC000052956D8DFE801F00307490F1B20BDE8CB
:100FD000F14000F017BCD16AC90A4A0649D5BDE8FC
:100FE000F14000F049BC11684C0742D51568A906CC
:100FF0003FD51268C2F3C10123FA01F0F2BD1168B6
:10100000CB0536D52046F2BD126F910731D5284663
:10101000F2BDD16C11F4405127D0B1F5805F03D0FF
:10102000B1F5005F05D0F2BD1368990321D52B48B7
:10103000F2BDD26A920D510612E0D16C11F440411A
:1010400006D0B1F5804F08D0B1F5004F0DD0F2BDFC
:1010500011688A040DD52248F2BDD16A890D4A066D
:1010600007D5BDE8F14000F02EBC11688A0348BFE7
:101070003046F2BD14490A68FFE710430860704724
:1010800010B5154A0020D16C11F040510BD11168F8
:101090004B0717D51468A10614D512680B48C2F384
:1010A000C101C84010BDB1F1805F04D11168CA050B
:1010B00008D5074810BDB1F1005F03D111688A035C
:1010C00048BF044810BD0000004502580090D003FE
:1010D00000093D0000366E0100440258001BB700B5
:1010E000006CDC0201484068704700BF000000242B
:1010F0002DE9F843070064D0DFF80858D5F81080D0
:10110000AE6A2C683878C10708F0380806F0030684
:1011100004F0285409D5B8F1100F03D0002C6CD07E
:10112000022E6AD1786800284BD039788A073AD5E0
:10113000B8F1000F05D0002C00F0B580002E40F073
:10114000B280F86800283CD0286800F0180026B962
:10115000002C1CBF396988421CD12A68386922F0EA
:101160001902024342F00102B8F1000F2A600BD1CC
:101170002B680122DFF89C17C3F3C1008240B1FB4A
:10118000F2F0DFF88C170860DFF88027106800F0B5
:10119000F3FC002840F09D816868796920F0FE40EA
:1011A00040EA016068603878C1060CD5B8F1080FD4
:1011B00005D0002C00F0A780012E40F0A480386AF2
:1011C000002800F0868139780A0740F1D080B8699C
:1011D000002800F0BC80696F41F001016967FFF7EA
:1011E00081FF0446686F810700F1C180FFF77AFF35
:1011F000001B0228F6D303206EE17868B0F5803F2B
:1012000004D1286840F48030286031E058B929685A
:1012100021F480312960286820F4002028602A68A1
:1012200022F4802223E0B0F5A02F07D1286840F4F3
:1012300080202860296821F4002109E0B0F5502FB2
:1012400028680AD140F480202860296841F40021F0
:1012500029602A6842F4803209E020F48030286056
:10126000296821F4802129602A6822F400222A605A
:10127000FFF738FF8146786850B129688A033FF547
:1012800054AFFFF72FFFA0EB09006528F5D3B2E7B5
:10129000286881037FF549AFFFF724FFA0EB090021
:1012A0006528F5D3A7E7F868D8B12A68396922F02C
:1012B000190210430843286068687A6920F0FE40EC
:1012C00040EA02606860FFF70DFF81462868410729
:1012D0003FF569AFFFF706FFA0EB09000228F5D341
:1012E00089E72868400840002860FFF7FBFE814638
:1012F000296848077FF557AFFFF7F4FEA0EB090018
:101300000228F5D377E7386A80B1296841F0800177
:101310002960FFF7E7FE04462868C1053FF553AF93
:10132000FFF7E0FE001B0228F6D364E7286820F0F0
:1013300080002860FFF7D6FE04462968C8057FF5BF
:1013400042AFFFF7CFFE001B0228F6D353E7686FCA
:10135000400840006867FFF7C5FE0446686F8107D4
:1013600005D5FFF7BFFE001B0228F7D343E7397806
:101370008A0621D5F86978B1296841F4805129603D
:10138000FFF7B0FE04462868810415D4FFF7AAFED3
:10139000001B0228F7D32EE7286820F4805028602D
:1013A000FFF7A0FE04462968880405D5FFF79AFEDA
:1013B000001B0228F7D31EE7387841074AD5DFF82B
:1013C0007007026842F480720260B868012817D082
:1013D00040B9286F4008400000F080F8286F20F0E6
:1013E000040010E0052804D100F07EF821F080010F
:1013F00005E0852809D100F077F841F080012967E0
:10140000286F40F00100286708E0296F490849006B
:101410002967286F20F0040000F060F8B86841F2F6
:10142000893458B1FFF75EFE0646286F810711D454
:10143000FFF758FE801BA042F7D3DCE6FFF752FE11
:101440000646286F810705D5FFF74CFE801BA0429A
:10145000F7D3D0E6786A48B3B8F1180F1ED1012847
:1014600037D0686BB96CC0F3CC0081421ED0E86AFB
:1014700040084000E862FFF735FE0446FFF732FE01
:10148000001BFBD0686BB96C6FF3CF0040EAC10062
:101490006863E86A40F00100E86207E0012100208B
:1014A000796407F1240100F037FA90B9F86C28B19B
:1014B00007F14C01012000F02FFA50B9786F50B1BC
:1014C00001210220C7F8941007F1740100F024FAFA
:1014D00008B1012000E00020BDE8F2832867296FF1
:1014E00021F0800129677047286F40F004002867C9
:1014F000296F70472DE9F0410400884656D0DFF887
:101500000854286800F03F00404502D200F0D7F8A8
:101510007AD12078DFF8EC63410706D52069326A7A
:1015200002F00702824200F0C3F82078010706D5D6
:101530006069326A02F07002824200F0B2F82078EC
:10154000C10606D5A069326A02F4E062824200F068
:10155000A1F82078810606D5E069326A02F4E042FB
:10156000824200F090F82078810706D5E068F269A1
:1015700002F00F02824200F07FF82078C10731D5D7
:10158000B269A068120940EA0212B26160680228DA
:1015900002D131688A0308E0032802D131688A0148
:1015A00003E0012803D13168CA0503D42CE0336875
:1015B000590729D53269D20840EAC2003061FFF7E5
:1015C00091FD07463069616800F03800B0EBC10F4B
:1015D00008D0FFF787FDC01B41F289329042F1D35A
:1015E000032047E02078810706D5E068F26902F021
:1015F0000F02904200F040F8286800F03F0080455C
:1016000004D200F05CF801D0012033E020784107DB
:1016100006D52069326A02F00702904200F048F8CD
:101620002078010706D56069326A02F070029042A4
:1016300000F037F82078C10606D5A069326A02F4B6
:10164000E062904200F026F82078810606D5E06935
:10165000326A02F4E042904200F015F800F03AF8E5
:10166000DFF8AC120860DFF8A4020068BDE8F041C2
:1016700000F082BABDE8F08104D2F169090940EABC
:101680000110F061704704D2316A21F4E04108434F
:101690003062704704D2316A21F4E061084330625D
:1016A000704704D2316A21F07001084330627047FC
:1016B00004D2316AC90840EAC10030627047296823
:1016C000890948EA811129602A6802F03F024245EF
:1016D0007047000030B5DFF82C32DFF838021969A6
:1016E00011F0380104D010290AD018290BD06EE06F
:1016F0001A68940669D51968C1F3C101C84068E049
:10170000DFF8340465E09C6A996ADD6A5A6B05F07B
:101710000105C1F30511C2F3CC025543002900EEC7
:10172000105AB8EE400A50D014F0030400EE901A9C
:10173000F8EE600A02D0022C20D022E019688A0656
:1017400019D51968DFED6B1AC1F3C101C84001EE6C
:10175000100A186BB8EE411AC1EE200AC0F3080057
:1017600001EE100AB8EE411A00EE211AB7EE000A97
:1017700031EE000A18E09FED600A17E09FED5F1A56
:1017800001E09FED5F1A186B9FED5A2AC1EE200A07
:10179000C0F3080001EE900AF8EE611A40EE021A5A
:1017A000B7EE000A31EE800A20EE800A186BC0F313
:1017B0004620401C00EE900AF8EE600A80EE200AF7
:1017C000BCEEC00A10EE100A03E0002001E0DFF8D2
:1017D0006C03996901F00F01082924BFC91FC84093
:1017E00030BD80B5FFF776FFDFF85413096801F0CC
:1017F0000F01082905D30FF278320A4412F8081CA9
:10180000C84002BD80B5FFF7ECFFDFF83813096868
:1018100001F00701042924BFCA1ED04002BD80B5D3
:10182000FFF7DFFFDFF81C130A68C2F30211042977
:1018300024BFCB1ED84002BD80B5FFF7D2FFDFF832
:1018400004130A68C2F30221042924BFCB1ED84026
:1018500002BD10B500F003F8C4F3064108E0DFF85C
:10186000E802046822E110B500F00CF8C4F3462148
:10187000491CB0FBF1F010BD10B500F003F8C4F343
:101880000641F5E7DFF8C80204681CE110B5FFF770
:10189000F9FFC4F30661EBE710B500F00CF804F0B3
:1018A0000704641CB0FBF4F010BD10B500F003F8A1
:1018B000C4F30221DCE7DFF89C02046803E110B501
:1018C00000F007F8D2E710B500F003F8C4F30641C2
:1018D000CEE7DFF8840204681DE110B5FFF7F9FFD9
:1018E000C4F30661C4E710B5DFF87002046800F0C5
:1018F00012F9D4E70000003900000000001BB74BCC
:101900000024744A004402580020005208000024B9
:101910000C0000240090D0032DE9F84F04460B275B
:101920000D46894800EBC40167430091814EF06A7F
:101930004FF47871854AB94002EB84084FEA440AB3
:101940008843F0624FF08070326800FA0AF922EAA8
:1019500009023260FFF7C6FB83464FF0007000FAC1
:101960000AFA316811EA0A0F07D0FFF7BBFBA0EBB8
:101970000B003328F5D3032096E02868E200121DFF
:101980004FF47C73022840F0868068686B4940B948
:10199000D6F800C0DFF8C8E1CCF3C10C2EFA0CFE7B
:1019A00004E002280CBFDFF890E18E46D5F808C0AD
:1019B000DFF8B0B1BEFBFCFEDE4528BF4FF0180ECD
:1019C0000BD28E4528BF4FF0100E06D266498E45C9
:1019D0002CBF4FF0080E4FF0020ED6F828B0E100F1
:1019E0008B4043F003030CFA02F22BEA030101439C
:1019F0000A43B262B26A02F00302824218BF0120B7
:101A000052D1F06A1B21B94088430EFA07F141EA2E
:101A1000000EC6F82CE0EA6828696969521E401E6B
:101A200042EA4022491EA86942EA01420099401E4A
:101A300042EA00620A60E8692A6A401E521E40EAD1
:101A40000220C8F800001CB9F06A40F02000F062E3
:101A5000686A70B1454901EBC4010A686FF3CF02AF
:101A600042EAC0020A60F06A012101FA07F707435F
:101A7000F762326849EA0209C6F80090FFF732FBC4
:101A80000446306810EA0A0F0DD1FFF72BFB001B4C
:101A90003328F6D36FE7B06A03FA02F220EA0202B3
:101AA00042F00302B2620020BDE8F28F30B5214A55
:101AB000936A106BC3F3051109B9002030BDDC0730
:101AC00048BF556B0BE030B51A4A936A906BC3F36D
:101AD000053109B9002030BD1C0548BFD56B13F096
:101AE000030303D0022B0AD00BD30CE013689C062F
:101AF00009D512681A4BC2F3C102D34004E00E4B61
:101B000002E00E4B00E00023C0F30800401CB3FBD2
:101B1000F1F1484330BD30B5064A936A106CC3F307
:101B2000055109B9002030BD5C0248BF556CD6E7AD
:101B3000004802580044025800366E0100093D007A
:101B40001C4402582044025830440258C0440258F1
:101B500038440258C444025840440258C844025809
:101B60000090D00300127A0080841E003444025892
:101B7000010203040607080970B504460D4E3078CB
:101B80000025A0B14FF47A710B4AB1FBF0F1106857
:101B9000B0FBF1F000F04AF848B9102C07D200224F
:101BA00021464FF0FF3000F023F8B46000E001253B
:101BB000284670BD000000240C000024090102002A
:101BC00002D4454881547047444B02F00F021A4436
:101BD00002F8041C7047424B4FF6FF0219680002DE
:101BE00000F4E060114008433E4908431860704724
:101BF00070B53B4B1C68C4F302230124C3F10705F5
:101C0000052D2EBF0F2504FA05F56D1E1E1D072E8E
:101C100034BF0023DB1E2940994004FA03F35B1E06
:101C20001A401143BDE87040C8E70000401EB0F103
:101C3000807F10B501D3012010BD2B4C0F216060B7
:101C40004FF0FF30FFF7BAFF00220721A26000200B
:101C5000216010BDBFF35F8F244940F00100086789
:101C6000086840F48030086008E0BFF35F8F1F48C9
:101C70000022016821F4803101600267BFF34F8FB9
:101C8000BFF36F8F704710B5427819490A608B68AF
:101C90005B085B008B608A68520852008A60436868
:101CA0004B60C37A027B447B1B0643EA0273827A51
:101CB00043EAC243827B43EA8443C47B43EA424310
:101CC000427A43EA0443047A007843EA022343EA6F
:101CD000440303438B6010BD00E400E018ED00E016
:101CE0000CED00E00000FA0510E000E024ED00E05B
:101CF00098ED00E00FF654117CB5D1E900230446BD
:101D00000025CDE90023DFF8F8681DF805006D1CFB
:101D100004F15C02002184F85C002046EDB200F082
:101D2000DFFC40B93146204600F018FB010003D02B
:101D3000052DEAD376BD0E2076BD2DE9F84F8246FB
:101D40004FF00009DFF8BC48CAF88C907821204693
:101D50000825002700F03CFFDFF8A4880AF18C0B6F
:101D600012E00C2629467E435046A21900F00FFBD4
:101D70005FEA00094DD1DBF80000A1597F1C08354E
:101D8000FFB20843CBF8000098F80600401C8742D9
:101D9000E7D30020CDF800A0DFF86C580C2682466F
:101DA0000BE03868082804D1286CC0F30520CBF874
:101DB00004000AF101005FFA80FA06FB0AF0271816
:101DC000386830B3002208283B7A0CD040280DD068
:101DD000802811D0B0F5007F0BD0B0F5805F08BF30
:101DE00008F108020AE02B602A1D07E008F1400212
:101DF00004E0DFF8182801E008F12802002AD0D01A
:101E0000796800989B0000F053FD0028C9D04FF07E
:101E10000B094846BDE8F28F2DE9F04780460626BB
:101E20004FF008094FF0000ADFF8D877DFF8D057F5
:101E300003E009F108090AF1010AA9795FFA8AF0B9
:101E4000491C88421AD23A464946404600F09FFA59
:101E5000040013D138680828EBD13B7A7968DFF8A1
:101E6000A85740462A1D9B0000F022FD30B9296C7E
:101E70000A0AC1F3052018B9002615E00B242BE04F
:101E8000C1F3002008B101260EE0900748BF0226EA
:101E90000AD4510748BF032606D4100748BF0426BA
:101EA00002D4D10648BF0526900612D4A6B1761EEC
:101EB000032E0ED9361F0ED1002300226621404684
:101EC00000F0AEFD002300229921404600F0A8FD5D
:101ED00002E00E2400E001242046BDE8F0872DE951
:101EE000F84F84B0814609F174064FF000088DF870
:101EF0000880B069C346010758BF4FF0060809D5EE
:101F0000400605D5DFF800777868C0F3414010B986
:101F10004FF00708FDE1B868002804D4401CB0FA6F
:101F200080F0C0F11F00C01E09F154046070431E10
:101F30008DF809300DF10902052100F0FCF9F86A6D
:101F40000123C0F3031083406360396A2177386A44
:101F5000000A6077396A090CA177386A000EE077C9
:101F6000796A3170786A000A7070796A090CB17008
:101F70007A6A120EF270607F0FF2D86250B1B86ABE
:101F8000C0F30411491C00F00F03C0F3412000F01E
:101F9000C4F97360E07F50B1B86AC0F3C421491C32
:101FA00000F00F03C0F3014000F0B7F9B3607078A0
:101FB00050B1B86AC0F38441491C00F00F03C0F36C
:101FC000C15000F0AAF9F360F07858B1B86AC0F3D4
:101FD00044635B1C00F00F01800F32F8100059437E
:101FE00041433161F86A97F82810C0F30462521C2B
:101FF000C0F3417001F00F0151430FF2606252F8DB
:102000002000414371610521617521747868C0F336
:102010000010002814BF502006202075386C10F0E6
:10202000030F41D110F00F0F3CD050202075B16943
:10203000DFF8D8558A053CD52969C80F16D0090A9A
:102040002174E87C00F0070060742969890F01F0B1
:102050000101A1742969C1F3007038B1C90E01F002
:102060000101E174E87C00F0070060746969C80F41
:1020700028D0090A6175E87D00F00700A07569693C
:10208000890F01F00101E1752869C0F30070C8B142
:102090006969C90E01F001012176E87D00F00700B1
:1020A000A0750FE0C10601D50620BFE74FF0090873
:1020B0002FE1B96BC1F38000A0B100206074A0745F
:1020C0006074A0740221DFF838A5A176B069C1045C
:1020D0004CD52278032A49D1207A05280FD14FF018
:1020E000010B2AE08908880706D57021072261754F
:1020F0000020A275E075E3E74FF0080809E14846C3
:1021000000F0C3F9C8B9052009F15C022072002172
:1021100048464FF0010B00F0E3FA00284ED19AF840
:102120000700FD2802D1142100F002F99AF80700F7
:10213000FE2802D1082100F0FBF8307E010710D5FF
:102140003A68102A0DD9B96C490F11F0030102D079
:10215000012904D055E001228DF8082001E08DF816
:10216000088002AA042100F0E6F838BB307E410660
:1021700076D5BBF1000F0CD1396CC1F3006000B310
:1021800000F0D0F8D0B900F0D9F8B8B900F0D6F81E
:10219000A0B92178032904BF207A002838D1DAF8C1
:1021A000401001F09071B1F1907F36D1042009F117
:1021B0005C022072002100F0C3F828B34FF00B0836
:1021C000A7E0080E820719D5217D0023002248468A
:1021D00000F026FC0028F1D1E07D4FF47A71431E17
:1021E000A07D00F025FA227E617D00F029FA00280A
:1021F000E4D100F097F80028E0D1C7E711F0C04F14
:10220000C4D14FF00E0884E0CC208E21A0766176F8
:10221000207A052818BF002813D1DAF84000C0F34F
:10222000801008B1122161769AF84000C10744BFBE
:102230001322A276DAF84000C0F3400008B10C2166
:10224000A176DAF844006077DAF84410090AE177F9
:10225000DAF84400000C7070DAF84410090EF170DE
:10226000307E010655D5227A052A52D1DAF8281097
:10227000C1F3072008B1090AA176386D000F00F0FC
:1022800062F8E16802466B46484600F0FFF910B17B
:102290004FF00C083DE00098DFF87413884207D334
:1022A000DAF83400C0F3C4110391C0F384081FE0CE
:1022B0000246DFF860038218DFF85C339A42DAF8EE
:1022C000381003D2C80EC1F3845810E0009ADFF82A
:1022D0004C03DFF84C3382189A4204D2C1F34440D5
:1022E000C1F3043803E0C1F3C410C1F384080390C0
:1022F00003AA00F01FF8B1698A0508D5686AC00F03
:1023000005D04146484600F01FF9804601E04FF0F5
:102310000D08404605B0BDE8F08F4B4332F8101071
:102320004B43704700230022B721484600F078BB9A
:1023300003AA03910121484600F0D2B900220221EC
:10234000484600F0CDB90A2806D20FF22032B5492E
:1023500032F81000484370470020704770B50446BB
:102360000D46AA2208212846002600F049FC082331
:102370002A460021204600F09BFA08B1032604E01B
:102380002868A949884218BF0426304670BD3EB56A
:1023900015460024CDE9004408236A4600F088FA77
:1023A00008B1032418E028609DF8031029729DF8F5
:1023B00005109DF80600090241EA00419DF804005D
:1023C000014369609DF8070040B1802806D2C0072C
:1023D00054BF02200120286020463EBD9DF8001019
:1023E000CA075CBF04232B60FF28F5D19DF80010BD
:1023F0002868F1B1032927D0052929D0062929D039
:10240000092930D00A2931D00C2935D00F2939D0EB
:10241000812917D0842919D087291ED088291FD057
:102420008B2926D08D292AD08E2908BF4FF48030E1
:10243000D1E7082028609DF80310102938BF10212B
:102440002972C8E71020C6E72020C4E74020C2E771
:102450008020C0E74FF48070BDE74FF40070BAE70A
:102460004FF48060B7E74FF40060B4E74FF480505A
:10247000B1E74FF40050AEE74FF48040ABE74FF4C4
:102480000040A8E74FF40030A5E77CB505465C4E58
:10249000B0680024030E06D000F038F8F06800F0B1
:1024A0003CF800282FD13069030E06D000F02EF83A
:1024B000706900F032F8002825D1B069030E05D00C
:1024C00000F024F8F06900F028F8E0B9306A030E53
:1024D0001AD000F01BF8706A8DF801208DF8060004
:1024E0005B1E9BB2010E020C8DF80310060A9DF8CC
:1024F00000108DF804208DF805600DF101022846CA
:1025000000F08EFA00B10A24204676BD8DF8020054
:10251000010C8DF80010020A70478DF801208DF82B
:1025200006005B1E9BB2010E020C8DF80310010A1F
:102530008DF805109DF800108DF804200DF10102B2
:10254000284600F06DBA00002DE9FE430E46374FD5
:102550003968002501F0C052B2F1C05F4CD1090AC0
:10256000022201F47F480092814602AB4246C9B282
:1025700000F003FA00283FD109F168040023217814
:102580000022484600F04CFA002835D1E0784FF49C
:102590007A71431EA07800F04BF82279617800F040
:1025A0004FF848BB3968F87837A49DF80830C1F374
:1025B0004172C9B2A25C00F007008640824093439A
:1025C0008DF808309DF808300222484600924246B5
:1025D0001E4302AB8DF809608DF8086000F0FEF92B
:1025E00050B939680220009002AB424648460904BF
:1025F000090E00F0C2F900B10B252846BDE8FE83A4
:1026000058020024B0000024F8010024280100240E
:1026100000C2EB0B800A1BF681CC0602C09412F8B4
:10262000408AF70140420F00534644504C010024B9
:1026300001919B410122DB0F8240D2B20092704790
:102640008340DBB2484600F01DBA000000010203DF
:102650000500000010000001A00F00FA10000000AB
:1026600000010000A00F000000FA0000000021009F
:1026700032004200500064008500A600C800FA0045
:102680000A014D019001000003070F1F70B50546B8
:1026900000200AB9012070BDB1FBF2F424B1B1FBF6
:1026A000F4F6B24228BF641E621CB1FBF2F119605D
:1026B0002B681968CD682D0A44EA0524CC6070BDEA
:1026C00038B50446201D216004494C22002500F045
:1026D000B5FA84F85050002032BD0000283E0008B2
:1026E0002DE9F44F8AB000238DF800304468099436
:1026F00083680893C4680794026943698469C5695B
:1027000005290695056AD0F824A0D0F82880C66A65
:102710000596D0F830B0466B0496866B0396D0F8D9
:102720003CE0066C0296466C876CD0F84C9009D859
:10273000DFE801F003886F8B72770A9991F800C087
:10274000BCF1070F00F28180DFE80CF004101C28B8
:10275000374554590023012200244FF480754FF46B
:10276000005A98464FF0807E002624E00023022283
:1027700000244FF400754FF4005A98464FF0007E45
:10278000002618E00023032200244FF440759846E9
:102790004FF4005A4FF0407E00260CE00322002345
:1027A00000244FF440754FF4005A4FF400684FF086
:1027B000407E4FF0006608270BE000230122002432
:1027C0004FF480654FF4405A98464FF0806E0026D3
:1027D000102799463CE00422102308244FF480651A
:1027E0004FF4405A4FF400684FF0806E4FF000668F
:1027F00014270BE000F051F84FF0806E03E000F07A
:102800004CF84FF0A06E4FF000660A274FF00059C9
:102810001EE04FF4405A1BE00A99097880F85010E6
:1028200016E00168096801918968DDF828C09CF804
:1028300000C021F4F81141EA0C41DDF804C0CCF8E5
:10284000081005E00A990F7802E001218DF80010C8
:1028500009994160089981600799C16002614361EB
:1028600084610699C1610562C0F824A0C0F828807F
:102870000599C162C0F830B0049A4263039981633C
:10288000C0F83CE0029A026446648764C0F84C9049
:102890009DF800000BB0BDE8F08F00230422002457
:1028A0004FF480654FF4405A4FF400689B467047E0
:1028B0002DE9F84193B00646884614461F466846FF
:1028C00000F020F8049D002D07BF5A20029045F625
:1028D000A5220292CDF8188041F288350F97306812
:1028E0002A4600F0CAF8070006D154B130682A46DB
:1028F000214600F0D1FA074638001CBF306800F0CE
:10290000BFFB58E0311D4C2200F098B9F0B593B0F0
:1029100005460C4616466846291DFFF7F4FF95F854
:10292000500004999F2200F03BF9039902900F9602
:10293000012906D10022119207924FF080720E9267
:1029400004E000210422069111921091286841F2BE
:102950008836324600F091F8070006D154B1286855
:102960003246214600F098FA074638001CBF286816
:1029700000F086FB384613B0F0BD2DE9F84193B066
:1029800000F022F800F01BF80290694606970F96B7
:1029900041F288362068324600F0EFF9070005D191
:1029A00020683246294600F077FA074638001CBFF7
:1029B000206800F065FB384614B0BDE8F08194F85B
:1029C000500004994246EBE00446884617461D46EF
:1029D0001A9E6846211D4C2200F030B92DE9F841BD
:1029E00093B0FFF7F1FFFFF7EAFF0290002306978D
:1029F00069460F9641F28836119332461293206849
:102A000000F0BBF9070005D120683246294600F0E6
:102A100009FA074638001CBF206800F031FBCAE7FE
:102A20002DE9F84193B004460F4615461E46FFF7C0
:102A3000D0FF94F8500004993A4600F0B1F8002213
:102A400002900792310011920F96129208BF0E92D7
:102A5000206841F28838424600F00FF8074630B946
:102A60004EB120684246294600F0DCF9074617B10E
:102A7000206800F005FB9EE72068694600F07DB9FC
:102A8000000000002DE9FC4198B006468846174634
:102A90001D46209C05A8FFF735FF684647A1142274
:102AA00000F0CCF800950999019496F85000FFF7D2
:102AB00089FF0899012207904FF440531492002295
:102AC000002001290D930B971592179005D14FF017
:102AD00080720C901392169001E0042116913068D8
:102AE00041F2883205A900F048F9040005D1219A85
:102AF0003068694600F038FA044620001CBF306890
:102B000000F0BEFA20461AB0BDE8F081F0B595B0ED
:102B100005460C4617461E4602A8291DFFF7F3FE80
:102B200008220021684600F0D5FC01200699029099
:102B300095F85000224600F033F8049002A913974C
:102B400041F2883728683A4600F017F904001AD194
:102B500002200699029095F850001A9C324600F027
:102B60001FF804903A461394286802A900F005F96A
:102B7000040008D150220021019200912868694682
:102B800000F044FA044620001CBF286800F078FAE0
:102B9000204615B0F0BDBFF34F8F006800F070BA4B
:102BA0001029134607D1002803BFD243D2B242EA0C
:102BB000032243EA03221046704700000000000091
:102BC00000000000000000000000400010000000B5
:102BD000002200F019B80EE0026843680244083091
:102BE0005FEAC37C44BF4B445B1E52F804CB43F8FE
:102BF00004CB091FF9D150F8041B0029ECD1704710
:102C000062F30F2262F31F4200B500BF1300964625
:102C10009446103928BFA0E80C50FAD85FEA417CEE
:102C200028BF0CC048BF40F8042BC90728BF20F8B4
:102C3000022B48BF00F8012B00BD00004AB1000084
:102C400011F8013B521E00F8013B1CBF11F8013B7B
:102C5000F8E770477CB504460025FEF743FA0646C0
:102C60000CB9012587E00021A165606D0028F9D12C
:102C7000204600F050FC41F28832DFF8F413E265A0
:102C800022689368E06825690B4061690343E06945
:102C900043EA0543491E43EA012303439360216845
:102CA000CA68206A22F4E0220243CA6020680169EF
:102CB000226B21F4F81141EA0241016121680B699C
:102CC000606B1B0A40EA03230B612268A16B516110
:102CD000206800220368616823F47C53491E43EA9C
:102CE000012320210360E06D0090334600F01AFAC2
:102CF000050040D12168CA68606A120A40EA0222CF
:102D0000CA602068DFF86C1388421CBFDFF86823B4
:102D1000904206D1E06D3346009000F001FA0500C4
:102D200029D12368DFF854231E68A168E06B1640A0
:102D30000E4306431E602268D2F80831A16AE06A99
:102D400023F0A0430B430343C2F808312068026814
:102D500042F001020260A069022804D12068816863
:102D600041F002018160E068B0F1806F07BF01218E
:102D7000616502206065284676BDF8B500F049F827
:102D80000746606D022806D1E068B0F1806F10D16F
:102D900000F044F8F2BD142803D12868022805D1B8
:102DA00007E02428F4D12968012902D028680328E3
:102DB000EED100963B4600F0B3F940BBA065294632
:102DC000204600F08FFA0100E4D1A96B49B90096C2
:102DD0003B460122022100F0A5F92268022151623E
:102DE000F2BD296811B904216165F2BD012907D13D
:102DF000616D242902D104226265F2BD1421F3E73A
:102E00000229C7D1616D1429F5D02421ECE70220F5
:102E1000F2BD04460D461646FEF764B910210120A6
:102E2000A16570472DE9FC4105460C461646FEF7A4
:102E300059F98046286800F1500714B9012008218B
:102E400027E06A6D042A22D1006C401CA864A96C9A
:102E500069642C642868026822F0405201460A60C6
:102E6000009643460122042100F07BF8010011D1B5
:102E7000286C0178397000F069F8F1D1009643466A
:102E800000F06DF8010005D100F05AF802E00120D1
:102E90001021A965BDE8F681F8B505460F4616462E
:102EA000FEF720F92B680446996CD3F8102103F142
:102EB000500017B90120082140E0D5F854C0BCF1FA
:102EC000040F39D11B6C5B1CAB64D5F848C0C5F846
:102ED00044C001232F642F68D7F800C063F31D7C22
:102EE000BE46CEF800C0EB68B3F1806F19D12A68F6
:102EF00091640746009623460122062100F031F82E
:102F000001001CD13878296C087000F01FF8F1D14D
:102F10000096234600F023F8010010D100F010F8CD
:102F2000F2BD2B6803F58077D7F800C01CF4E06F82
:102F30000CBF3A619964DCE701201021A965F2BD5C
:102F40002A680221022351626B6570472A6C531C68
:102F50002B64A96C491EA964A86C00287047012243
:102F60000221284600F099B92DE9F84304460F469E
:102F70001546FEF7B7F880462068866CD0F81091A9
:102F8000606D042804BFF968B1F5800F3AD100954F
:102F9000434600F0C5F898BB21683868C1F888003E
:102FA00023687A68C3F8802021683869C1F89000E6
:102FB00022681368B968F86823F043530B4303434E
:102FC00043F000531360E2682068B2F1806F05D0CF
:102FD00000F580710A6812F4E06F01D0866401E0A8
:102FE000C1F81090009543460122082100F09AF89C
:102FF000010009D12268082102235162636503E0C0
:10300000022001E0FFF70AFFBDE8F2837CB5054628
:103010000C46FEF767F80346686D042823D1E96D76
:10302000002200912021FFF79CFF01001ED1882182
:1030300069652268082A0BD12B6861681022C3F8E1
:1030400030112E68726229680B6843F480130B609C
:103050002B68DFF860241D68216815400D4345F09A
:1030600040551D6076BD10230120AB6576BD000084
:10307000FCC0E0F80050005200A00052BFFFFFFE6D
:103080007CB504460026FEF72DF80546606D10F06D
:103090000C0F3FD0206801684A0710D5036823F061
:1030A00004030360E06C00F081FA08B10420A0651D
:1030B000206D00F07BFA06001CBF0420A06521688B
:1030C0000A6A90061DD50B680A46022143F00203E6
:1030D0001360E06D00902B46012200F023F80600FB
:1030E0001BD1216802202B464862E26D009200F05D
:1030F00017F8060011D1206800F016F8022060656C
:103100000BE00A4610461168022321F0405101608D
:10311000636502E010210126A165304676BD009668
:10312000002220212046B8E0016821F040510160D2
:1031300070472DE9F04186B005460E461822002161
:10314000684600F0C7F9002400270C23DFF8681355
:103150001022086810F00200844618BF4FF0010CDE
:10316000CDF804C00868C00613D5D1F800C05FEAE6
:103170008C6052BF0092702000901CE04FF0010E56
:103180000DF1040848F800E0D1F800C05FEACC6E09
:1031900006D45FFA87F813FB08F84DF808400AE0F8
:1031A000D1F800C05FEA4C6E46BF4FF070084DF892
:1031B00000804DF800207F1CF8B2012811D80028AB
:1031C000C7D0D1F800C0D1F800E058430CF0010C92
:1031D000CEF3400EF445D1D00DF1040E4EF8004070
:1031E000D2E7DFF8D8321868C70704D51C6864082E
:1031F00064001C600124DFF8C8723868C00709D574
:10320000D7F800E044F002044FEA5E004FEA400EB7
:10321000C7F800E000200860D1F800C0B2682CF4C4
:103220007F00521E40EA024CC1F800C02868984254
:1032300026D170680190306820B10D6825F0300506
:10324000284308600198049A904203D10D6845F024
:1032500001050D60012803D1086840F002000860F4
:10326000E10703D5186840F001001860A10703D5F5
:10327000386840F001003860002006B0BDE8F081F9
:10328000B84208D17068049030680028DAD00D6820
:1032900025F05005D4E70120EFE72DE9F041054680
:1032A0000E4690461F46069C2868016A16EA0100F1
:1032B00018BF0120404512D014F1010FF4D0FDF7E2
:1032C00011FFC01B844201D3002CEDD14FF40070DC
:1032D0006865A96D032041F00101A96500E00020A7
:1032E000BDE8F0812DE9F04F04460D46206800222C
:1032F000FFF71AFFA06830B921680B68686823F0EF
:10330000404303430B6029682068022908D100F577
:10331000C07700F5C47800F5C87C00F5D07112E0E4
:10332000032908D100F5A07700F5A47800F5A87C62
:1033300000F5B07107E000F5807700F5847800F5BE
:10334000887C00F59071AB6C3B60E86A68B1D5F899
:1033500028E0C1F800E03E68EB6A696B286B26F450
:103360007C161E430E4306433E60D8F800E06B6CAB
:103370004FEA5E1043EA401EC8F800E0A96B29B18D
:10338000286818B9E96B2068491E0164EB68E9698F
:10339000002B65D00029D5F810E06E69A86B39D0F4
:1033A000D5F82090D5F824A098B1D7F800B0DFF870
:1033B000148108EA0B0B43EA0B0333434EEA030381
:1033C00019434AEA01012B6C49EA010101431943FF
:1033D00018E0D7F800803C4800EA08000343334374
:1033E0004EEA030319434AEA010149EA010139603F
:1033F000E16AB1F1805F04BF6869082803D13968C8
:1034000041F000613960A868CCF800002368A96920
:1034100099644AE058B13C682C490C40234333433B
:103420004EEA03030343286C03433B6014E0D7F8E0
:10343000008043EA0E0333434FEA981043EA8013B7
:103440003B60E16AB1F1805F04BF6869082803D17D
:10345000396841F000613960A868CCF8000024E0C8
:1034600001B3A86BD5F82080D5F824C068B1D7F88F
:1034700000E0174B03EA0E0319434CEA010148EA46
:1034800001010143286C014307E03E6826F47C56A5
:1034900031434CEA010148EA010139602168A86919
:1034A000886402E008230122A3651046BDE8F08F7E
:1034B00000000000F7FFFFCF00B4005200500052A0
:1034C00000A00052C0C0FFF0C0C0FFFFC0FFFFF06F
:1034D000FFC0FFF010B5044610460A4601462046DC
:1034E00000F0AAF8204610BD80B5022000F0D8F800
:1034F00008B100F05AFA2948016841F00201016060
:1035000000680090009A00F01BF94FF48020BDE89D
:10351000024000F05DBA18B5A7B00446142200219D
:1035200001A8FFF7D7FF8422002106A8FFF7D2FFEA
:1035300021681B4A91422ED104234024069306A8F9
:103540000994FCF7B5FE08B100F02FFA15480168A0
:1035500041F48041016002680092009B016841F4DF
:103560008051016002680092009BC16840F67F7341
:1035700041F40051C160C268009202220099029297
:10358000032201930021049203910921059101A9CD
:10359000054800F025FA28B010BD00005445025837
:1035A00000A00052344502580034025870B5044659
:1035B000FDF798FD06462CB304F14C05287A022845
:1035C00002D02021E9601BE02068416941F004013C
:1035D000416105202872206801698A0414D4FDF72E
:1035E00081FD801B0628F6D3E868032140F0100017
:1035F000E86029722879020602D5A86A01210173C0
:1036000000222A70012070BD41694FF4FE4201235F
:1036100041F002014161042028722168CA602B72C6
:103620002879010605D5A86A0122002102732368C2
:1036300099640020287070BD62F30F2262F31F426C
:10364000401810F0030308D0C91A1FD3DB0748BF86
:1036500000F8012D28BF20F8022D130030B41446C5
:103660001546103928BF20E93C00FAD8490728BF81
:1036700020E90C0048BF40F8042D890028BF20F83D
:10368000022D48BF00F8012D30BC7047C91818BF83
:1036900000F8012DCB0728BF00F8012D704700006E
:1036A000F8B50446DFF8A450A86800F00700062823
:1036B00005D0A96801F01F01A14224D021E0A8682B
:1036C00040F2E936400944EA4010A860FDF70AFDDF
:1036D00007462868810705D4FDF704FDC01BB042EA
:1036E000F7D30EE01E2C18BF1D2C0CD1FDF7FAFCF1
:1036F0000446A868C10306D4FDF7F4FC001BB042E1
:10370000F7D30120F2BD0020F2BD38B5DFF8444008
:103710002168490840EA410000F00FF8054620689A
:10372000810708D4FDF7DEFC401B40F2E9329042ED
:10373000F5D3012032BD002032BD2060FDF7D2BCA0
:103740000348016841F40041016070470448025891
:103750000C4802581448025838B584B01022002191
:103760006846FFF7B7FEFEF780FA012100228DF8C8
:1037700000101F218DF8012000238DF808108722EA
:10378000012101938DF809206846ADF80A308DF8C3
:103790000C108DF80D30ADF80E30FEF774FA0121E3
:1037A0004FF0E0428DF801101A21019200228DF8AD
:1037B000081001218DF8092003228DF80A1000213C
:1037C0008DF80B2001228DF80C1068468DF80D2025
:1037D0008DF80E208DF80F20FEF755FA0420FEF725
:1037E00039FA3D4A3D49106883030AD400F07FF856
:1037F00000240C6000F07BF8106840F4003000F00A
:1038000075F81368DC031ED400201067BFF34F8FD8
:10381000D36EC3F34E34C3F3C90543F6E07000EA38
:10382000441040EA857008612846451E0028F4D1FE
:103830002046441E0028EED1BFF34F8F106840F49D
:10384000803000F053F800F0B3F800F055F8244849
:10385000244C016841F40051016000680090009A16
:10386000002168460C22FFF735FE1F480421206026
:103870001F2061600022206100200221A26061619E
:103880004FF08073A2610322E0614FF0805120620B
:10389000A06220636063A063E0632046E36062622D
:1038A000E162FFF7D7F908B100F07FF8102101229B
:1038B00000916946019241F288322046FFF739FCB7
:1038C00008B100F072F800F045F900F05FF908B1B6
:1038D00000F06BF8FEE7000014ED00E050EF00E0B0
:1038E000404502589801002400A000521060BFF328
:1038F0004F8FBFF36F8F704700B5AFB09C22002190
:1039000008A8FFF7E7FD202200216846FFF7E2FD47
:103910000120FFF7FAFE08B100F047F8012202216A
:103920000B92022208914021119220220D914FF416
:10393000967113920122149102211592042216917C
:103940000023179108A8189119911B9119211D9214
:1039500002220C9312931A931C931E911F92209291
:1039600021922292239224932593FDF7C1FB08B163
:1039700072B6FEE73F210322009108210391402106
:103980000192042205914FF48041049200234FF4E8
:10399000806207910293362106926846FDF7AAFDE0
:1039A00008B172B6FEE72FB000BD72B6FEE70000A8
:1039B000032010B5FEF70FF90F200024FEF7DCF806
:1039C000002814BF0124FFF78FFD204610BD000022
:1039D00000BF02490A68104308607047100500588C
:1039E0002DE9F04F4FF00009574A4FF0B0434FF028
:1039F0000F0805460E469FE0012000FA09FE1EEA68
:103A0000010054D04FEA490103248C406FEA040CB2
:103A1000746804F00307012F1CBF04F00304022C98
:103A200012D1AC68F7680CEA04048F403C43AC60E8
:103A30006C6824EA0E077468C4F3001404FA09F4ED
:103A400044EA070EC5F804E034794FEA890E04F021
:103A50000304032C1ED0EC68B7680CEA04048F4002
:103A60003C43EC60347904F00304022C12D14FEA99
:103A7000D90705EB87040EF01C0708FA07FBD4F8FA
:103A800020A02AEA0B0AD6F810B00BFA07F747EA8B
:103A90000A0727622C680CEA0407347904F003044F
:103AA00004FA01F139432960716811F4403F41D0B3
:103AB0004FEA9901DFF894C0254F5CF821C007EA6E
:103AC00095270EF00C0E08FA0EF42CEA040407FAFF
:103AD0000EF747EA040CDFF874E04EF821C0D3F883
:103AE00000C07468C14301EA0C0CE40248BF40EA1C
:103AF0000C0CC3F800C0D3F804C0746801EA0C0CC5
:103B0000A40248BF40EA0C0CC3F804C0D2F804C0B9
:103B1000746801EA0C0CA40348BF40EA0C0CC2F81C
:103B200004C0D2F800C0746801EA0C01E40348BF85
:103B30000143116009F10109316831FA09F07FF49C
:103B40005BAFBDE8F08F00008000005830050058E2
:103B50007FFF290010B501200A4CFDF78BFAA02148
:103B60002046FFF735F800200749207003226160E6
:103B700004202272FCF77CFF01460020BDE81040C3
:103B800000F06CB8100000249801002480B500F00B
:103B900006F8010002D1BDE801400EE002BD10B5FB
:103BA00000210020002400F073F820B1B0F1FF3FA5
:103BB0000CBF04240324204610BD38B569460020FC
:103BC00000F085F808B1042032BD00F0A9F800F03B
:103BD0003FF81D491D4AC868002320F40030C86022
:103BE000136000F035F80020C867BFF34F8FCB6833
:103BF00023F48033CB60BFF34F8F8B6FC3F34E340E
:103C0000C3F3C90543F6E07000EA441040EA85704A
:103C100050622846451E0028F4D12046441E002844
:103C2000EED100F015F8EFF3108072B6009A0A603A
:103C30000099091D0968009A136883F3088880F3C6
:103C400010888847002032BD08ED00E050EF00E00A
:103C5000BFF34F8FBFF36F8F7047000038B50A4630
:103C60006FF0040478B92B4D0024287848B9297ADC
:103C7000686805F10C0300F05BF820B16FF00204F6
:103C800001E06FF00104204632BD22480024704755
:103C900010B56FF00404C0B9FFF7F7FF027812B156
:103CA000032A0DD00FE021B90C3000F090F820B9B4
:103CB0000BE00C3000F09BF838B16FF0020010BD43
:103CC0004FF0FF3401E06FF00104204610BD020008
:103CD0006FF0040000D0704730B50E4A0020137812
:103CE000002B18BF022B12D152680B4C1268A24253
:103CF00003D14FF010430B6030BD084DAA4203D1F1
:103D00004FF0E0420A6030BD6FF0020030BD6FF04E
:103D1000010030BD100000240050005200A00052ED
:103D20000248016821F002010160704710E000E0E4
:103D30002DE9FF4104460D4698461646942140461B
:103D4000FEF746FF08F15400002705702146077270
:103D5000C6604046FEF7B4FC02AB194A3146404605
:103D6000FEF794FC4046FEF716FF00F02BF84046A5
:103D7000FDF7C0FF78B94046FEF74EF80A2000F084
:103D80003FF84046FDF7B6FF28B900F01BF8404663
:103D9000FDF7D3FF10B14FF0FF370DE04046FEF7BF
:103DA0009EF810B16FF0020706E0AA2206216846CD
:103DB000FEF726FF00F006F8384604B0BDE8F081B3
:103DC00080F0FA02032269464046FEF79FBD1CB50B
:103DD000002400F16D0100940B78826C4978D2B216
:103DE000FEF794FE08B16FF00C04204616BD10B526
:103DF0000024FEF7D0FE08B16FF00C04204610BD81
:103E000038B50446FDF76EF914F1010F054602D0EE
:103E1000044801786418FDF765F9401BA042FAD305
:103E200031BD00BF000000240000000000000000C1
:103E30005A00000001000000000000000000000027
:103E40000000000000010000002000000000000051
:103E50000000000000000000000000000000000062
:103E60000000000100000000000000000800000049
:103E70000000000030B4002512E050F8042BD307F6
:103E800044BF4A44521E091F042942F8045BFAD277
:103E900013468C0744BF15809B1CC90748BF1D7083
:103EA00050F8041B0029E8D130BC704710B5074911
:103EB00079441831064C7C44163404E00A68081D25
:103EC000114488470146A142F8D110BD2C000000E2
:103ED0004C0000004EF68851CEF20001086840F414
:103EE00070000860BFF34F8FBFF36F8F4FF001700A
:103EF000E1EE100A704700007DFFFFFF9002000016
:103F00001000002400000000CFECFFFF10000000B4
:103F1000B4000000000000240000000000F00DF8D4
:103F2000002801D0FFF7C2FFAFF300800020AFF3FD
:103F30000080FFF711FC00F002F80120704700F04C
:103F400001B800000746384600F002F8FBE7000021
:103F500080B5AFF30080024A11001820ABBEFBE72A
:103F6000260002000548014603B4684680F309882C
:103F7000AFF30080FFF7AEFFFFF7D0FFA5EDF5FE32
:103F8000FEE7FEE7FEE7FEE7FEE770477047704793
:103F900000F000B80248416802788A184260704711
:103FA000000000240148804701480047B53F000851
:103FB000653F00080248016841F4700101607047E4
:103FC00088ED00E00100000000000000100000008B
:103FD0000090D003FFF7FEBFFFF7FEBFFFF7FEBF65
:103FE000FFF7FEBFFFF7FEBFFFF7FEBFFFF7FEBF05
:103FF000FFF7FEBFFFF7FEBFFFF7FEBFFFF7FEBFF5
:10400000FFF7FEBFFFF7FEBFFFF7FEBFFFF7FEBFE4
:10401000FFF7FEBFFFF7FEBFFFF7FEBFFFF7FEBFD4
:10402000FFF7FEBFFFF7FEBFFFF7FEBFFFF7FEBFC4
:10403000FFF7FEBFFFF7FEBFFFF7FEBFFFF7FEBFB4
:10404000FFF7FEBFFFF7FEBFFFF7FEBFFFF7FEBFA4
:10405000FFF7FEBFFFF7FEBFFFF7FEBFFFF7FEBF94
:10406000FFF7FEBFFFF7FEBFFFF7FEBFFFF7FEBF84
:10407000FFF7FEBFFFF7FEBFFFF7FEBFFFF7FEBF74
:10408000FFF7FEBFFFF7FEBFFFF7FEBFFFF7FEBF64
:10409000FFF7FEBFFFF7FEBFFFF7FEBFFFF7FEBF54
:1040A000FFF7FEBFFFF7FEBFFFF7FEBFFFF7FEBF44
:1040B000FFF7FEBFFFF7FEBFFFF7FEBFFFF7FEBF34
:1040C000FFF7FEBFFFF7FEBFFFF7FEBFFFF7FEBF24
:1040D000FFF7FEBFFFF7FEBFFFF7FEBFFFF7FCBF16
:1040E000FFF7FEBFFFF7FEBFFFF7FEBFFFF7FEBF04
:1040F000FFF7FEBFFFF7FEBFFFF7FEBFFFF7FEBFF4
:10410000FFF7FEBFFFF7FEBFFFF7FEBFFFF7FEBFE3
:10411000FFF7FEBFFFF7FEBFFFF7FEBFFFF7FEBFD3
:10412000FFF7FEBFFFF7FEBFFFF7FEBFFFF7FEBFC3
:10413000FFF7FEBFFFF7FEBFFFF7FEBFFFF7FEBFB3
:10414000FFF7FEBFFFF7FEBFFFF7FEBFFFF7FEBFA3
:10415000FFF7FEBFFFF7FEBFFFF7FEBFFFF7FEBF93
:10416000FFF7FEBFFFF7FEBFFFF7FEBFFFF7FEBF83
:10417000FFF7FEBFFFF7FEBFFFF7FEBFFFF7FEBF73
:10418000FFF7FEBFFFF7FEBFFFF7FEBFFFF7FEBF63
:10419000FFF7FEBFFFF7FEBFFFF7FEBFFFF7FEBF53
:1041A000FFF7FEBFFFF7FEBFFFF7FEBFFFF7FEBF43
:1041B000FFF7FEBFFFF7FEBFFFF7FEBFFFF7FEBF33
:1041C000FFF7FEBFFFF7FEBFFFF7FEBFFFF7FEBF23
:1041D000FFF7FEBFFFF7FEBFFFF7FEBFFFF7FEBF13
:1041E000FFF7FEBFFFF7FEBFFFF7FEBFFFF7FEBF03
:1041F000FFF7FEBFFFF7FEBFFFF7FEBFFFF7FEBFF3
:0C420000FFF7FEBFFFF7FEBFFFF7FEBF99
:0400000508003F654B
:00000001FF
