:020000040800F2
:1000000000040020F9450008D5450008D745000840
:10001000D9450008DB450008DD4500080000000068
:10002000000000000000000000000000DF450008A4
:10003000E145000800000000E3450008E545000830
:1000400019460008000000001D460008214600086F
:1000500025460008294600080000000000000000B6
:100060002D46000831460008354600080000000013
:1000700000000000394600080000000000000000F9
:100080003D4600084146000845460008494600082C
:100090004D460008514600085546000859460008DC
:1000A0005D4600086146000865460008694600088C
:1000B0006D4600087146000875460008794600083C
:1000C0007D460008814600088546000889460008EC
:1000D0008D4600089146000895460008994600089C
:1000E0009D460008A1460008A5460008A94600084C
:1000F000AD460008B1460008B5460008B9460008FC
:10010000BD460008C1460008C5460008C9460008AB
:10011000CD460008D1460008D5460008D94600085B
:10012000DD460008E1460008E5460008E94600080B
:10013000ED460008F1460008F5460008F9460008BB
:10014000FD46000801470008054700080947000868
:100150000D47000811470008154700081947000817
:100160001D470008214700082547000829470008C7
:100170002D47000831470008354700083947000877
:100180003D47000841470008454700084947000827
:100190004D470008514700085547000859470008D7
:1001A0005D47000861470008654700086947000887
:1001B0006D47000871470008754700087947000837
:1001C00000000000000000007D4700088147000893
:1001D00085470008894700088D47000891470008B7
:1001E00095470008994700089D470008A147000867
:1001F000A5470008A9470008000000000000000013
:10020000AD470008B1470008B5470008B9470008E6
:10021000BD470008C1470008C5470008C947000896
:10022000CD470008D1470008D5470008D947000846
:10023000DD470008E1470008E5470008E9470008F6
:10024000ED470008F1470008F5470008F9470008A6
:10025000FD47000801480008054800080948000853
:100260000D48000811480008154800081948000802
:100270001D480008214800082548000829480008B2
:100280002D48000831480008354800083948000862
:100290003D480008000000000000000000000000D1
:1002A0004148000845480008494800084D480008F2
:1002B0002DE9F041044600262068B046DFF8A45737
:1002C000410313D5286E10F440701EBFE16F01F496
:1002D000407188422CD0DFF89007026842F48072A7
:1002E00002600068C10517D40126B0462078C10716
:1002F00054D56268032A4FD8DFE802F005024A05A8
:1003000000F0A1FBE861300047D1E96B6068890823
:1003100040EA8101E96341E0286E296E41F48031B1
:1003200029662A6E20F4407022F480322A662866FC
:10033000E06FB0F5807F0ED100F0D4FE0746286E46
:10034000810708D400F0CEFEC01B41F289329042F2
:10035000F5D30326C9E7E06F10F47C3F09D0296884
:10036000DFF8082702EA101221F47C5111432960BA
:1003700003E0286820F47C502860296EE06F00F4C8
:10038000407001432966296E41F400412966ADE7BA
:10039000E86940F48020B5E70126B046207881075F
:1003A0001AD5A26842B1102A02D0202A0DD011E03D
:1003B000E86940F40020E86130000CD1E96BA068E6
:1003C00021F030010143E96306E0E96941F480115D
:1003D000E961F1E70126B046207841071AD5E268C5
:1003E00042B1402A02D0802A0DD011E0E86940F4E1
:1003F0000020E86130000CD1E96BE06821F0C00119
:100400000143E96306E0E96941F48011E961F1E73C
:100410000126B0462078010705D5EA6B206922F055
:1004200040520243EA6321688A0217D5606D10B119
:1004300004280DD010E0E96941F400213000E961A1
:100440000BD1E96B606D21F004010143E96305E024
:10045000E96941F48011F1E70126B0462078C10630
:1004600018D5626932B1B2F1807F0ED0B2F1007F4F
:1004700002D00DE000F0F0FA30000AD1E96B6069BB
:1004800021F040710143E96304E000F0C4FAF3E7AE
:100490000126B0462078810622D5A26982B1B2F544
:1004A000801F0BD0B2F5001F13D0B2F5401F1CBF48
:1004B000B2F5800FB2F5A00F02D00FE000F0CCFA39
:1004C00030000CD1E96BA06921F4E0010143E9633C
:1004D00006E0E96941F00061E961F1E70126B04613
:1004E0002078410605D52A6CE06922F0405202438B
:1004F0002A6421780A0605D5EB6B206A23F4403381
:100500000343EB632168CA0513D5606A30B1B0F5C7
:10051000802F0CD1E96941F08041E961300007D1B9
:10052000E96B606A21F480210143E96301E001265F
:10053000B0462168880519D5A26A4AB1B2F5800F84
:1005400003D0B2F5000F0CD00EE000F07CFAE861A9
:1005500030000AD1296CA06A21F4400101432964CA
:1005600004E000F062FAF3E70126B04620680105D6
:1005700018D5E26A5AB1B2F5805F06D0B2F5005FD5
:1005800018BFB2F5405F02D00AE000F057FA300021
:1005900007D1296CE06A21F440510143296401E04C
:1005A0000126B0462168480518D5226B5AB1B2F52C
:1005B000807F06D0B2F5007F18BFB2F5407F02D031
:1005C0000AE000F03BFA300007D1296C206B21F4DF
:1005D00040710143296401E00126B0462168C80446
:1005E00020D5626B82B1B2F5803F0BD0B2F5003FEF
:1005F00013D0B2F5403F1CBFB2F5802FB2F5A02F4B
:1006000002D00DE000F028FA30000AD1296C606BAE
:1006100021F4E0210143296404E000F0FCF9F3E750
:100620000126B0462068810420D5A26B82B1B2F5C4
:10063000807F0BD0B2F5007F13D0B2F5407F1CBF96
:10064000B2F5806FB2F5A06F02D00DE000F004FAB1
:1006500030000AD1A96CA06B21F4E0610143A964C8
:1006600004E000F0D8F9F3E70126B0462068410421
:1006700020D5E26B82B1B2F5805F0BD0B2F5005F9E
:1006800013D0B2F5405F1CBFB2F5804FB2F5A04F5A
:1006900002D00DE000F0E0F930000AD1A96CE06B67
:1006A00021F4E0410143A96404E000F0B4F9F3E768
:1006B0000126B0462068010417D5226C052A12D8FD
:1006C000DFE802F005030E05050500F0C0F9300073
:1006D0000AD1A96C206CC90840EAC101A96404E0F0
:1006E00000F09EF9F3E70126B0462068C10303D568
:1006F000EA6942F00052EA612068810312D5A26CD7
:100700001AB1B2F1006F02D00AE000F097F93000A0
:1007100007D1E96BA06C21F000610143E96301E0BE
:100720000126B0462168080322D5E26C62B1B2F519
:10073000803F15D0B2F5003F15D0B2F5403F18BF4D
:10074000B2F5802F03D011E000F07DF9E8613000B0
:100750000DD1696CE06C21F4E0210143696407E08C
:1007600000F063F9F3E700F065F9EFE70126B04622
:100770002068C10224D5226D72B1B2F5801F17D056
:10078000B2F5001F17D0B2F5401F1CBFB2F5800FA5
:10079000B2F5A00F03D011E000F055F9E861300088
:1007A0000DD1696C206D21F4E0010143696407E01B
:1007B00000F03BF9F3E700F03DF9EFE70126B04622
:1007C0002068410222D5A26E4AB1B2F1807F12D0D8
:1007D000B2F1007F14D0B2F1407F03D014E000F0FA
:1007E00032F9E861300010D1296CA06E21F040711F
:1007F000014329640AE0E96941F48021E961F1E7F4
:10080000E86940F00050ECE70126B046206801029C
:1008100022D5A26D62B1B2F5807F15D0B2F5007F0E
:1008200015D0B2F5407F18BFB2F5806F03D011E04C
:1008300000F009F9E86130000DD1696CA06D21F478
:10084000E0610143696407E000F0EFF8F3E700F0CE
:10085000F1F8EFE70126B0462068C1011ED5E26D30
:1008600042B1102A12D0202A13D0302A18BF402AB1
:1008700003D011E000F0E7F8E86130000DD1296CF9
:10088000E06D21F070010143296407E000F0CDF82C
:10089000F3E700F0CFF8EFE70126B04620688101CA
:1008A0001BD5226E5AB1102A07D0202A10D0302A28
:1008B0001CBF402A502A02D00DE000F0C8F83000DA
:1008C0000AD1696C206E21F070010143696404E073
:1008D00000F0A6F8F3E70126B046206841011BD5D9
:1008E000626E5AB1102A07D0202A10D0302A1CBFBD
:1008F000402A502A02D00DE000F0A9F830000AD1B9
:10090000A96C606E21F070010143A96404E000F05D
:1009100087F8F3E70126B0462068C10017D5E26EDC
:10092000052A12D8DFE802F005030E05050500F0E0
:100930008EF830000AD1696CE06EC90840EAC10146
:10094000696404E000F06CF8F3E70126B046206823
:10095000810017D5226F052A12D8DFE802F00503BF
:100960000E05050500F073F830000AD1296C206FE0
:10097000C90840EAC101296404E000F051F8F3E736
:100980000126B0462068410017D5626F002A18BFC3
:10099000B2F5805F06D0B2F5005F0CD1E86940F097
:1009A0008050E861300007D1E96B606F21F440515D
:1009B0000143E96301E00126B046216800291AD508
:1009C000A26F6AB1B2F5804F06D0B2F5004F18BFE2
:1009D000B2F5404F04D00CE0E86940F08050E86187
:1009E000300007D1E96BA06F21F440410143E96376
:1009F00001E00126B04621680A0106D52B68D4F82B
:100A0000800023F4004303432B605FEA080018BF13
:100A10000120BDE8F081E96941F00051E9617047CA
:100A2000E96941F08051E9617047E96941F4803139
:100A3000E9617047E86940F000607047E86940F09C
:100A40000050E8617047E86940F040007047E8698D
:100A500040F40030E8617047E86940F48030E861B4
:100A6000704700001044025800480258CFFFFF0FA3
:100A7000014600200129DFF850C6F8B54FF4FA47C7
:100A8000DFF84836DFF848464FF40045DFF84466A3
:100A9000DFF8442671D0022900F08180042900F09B
:100AA0008D80082900F0A680102900F0B080202950
:100AB00000F0B880402900F0DD80802900F0E88057
:100AC000B1F5807F00F0F580B1F5007F00F0008186
:100AD000B1F5806F00F00F81B1F5006F00F0188163
:100AE000B1F5805F00F02481B1F5005F00F0348142
:100AF000B1F5804F00F04481B1F5004F00F0558111
:100B0000B1F5803F00F05E81B1F5003F00F05E81FD
:100B1000B1F5802F00F06181B1F5002F00F09081D8
:100B2000B1F5801F00F09C81B1F5001F00F0A88195
:100B3000B1F5800F00F0B681B1F5000F00F0D08163
:100B4000B1F1807F00F0DC81B1F1007F00F0028222
:100B5000B1F1806F00F00D82B1F1805F00F01F8273
:100B6000B1F1005F00F02982B1F1804F00F05182B5
:100B7000B1F1004F00F06182F2BDDCF8001001F429
:100B8000E041B1F5A04F20D0D16C01F00301032961
:100B9000F2D8DFE811F05E00C20195012802DCF80E
:100BA000001001F0700140290FD0D16C11F030011C
:100BB0004FD0102916D0202918D0F2BDDCF8001033
:100BC00001F4E061B1F5806F03D100F00AFE800806
:100BD000F2BDD16C11F0C0013BD0402902D0802978
:100BE00004D0F2BDD16AC90ACA054FE1D16AC90A67
:100BF0008A0552E1D16C11F0405100F0F481B1F15D
:100C0000805F00F0FC81B1F1005FEAD1C4E1D16CFA
:100C100011F040710CD0B1F1807F00F05981B1F139
:100C2000007F78E1D16C11F4E00112D0B1F5801FA2
:100C300000F07A81B1F5001F00F07E81B1F5401F10
:100C400000F08581B1F5800F07D0B1F5A00F07D076
:100C5000F2BDBDE8F14000F0C4BD1168CA05D0E1A5
:100C600014686107F4D51568AC06F1D51168C1F3B5
:100C7000C101C1E1116D11F0405166D0B1F1805F49
:100C800066D0B1F1005F00D0F2BD1268D305B8E1C3
:100C9000D16C01F44031B1F5803F1CD0B1F5003F7B
:100CA00006D1D16C11F4802115D0B1F5802F07D079
:100CB000F2BDD16C11F480210DD0B1F5802FF7D1A8
:100CC000D36A9B0DD905F3D5BDE8F14000F00BBE0A
:100CD000116D11F4400100F0C881B1F5800F03D00F
:100CE000B1F5000F03D0F2BDD36A590617E1D26AFD
:100CF000D20A91061BE1116D11F440711BD0B1F5C0
:100D0000807F47D0B1F5007F0BD0B1F5407F0CE07C
:100D1000116D11F440510ED0B1F5805F3AD0B1F5AC
:100D2000005F00F06081B1F5405F00F06881F2BDC6
:100D3000116D11F4E02100F04A81B1F5803F11D02E
:100D4000B1F5003F26D0B1F5403F5FD0B1F5802F1F
:100D50005FD0B1F5A02FDEE0916D11F4E06112D00B
:100D6000B1F5807F00F0E080B1F5007F12D0B1F5E1
:100D7000407F4BD0B1F5806F4BD0B1F5A06FCAE08A
:100D8000916D11F4E04100F00381B1F5805F5DD019
:100D9000B1F5005F00F09C80B1F5405F36D0B1F551
:100DA000804F36D0B1F5A04FB5E0916D01F007014D
:100DB000052932D8DFE811F0EC000F0151011701CD
:100DC00023012801D36A9B0D190684E0D16C11F030
:100DD000006170D0B1F1006F9DE0116F01F44071BE
:100DE000B1F5407F06D11169090101F47C3141F46C
:100DF000407102E0116F01F4407100290DD0B1F58E
:100E0000807F03D0B1F5007F03D007E0116F8A0720
:100E1000FCE0536F990700D53846F2BD146F04F417
:100E20004074B4F5407FF8D111688B03F5D5116992
:100E3000C1F30521022902D33046B0FBF1F0F2BD27
:100E4000516D11F4E02168D0B1F5803F6CD0B1F55F
:100E5000003F71D0B1F5403F0ED0B1F5802F5AE080
:100E6000516D11F4E00158D0B1F5801F5CD0B1F59F
:100E7000001F61D0B1F5401F69D0B1F5800F4AE085
:100E8000D16CD26A490706D4D20AD10517D5BDE87C
:100E9000F14000F001BDD20A910510D5BDE8F14046
:100EA00000F003BD116D11F0407136D0B1F1807FBB
:100EB00006D0B1F1007F0BD0B1F1407F53D0F2BD2D
:100EC000D16AC90A0A06FAD5BDE8F14000F0DEBCD5
:100ED000D16A890D0A06F2D5BDE8F14000F0FDBCEB
:100EE000516D11F4E06118D0B1F5807F1CD0B1F5DF
:100EF000007F21D0B1F5407F29D0B1F5806F0AE0A5
:100F0000116D11F0700108D010290DD0202913D0D7
:100F100030291CD0402917D0F2BDD16A4A06FBD532
:100F2000BDE8F14000F095BCD16AC90A8A06F3D544
:100F3000BDE8F14000F097BCD16A890D8A0608D55A
:100F4000BDE8F14000F0BBBCBDE8F14098E04BF6D5
:100F50008030F2BD516D11F070012AD010293AD0C5
:100F600020290DD030293ED0402948D05029F0D139
:100F700012E0916D11F070010AD010292BD02029B8
:100F80006BD030292FD0402939D0502904D0F2BD60
:100F9000BDE8F14000F050BC1268910367E0516D6C
:100FA00001F00701052964D8DFE801F00315571D9A
:100FB000292EBDE8F14000F032BC116D01F00701AF
:100FC000052956D8DFE801F00307490F1B20BDE8CB
:100FD000F14000F017BCD16AC90A4A0649D5BDE8FC
:100FE000F14000F049BC11684C0742D51568A906CC
:100FF0003FD51268C2F3C10123FA01F0F2BD1168B6
:10100000CB0536D52046F2BD126F910731D5284663
:10101000F2BDD16C11F4405127D0B1F5805F03D0FF
:10102000B1F5005F05D0F2BD1368990321D52B48B7
:10103000F2BDD26A920D510612E0D16C11F440411A
:1010400006D0B1F5804F08D0B1F5004F0DD0F2BDFC
:1010500011688A040DD52248F2BDD16A890D4A066D
:1010600007D5BDE8F14000F02EBC11688A0348BFE7
:101070003046F2BD14490A68FFE710430860704724
:1010800010B5154A0020D16C11F040510BD11168F8
:101090004B0717D51468A10614D512680B48C2F384
:1010A000C101C84010BDB1F1805F04D11168CA050B
:1010B00008D5074810BDB1F1005F03D111688A035C
:1010C00048BF044810BD0000004502580090D003FE
:1010D00000093D0000366E0100440258001BB700B5
:1010E000006CDC0201484068704700BF000000242B
:1010F0002DE9F843070064D0DFF80858D5F81080D0
:10110000AE6A2C683878C10708F0380806F0030684
:1011100004F0285409D5B8F1100F03D0002C6CD07E
:10112000022E6AD1786800284BD039788A073AD5E0
:10113000B8F1000F05D0002C00F0B580002E40F073
:10114000B280F86800283CD0286800F0180026B962
:10115000002C1CBF396988421CD12A68386922F0EA
:101160001902024342F00102B8F1000F2A600BD1CC
:101170002B680122DFF89C17C3F3C1008240B1FB4A
:10118000F2F0DFF88C170860DFF88027106800F0B5
:1011900027FD002840F09D816868796920F0FE40B5
:1011A00040EA016068603878C1060CD5B8F1080FD4
:1011B00005D0002C00F0A780012E40F0A480386AF2
:1011C000002800F0868139780A0740F1D080B8699C
:1011D000002800F0BC80696F41F001016967FFF7EA
:1011E00081FF0446686F810700F1C180FFF77AFF35
:1011F000001B0228F6D303206EE17868B0F5803F2B
:1012000004D1286840F48030286031E058B929685A
:1012100021F480312960286820F4002028602A68A1
:1012200022F4802223E0B0F5A02F07D1286840F4F3
:1012300080202860296821F4002109E0B0F5502FB2
:1012400028680AD140F480202860296841F40021F0
:1012500029602A6842F4803209E020F48030286056
:10126000296821F4802129602A6822F400222A605A
:10127000FFF738FF8146786850B129688A033FF547
:1012800054AFFFF72FFFA0EB09006528F5D3B2E7B5
:10129000286881037FF549AFFFF724FFA0EB090021
:1012A0006528F5D3A7E7F868D8B12A68396922F02C
:1012B000190210430843286068687A6920F0FE40EC
:1012C00040EA02606860FFF70DFF81462868410729
:1012D0003FF569AFFFF706FFA0EB09000228F5D341
:1012E00089E72868400840002860FFF7FBFE814638
:1012F000296848077FF557AFFFF7F4FEA0EB090018
:101300000228F5D377E7386A80B1296841F0800177
:101310002960FFF7E7FE04462868C1053FF553AF93
:10132000FFF7E0FE001B0228F6D364E7286820F0F0
:1013300080002860FFF7D6FE04462968C8057FF5BF
:1013400042AFFFF7CFFE001B0228F6D353E7686FCA
:10135000400840006867FFF7C5FE0446686F8107D4
:1013600005D5FFF7BFFE001B0228F7D343E7397806
:101370008A0621D5F86978B1296841F4805129603D
:10138000FFF7B0FE04462868810415D4FFF7AAFED3
:10139000001B0228F7D32EE7286820F4805028602D
:1013A000FFF7A0FE04462968880405D5FFF79AFEDA
:1013B000001B0228F7D31EE7387841074AD5DFF82B
:1013C000D807026842F480720260B868012817D01A
:1013D00040B9286F4008400000F080F8286F20F0E6
:1013E000040010E0052804D100F07EF821F080010F
:1013F00005E0852809D100F077F841F080012967E0
:10140000286F40F00100286708E0296F490849006B
:101410002967286F20F0040000F060F8B86841F2F6
:10142000893458B1FFF75EFE0646286F810711D454
:10143000FFF758FE801BA042F7D3DCE6FFF752FE11
:101440000646286F810705D5FFF74CFE801BA0429A
:10145000F7D3D0E6786A48B3B8F1180F1ED1012847
:1014600037D0686BB96CC0F3CC0081421ED0E86AFB
:1014700040084000E862FFF735FE0446FFF732FE01
:10148000001BFBD0686BB96C6FF3CF0040EAC10062
:101490006863E86A40F00100E86207E0012100208B
:1014A000796407F1240100F037FA90B9F86C28B19B
:1014B00007F14C01012000F02FFA50B9786F50B1BC
:1014C00001210220C7F8941007F1740100F024FAFA
:1014D00008B1012000E00020BDE8F2832867296FF1
:1014E00021F0800129677047286F40F004002867C9
:1014F000296F70472DE9F0410400884656D0DFF887
:101500000854286800F03F00404502D200F0D7F8A8
:101510007AD12078DFF8EC63410706D52069326A7A
:1015200002F00702824200F0C3F82078010706D5D6
:101530006069326A02F07002824200F0B2F82078EC
:10154000C10606D5A069326A02F4E062824200F068
:10155000A1F82078810606D5E069326A02F4E042FB
:10156000824200F090F82078810706D5E068F269A1
:1015700002F00F02824200F07FF82078C10731D5D7
:10158000B269A068120940EA0212B26160680228DA
:1015900002D131688A0308E0032802D131688A0148
:1015A00003E0012803D13168CA0503D42CE0336875
:1015B000590729D53269D20840EAC2003061FFF7E5
:1015C00091FD07463069616800F03800B0EBC10F4B
:1015D00008D0FFF787FDC01B41F289329042F1D35A
:1015E000032047E02078810706D5E068F26902F021
:1015F0000F02904200F040F8286800F03F0080455C
:1016000004D200F05CF801D0012033E020784107DB
:1016100006D52069326A02F00702904200F048F8CD
:101620002078010706D56069326A02F070029042A4
:1016300000F037F82078C10606D5A069326A02F4B6
:10164000E062904200F026F82078810606D5E06935
:10165000326A02F4E042904200F015F800F03AF8E5
:10166000DFF8AC120860DFF8A4020068BDE8F041C2
:1016700000F0B6BABDE8F08104D2F169090940EA88
:101680000110F061704704D2316A21F4E04108434F
:101690003062704704D2316A21F4E061084330625D
:1016A000704704D2316A21F07001084330627047FC
:1016B00004D2316AC90840EAC10030627047296823
:1016C000890948EA811129602A6802F03F024245EF
:1016D0007047000030B5DFF82C32DFF838021969A6
:1016E00011F0380104D010290AD018290BD06EE06F
:1016F0001A68940669D51968C1F3C101C84068E049
:10170000DFF8980465E09C6A996ADD6A5A6B05F017
:101710000105C1F30511C2F3CC025543002900EEC7
:10172000105AB8EE400A50D014F0030400EE901A9C
:10173000F8EE600A02D0022C20D022E019688A0656
:1017400019D51968DFED6B1AC1F3C101C84001EE6C
:10175000100A186BB8EE411AC1EE200AC0F3080057
:1017600001EE100AB8EE411A00EE211AB7EE000A97
:1017700031EE000A18E09FED600A17E09FED5F1A56
:1017800001E09FED5F1A186B9FED5A2AC1EE200A07
:10179000C0F3080001EE900AF8EE611A40EE021A5A
:1017A000B7EE000A31EE800A20EE800A186BC0F313
:1017B0004620401C00EE900AF8EE600A80EE200AF7
:1017C000BCEEC00A10EE100A03E0002001E0DFF8D2
:1017D000D003996901F00F01082924BFC91FC8402F
:1017E00030BD80B5FFF776FFDFF8BC13096801F064
:1017F0000F01082905D30FF2E0320A4412F8081C41
:10180000C84002BD80B5FFF7ECFFDFF8A013096800
:1018100001F00701042924BFCA1ED04002BD80B5D3
:10182000FFF7DFFFDFF884130A68C2F3021104290F
:1018300024BFCB1ED84002BD80B5FFF7D2FFDFF832
:101840006C130A68C2F30221042924BFCB1ED840BE
:1018500002BD10B500F003F8C4F3064108E0DFF85C
:101860005003046822E110B500F00CF8C4F34621DF
:10187000491CB0FBF1F010BD10B500F003F8C4F343
:101880000641F5E7DFF83003046823E110B5FFF700
:10189000F9FFC4F30661EBE710B500F00CF804F0B3
:1018A0000704641CB0FBF4F010BD10B500F003F8A1
:1018B000C4F30221DCE7DFF8040304680AE110B591
:1018C00000F007F8D2E710B500F003F8C4F30641C2
:1018D000CEE7DFF8EC02046848E110B5FFF7F9FF46
:1018E000C4F30661C4E710B5DFF8D802FFF7F3FFD1
:1018F000D5E700000000003900000000001BB74BD6
:101900000024744A004402580020005208000024B9
:101910000C0000240090D0032DE9F84F04460B275B
:101920000D46A34800EBC401674300919D4EF06A49
:101930004FF478719F4AB94002EB84084FEA440A99
:101940008843F0624FF08070326800FA0AF922EAA8
:1019500009023260FFF7C6FB83464FF0007000FAC1
:101960000AFA316811EA0A0F07D0FFF7BBFBA0EBB8
:101970000B003328F5D3032096E02868E200121DFF
:101980004FF47C73022840F086806868844940B92F
:10199000D6F800C0DFF830E2CCF3C10C2EFA0CFE12
:1019A00004E002280CBFDFF8F4E18E46D5F808C049
:1019B000DFF818B2BEFBFCFEDE4528BF4FF0180E64
:1019C0000BD28E4528BF4FF0100E06D280498E45AF
:1019D0002CBF4FF0080E4FF0020ED6F828B0E100F1
:1019E0008B4043F003030CFA02F22BEA030101439C
:1019F0000A43B262B26A02F00302824218BF0120B7
:101A000052D1F06A1B21B94088430EFA07F141EA2E
:101A1000000EC6F82CE0EA6828696969521E401E6B
:101A200042EA4022491EA86942EA01420099401E4A
:101A300042EA00620A60E8692A6A401E521E40EAD1
:101A40000220C8F800001CB9F06A40F02000F062E3
:101A5000686A70B15F4901EBC4010A686FF3CF0295
:101A600042EAC0020A60F06A012101FA07F707435F
:101A7000F762326849EA0209C6F80090FFF732FBC4
:101A80000446306810EA0A0F0DD1FFF72BFB001B4C
:101A90003328F6D36FE7B06A03FA02F220EA0202B3
:101AA00042F00302B2620020BDE8F28F3D498A6A2B
:101AB0000B6BC2F30510002800D1704730B5CC6A1B
:101AC000E50703D54C6B00F049F801E09FED310AC2
:101AD00012E0000033498A6A8B6BC2F3053000289C
:101AE00000D1704730B5CC6A250503D5CC6B00F02A
:101AF00035F801E09FED270A12F0030203D0022A15
:101B00000CD00ED310E00A6894060DD509682E4D4E
:101B1000C1F3C101CD4000EE905A07E0DFED1F0A8E
:101B200004E0DFED1F0A01E0DFED1A0A01EE100A02
:101B3000C3F30803F8EE600A5B1CB8EE411AC0EE6E
:101B4000810A01EE103AB8EE411A31EE000A20EE99
:101B5000800ABCEEC00A10EE100A30BDC4F3CC04FB
:101B600000EE104ABBEEE90A704700000D498A6A90
:101B70000B6CC2F30550002800D1704730B5CC6A19
:101B8000650203D54C6CFFF7E9FF01E09FED010A08
:101B9000B2E70000000000000048025800366E0165
:101BA00000093D00004402581C44025820440258D9
:101BB00030440258C044025838440258C4440258C1
:101BC00040440258C84402580090D00300127A00E2
:101BD00080841E00344402580102030406070809E9
:101BE00070B504460D4E30780025A0B14FF47A71DF
:101BF0000B4AB1FBF0F11068B0FBF1F000F04AF8CD
:101C000048B9102C07D2002221464FF0FF3000F0D7
:101C100023F8B46000E00125284670BD00000024D0
:101C20000C0000240901020002D449488154704785
:101C3000484B02F00F021A4402F8041C7047464B4E
:101C40004FF6FF021968000200F4E06011400843FB
:101C5000424908431860704770B53F4B1C68C4F395
:101C600002230124C3F10705052D2EBF0F2504FA19
:101C700005F56D1E1E1D072E34BF0023DB1E2940F7
:101C8000994004FA03F35B1E1A401143BDE870400B
:101C9000C8E70000401EB0F1807F10B501D30120DD
:101CA00010BD2F4C0F2160604FF0FF30FFF7BAFFDF
:101CB00000220721A2600020216010BDBFF35F8FCA
:101CC000284940F001000867086840F48030086047
:101CD00008E0BFF35F8F23480022016821F48031C0
:101CE00001600267BFF34F8FBFF36F8F70471E49CC
:101CF00008608868400840008860704710B54278E6
:101D000019490A608B685B085B008B608A6852081F
:101D100052008A6043684B60C37A027B447B1B0697
:101D200043EA0273827A43EAC243827B43EA8443F2
:101D3000C47B43EA4243427A43EA0443047A00788C
:101D400043EA022343EA440303438B6010BD0000CF
:101D500000E400E018ED00E00CED00E00000FA0502
:101D600010E000E024ED00E098ED00E0F8B5044656
:101D70000D46002600272F6008232A46002104F183
:101D8000080000F081FF60B92968204600F022FEBB
:101D900040B1052807D1761C0420F1B20229EAD30C
:101DA000F2BD0320F2BD0420F2BD2DE9F0478046CC
:101DB00089460426002408F158050FF2540A1AF83F
:101DC000143008F16402002108F108002B73002789
:101DD00000F070FE0AEB4403597869702F70494691
:101DE0004046FFF7C3FF00B900261AF81400042884
:101DF00005DB7F1CF9B2022901D2042EEED0641C4F
:101E0000082C01D2042EDAD03046BDE8F08700005D
:101E1000000804020408040609080914090A091044
:101E20002DE9F84F0646DFF8D08B4FF0000B06F196
:101E30009404C4F800B078214046082501F048F920
:101E400000274FF00C0A12E00AFB07F9294630463A
:101E500008EB090200F0AFFB5FEA000B47D12068F6
:101E600058F809107F1C0835FFB208432060207A1B
:101E7000401C8742E8D30096DFF8805BDFF8809B48
:101E8000002608E03868082803D1286CC0F3052034
:101E90006060761CF6B20AFB06F008EB00073868B3
:101EA00028B3002208283B7A0BD040280CD0802889
:101EB00010D0B0F5007F0AD0B0F5805F08BF4A4669
:101EC0000AE02B602A1D07E009F1380204E0DFF880
:101ED000342B01E009F12002002AD3D00098796860
:101EE0009B00083000F0D0FE0028CBD0D3465846E7
:101EF000BDE8F28F2DE9F041804608270025DFF884
:101F0000F86A01E008376D1C98F89C10E8B2491C8B
:101F1000884231D232463946404600F04CFB04003C
:101F20002AD130680828EDD1337A7168DFF8CC7A8D
:101F300008F108003A1D9B0000F0A6FEE0B9396CDC
:101F4000C1F30520D8B1C1F30020B8B9090A880748
:101F500014D44A0712D4080710D4CA060AD500239D
:101F60000022662100F0B6FC00230022992100F037
:101F7000B1FC04E0880601D40C2400E00F242046C4
:101F8000BDE8F0812DE9F34F824685B00AF178066D
:101F90004FF00008307FC346010758BF4FF00708D5
:101FA00040F1A482DFF8547AB868002804D4401CB9
:101FB000B0FA80F0C0F11F00C01E0AF15804A071F1
:101FC000431E8DF8103004AA042100F0B4FAF86A18
:101FD000012302210FF64C22C0F303108340A360BB
:101FE0006177386AE077396A090A3170386A000C1B
:101FF0007070396A090EB170786AF070796A090AEE
:102000003171786A000C7071796A090EB171E07FE4
:1020100050B1B86AC0F30411491C00F00F03C0F3BB
:10202000412000F076FAB360707850B1B86AC0F31E
:10203000C421491C00F00F03C0F3014000F069FA0D
:10204000F360F07850B1B86AC0F38441491C00F0E5
:102050000F03C0F3C15000F05CFA3361707958B1DE
:10206000B86AC0F344635B1C00F00F01800F32F8C4
:102070001000594341437161F86A97F82810C0F382
:102080000462521CC0F3417001F00F0151430FF67E
:102090009C1252F820004143B161052161762175FF
:1020A0007868C0F3001000280CBF5020062020766E
:1020B000386C10F0030F24D141071FD55020207633
:1020C000F169DFF840998A0540F19A80D9F810202B
:1020D000FF21D00F1BD0120A227500F01FFA920FB9
:1020E00002F00102A27500F019FAC2F30070002894
:1020F0001ABFD20E02F00102FF2207E010F0180F03
:1021000001D00620DBE74FF00A08EFE1E275D9F8CD
:102110001420D00F16D0120A627600F0F4F9D9F824
:102120001420920F02F00102E27600F0ECF9D9F8E7
:102130001000C0F3007020B1D9F81410C90E01F0DE
:1021400001012177032003AAA0770121CDF80C809B
:1021500000F0F1F9307F010744D52079022841DCF5
:1021600084F80C80F8B13969C1F3072048B101F057
:102170001F02C1F342108218090A03920120A177BD
:1021800020733969080E08D0C1F30442C1F34251EB
:102190008A180392A07702202073397DC80702D5E0
:1021A000B96900F0A7F92079022811DB7869C0F33A
:1021B000001050B1F96900F09DF9042020735046D9
:1021C00000F0E6FB5FEA000831D103AA00F0B2F9A3
:1021D00000F0C2F9002840F0EF8003AA00F0AAF94D
:1021E000002874D1F069DFF81858C1045AD5227953
:1021F000032A57D1207B09281AD14FF0010B39E06F
:102200000121A17684F81B80B96BC1F3800020B155
:1022100084F8158084F8168094E78908880704D527
:102220007021072221756275F4E74FF009085DE11E
:10223000504600F045FAE8B960794FF0010BC82824
:102240000CBF08200920207300F086F900283ED139
:102250009AF89D00FD2804D1142103AA039100F0EF
:1022600069F99AF89D00FE2804D1082103AA039178
:1022700000F060F9307F01070BD53A68102A08D9C1
:10228000B86CC0F3417101296FD8400F00F0030012
:102290002070307F010605D5286AC0F3807008B130
:1022A000142161706421504600F05DF900280ED1C0
:1022B000307F410640F1A880BBF1000F69D1396C35
:1022C000C1F3006000282BD000F039F9002873D149
:1022D00000F03CF900286FD100F038F900286BD1EC
:1022E000207B98B995F83810C80744BF1322A2770D
:1022F000A86BC0F3801008B112216177A86BC0F3FE
:102300004000002845D00C2100F010F9207BA96B7B
:1023100001282DD1C1F3800000286AD03C2036E08E
:102320000A0E93071ED5217E002300220AF1080021
:1023300000F071FD00283FD14FF47A71E07E431E1A
:10234000A07E02919B41627900F0BCFA227F617EFF
:10235000DBB20AF1080000F0EBFD68BB00F0EFF81B
:1023600050BBB9E711F0C04FB6D14FF00F08BDE038
:10237000022805D1C1F3C00000283AD0BC2006E0F5
:10238000032806D1C1F34030002832D00E20A077B8
:102390002FE02179032904BF207B002813D1A96BEA
:1023A00001F09071B1F1907F23D107200AF164020E
:1023B000207300F0D3F810B14FF00C0896E0CC2059
:1023C0008E21A0776177207B082812D1A86BC0F3FB
:1023D000006008B102216177A86BC0F3405010B1D2
:1023E000CC2100F0A3F8A86BC0F3805008B1FD2108
:1023F000A177E86B3070E96B090AB170E86B000CEB
:102400003071E96B090EB171307F01066ED5207B0A
:10241000092818BF082869D100200090296AC1F353
:10242000072008B1090AA177686B10F01F0F03D0CD
:1024300000F01F0000F07CF8386D000F00F0AFF8DE
:1024400021690A46824288BF0246DAF8000010B1CC
:10245000904238BF02466B460AF1080000F0FEFACF
:1024600010B14FF00D0841E006980121DFF89825E2
:1024700001700098296B904207D3EA6AC2F3C41036
:1024800038B10390C2F3840119E0DFF8802590424F
:1024900005D3C80E07D00390C1F384510FE0DFF8D5
:1024A0007025904206D3C1F3444018B10390C1F3A4
:1024B000043104E0C1F3C410C1F3840103906079D6
:1024C000C82802D1102103910AE0F26993050BD5C7
:1024D000D9F82000C00F07D0504600F085F928B980
:1024E00003AA00F027F801E04FF00E08404607B0BD
:1024F000BDE8F08FC1F30442C1F342508218039249
:10250000090EA177704799F8170000F00700A07630
:1025100070474B4332F810104B43704799F8130043
:1025200000F007006075D9F8102070470820A177E7
:1025300003AA039001210AF1080000F0BBBA0023AE
:102540000022B7210AF1080000F065BC0022022138
:102550000AF1080000F0AEBA0AF1640200210AF1A3
:10256000080000F0A7BAFEB50A4600F15D05E97B58
:102570006FF0040489B12B7C029201272E78083079
:1025800001969F40FFB200976A7C02FA03F3AA7C8F
:10259000DBB200F0CDFC00B900242046FEBD0A28C5
:1025A00007D20FF29842DFF86C1432F8100048435B
:1025B0007047002070473EB515460024CDE9004421
:1025C00008236A46083000F05FFB002876D12C60B3
:1025D0009DF8030028729DF805209DF806109DF8CF
:1025E0000400120242EA014202436A609DF80700B9
:1025F00001000AD0802808D29DF80000C10754BF0E
:1026000002200120286020463EBD802856D39DF838
:102610000010CA075CBF04232B60FF28F3D19DF88C
:1026200000102868F1B1032927D0052929D00629EF
:1026300029D0092930D00A2931D00C2935D00F29C9
:1026400039D0812917D0842919D087291ED088290B
:102650001FD08B2926D08D292AD08E2908BF4FF470
:102660008030CFE7082028609DF80310172928BF85
:1026700017212972C6E71020C4E72020C2E74020B6
:10268000C0E78020BEE74FF48070BBE74FF40070D6
:10269000B8E74FF48060B5E74FF40060B2E74FF45D
:1026A0008050AFE74FF40050ACE74FF48040A9E70B
:1026B0004FF40040A6E74FF40030A3E70324A2E75D
:1026C0007CB50546CE4E30680024030E1BD08DF835
:1026D0000200010C8DF80010020A70688DF80120CC
:1026E0008DF806005B1E9BB2010E020C8DF80310E4
:1026F000010A8DF805109DF800108DF8042000F0F7
:102700004BF8002840D1B068000E0BD000F069F8FB
:1027100000281AD1B36800F045F8F06800F04BF8D3
:10272000002831D13069000E09D000F05AF860B9A4
:10273000336900F037F8706900F03DF820BBB069EC
:10274000000E23D000F04DF808B10C2422E0B3694C
:10275000180C8DF802308DF80000F069190A1B0E74
:102760008DF801105B1E010C020E8DF804109DF80F
:1027700000108DF80320060A8DF806009BB28DF834
:10278000056000F009F808B10B2403E005F108002A
:1027900000F07EFC204676BD0DF1010205F1080037
:1027A00000F039BB8DF80230190A8DF80110180CB1
:1027B0008DF8000070471B0E8DF806005B1E9BB263
:1027C000010C020E8DF80410010A8DF805109DF819
:1027D00000108DF803200DF1010205F1080000F052
:1027E0001ABB64212846BEE62DE9F84384B0804632
:1027F000002403A80E460480874D2968C80001D430
:1028000000295AD408F15D07C1F3C06020B1C1F3BB
:1028100007404FEA002906E03878C8280CBF4FF07F
:102820000109C1F307493878090403AB4A4601900E
:1028300002200090090E08F1080000F033FB002888
:102840003BD1F97C0023002200F044F8002834D169
:102850004FF47A71B87D431E787D02919B413A789E
:1028600000F030F8FA7D397DDBB208F1080000F0A5
:102870005FFB10BB2968E87877A39DF80C20C1F3B3
:102880004175C9B25B5D00F00700864083409A4302
:10289000164302238DF80C609DF80C20009303ABC7
:1028A0008DF80D204A4608F1080000F07CFA20B9A6
:1028B00064214046FFF757FE00B10C24204605B0C6
:1028C000BDE8F0830121DB0F81400192C9B2834052
:1028D0000091704708F1080000F09DBA474938B5EB
:1028E000CD6B04460F202D0D05F00705022D02D0FB
:1028F000042D1FD032BD94F8701000F065F8002848
:102900003ED1012300F03EF8002839D19DF80000A7
:1029100001236A46012140F040008DF8000004F1D7
:10292000080000F078FA00282AD164212046FFF739
:102930001AFE24E0022300F025F8002820D19DF89B
:1029400001000023002240F002008DF8010094F8FD
:10295000701000F03BF898B902236A46012104F197
:10296000080000F058FA58B964212046FFF7FBFD33
:1029700030B9FF2002238DF8010000F003F800B108
:102980000C2032BD6A46052104F1080000F05EBA51
:1029900038B504461948C16B0F25C1F3001028B1A2
:1029A0002046FFF79BFF0546382107E00909480745
:1029B00008D52046FFF792FF05463521280001D1B2
:1029C00000F002F8284632BD0023002204F108007E
:1029D00000F03CBA10B50424104A914204D0104AC9
:1029E000914207D1002405E00021083000F037FBB8
:1029F00000B90524204610BDBC00002404020024B8
:102A0000640200243401002400C2EB0B80F5E409C9
:102A1000406BED0740420F005401002446535044E0
:102A20005346445010000001A00F00FA10000000AF
:102A300000010000A00F000000FA000000002100CB
:102A400032004200500064008500A600C800FA0071
:102A50000A014D019001000003070F1F70B50546E4
:102A600000200AB9012070BDB1FBF2F424B1B1FB22
:102A7000F4F6B24228BF641E621CB1FBF2F1196089
:102A80002B681968CD682D0A44EA0524CC6070BD16
:102A900010B50446201D216005494C2200F030FB92
:102AA00004F15000002404708470002010BD000068
:102AB0005C4400082DE9F44F8AB000238DF8013002
:102AC0004468099483680893C46807940269436959
:102AD0008469C56904290695056AD0F824A0D0F850
:102AE0002880C66A0596D0F830B0466B0496866B8F
:102AF0000396D0F83CE0066C0296466C876CD0F8E2
:102B00004C900DD8DFE801F003836F8672000A99BC
:102B100009788DF8001080F852109DF800100B29EC
:102B200000F27880DFE801F00606060611111D2C80
:102B30003A4550550023012200244FF480754FF48C
:102B4000005A98464FF0807E24E0002303220024A0
:102B50004FF4407598464FF4005A4FF0407E0026DF
:102B60000CE00322002308244FF440754FF4005A70
:102B70004FF400684FF0407E4FF0006606270BE0F0
:102B80000023012200244FF480654FF4405A9846F8
:102B90004FF0806E0026082799463EE0042200236D
:102BA000002400F05FF84FF0806E4FF000660827B9
:102BB00016E004221023082400F054F84FF0806E31
:102BC0004FF0006614270BE000F053F84FF0806ED2
:102BD00003E000F04EF84FF0A06E4FF000660A27B9
:102BE0004FF0005919E04FF4405A16E001680968A7
:102BF00001918968DDF828C09CF800C021F4F81123
:102C000041EA0C41DDF804C0CCF8081005E00A994F
:102C10000F7802E001218DF80110099941600899AF
:102C200081600799C1600261436184610699C16155
:102C30000562C0F824A0C0F828800599C162C0F8D8
:102C400030B0049A426303998163C0F83CE0029A71
:102C5000026446648764C0F84C909DF801000BB094
:102C6000BDE8F08F4FF480654FF4405A4FF4006890
:102C700070470023042200244FF480654FF4405A2B
:102C80004FF400689B4670472DE9F84193B0044625
:102C900004F150050E4690461F4600F0B3F8287820
:102CA00004995A2200F0F8F90290079806960F97B7
:102CB0006A78B0F5807F119212BFB0F5407F4FF473
:102CC000005008901099B1F1006F07BF4FF000520B
:102CD00012920021129100F061F8060005D12068DF
:102CE0006422414600F039FB064630001CBF2068D4
:102CF00000F028FC30467EE078B593B004460D46DF
:102D0000164600F07FF894F8500004999F2200F0D6
:102D1000C3F9029003980F96012805D1002107916D
:102D200011914FF0807106E0032806D10021079130
:102D300011914FF040710E911EE0042818D100202F
:102D400006902878C22808D11099B1F1006F11D1EE
:102D500004220021119210910EE0C82804BF10989F
:102D6000B0F1006F06D1082100221191079203E013
:102D7000002206920821119100F010F8060002D1FD
:102D800000F083F8064630001CBF206800F0DAFB34
:102D9000304614B070BD049942467DE1206864223B
:102DA000694600F04ABA2DE9F84193B004468846D6
:102DB00017461D461A9E00F025F894F85000FFF7BC
:102DC000EAFF02900023069764220F96694611934A
:102DD0001293206800F031FA5FEA000804D1294616
:102DE000204600F066F980465FEA08001CBF2068B4
:102DF00000F0A8FB404614B0BDE8F08104460F4641
:102E000015461E466846211D4C2200F079B92068FF
:102E1000694600F012BAF0B593B0FFF7EFFF00F08B
:102E20002FF800F037F808BF0E92FFF7B7FF070042
:102E300006D156B120686422294600F054FA0746AC
:102E400038001CBF206800F07DFB16E0F0B593B0A1
:102E5000FFF7D4FF00F014F800F01CF808BF0E9242
:102E6000FFF79CFF070003D13EB100F00EF80746C4
:102E700038001CBF206800F065FB384613B0F0BD79
:102E800094F8500004993A4606E1206864222946E5
:102E900000F063BA002202900792310011920F965F
:102EA000129270472DE9F84793B0064606F1500795
:102EB0008A46904699461C9C1D9D684600F034F851
:102EC00038780499524600F0E7F80290C22DCDF808
:102ED00018807A780F94119206D11098B0F1006F93
:102EE0000BD1002110910AE0C82D04BF1098B0F159
:102EF000006F02D10021109100E000211291306892
:102F00006422FFF785FF040005D13068642249463A
:102F100000F023FA044620001CBF306800F012FBCA
:102F2000204614B0BDE8F087311D4C2200F0E8B80F
:102F30002DE9FC4198B00646884617461D46209C60
:102F400005A8FFF7F1FF68465CA1142200F0D8F84D
:102F500000950999019496F85000FFF71DFF07901E
:102F600008980121002214910128179204D14FF0F2
:102F700080710C92139116921398B0F1806F12D158
:102F80002198C22804BF1599B1F1006F04D14FF008
:102F900000520021179215914FF480624FF4405374
:102FA0000C920D930B973068642205A900F045F947
:102FB000040005D1229A3068694600F036FA0446CA
:102FC00020001CBF306800F0BDFA20461AB0BDE8F2
:102FD000F081F0B595B005460C4617461E4602A88E
:102FE000291DFFF7A2FF08220021684600F0DCFC43
:102FF00001200699029095F85000224600F04CF806
:10300000049064221397286802A900F016F90400BE
:103010001AD102200699029095F850001A9C324667
:1030200000F03AF8049064221394286802A900F092
:1030300004F9040008D1502200210192009128686F
:10304000694600F044FA044620001CBF286800F0DE
:1030500079FA204615B0F0BDBFF34F8F19E0024654
:103060000020126813689A6802F0E06271B912B920
:103070004FF0807204E0B2F1807F0CBF002201208B
:10308000996821F0E0610A439A6070470120704717
:1030900000BF006800F056BA1029134607D1012876
:1030A00003BFD243D2B242EA032243EA03221046CC
:1030B00070470068642200F016B9000000000000AC
:1030C00000000000000000000000400010000000B0
:1030D000002200F073BC0EE002684368024408302E
:1030E0005FEAC37C44BF4B445B1E52F804CB43F8F9
:1030F00004CB091FF9D150F8041B0029ECD170470B
:103100004AB1000011F8013B521E00F8013B1CBF00
:1031100011F8013BF8E770477CB504460025FDF740
:10312000E1FF06460CB9012585E00021A165606D2F
:103130000028F9D1204600F091FC41F28832DFF8F6
:10314000F413E26522689368E06825690B406169C1
:103150000343E06943EA0543491E43EA012303436D
:1031600093602168CA68206A22F4E0220243CA60A0
:1031700020680169226B21F4F81141EA02410161E2
:1031800021680B69606B1B0A40EA03230B6122680C
:10319000A16B5161206800220368616823F4F85331
:1031A000491E43EA012320210360E06D009033466D
:1031B00000F08DF805003ED12168CA68606A120AE5
:1031C00040EA0222CA602068DFF86C1388421CBF04
:1031D000DFF86823904206D1E06D3346009000F09E
:1031E00074F8050027D12368DFF854231E68A1680E
:1031F000E06B16400E4306431E602168D1F808219B
:10320000A06A22F080420243C1F8082120680168C8
:1032100041F001010160A069022804D120688168A1
:1032200041F002018160E068B0F1806F07BF0121C9
:10323000616502206065284676BDF8B500F04AF861
:103240000746606D022806D1E068B0F1806F10D1AA
:1032500000F045F8F2BD142803D12868022805D1F2
:1032600007E02428F4D12968012902D0286803281E
:10327000EED100F028F820BBA0652946204600F0DA
:1032800091FA0100E6D1A96B29B900F01CF8226877
:1032900002215162F2BD296811B904216165F2BDB4
:1032A000012907D1616D242902D104226265F2BD92
:1032B0001421F3E70229CDD1616D1429F5D0242121
:1032C000ECE70220F2BD00963B460022202120467A
:1032D00000F044BA04460D461646FDF703BF102120
:1032E0000120A16570472DE9FC4105460C461646B4
:1032F000FDF7F8FE8046286800F1500714B9012058
:10330000082127E06A6D042A22D1006C401CA864C1
:10331000A96C69642C642868026822F04052014656
:103320000A60009643460122042100F07BF8010068
:1033300011D1286C0178397000F069F8F1D100964C
:10334000434600F06DF8010005D100F05AF802E0A4
:1033500001201021A965BDE8F681F8B505460F46A4
:103360001646FDF7BFFE2B680446996CD3F8102172
:1033700003F1500017B90120082140E0D5F854C0EE
:10338000BCF1040F39D11B6C5B1CAB64D5F848C091
:10339000C5F844C001232F642F68D7F800C063F339
:1033A0001D7CBE46CEF800C0EB68B3F1806F19D12A
:1033B0002A6891640746009623460122062100F000
:1033C00031F801001CD13878296C087000F01FF822
:1033D000F1D10096234600F023F8010010D100F04F
:1033E00010F8F2BD2B6803F58077D7F800C01CF405
:1033F000E06F0CBF3A619964DCE701201021A965F8
:10340000F2BD2A680221022351626B6570472A6C63
:10341000531C2B64A96C491EA964A86C0028704732
:1034200001220221284600F099B92DE9F84304460B
:103430000F461546FDF756FE80462068866CD0F88C
:103440001091606D042804BFF968B1F5800F3AD17E
:1034500000954346FFF739FF98BB21683868C1F8EB
:10346000880023687A68C3F8802021683869C1F829
:10347000900022681368B968F86823F043530B433F
:10348000034343F000531360E2682068B2F1806F99
:1034900005D000F580710A6812F4E06F01D08664EF
:1034A00001E0C1F810900095434601220821FFF782
:1034B0000EFF010009D122680821022351626365D1
:1034C00003E0022001E0FFF70AFFBDE8F2837CB5CC
:1034D00005460C46FDF706FE0346686D042823D119
:1034E000E96D002200912021FFF79CFF01001ED111
:1034F000882169652268082A0BD12B68616810222F
:10350000C3F830112E68726229680B6843F4801387
:103510000B602B68DFF870241D68216815400D438F
:1035200045F040551D6076BD10230120AB6576BD8A
:1035300000000000FCC0E0F80050005200A0005263
:10354000BFFFFFFE7CB504460026FDF7CBFD054618
:10355000606D00283FD0206801684A0710D50368D5
:1035600023F004030360E06C00F0C2FA08B1042009
:10357000A065206D00F0BCFA06001CBF0420A06509
:1035800021680A6A90061DD50B680A46022143F09D
:1035900002031360E06D00902B460122FFF797FEB7
:1035A00006001BD1216802202B464862E26D009282
:1035B000FFF78BFE060011D1206800F011F8022001
:1035C00060650BE00A4610461168022321F0405165
:1035D0000160636502E010210126A165304676BDD9
:1035E000016821F04051016070472DE9F04186B03B
:1035F00005460E4618220021684600F0D5F9002441
:1036000000270C23DFF884131022086810F0020052
:10361000844618BF4FF0010CCDF804C00868C006FE
:1036200013D5D1F800C05FEA8C6052BF00927020C1
:1036300000901CE04FF0010E0DF1040848F800E086
:10364000D1F800C05FEACC6E06D45FFA87F813FBAE
:1036500008F84DF808400AE0D1F800C05FEA4C6E67
:1036600046BF4FF070084DF800804DF800207F1CD9
:10367000F8B2012811D80028C7D0D1F800C0D1F87D
:1036800000E058430CF0010CCEF3400EF445D1D0CD
:103690000DF1040E4EF80040D2E7DFF8F43218685E
:1036A000C70704D51C68640864001C600124DFF8A7
:1036B000E4723868C00709D5D7F800E044F0020486
:1036C0004FEA5E004FEA400EC7F800E000200860B5
:1036D000D1F800C0B2682CF47F00521E40EA024CC0
:1036E000C1F800C02868984226D1706801903068FF
:1036F00020B10D6825F03005284308600198049A30
:10370000904203D10D6845F001050D60012803D1F9
:10371000086840F002000860E10703D5186840F02F
:1037200001001860A10703D5386840F00100386037
:10373000002006B0BDE8F081B84208D1706804905E
:1037400030680028DAD00D6825F05005D4E7A86D60
:1037500040F00800A8650120EBE700002DE9F041EA
:1037600005460E4690461F46069C2868016A16EAE2
:10377000010018BF0120404511D014F1010FF4D011
:10378000FDF7B0FCC01B844201D3002CEDD1022018
:103790006865A96D032041F00101A96500E00020E2
:1037A000BDE8F0812DE9F04F04460D462068002267
:1037B000FFF716FFA06830B921680B68686823F02E
:1037C000404303430B6029682068022908D100F5B3
:1037D000C07700F5C47800F5C87C00F5D07112E020
:1037E000032908D100F5A07700F5A47800F5A87C9E
:1037F00000F5B07107E000F5807700F5847800F5FA
:10380000887C00F59071AB6C3B60E86A68B1D5F8D4
:1038100028E0C1F800E03E68EB6A696B286B26F48B
:103820007C161E430E4306433E60D8F800E06B6CE6
:103830004FEA5E1043EA401EC8F800E0A96BF1B100
:10384000286828B9E96B2368491E1964A86BB0B1D0
:10385000296CB1F1006F07D12068D0F8083123F04E
:103860008043C0F808310AE0A06AB0F1804F06D169
:103870002068D0F8081141F08041C0F80811EB68C9
:10388000E969002B4FD0D5F810E06E69A86B71B3D1
:10389000D5F82090D5F824A098B1D7F800B0DFF87B
:1038A000F88008EA0B0B43EA0B0333434EEA0303A9
:1038B00019434AEA01012B6C49EA0101014319430A
:1038C0000DE0D7F80080354800EA08000343334391
:1038D0004EEA030319434AEA010149EA010139604A
:1038E000A968CCF800102068AB69836440E060B13F
:1038F000D7F800802A4901EA08010B4333434EEA16
:1039000003030343286C034308E0D7F8009043EA1D
:103910000E0333434FEA991043EA80133B60A868D3
:10392000CCF8000024E001B3A86BD5F82080D5F8CE
:1039300024C068B1D7F800E01A4B03EA0E0319431C
:103940004CEA010148EA01010143286C014307E008
:103950003E6826F47C5631434CEA010148EA0101F5
:1039600039602168A869886402E008230122A36500
:10397000A96B29B1286818B9E96B2068491E016450
:103980001046BDE8F08F0000F7FFFFCF00B40052F3
:103990000050005200A00052C0C0FFF0C0C0FFFFA6
:1039A000C0FFFFF0FFC0FFF010B5044610460A4606
:1039B0000146204600F0E2F8204610BD00B500BFE9
:1039C000130096469446103928BFA0E80C50FAD848
:1039D0005FEA417C28BF0CC048BF40F8042BC907F0
:1039E00028BF20F8022B48BF00F8012B00BD0000C3
:1039F00080B5A8B09C22002101A8FFF7D5FF0220C6
:103A000000F0F0F808B100F076FA3548016841F0AE
:103A10000201016000680090009A00F033F9102163
:103A20008023019101A80993FDF762FB08B100F022
:103A300062FA002300220021102000F075FA102005
:103A400000F06BFA4FF4806000F068FA0128F9D1B9
:103A50004FF4802000F08AFA29B000BD18B5A7B055
:103A600004461422002101A8FFF79EFF84220021B2
:103A700006A8FFF799FF21681A4A91422ED1042324
:103A80004024069306A80994FCF712FC08B100F044
:103A900032FA1548016841F48041016002680092E1
:103AA000009B016841F48051016002680092009B14
:103AB000C16840F67F7341F40051C160C268009252
:103AC00002220099029203220193002104920391A1
:103AD0000921059101A9054800F050FA28B010BD50
:103AE0005445025800A00052344502580034025890
:103AF00070B50446FDF7F6FA06462CB304F14C0502
:103B0000287A022802D02021E9601BE02068416960
:103B100041F00401416105202872206801698A048E
:103B200014D4FDF7DFFA801B0628F6D3E8680321DA
:103B300040F01000E86029722879020602D5A86AD0
:103B40000121017300222A70012070BD41694FF4E8
:103B5000FE42012341F002014161042028722168E4
:103B6000CA602B722879010605D5A86A01220021B6
:103B70000273236899640020287070BD62F30F22DD
:103B800062F31F42401810F0030308D0C91A1FD374
:103B9000DB0748BF00F8012D28BF20F8022D1300D5
:103BA00030B414461546103928BF20E93C00FAD835
:103BB000490728BF20E90C0048BF40F8042D8900C0
:103BC00028BF20F8022D48BF00F8012D30BC7047F7
:103BD000C91818BF00F8012DCB0728BF00F8012D28
:103BE00070470000F8B50446DFF8A450A86800F05C
:103BF0000700062805D0A96801F01F01A14224D0C2
:103C000021E0A86840F2E936400944EA4010A86083
:103C1000FDF768FA07462868810705D4FDF762FAC0
:103C2000C01BB042F7D30EE01E2C18BF1D2C0CD1C8
:103C3000FDF758FA0446A868C10306D4FDF752FA06
:103C4000001BB042F7D30120F2BD0020F2BD38B511
:103C5000DFF844402168490840EA410000F00FF8CD
:103C600005462068810708D4FDF73CFA401B40F266
:103C7000E9329042F5D3012032BD002032BD2060F0
:103C8000FDF730BA0348016841F400410160704714
:103C9000044802580C4802581448025838B584B0F9
:103CA000102200216846FFF77FFEFEF712F800247D
:103CB000E0B2641CFEF71BF8E0B21028F8D3012133
:103CC00000228DF800101F218DF8012000238DF8AF
:103CD00008108722012101938DF809206846ADF86C
:103CE0000A308DF80C108DF80D30ADF80E30FEF75F
:103CF00005F801214FF0E0428DF801101A218DF8EE
:103D000008100121019200228DF80A1000218DF87F
:103D100009200322ADF80C1001218DF80B20684614
:103D20008DF80E108DF80F10FDF7E8FF0420FDF759
:103D3000C5FF3C4A3C49106883030AD400F07DF873
:103D400000240C6000F079F8106840F4003000F0B6
:103D500073F81368DC031ED400201067BFF34F8F85
:103D6000D36EC3F34E34C3F3C90543F6E07000EAE3
:103D7000441040EA857008612846451E0028F4D1A9
:103D80002046441E0028EED1BFF34F8F106840F448
:103D9000803000F051F800F0B1F800F053F82348FB
:103DA000234C016841F40051016000680090009AC2
:103DB000002168460C22FFF7F7FD1E480421206011
:103DC0001F200022206161600020A2604FF08073FC
:103DD000A2610221E06103222062A062206360638D
:103DE000A063E0632046E36061616262FFF794F9DB
:103DF00008B100F080F8102101220091694601927B
:103E00002046029241F28832FFF7EFFB08B100F042
:103E100072F800F075F900F08FF908B100F06BF856
:103E2000FEE7000014ED00E050EF00E040450258CE
:103E3000A401002400A000521060BFF34F8FBFF315
:103E40006F8F704700B5AFB09C22002108A8FFF724
:103E5000ABFD202200216846FFF7A6FD0120FFF7F9
:103E6000F6FE08B100F047F8012202210B9202226F
:103E700008914021119220220D914FF496711392D6
:103E80000122149102211592042216910023179108
:103E900008A8189119911B9119211D9202220C93C7
:103EA00012931A931C931E911F9220922192229298
:103EB000239224932593FDF71BF908B172B6FEE710
:103EC0003F21032200910821039140210192042205
:103ED00005914FF48041049200234FF480620791D2
:103EE0000293372106926846FDF704FB08B172B6CB
:103EF000FEE72FB000BD72B6FEE70000032010B54C
:103F0000FDF79DFE0F200024FDF76AFE002814BF78
:103F10000124FFF76DFD204610BD28E016490A6810
:103F2000104018BF012070470129F0B5124C11D183
:103F3000012808BF002503D004280CBF0825102540
:103F4000A668FF27AF40AA402D1DAB40BE433243B9
:103F50001A43A260226822EA400290FAA0F0B0FA66
:103F600080F0401C814011432160F0BD00BF024938
:103F70000A68104308607047100500582DE9F04F9B
:103F800000275C4A4FF0B0434FF00F0805460E463D
:103F9000A9E0012000FA07FE1EEA01005FD07900C7
:103FA00003248C406FEA040C746804F00309B9F12F
:103FB000010F1CBF04F00304022C14D1AC68D6F826
:103FC0000C900CEA040409FA01F949EA0404AC6013
:103FD0006C6824EA0E0E7468C4F30014BC4044EA12
:103FE0000E0EC5F804E03479D6F808E004F00304B6
:103FF000032C08BFBEF1010F08D0EC680EFA01FED9
:104000000CEA04044EEA040EC5F80CE034794FEAD9
:10401000870E04F00304022C13D14FEAD70905EBF5
:1040200089040EF01C0908FA09FBD4F820A02AEA3A
:104030000B0AD6F810B00BFA09F949EA0A09C4F8D4
:1040400020902C680CEA040C347904F0030404FA80
:1040500001F141EA0C012960716811F4403F41D03F
:10406000B908DFF894C0DFF894905CF821C009EA41
:1040700095290EF00C0E08FA0EF42CEA040409FA45
:104080000EFE4EEA040CDFF870E04EF821C0D3F8C3
:1040900000C07468C14301EA0C0CE40248BF40EA66
:1040A0000C0CC3F800C0D3F804C0746801EA0C0C0F
:1040B000A40248BF40EA0C0CC3F804C0D2F804C004
:1040C000746801EA0C0CA40348BF40EA0C0CC2F867
:1040D00004C0D2F800C0746801EA0C01E40348BFD0
:1040E000014311607F1C316831FA07F07FF451AF52
:1040F000BDE8F08F80000058300500587FFF290090
:1041000010B501200A4CFCF7B5FFAC212046FEF7A4
:10411000DFFF002007492070032261600420227223
:10412000FCF7A6FC01460020BDE8104000F08AB86C
:1041300010000024A401002480B500F006F801005E
:1041400002D1BDE801400EE002BD10B50021002003
:10415000002400F091F820B1B0F1FF3F0CBF04241F
:104160000324204610BD38B584B06946002000F015
:104170009CF808B1042056E000F0C2F82B492C4A04
:10418000C868830309D500F057F8CC68002024F4F0
:104190000034CC60106000F04FF8CB68DC032FD502
:1041A0000020C867BFF34F8FCB6823F48033CB6008
:1041B000BFF34F8F02A803AB106201AC136214620D
:1041C00000F03AF8886F0190C0F34E3002900198E9
:1041D000C0F3C9000390029843F6E073039C03EA1E
:1041E000401343EA847353620398431E00280393E9
:1041F000F1D10298431E00280293E8D100F01CF888
:10420000EFF3108072B6009A0A60009B094953F8D8
:10421000044F009A0C60156885F3088880F31088B5
:1042200020468047002005B030BD000008ED00E0CA
:1042300050EF00E0A4020024BFF34F8FBFF36F8F55
:104240007047000038B50A466FF0040478B9294D6C
:104250000024287848B9297A686805F10C0300F031
:1042600057F820B16FF0020401E06FF0010420461E
:1042700032BD20480024704710B56FF0040490B997
:10428000FFF7F7FF027862B921B90C3000F0B2F8FD
:1042900020B908E00C3000F0BEF820B16FF0020049
:1042A00010BD6FF00104204610BD02006FF0040045
:1042B00000D0704730B50F4A00201378002B18BF8C
:1042C000022B12D152680C4C1268A24203D14FF05B
:1042D00010430B6030BD094DAA4203D14FF0E042BC
:1042E0000A6030BD6FF0020030BD6FF0010030BDDC
:1042F00000000000100000240050005200A00052F6
:104300000248016821F002010160704710E000E0FE
:104310002DE9F84386B0894680461D46002614469E
:104320008DF80060982105F1080005F1590700F0AB
:104330007DF887F803900820FE724146AC6638701D
:1043400005F10800FEF7A4FB01ABDFF8A42000F0A4
:104350004AF805F10800FEF77FFE02A92846FDF79E
:1043600024FD10BB2846FDF7C5FD0A2000F062F8C9
:1043700002A92846FDF719FDB8B99DF80E000A28D4
:1043800028BF092005F19C01042208709DF80F0048
:10439000487004A905F10800FEF7AEFC9DF8100076
:1043A00038712846FDF73CFD10B14FF0FF3616E09E
:1043B00069462846FDF7E6FD10B16FF002060EE0F3
:1043C0009DF8000020B92A6812B101AB00F00BF88B
:1043D00002A92846FDF7CAFC08B16FF00D06304669
:1043E00007B0BDE8F083214605F10800FEF736BBB3
:1043F00080F0FA021CB5002400F1750100940B78DE
:10440000026D49780830D2B2FEF7E3FD08B16FF0D3
:104410000C04204616BD10B508300024FEF71CFE23
:1044200008B16FF00C04204610BD00000022FFF719
:10443000A9BB000038B50446FCF754FE14F1010F87
:10444000054602D0044801786418FCF74BFE401B77
:10445000A042FAD331BD00BF0000002400000000DC
:10446000000000005A0000000100000000000000F1
:10447000000000000000000000010000002000001B
:10448000000000000000000000000000000000002C
:10449000000000000000000100000000000000001B
:1044A000080000000000000030B4002512E050F8C1
:1044B000042BD30744BF4A44521E091F042942F863
:1044C000045BFAD213468C0744BF15809B1CC907B6
:1044D00048BF1D7050F8041B0029E8D130BC70475C
:1044E00010B5074979441831064C7C44163404E071
:1044F0000A68081D114488470146A142F8D110BD41
:104500002C0000004C0000004EF68851CEF2000155
:10451000086840F470000860BFF34F8FBFF36F8FDF
:104520004FF00170E1EE100A704700007DFFFFFFC1
:104530009802000010000024000000009BEBFFFF29
:1045400010000000C4000000000000240000000073
:104550000448054908600548026842F47002026098
:10456000704700000000000808ED00E088ED00E062
:1045700000F00DF8002801D0FFF7B2FFAFF3008084
:104580000020AFF30080FFF789FB00F002F8012064
:10459000704700F001B800000746384600F002F806
:1045A000FBE7000080B5AFF30080024A110018203D
:1045B000ABBEFBE7260002000548014603B468468F
:1045C00080F30988AFF30080FFF79EFFFFF7D0FF6D
:1045D000A5EDF5FEFEE7FEE7FEE7FEE7FEE7704726
:1045E0007047704700F000B80248416802788A18A6
:1045F000426070470000002401488047014800479E
:1046000051450008B9450008010000000000000005
:10461000100000000090D003FFF7FEBFFFF7FEBFC1
:10462000FFF7FEBFFFF7FEBFFFF7FEBFFFF7FEBFBE
:10463000FFF7FEBFFFF7FEBFFFF7FEBFFFF7FEBFAE
:10464000FFF7FEBFFFF7FEBFFFF7FEBFFFF7FEBF9E
:10465000FFF7FEBFFFF7FEBFFFF7FEBFFFF7FEBF8E
:10466000FFF7FEBFFFF7FEBFFFF7FEBFFFF7FEBF7E
:10467000FFF7FEBFFFF7FEBFFFF7FEBFFFF7FEBF6E
:10468000FFF7FEBFFFF7FEBFFFF7FEBFFFF7FEBF5E
:10469000FFF7FEBFFFF7FEBFFFF7FEBFFFF7FEBF4E
:1046A000FFF7FEBFFFF7FEBFFFF7FEBFFFF7FEBF3E
:1046B000FFF7FEBFFFF7FEBFFFF7FEBFFFF7FEBF2E
:1046C000FFF7FEBFFFF7FEBFFFF7FEBFFFF7FEBF1E
:1046D000FFF7FEBFFFF7FEBFFFF7FEBFFFF7FEBF0E
:1046E000FFF7FEBFFFF7FEBFFFF7FEBFFFF7FEBFFE
:1046F000FFF7FEBFFFF7FEBFFFF7FEBFFFF7FEBFEE
:10470000FFF7FEBFFFF7FEBFFFF7FEBFFFF7FEBFDD
:10471000FFF7FEBFFFF7FEBFFFF7FEBFFFF7FEBFCD
:10472000FFF7FCBFFFF7FEBFFFF7FEBFFFF7FEBFBF
:10473000FFF7FEBFFFF7FEBFFFF7FEBFFFF7FEBFAD
:10474000FFF7FEBFFFF7FEBFFFF7FEBFFFF7FEBF9D
:10475000FFF7FEBFFFF7FEBFFFF7FEBFFFF7FEBF8D
:10476000FFF7FEBFFFF7FEBFFFF7FEBFFFF7FEBF7D
:10477000FFF7FEBFFFF7FEBFFFF7FEBFFFF7FEBF6D
:10478000FFF7FEBFFFF7FEBFFFF7FEBFFFF7FEBF5D
:10479000FFF7FEBFFFF7FEBFFFF7FEBFFFF7FEBF4D
:1047A000FFF7FEBFFFF7FEBFFFF7FEBFFFF7FEBF3D
:1047B000FFF7FEBFFFF7FEBFFFF7FEBFFFF7FEBF2D
:1047C000FFF7FEBFFFF7FEBFFFF7FEBFFFF7FEBF1D
:1047D000FFF7FEBFFFF7FEBFFFF7FEBFFFF7FEBF0D
:1047E000FFF7FEBFFFF7FEBFFFF7FEBFFFF7FEBFFD
:1047F000FFF7FEBFFFF7FEBFFFF7FEBFFFF7FEBFED
:10480000FFF7FEBFFFF7FEBFFFF7FEBFFFF7FEBFDC
:10481000FFF7FEBFFFF7FEBFFFF7FEBFFFF7FEBFCC
:10482000FFF7FEBFFFF7FEBFFFF7FEBFFFF7FEBFBC
:10483000FFF7FEBFFFF7FEBFFFF7FEBFFFF7FEBFAC
:10484000FFF7FEBFFFF7FEBFFFF7FEBFFFF7FEBF9C
:04000005080045B9F1
:00000001FF
